:020000040800F2
:10000000404D002075020008F92F0008692F0008F4
:10001000F52F00087B1900084D440008000000007F
:10002000000000000000000000000000FD2F00089C
:100030007F19000800000000FB2F0008FF2F0008B8
:100040008F0200088F0200088F0200088F0200084C
:100050008F0200088F0200088F0200088F0200083C
:100060008F0200088F0200088F0200088F0200082C
:100070008F0200088F0200088F0200088F0200081C
:100080008F0200088F0200088F0200088F0200080C
:10009000B54300088F0200088F0200088F02000895
:1000A0008F0200088F0200088F0200088F020008EC
:1000B0008F0200088F0200088F0200088F020008DC
:1000C0008F0200088F0200088F0200088F020008CC
:1000D0008F0200088F0200088F0200088F020008BC
:1000E0008F0200088F0200088F02000800F002F85B
:1000F00000F0B0F80AA090E8000C82448344AAF112
:100100000107DA4501D100F0A5F8AFF2090EBAE80F
:100110000F0013F0010F18BFFB1A43F0010318473B
:10012000946E0000B46E00000A444FF0000C10F80A
:10013000013B13F0070408BF10F8014B1D1108BF65
:1001400010F8015B641E05D010F8016B641E01F805
:10015000016BF9D113F0080F1EBF10F8014BAD1C55
:100160000C1B09D16D1E58BF01F801CBFAD505E073
:1001700014F8016B01F8016B6D1EF9D59142D6D3CD
:10018000704700000023002400250026103A28BFF5
:1001900078C1FBD8520728BF30C148BF0B607047F9
:1001A0006E2900F0F783702900F00982662905F0B6
:1001B0008085652905F07D85672905F07A856129A7
:1001C000AFF3008003681B0A28BF41F08001692952
:1001D00000F0E480642900F0E180752900F0DE8001
:1001E0006F2900F09681782900F0D581E92900F087
:1001F0003F86E42900F03C86F52900F03986EF2996
:1002000000F09381F82900F0D4810368DB0928BF4E
:1002100041F08001632900F00886732900F00D8603
:10022000E32900F01886F32900F01D8600207047AE
:100230001FB500F0A5FE04000020002105F0DEFC43
:10024000401C60600020002105F0C2FCE0601FBD82
:1002500010B510BD00F094FF1146FFF7E9FF05F05F
:10026000AEFC00F0B2FF03B4FFF7F2FF03BC00F0F6
:10027000B5FF00000948804709480047FEE7FEE750
:10028000FEE7FEE7FEE7FEE7FEE7FEE7FEE7FEE746
:1002900004480549054A064B70470000093000082C
:1002A000ED000008403D0020404D0020404500206A
:1002B000404500201CB50C46064B7B446946009027
:1002C000204600F090FD04460020694600F09EFDA7
:1002D00020461CBD4F0B000070B5044685690068C0
:1002E000C10601D5302600E02026C00707D070BD2A
:1002F000D4E9012130469047206A401C20626D1EDF
:10030000F6D570BD70B5044685690078C00707D181
:1003100070BDD4E9012120209047206A401C206252
:100320006D1EF6D570BD09684A0501D540B270470B
:10033000C905FCD500B2704709684A0501D5C0B2AD
:100340007047C905FCD580B2704770B50C460546AC
:10035000012A05D02878800600D5EA69002302E04A
:10036000012305E05B1C934202D2E05C0028F9D136
:10037000A869E618C01AA861286A184428622846A5
:10038000FFF7AAFF04E0D5E9012114F8010B90471B
:10039000B442F8D32846FFF7B5FF70BD2DE9F04110
:1003A0000646002410687529314616A510D0FFF7BF
:1003B000BAFF002802DA404213A507E031688A0735
:1003C00001D512A502E0490704D511A5012401E0D9
:1003D000FFF7B2FF00210A2206F1240709E0B0FB73
:1003E000F2FCB0FBF2F302FB1C00303078541846EC
:1003F000491C0028F3D123462A463046BDE8F04187
:1004000000F06FBA000000002D0000002B0000007B
:10041000200000002DE9FF5F15468A460446DFF8FC
:10042000AC80F8440027D8E900103E46CDE9001022
:1004300010E03AF816106A4602A800F057FD411C79
:1004400007D02178890603D5E269391891420DD881
:100450000744761C2078800602D5E069B84205DDA5
:10046000AE42E6DB3AF816000028E2D1A069C01BD4
:10047000A0612046FFF730FFD8E90010CDE9001059
:10048000002017E03AF818106A4602A800F02EFD86
:10049000B0F1FF3F81460BD000250DF1080B05E0C0
:1004A000D4E901211BF8050090476D1C4D45F7D399
:1004B00008F10100B0428046E4DB206A3844206243
:1004C0002046FFF71FFFBDE8FF9F0000B66A00004F
:1004D00030B4002100F1240408E002F00705D2083E
:1004E000303542EA4372DB086554491C52EA030581
:1004F000F3D10468002310A2250707D5A40600D471
:1005000021B1C46901230DA2641EC46130BC00F096
:10051000E8B910B5044621461068FFF70DFF024602
:100520002046BDE810400023D2E7D21D22F007018B
:10053000D1E90023CCE700000000000030000000FB
:10054000F0B40D460188090502D5214C7C4402E037
:100550001F4C7C440E34002100F1240608E002F018
:100560000F071209E75D42EA03721B097754491C21
:1005700052EA0307F3D102780023120704D5702D45
:1005800006D009B1022311342246F0BC00F0A9B90B
:1005900001231034F8E770B504460D462146106873
:1005A000FFF7CAFE024629462046BDE870400023F8
:1005B000C6E7D21D22F00703D3E90023C0E7036892
:1005C000126843F0200303600823C3610023B7E7E8
:1005D000946900002DE9F05F894604464FF0000A57
:1005E000DFF874B1FB44C0F820A02046E1688847DA
:1005F000002874D0252806D0D4E901219047206A2C
:10060000401C2062F1E700265F462046E1688847EB
:100610002028054607DB312D05D2781910F8200C6B
:1006200008B10643F1E7B00701D526F00406C4F887
:100630001CA00027C4F818A02A2D09D0284605F0D0
:10064000B7FA38B304EB8708303DC8F8185019E002
:1006500059F8041B204604EB87029161E168884742
:10066000012F054618D1E069002820DA26F020067F
:100670001DE0D8F8180000EB800005EB4000303892
:10068000C8F818002046E1688847054605F090FA4A
:100690000028EED1012F0AD02E2D08D12046E16886
:1006A00088477F1C0546022F46F02006C4DBA06960
:1006B000002803DA404246F00106A061F00701D0AD
:1006C00026F010066C2D0BD0682D09D04C2D39D09A
:1006D0006A2D35D0742D35D07A2D33D016E038E020
:1006E000E1682F4620468847B842054609D16C2F5D
:1006F00026D04FF48060E1680643204688470546CF
:1007000004E06C2F1AD04FF4807006430DB3A5F1AE
:100710004100192802D8203546F400664A46294689
:10072000204626604E46FFF73BFD80B101280BD0E6
:10073000F61D26F0070000F1080956E74020E4E71F
:100740008020D8E70020D6E706F104094DE72846C7
:1007500052E7206ABDE8F09F2469000010B5431CF1
:1007600002E010F8011B71B18107FAD14FF001329C
:1007700002C88C1A8C4314EAC211F9D0C01A0A06B6
:1007800003D0C01E10BDC01A10BD0A0401D0801EC7
:1007900010BD0902FCD0401E10BD10B5203AC0F0BB
:1007A0000B80B1E81850203AA0E81850B1E8185072
:1007B000A0E81850BFF4F5AF5FEA027C24BFB1E8AF
:1007C0001850A0E8185044BF18C918C0BDE8104020
:1007D0005FEA827C24BF51F8043B40F8043B08BF29
:1007E0007047D20728BF31F8023B48BF11F8012BF0
:1007F00028BF20F8023B48BF00F8012B704702F0E9
:10080000FF0343EA032242EA024200F091BB4FF0A9
:10081000000200B5134694469646203922BFA0E850
:100820000C50A0E80C50B1F12001BFF4F7AF09075C
:1008300028BFA0E80C5048BF0CC05DF804EB89004D
:1008400028BF40F8042B08BF704748BF20F8022B90
:1008500011F0804F18BF00F8012B70474FF0013C9A
:1008600050F8042B51F8043B9A4221D1A2EB0C031F
:10087000934313EACC1317D150F8042B51F8043BDF
:100880009A4215D1A2EB0C03934313EACC130BD17C
:1008900050F8042B51F8043B9A4209D1A2EB0C0307
:1008A000934313EACC13DBD04FF00000704700BF36
:1008B000D01A01BAB1FA81F101F0180122FA01F05F
:1008C000CB40C1F12001DBB2C0B2C01A2CFA01F357
:1008D000D11A914311EAC311E6D1704770477047AE
:1008E00070472DE9F0470D4699469246044600F1BF
:1008F00024080168880604D5E06921F01001216010
:1009000000E00120A84201DD471B00E00027A169AB
:100910007A1902EB0900081AA0612078C00602D4F7
:100920002046FFF7D9FC002608E0D4E901211AF897
:1009300006009047206A401C761C20624E45F4DB7E
:100940002078C0060AD52046FFF7C6FC06E0D4E9A9
:10095000012130209047206A401C2062381EA7F1F8
:100960000107F4DC07E0D4E9012118F805009047FD
:10097000206A401C2062281EA5F10105F3DC2046F8
:10098000FFF7C0FC2078000602D50220BDE8F08702
:100990000120FBE711680268006A530501D5087061
:1009A0000AE0D30501D5088006E0130603D5C21777
:1009B000C1E9000200E008600120704770472DE99E
:1009C000FF4F0C461E464FF0FF378BB0D2E90001B7
:1009D000DDF860800A908A46C1F30A5505B93D46A4
:1009E000002108464FF00000BAF1000F00F440006B
:1009F00005DA00EB80004FF4400101EA50004FEAB5
:100A00009059B9F1010F00DDB9460A9850EA4A0041
:100A10000ED044F61050A5F2FF3545432F14B8F11F
:100A2000000F1ED07542291E1EDDC9F100021CE018
:100A3000B8F1010F4FF0000001D0302103E0F24384
:100A400005E02154401CB042FBDB3046002200216F
:100A500021540B99C1F80880C1E900200FB0BDE80E
:100A6000F08FBD1B6D1CDEE74A4600DA694206A81E
:100A700000F010FB06AB93E8070003AB83E8070028
:100A800050460A9900F0B1FB8DE80700A0F5005030
:100A90001F3800900398002D0ADD42F21F014A46DC
:100AA0000844002303A90390684600F01AFE09E0F9
:100AB000A0F500504A461F38002303A9039068465A
:100AC00000F024FE8DE807000004000C03D04FF076
:100AD000FF30410800E01046B8F1000F03D00022BB
:100AE000009215461EE0751E05D400F04DFA303216
:100AF00062556D1EF9D5B3460122084302D000228B
:100B00007F1C04E02078302801D100227F1E002ABB
:100B1000099784D01DE0112D07DA00F035FA303244
:100B200062556D1C50EA0102F5D1084302D00098CD
:100B3000C8B10EE00021681E05E0235C625C6354CE
:100B40002254401E491C8142F7DBAB46A81B401EC5
:100B50000990002004F80B000B98099AC0F808804F
:100B6000C0E9002B7AE711264FF0000857E72DE97E
:100B7000F04F88460446D21D22F0070191B0D1E91A
:100B80000001CDE90A0104F0FFFF02460B98C00FF7
:100B900001D02D2007E02068810701D52B2002E03D
:100BA000202101EAC000032A099001D0072A05DBB1
:100BB00003464146204600F02DFA0BE120788006DE
:100BC00001D5E06900E00620B8F1650F814606D046
:100BD000B8F1660F18D0B8F1670F70D131E000207E
:100BE000B9F1110F009001DB112301E009F10103BC
:100BF0000AAA01A90CA8FFF7E2FEDDE90C700026A5
:100C000009F10105834647E001204B4600904FF073
:100C100000470AAA01A90CA8FFF7D1FEDDE90DB033
:100C20000C995D46002610B909F101000D18B9EBC9
:100C3000050003D4C0F1FF3609F10105A5EB090059
:100C40002BE0B9F1010F01DA4FF001090020B9F1F1
:100C5000110F0090484601DD112300E003460AAA67
:100C600001A90CA8FFF7ABFEDDE90C704D4600268C
:100C70008346207800070AD4AB4500DA5D4601A818
:100C8000012D04DD411911F8011C302907D04F4511
:100C900002DA17F1040F04DA012082460FE06D1E1C
:100CA000EEE7002F02DCED1B3E4403E0781CA84277
:100CB00000DD7D1CB81B00F1010A4FF000472078D1
:100CC000000703D4AA4501DB4FF0FF3A0021B7F13A
:100CD000004F0DF143088DF8431024D002202B2340
:100CE000002F01DA7F422D230A21021EA0F101000C
:100CF00000DC5FB197FBF1FC97FBF1F201FB1C7C80
:100D000017460CF1300C08F801CDEEE7A8F1010010
:100D100003702188090501D5452100E06521A0F176
:100D2000010800F8011C09980FA9A1EB0807FF1D95
:100D300000B10120411901EBEA70A1693844081A99
:100D4000401EA0612078C00602D42046FFF7C4FAF6
:100D5000099828B1D4E901219047206A401C2062FB
:100D60002078C00622D52046FFF7B6FA1EE0002EF6
:100D700004DBB34502DD01A8805D00E03020D4E94A
:100D800001219047206A401C2062761CAAF10100D4
:100D90005FEA000A0AD100F0F3F8C0680168405C1D
:100DA000D4E901219047206A401C2062281EA5F149
:100DB0000105DCDC07E0D4E9012118F8010B9047BC
:100DC000206A401C2062381EA7F10107F3DC204690
:100DD000FFF798FA032011B041E6000001694A1CB0
:100DE00002610878704700B58FB0CDE9013100216C
:100DF000059105497944CDE9031011466846FFF78E
:100E0000E9FB0FB000BD0000E5FFFFFF0A6802F834
:100E1000010B0A60704710B5436913B1AFF300804E
:100E200001E0FFF792FA012010BD127800F12401D1
:100E30000A7000224A700122EDE711684FF0FF327C
:100E4000E9E710B5436913B1AFF3008001E0FFF7A4
:100E5000E1FA012010BD128800F1240182840022F1
:100E6000C2840122EDE711684FF0FF32E9E700008C
:100E70002DE9F0418046D21D22F007020025D2E97B
:100E80000002F52915A614D0011E72F1000106DA40
:100E90000023D0EB030063EB020211A608E0D8F8B0
:100EA00000108B0701D50FA602E0490701D50EA659
:100EB00001251146002408F1240704E000F064F83D
:100EC00030323A55641C50EA0102F7D12B463246C3
:100ED00021464046BDE8F041FFF703BD0000000099
:100EE0002D0000002B0000002000000070B5164609
:100EF0000C46054600F03CF8036893F80101012810
:100F000006D0FF2C0FD8185D68B101202C7070BD81
:100F1000D3F807013246214603F20713034428465B
:100F2000BDE8704018474FF0FF3070BD4FF0000231
:100F30000429C0F0128010F0030C3FF46AACCCF12D
:100F4000040CBCF1020F18BF00F8012BA8BF20F859
:100F5000022BA1EB0C01FFF75CBC5FEAC17C24BF54
:100F600000F8012B00F8012B48BF00F8012B704757
:100F700010B500F005F8001D10BD00BF814C000049
:100F800000487047003D002030B5B0F10A024FEA3A
:100F9000900E71F100034EEA817EB0EB0E0061EB22
:100FA00091014FEA101E4EEA017E10EB0E0041EB5C
:100FB00011114FEA102E4EEA016E10EB0E0041EBBC
:100FC00011214FEA104E4EEA014E10EB0E0041EB9C
:100FD0001141401841F100014FEAD00040EA417050
:100FE0004FEAD10110EB80054FEA810444EA907486
:100FF00044EB01046D1944EB0404521BA3414FF070
:10100000000348BF0A3200D530BD401C41F1000149
:1010100030BD00002DE9F0411F460446032601685B
:10102000072A01F4006004DB08B116A505E016A547
:1010300003E008B115A500E015A521F0100020601F
:10104000A069C01EA0610FB1401EA0612046FFF73D
:1010500043F94FB1D4E9012138469047206A401C3A
:101060002062C01C206206E0206AFAE7D4E9012170
:1010700015F8010B9047761EF8D22046FFF742F98B
:10108000BDE8F0814E414E006E616E00494E460053
:10109000696E66002DE9F047814616468AB03548EC
:1010A00078440DC88DE80D0032487844801C03ACAC
:1010B0000DC884E80D0041F69B300844372190FBB1
:1010C000F1F290FBF1F5A5F1800501FB12041B3C48
:1010D00002D56442012000E00020DFF898A080469D
:1010E0000027FA44AAF1BE0A0EE0E0070AD0324611
:1010F000684607EB470101230AEB810100F006FB7C
:101100008DE8070064107F1C002CEED1194F7F443E
:10111000AE3F19E0E80715D007EB04100DF1180AEF
:1011200090E80E008AE80E00C068F04201D19819DC
:1011300008903246012306A903A800F0E7FA03ABA2
:1011400083E807006D10641C002DE3D14FF001030C
:1011500032466946B8F1000F03A802D000F0C1FA88
:1011600001E000F0D3FAC9E90001C9F808200AB08B
:10117000BDE8F087F85E000000487047E03C0020C2
:101180007546FFF7F9FFAE4605006946534620F065
:101190000700854618B020B5FFF77AF8BDE8204073
:1011A0004FF000064FF000074FF000084FF0000B23
:1011B00021F00701AC46ACE8C009ACE8C009ACE8D6
:1011C000C009ACE8C0098D46704710B50446AFF3BE
:1011D00000802046BDE81040FFF745B801491820BF
:1011E000ABBEFEE72600020070475FEA400C08BF76
:1011F00091F0000F4FEA8C234FEAC12243EA51518C
:101200004FEA1C5018BF00F5F0404FEA300018BFFD
:1012100041F000415FEA6C5C00F02980BCF1FF3FC7
:1012200008BF40F080407047130C06BF12044FF017
:10123000100C4FF0000C130E04BF12020CF1080C3E
:10124000130F04BF12010CF1040C930F04BF9200A2
:101250000CF1020CD30F04BF52000CF1010C11462B
:101260004FF00002A0F11F00A0EB0C00704711F03E
:10127000004F08BF704731F000413FF4D5AF0B0C71
:1012800006BF09044FF0100C4FF0000C0B0E04BF0A
:1012900009020CF1080C0B0F04BF09010CF1040C3E
:1012A0008B0F04BF89000CF1020CCB0F04BF490067
:1012B0000CF1010CCCF12003A0EB0C0022FA03F39B
:1012C00002FA0CF241EA030100F10100704720F03C
:1012D0007F4C80EA030023F07F47ACEB070303F564
:1012E0007C5300F0004003F1FF032DE980494FEAF1
:1012F000154B09B44FEA144325EA0B4E24EA034880
:101300000FF2042606EB132749083E785FEA320203
:1013100003FB0667C7F5000707FB06F64FEA5437DD
:101320004FEAD64606F1020607FB066CCCF1005CDC
:101330004FEA1C472CEA074C07FB06F40CFB06F5AA
:1013400004EB15464FEA961634BF00204FF00040DC
:101350004FEAD13706FB07FC4FEA1C4C0CFB0BF79E
:10136000D21B03FB0CF761EB07010CFB0EF7B0EB94
:10137000074072EB17420CFB08F734BFA2EB0742A1
:10138000B2EB074261EB17414FEA0C444FEA910779
:1013900006FB07FC4FEA1C4C0CFB0BF7B0EBC740FD
:1013A00072EB573203FB0CF734BFA2EBC742B2EB30
:1013B000C74261EB57310CFB0EF7B0EBC70072EB85
:1013C00057720CFB08F734BFA2EBC702B2EBC7029F
:1013D00061EB5771039F4FEA816141EA921104EB7F
:1013E000CC044FEAD1374FEA826206FB07FC42EA9F
:1013F00090124FEA80604FEA1C4C0CFB0BF7D21B9B
:1014000003FB0CF761EB07010CFB0EF7B0EB074099
:1014100072EB17420CFB08F734BFA2EB0742B2EBAA
:10142000074261EB17414FEA8C554FEA910704EBF5
:101430009C2406FB07FC4FEA1C4C0CFB0BF7B0EBA3
:10144000C74072EB573203FB0CF734BFA2EBC74225
:10145000B2EBC74261EB57310CFB0EF7B0EBC700A4
:1014600072EB57720CFB08F734BFA2EBC702B2EB6A
:10147000C70261EB577115EB4C254FEA816141EAD8
:1014800092114FEA82624FEAD13742EA901206FB8C
:1014900007FC44F100044FEA80604FEA1C4C0CFB4F
:1014A0000BF7D21B03FB0CF761EB07010CFB0EF7EC
:1014B000B0EB074072EB17420CFB08F734BFA2EB0E
:1014C0000742B2EB074261EB174115EB1C154FEADF
:1014D000813141EA92414FEA823242EA90424FEA38
:1014E00080304FEA0C7644F1000448EA03434EEAA8
:1014F0000B484FF0000EB2EB080C71EB030724BF52
:10150000624639464EEB0E0E4FF0000B001852416A
:1015100049414BEB0B0BB2EB080C71EB03077BF172
:10152000000B24BF624639464EEB0E0E4FF0000B07
:101530000018524149414BEB0B0BB2EB080C71EB1D
:1015400003077BF1000B24BF624639464EEB0E0EBB
:1015500051EA020718BF46F0010616EB0E7655F168
:10156000000254F1000103D5BDE88901BDE80088FF
:10157000BDE88901BDE80048B619524141EB0101BF
:10158000A3F10103704780807F7E7D7C7B7A797830
:10159000777676757473727171706F6E6E6D6C6C38
:1015A0006B6A6A69686867666665646463636261DA
:1015B0006160605F5F5E5E5D5D5C5C5B5B5A5A595B
:1015C00059585857575656555555545453535252C7
:1015D0005251515050504F4F4F4E4E4D4D4D4C4C1F
:1015E0004C4B4B4B4A4A4A49494948484847474768
:1015F00047464646454545444444444343434342A5
:10160000424242414141002B9C4630D477002BD0CE
:101610001CB54FEA370703B44FF010004FF010012C
:10162000BAF1000F06D0BCF1000FDCBF40F008009B
:1016300040F008014FF000000FBCBDE810400BF176
:10164000010BBBF1010F08BF5FEA170722BF12F1C0
:10165000010211F101014FF0004143F1000300F0DC
:10166000004043EA00007047F9D35708D0E746EA44
:10167000064613F1400F4FEA16461FDD13F1200F07
:10168000DFBF16430A46002120335B42BED0C3F1C0
:10169000200746EA064602FA07F74FEA164646EAE8
:1016A0000706C3F1200722FA03F201FA07F721FA2D
:1016B00003F14FF0000342EA0702A7E746EA0206F9
:1016C00046EA06464FEA164646EA0106BCBF46EA27
:1016D0000646360C4FF000034FF000024FF00001B9
:1016E00094E72DE9804C9A46934670B491E838000F
:1016F00007C831EA400C48BF34EA430C03D5FFF772
:10170000E6FDFFF780FFF0BCBDE8008C2DE9804CC2
:101710009A46934670B491E8380007C810F0804F9D
:1017200008BF13F0804F03D100F005F8FFF76BFFFF
:10173000F0BCBDE8008C20F07F4780EA030023F076
:101740007F4C07EB0C03A3F57C5300F00040A3F1A2
:10175000FE0392F0000F00F0B38095F0000F00F050
:1017600077802DE901494FEA11404FEA144621EAFA
:10177000004800FB06FC24EA064708FB06F607FBC8
:1017800008F800FB07F718EB06484CEB164C4FEA3D
:10179000124B18EB07484FEA15464CEB174022EA6C
:1017A0000B4E0BFB06FC25EA06470EFB06F607FB75
:1017B0000EFE0BFB07F71EEB064E4CEB164C4FF0E4
:1017C00000061EEB074E4CEB174B18EB0B0840F1D5
:1017D000000018EB0E0B58EB000840F100008F1AC8
:1017E0004FF000013CBFC943661B14BFB5EB040CAE
:1017F00000213CBFC943F61B4FEA17444EEA8E0E48
:1018000027EA04454FEA1C4704FB07622CEA074C11
:1018100005FB07F70CFB05F604FB0CFC16EB074673
:1018200042EB174216EB0C4642EB1C421BEB060642
:1018300058EB0202414146EA9E0601D5BDE8018906
:10184000B619524141EB0101A3F10103BDE8018941
:101850004FEA14454FEA114724EA054621EA074CAE
:1018600005FB07F406FB07F70CFB06F105FB0CFC78
:1018700011EB074144EB17444FEA124711EB0C41BF
:1018800044EB1C4422EA074C05FB07F206FB07F772
:101890000CFB06F605FB0CFC16EB074642EB174269
:1018A00016EB0C4642EB1C456A1854F1000148BF88
:1018B0007047B619524141EB0101A3F10103704792
:1018C00095F0000F37D04FEA11424FEA144721EA52
:1018D000024624EA074C02FB07F106FB07F70CFB64
:1018E00006F402FB0CFC14EB074441EB17414FEAF2
:1018F000154714EB0C4441EB1C4125EA074C02FB55
:1019000007F506FB07F70CFB06F602FB0CFC16EBD3
:10191000074645EB174516EB0C4645EB1C421219E2
:1019200051F1000148BF7047B619524141EB010126
:10193000A3F1010370474FEA14454FEA114724EA27
:10194000054621EA074C05FB07F106FB07F70CFBF0
:1019500006F24FF0000605FB0CFC12EB074241EBD0
:10196000174112EB0C4251EB1C4148BF70479218D3
:1019700041EB0101A3F10103704700BFFEE770478F
:1019800000BFFEE770B5044600F0A4F90646254600
:10199000681C10B104480078054400BF00F09AF9B3
:1019A000801BA842FAD370BD080000202DE9F8473B
:1019B00003460024002000258446002700226DE114
:1019C0004FF0010808FA02F4D1F8008008EA040098
:1019D000A0427DD1DFF8D0A2D1F80480A8EB0A099B
:1019E000D0453AD014DCB8F1030F50D009DCB8F17F
:1019F000000F31D0B8F1010F1CD0B8F1020F49D15E
:101A000020E0B8F1110F18D0B8F1120F42D11EE04A
:101A1000B9F5881F25D006DCB9F5803F20D0B9F58F
:101A2000801F37D11AE0B9F5001F18D0B9F5041F8F
:101A300030D117E0D1F80CC02DE0D1F80C8008F1BE
:101A4000040C28E0D1F80C8008F1080C23E0D1F850
:101A50000C8008F10C0C1EE000BF00BF00BF00BFEF
:101A600000BF00BFD1F80880B8F1000F02D14FF0DD
:101A7000040C0BE0D1F80880B8F1010F03D14FF04E
:101A8000080C1C6102E04FF0080C5C6103E04FF0B1
:101A9000000C00E000BF00BFFF2801D8984601E01D
:101AA00003F104084646FF2802D84FEA820803E003
:101AB000A2F108084FEA88084746D6F800804FF0A0
:101AC0000F0909FA07F928EA09080CFA07F900E0F2
:101AD00087E048EA0908C6F80080D1F8048008F0D9
:101AE0008058B8F1805F7CD100BFDFF8C081D8F8A2
:101AF000188048F00108DFF8B491C9F81880C8468A
:101B0000D8F8188008F00108CDF8008000BF4FEA2F
:101B1000B9384FEA920958F829504FEA82784FEACB
:101B200018794FF00F0808FA09F825EA0805DFF8D8
:101B30008081434502D14FF0000816E0DFF8748140
:101B4000434502D14FF001080FE0DFF86C814345B7
:101B500002D14FF0020808E0DFF86081434502D16E
:101B60004FF0030801E04FF004084FEA82794FEA92
:101B7000197908FA09F848EA0505DFF844814FEABF
:101B8000920948F82950D1F8048008F48038B8F553
:101B9000803F0AD1DFF82C81D8F8008048EA00089D
:101BA000DFF82091C9F8008009E0DFF81881D8F843
:101BB000008028EA0008DFF80C91C9F80080D1F80D
:101BC000048008F40038B8F5003F10D1DFF8F48045
:101BD00008F10408D8F8008048EA0008DFF8E4902B
:101BE00000E05AE009F10409C9F800800DE0DFF8CF
:101BF000D48008F10408D8F8008028EA0008DFF84B
:101C0000C49009F10409C9F80080D1F8048008F4EF
:101C10008018B8F5801F0ED1DFF8A88008F10808F9
:101C2000D8F8008048EA0008DFF8989009F1080920
:101C3000C9F800800DE0DFF88C8008F10808D8F8BA
:101C4000008028EA0008DFF87C9009F10809C9F84B
:101C50000080D1F8048008F40018B8F5001F0ED1F8
:101C6000DFF8608008F10C08D8F8008048EA000826
:101C7000DFF8509009F10C09C9F800800DE0DFF899
:101C8000448008F10C08D8F8008028EA0008DFF842
:101C9000349009F10C09C9F80080521C102AFFF495
:101CA0008FAEBDE8F8870000000011100010024060
:101CB00000080140000C01400010014000140140E8
:101CC00008000140000401400AB1016101E00B0479
:101CD0000361704701480068704700000000002061
:101CE00070B50446002600250CB9012070BD94F89B
:101CF0003D0028B9002084F83C00204600F0AEF8F2
:101D0000242084F83D002068006820F0010021684C
:101D1000086000F053FE05464C496068884206D8CA
:101D20004B48854201D2012007E0002005E04948E8
:101D3000854201D2012000E00020012800D1D5E732
:101D40004548B5FBF0F62068466040496068884227
:101D500001D8701C07E04FF4967070434FF47A710D
:101D6000B0FBF1F0401C2168086238496068884285
:101D700014D8681E61684900B0FBF1F0401CC0F344
:101D80000B00042801D204203DE0681E6168490070
:101D9000B0FBF1F0401CC0F30B0034E0A06838B990
:101DA000681E616801EB4101B0FBF1F0401C0AE0E4
:101DB000681E616801EBC10202EB0111B0FBF1F09A
:101DC000401C40F48040C0F30B0008B901201AE029
:101DD000A06848B9681E616801EB4101B0FBF1F0F1
:101DE000401CC0F30B000CE0681E616801EBC102EF
:101DF00002EB0111B0FBF1F0401CC0F30B0040F40A
:101E0000804040F400402168C861D4E907010843DC
:101E100021680860D4E90310084321688860D4E988
:101E2000050108432168C8602068006840F001008F
:101E30002168086000202064202084F83D000020F4
:101E4000206384F83E0000BF50E70000A086010038
:101E500080841E0000093D0040420F0010B586B08E
:101E600004460F492068884218D1C02002901220F1
:101E70000390012004900320059002A90948FFF770
:101E800095FD00BF0848C06940F400100649C861CC
:101E90000846C06900F40010019000BF06B010BDF4
:101EA00000540040000C014000100240034800684C
:101EB0000349097808440149086070470000002080
:101EC0000800002010B50848006840F010000649DE
:101ED0000860032000F09CF8002000F007F800F0F4
:101EE0002BF8002010BD00000020024070B5044611
:101EF0000E4800784FF47A71B1FBF0F00C49096894
:101F0000B1FBF0F5284601F015F808B1012070BDCD
:101F1000102C07D200222146501E00F03BF8054845
:101F2000046001E00120F2E70020F0E70800002053
:101F30000C0000200400002008B500BF0C48806998
:101F400040F001000A4988610846806900F00100FC
:101F5000009000BF00BF0846C06940F08050C861D3
:101F60000846C06900F08050009000BF08BD000026
:101F70000010024001460846002809DB00F01F035C
:101F800001229A4043099B0003F1E023C3F800219A
:101F900000BF70472DE9F05F80460D4616460027CA
:101FA00003F066F8074639462A46334601F0070033
:101FB000C0F1070ABAF1040F02D94FF0040A01E098
:101FC000C0F1070AD14600F1040ABAF1070F02D2A4
:101FD0004FF0000A01E0A0F1030AD4464FF0010AD5
:101FE0000AFA09FAAAF1010A0AEA020A0AFA0CFA3A
:101FF0004FF0010B0BFA0CFBABF1010B0BEA030BDF
:102000004AEA0B042146404602F0D6FFBDE8F09FA5
:1020100000BF00F00702064B19684FF6FF03194096
:10202000044B0B4343EA0221014B196000BF704788
:102030000CED00E00000FA0570B505460C460021E5
:1020400004F08000802806D104F07F0605F1280006
:1020500000EB461103E005F50A7000EB44111AB9D4
:10206000002088728B8004E001208872CB80180CDD
:102070000881002070BD704770B504460D4604F11C
:10208000280101EB45114A692946D4F85C0401F0A6
:10209000F2F870BD70B504460D4604F50A7101EB07
:1020A00045114A692946D4F85C0401F051F970BD24
:1020B00070B504460D46002605F08000802806D144
:1020C00005F07F0104F1280000EB411605E005F062
:1020D0007F0104F50A7000EB411605F07F003070B7
:1020E00005F08000C009707000BF94F82804012832
:1020F00001D1022070BD012084F8280400BF3146C0
:10210000206801F0E8FD00BF002084F8280400BF2B
:1021100000BFEFE770B504460D46002605F08000CD
:10212000802806D105F07F0104F1280000EB41165C
:1021300003E004F50A7000EB45160020B07005F0CE
:102140007F003070C5F3C010707000BF94F8280491
:10215000012801D1022070BD012084F8280400BFAD
:102160003146206801F0E4FE00BF002084F8280416
:1021700000BF00BFEFE7024601F00F0302F50A704F
:1021800000EB4310808B80B270472DE9F047044686
:102190000D46174698464FF00009002605F08000CE
:1021A000802806D105F07F0104F1280000EB4116DC
:1021B00005E005F07F0104F50A7000EB411605F01B
:1021C0007F00307005F08000C0097070376186F8BC
:1021D000038000BF94F82804012802D10220BDE842
:1021E000F087012084F8280400BF3146206801F000
:1021F00099FB00BF002084F8280400BF4846EEE7A2
:102200002DE9F04105460E4617469846002406F093
:102210007F0105F50A7000EB41146761C4F818806E
:102220000020E061607006F07F00207006F07F0003
:1022300020B92146286801F018FF03E021462868EC
:1022400001F013FF0020BDE8F08170B504460D4693
:10225000002605F08000802806D105F07F0104F1FA
:10226000280000EB411603E004F50A7000EB451668
:102270000120B07005F07F003070C5F3C0107070A1
:1022800000BF94F82804012801D1022070BD01206C
:1022900084F8280400BF3146206801F0A3FE05F051
:1022A0007F0020B904F22C41206801F03EFE00BFFF
:1022B000002084F8280400BF00BFE7E72DE9F041C3
:1022C00005460E4617469846002406F07F0105F1A4
:1022D000280000EB41146761C4F818800020E06119
:1022E0000120607006F07F00207006F07F0020B9AA
:1022F0002146286801F0B9FE03E02146286801F074
:10230000B4FE0020BDE8F08110B50446206802F05C
:1023100059F800F40040B0F5004F02D1204602F019
:1023200044FB206802F04EF800F48060B0F5806F46
:102330000ED12068B0F8440020F480602168A1F834
:102340004400204600F042F90021204600F05EF9EA
:10235000206802F037F800F48040B0F5804F07D1D4
:102360002068B0F8440020F480402168A1F84400BF
:10237000206802F027F800F40050B0F5005F07D1A4
:102380002068B0F8440020F400502168A1F844000F
:10239000206802F017F800F48050B0F5805F1AD181
:1023A0002068B0F8400020F004002168A1F8400047
:1023B0002068B0F8400020F008002168A1F8400033
:1023C000204600F015F92068B0F8440020F4805051
:1023D0002168A1F84400206801F0F4FF00F40060D7
:1023E000B0F5006F20D12068B0F8400040F0080040
:1023F0002168A1F840002068B0F8440020F4006093
:102400002168A1F844002068B0F8400040F00400C2
:102410002168A1F84000206801F0D4FFC0F300302B
:1024200010B9204600F034F9206801F0CBFF00F429
:102430000070B0F5007F0AD12068B0F8440020F4A5
:1024400000702168A1F84400204600F0D8F8206808
:1024500001F0B8FF00F48070B0F5807F07D12068EC
:10246000B0F8440020F480702168A1F8440010BD49
:1024700030B585B00446002514B9012005B030BD43
:1024800094F8290428B9002084F82804204600F094
:102490007DF8032084F82904206801F03BFD142214
:1024A00004F110016846FEF778F994E80F0001F096
:1024B0000EFC0021206801F09EFF002525E001218F
:1024C00004F1280000EB4510417004F1280000EBF6
:1024D0004510057004F1280000EB451085810021AE
:1024E00004F1280000EB4510C17004F1280000EB56
:1024F0004510016104F1280000EB4510416104F131
:10250000280000EB451081616D1C0F2DD7D30025ED
:1025100024E0002104F50A7000EB4510417004F539
:102520000A7000EB4510057004F1280000EB45101F
:10253000858104F50A7000EB4510C17004F50A703E
:1025400000EB4510016104F50A7000EB4510416194
:1025500004F50A7000EB451081616D1C0F2DD8D376
:10256000142204F110016846FEF717F994E80F00F1
:1025700001F0C1FC002084F82400012084F8290423
:10258000206801F0B5FC002078E7000038B504466B
:102590000C492068884214D100BF0B48C06940F440
:1025A00000000949C8610846C06900F400000090B5
:1025B00000BF002211461420FFF7ECFC1420FFF7A7
:1025C000D9FC38BD005C00400010024070B50446E4
:1025D0000125A068022801D0FFF7D2F92946D4F8D6
:1025E0005C0400F0C5FFD4F85C0400F087FF70BD08
:1025F00010B50446D4F85C0400F0A2FF10BD10B57D
:102600000446D4F85C0400F0A2FF10BD70B5044687
:102610000D4600BF94F82804012801D1022070BDA6
:10262000012084F8280400BF84F82450294620683B
:1026300001F0E4FE00BF002084F8280400BF00BFC2
:10264000EDE710B5044604F22C41D4F85C0400F028
:10265000A6FF10BD10B5044600BF94F82804012859
:1026600001D1022010BD012084F8280400BF0121FF
:102670002046FFF700FD206801F037FC206801F0DC
:102680008DFE00BF002084F8280400BF00BFE9E7EA
:1026900010B50446D4F85C0400F0DAFFA06928B154
:1026A0000348006840F006000149086010BD0000C2
:1026B00010ED00E0F8B5044600260025207800F073
:1026C000010000286AD000274248C06900F080500D
:1026D00068B900BF3F48C06940F080503D49C861BB
:1026E0000846C06900F08050009000BF01273A48BA
:1026F000006800F48070B0B93748006840F480701A
:1027000035490860FFF7E6FA064606E0FFF7E2FA09
:10271000801B642801D90320F8BD2F48006800F40D
:1027200080700028F2D02B48006A00F440752DB369
:10273000A08800F44070A84220D02648006A20F407
:102740004075012025490860002008602148056285
:1027500005F0010090B1FFF7BDFA064608E0FFF76B
:10276000B9FA801B41F28831884201D90320D3E7AE
:102770001848006A00F002000028F0D01548006AEE
:1027800020F440706168084312490862012F04D1A7
:102790000846C06920F08050C86100BF207800F072
:1027A0000200022807D10B48406820F44040A1688D
:1027B000084308494860207800F01000102807D12D
:1027C0000448406820F48000E168084301494860FB
:1027D0000020A1E700100240007000404004424287
:1027E00070B504460D4600266D48006800F00700ED
:1027F000A8420ED26A48006820F0070028436849C2
:1028000008600846006800F00700A84201D00120D7
:1028100070BD207800F0020002281DD1207800F061
:102820000400042805D15F48406840F4E0605D4939
:102830004860207800F00800082805D15948406811
:1028400040F46050574948605648406820F0F00016
:10285000A168084353494860207800F0010000282F
:102860005DD06068012806D14E48006800F4003051
:1028700090B90120CCE76068022806D14948006879
:1028800000F0007040B90120C2E74648006800F03F
:10289000020008B90120BBE74248406820F003006D
:1028A000616808433F494860FFF714FA06466068CC
:1028B000012810D108E0FFF70DFA801B41F28831A2
:1028C000884201D90320A3E73648406800F00C0095
:1028D0000428F0D123E06068022810D108E0FFF757
:1028E000F9F9801B41F28831884201D903208FE732
:1028F0002C48406800F00C000828F0D10FE008E0F8
:10290000FFF7E8F9801B41F28831884201D90320A2
:102910007EE72448406800F00C000028F0D12048F1
:10292000006800F00700A8420ED91D48006820F09A
:10293000070028431A4908600846006800F00700AD
:10294000A84201D0012063E7207800F004000428A9
:1029500007D11448406820F4E060E1680843114959
:102960004860207800F00800082808D10D48406829
:1029700020F46050216940EAC1000A49486000F033
:102980002DF808494968C1F30311074A515CC84052
:10299000064908600020FFF7A9FA002038E7000088
:1029A0000020024000100240B65C00080C0000202D
:1029B00001480068704700000C00002000B5FFF7D8
:1029C000F7FF04494968C1F30221034A515CC8403A
:1029D00000BD000000100240C65C0008F0B585B0E4
:1029E0000FF26C0C9CE8E01001A8A0E8E0101CA518
:1029F0002D68009500210022002300240020194D9D
:102A0000696801F00C05EDB1042D02D0082D1AD132
:102A100001E0154819E001ADC1F38346AC5D01F456
:102A2000803555B10F4D6D68C5F340451DF8052043
:102A30000D4D6543B5FBF2F302E00C4D04FB05F3CD
:102A4000184602E000BF084800BF00BF05B0F0BD57
:102A500002030405060708090A0B0C0D0E0F1010DF
:102A6000010200000010024000127A0000093D003F
:102A7000F8B504460025207800F00100002878D041
:102A8000F748406800F00C0004280CD0F448406877
:102A900000F00C00082811D1F148406800F48030A3
:102AA000B0F5803F0AD1EE48006800F400300028FD
:102AB0005FD0606800285CD10120F8BD00BF60686D
:102AC000B0F5803F06D1E648006840F48030E44924
:102AD000086028E0606858B9E148006820F4803058
:102AE000DF4908600846006820F4802008601AE08A
:102AF0006068B0F5A02F0BD1D948006840F4802061
:102B0000D74908600846006840F4803008600AE051
:102B1000D348006820F48030D14908600846006836
:102B200020F48020086000BF606888B1FFF7D2F809
:102B3000054606E0FFF7CEF8401B642801D90320C4
:102B4000BBE7C748006800F400300028F2D010E06E
:102B5000FFF7C0F8054606E0FFF7BCF8401B642805
:102B600001D90320A9E7BE48006800F4003000281E
:102B7000F2D1207800F00200022857D1B84840680E
:102B800000F00C0050B1B648406800F00C00082876
:102B900018D1B348406800F4803098B9B048006854
:102BA00000F0020020B12069012801D0012084E753
:102BB000AB48006820F0F800616940EAC100A8490C
:102BC000086033E02069E8B10120A6490860FFF7FA
:102BD00081F8054606E0FFF77DF8401B022801D981
:102BE00003206AE79E48006800F002000028F2D047
:102BF0009B48006820F0F800616940EAC1009849EC
:102C0000086013E0002097490860FFF763F8054665
:102C100006E0FFF75FF8401B022801D903204CE7CC
:102C20008F48006800F002000028F2D1207800F000
:102C3000080008282DD1A069B8B101208A49086090
:102C4000FFF748F8054606E0FFF744F8401B022866
:102C500001D9032031E78248406A00F002000028D1
:102C6000F2D0012002F09CFA13E000207E490860B7
:102C7000FFF730F8054606E0FFF72CF8401B022866
:102C800001D9032019E77648406A00F002000028C5
:102C9000F2D1207800F00400042872D10026704898
:102CA000C06900F0805068B900BF6D48C06940F04D
:102CB00080506B49C8610846C06900F080500090A0
:102CC00000BF01266948006800F48070B0B9674809
:102CD000006840F4807065490860FEF7FBFF054618
:102CE00006E0FEF7F7FF401B642801D90320E4E665
:102CF0005E48006800F480700028F2D000BFE068F1
:102D0000012806D15648006A40F001005449086283
:102D100027E0E06858B95248006A20F001005049A5
:102D200008620846006A20F00400086219E0E068C2
:102D300005280BD14A48006A40F00400484908625F
:102D40000846006A40F0010008620AE04448006A50
:102D500020F00100424908620846006A20F00400A1
:102D6000086200BFE068A0B1FEF7B4FF054609E0C5
:102D7000FEF7B0FF401B41F28831884202D90320A0
:102D80009BE622E03648006A00F002000028EFD0FF
:102D900012E0FEF79FFF054608E0FEF79BFF401B91
:102DA00041F28831884201D9032086E62C48006A26
:102DB00000F002000028F0D1012E05D12848C0699A
:102DC00020F080502649C86100BFE069C8B324489C
:102DD000406800F00C0008285FD0E069022847D165
:102DE000002020490866FEF775FF054606E0FEF75D
:102DF00071FF401B022801D903205EE618480068D5
:102E000000F000700028F2D1206AB0F5803F07D1B1
:102E10001348406820F40030A16808431049486016
:102E2000D4E9080108430E49496821F474110843A4
:102E30000B49486001200B490866FEF74BFF054629
:102E400007E02CE0FEF746FF401B022801D90320D3
:102E500033E60348006800F000700028F2D01EE05E
:102E600000100240000042428004424200700040D4
:102E700000200C490866FEF72DFF054606E0FEF728
:102E800029FF401B022801D9032016E606480068E6
:102E900000F000700028F2D101E001200DE60020D2
:102EA0000BE60000000042420010024010B504464C
:102EB0000CB9012010BD0021A16294F8510028B97D
:102EC000002084F85000204600F033F8022084F8F7
:102ED00051002068006820F0400021680860D4E9B3
:102EE00001010843E1680843216908436169084317
:102EF000218B01F400710843E1690843216A08430A
:102F0000A16A0843216808600421A06901EA104011
:102F1000616A0843216848602068C06920F4006045
:102F20002168C86100206065012084F851000020FC
:102F3000C0E7704770B504462546681EB0F1807F33
:102F400001D301200FE0681E4FF0E02148610F21FE
:102F50004FF0FF3002F030F800204FF0E0218861A0
:102F600007200861002070BD00BFFEE710B50B48C8
:102F70000B4908600B484860002109488160C16026
:102F80004FF480410161002141618161C1610162B1
:102F9000FEF7A6FE08B1FEF7F3FC10BD005400409A
:102FA00034140020A086010010B500220D490E48FF
:102FB00000F022F908B1FEF7E3FC0C490A4800F0E2
:102FC0007DFB08B1FEF7DCFC0949074800F065F815
:102FD00008B1FEF7D5FC044800F08CFB08B1FEF701
:102FE000CFFC10BD24010020C001002020000020E3
:102FF0007401002000BFFEE770477047704710B5AE
:10300000FEF754FF10BD00001148006840F00100B9
:103010000F490860084640680E4908400C4948605E
:10302000084600680C4908400949086008460068DD
:1030300020F4802008600846406820F4FE004860C4
:103040004FF41F008860C8030449086070470000FF
:10305000001002400000FFF8FFFFF6FE08ED00E060
:1030600070B50446D4F81852D4F8180298B1207CF0
:1030700040B94FF4007301212046D5F8042200F036
:1030800025FA06E0402301212046D5F8042200F06D
:103090001DFA002070BD0220FCE70246022011B19B
:1030A000C2F81C12002070470246D2F81832C3F84A
:1030B00004120020704710B50346D3F81842C4F834
:1030C0000812C4F81022002010BD70B504460D4649
:1030D000D4F814022946426820469047002070BD6B
:1030E00070B506460C4615462B4622460021304652
:1030F00000F0ECF9002070BD70B506460C46154690
:103100002B4622460021304600F0ACFA002070BD6C
:1031100070B504460D468021204600F077FA002164
:10312000204600F073FA70BD70B504460E46154691
:103130000320C4F8F4014FF484700551001D0551BB
:103140002B4632460021204600F0C0F9002070BD19
:1031500010B504460520C4F8F40100231A461946A8
:10316000204600F0B3F9002010BD70B504460E46AD
:1031700015460220C4F8F401A561E5612B463246EC
:103180000021204600F06EFA002070BD10B5044604
:103190000420C4F8F40100231A461946204600F022
:1031A00061FA002010BD2DE9F04104460D46174696
:1031B0000026FCB1204601F05DF9022101EB400040
:1031C00038803A783046711CCEB22A5403223046F9
:1031D000711CCEB22A540AE014F8012B3046711C3F
:1031E000CEB22A5400223046711CCEB22A54207826
:1031F0000028F1D1BDE8F08170B504460D461646B1
:103200000CB9022070BDD4F8140210B10020C4F82B
:1032100014020DB1C4F81052012084F8FC0126708C
:10322000204600F0E1F80020ECE72DE9F0410446EB
:103230000D46002600272946D4F82002FEF76AFF33
:103240000646304601F0CCFE07463846BDE8F08120
:103250002DE9F04104460D46002600272946D4F802
:103260002002FEF725FF0646304601F0B9FE07466C
:103270003846BDE8F0812DE9F04104460E46174678
:10328000002E54D104F11405D4F8F401022843D1DE
:10329000D5E90201884210D9D5E90201401AA86097
:1032A000288982B239462046FFF726FF00231A46B6
:1032B0001946204600F00AF92EE0E9686868B0FB7C
:1032C000F1F201FB1200B8B9E9686868884213D3CB
:1032D0006868D4F8F81188420ED2002211462046C0
:1032E000FFF70AFF0020C4F8F80100231A46194628
:1032F000204600F0EBF80FE0D4F81402C06840B1AB
:1033000094F8FC01032804D1D4F81402C1682046C3
:1033100088472046FFF71CFF94F80002012814D1CB
:10332000204600F0D3F9002084F800020DE0D4F824
:103330001402406948B194F8FC01032805D1D4F87F
:10334000140231464269204690470020BDE8F081D2
:103350002DE9F04105460E4617465EBB05F5827421
:10336000D5F8F401032833D1D4E90201884210D9F9
:10337000D4E90201401AA060D4E90201884201D2D6
:10338000A06800E0E06882B239462846FFF7A8FE50
:103390001EE0D5F81402006940B195F8FC0103283D
:1033A00004D1D5F814020169284688472846FFF75A
:1033B000EDFE0DE0D5F81402806948B195F8FC01E6
:1033C000032805D1D5F81402314682692846904772
:1033D0000020BDE8F08170B504460D462946D4F8BA
:1033E0002002FEF7C8FE70BD10B504461D48C0F8A7
:1033F0005C44C4F820021C481A4908600820486050
:1034000002211848816000218161C1610162FFF7DA
:103410002FF808B1FEF7B4FA04F508741823002257
:1034200011462068FEF708FE5823002280212068FC
:10343000FEF702FEC023002281212068FEF7FCFD7A
:103440004FF48873002201212068FEF7F5FD206803
:10345000A4F508744FF4807300228221FEF7ECFD7E
:10346000002010BDE4030020005C004010B50246BF
:10347000D2F8203201F08000802807D101F07F04CB
:1034800003F1280000EB4410807810BD01F07F04A8
:1034900003F50A7000EB44108078F6E72DE9F04759
:1034A00004460F4615461E464FF00008C1462B46FF
:1034B00032463946D4F82002FEF767FE8046404681
:1034C00001F08EFD81464846BDE8F0872DE9F047C2
:1034D00004460D4616461F464FF00008C1463B46BF
:1034E00032462946D4F82002FEF78AFE804640463E
:1034F00001F076FD81464846BDE8F08710B50446E8
:103500004023002211462046FFF7C8FF40214FF418
:10351000887001514023002280212046FFF7BEFF22
:1035200040212162012084F8FC01D4F8180228B15E
:103530002179D4F81402426820469047002010BD3B
:10354000014691F8FD0181F8FC010020704710B59B
:10355000044694F8FC01032808D1D4F81402C06989
:1035600020B1D4F81402C16920468847002010BD5C
:1035700002461174002070472DE9F04104460D46C3
:10358000002600272946D4F82002FFF73FF8064618
:10359000304601F025FD07463846BDE8F08170B59C
:1035A00004460D46294604F5027000F073F8012028
:1035B000C4F8F40140F20E20005BC4F8F80194F85E
:1035C000080200F01F0020B1012808D0022812D103
:1035D0000BE004F50271204600F093F813E004F5C7
:1035E0000271204600F071F90DE004F502712046E9
:1035F00000F0C0F807E094F8080200F080012046CF
:1036000000F004F800BF00BF002070BD2DE9F041BC
:1036100004460D46002600272946D4F82002FEF76E
:1036200014FE0646304601F0DBFC07463846BDE88E
:10363000F08170B5044600250026D4F82002FFF77B
:1036400009F80546284601F0CBFC0646304670BD19
:10365000014691F8FC0181F8FD01042081F8FC018C
:10366000002070472DE9F04704460D4616461F46D8
:103670004FF00008C1463B4632462946D4F82002A6
:10368000FEF71CFE8046404601F0AAFC81464846F3
:10369000BDE8F0870A7802704A7842708B78CA7861
:1036A00003EB022242800B794A7903EB02228280EB
:1036B0008B79CA7903EB0222C28070470246002050
:1036C00011B1C2F8141200E0022070470146002038
:1036D000704770B504460D460226D4F8140238B17E
:1036E000D4F81402294602682046904700B9002603
:1036F000304670BD10B504462046FFF79AFF002003
:1037000010BD70B505460C46002660780A2829D2FF
:10371000DFE800F01923281E280A0528140F214687
:10372000284601F0A5FB22E02146284601F0E7F8F3
:103730001DE02146284601F023F818E021462846DE
:1037400000F0D4FF13E02146284600F0F7FF0EE01A
:103750002146284601F0FDF809E02146284601F0FF
:10376000ACF804E021462846FFF7D2FC00BF00BFBA
:10377000304670BD2DE9F04105460E464FF0000879
:103780003479307800F06000202808D1D5F8140290
:1037900031468268284690470020BDE8F081707865
:1037A000002855D001282AD003287AD195F8FC01A9
:1037B000022802D003281BD107E02CB1802C03D0B3
:1037C00021462846FFF722FF17E0708830B92CB158
:1037D000802C03D021462846FFF718FFD5F81402A5
:1037E00031468268284690472846FFF7CFFC04E020
:1037F00031462846FFF78CFC00BF00BF62E095F819
:10380000FC01022802D003281BD107E02CB1802C38
:1038100003D021462846FFF7F9FE17E0708878B9F3
:1038200004F07F0048B121462846FFF7FEFCD5F89A
:10383000140231468268284690472846FFF7A6FCC6
:1038400004E031462846FFF763FC00BF00BF39E0C3
:1038500095F8FC01022802D003282BD107E004F0E0
:103860007F0018B121462846FFF7D0FE27E004F07C
:103870008000802806D104F07F0105F1140000EBE0
:10388000011005E004F07F0105F5827000EB0110E6
:10389000074621462846FFF7E9FD18B101203860A8
:1038A00002E00EE000203860022239462846FFF789
:1038B0005CFC04E031462846FFF72AFC00BF00BF4D
:1038C00000E000BF00BF404667E770B504460D4604
:1038D000002694F8FC01032814D1287901280CDC77
:1038E000D4F814022946826820469047E88840B9F7
:1038F0003EB92046FFF74AFC03E029462046FFF781
:1039000007FC04E029462046FFF702FC00BF00BF89
:10391000002070BD7047000001460148704700005C
:103920004408002010B50246C87830B101282CD0D8
:10393000022810D0032836D119E00878400032F868
:10394000100048F68F13184040F400700B785B00AD
:1039500022F8130028E00878400032F8100048F6FA
:103960008F1318400B785B0022F813001CE00878D6
:10397000400032F8100048F68F13184040F4C06041
:103980000B785B0022F813000EE00878400032F854
:10399000100048F68F13184040F480600B785B00ED
:1039A00022F8130000E000BF00BF0878400032F8A2
:1039B000100048F68F73184048F2800318430B78C4
:1039C00018435B0022F81300887A00287DD14878DC
:1039D00098B3888840104400B2F85030087803EB60
:1039E000C00002F5806343F810400878400032F8C8
:1039F000100000F0400068B10878400032F8100074
:103A000048F68F73184048F2C00318430B785B00E8
:103A100022F813000B785B0032F8133048F6BF74BD
:103A200003EA040080F0200040F4004343F08003E8
:103A30000C78640022F8143047E1FFE788884010D2
:103A40004400B2F85030087803EBC000001D02F5C6
:103A5000806343F81040B2F85040087804EBC0008F
:103A6000801D1C4604EB40030C693E2C10D90C69E8
:103A7000C4F34F100C7C04F01F040CB9441EA0B218
:103A80004FF6FF7404EA802444F400441C600DE007
:103A90000C69C4F34F000C7C04F001040CB1441C0D
:103AA000A0B24FF6FF7404EA80241C60087840003E
:103AB00032F8100000F4804078B10878400032F805
:103AC000100048F68F73184000E01BE04CF28003B2
:103AD00018430B785B0022F813000B785B0032F878
:103AE00013304BF68F7403EA040080F4805080F4A6
:103AF000005040F4004343F080030C78640022F847
:103B00001430E2E00878400032F8100040F4807091
:103B100048F68F73184048F2800318430B785B0017
:103B200022F81300C88840104400B2F850300878DA
:103B300003EBC00002F5806343F810400889401091
:103B40004400B2F85030087803EBC000001D02F5C5
:103B5000806343F810404878F0BB0878400032F8A2
:103B6000100000F4804068B10878400032F810007E
:103B700048F68F7318404CF2800318430B785B00B3
:103B800022F813000878400032F8100000F04000DE
:103B900068B10878400032F8100048F68F7318407A
:103BA00048F2C00318430B785B0022F81300087832
:103BB000400032F8100048F68F73184048F2C003F6
:103BC00018430B785B0022F813000B785B0032F887
:103BD00013304BF68F7400E01EE003EA040080F41B
:103BE000805080F4005040F4004343F080030C7890
:103BF000640022F814300B785B0032F8133048F67A
:103C0000BF7403EA040040F4004343F080030C78DF
:103C1000640022F8143058E00878400032F81000B0
:103C200000F4804068B10878400032F8100048F68F
:103C30008F7318404CF2800318430B785B0022F816
:103C400013000878400032F8100000F0400068B11E
:103C50000878400032F8100048F68F73184048F298
:103C6000C00318430B785B0022F81300087840006B
:103C700032F8100048F68F7318404CF28003184356
:103C80000B785B0022F813000B785B0032F81330DE
:103C900048F6BF7403EA040040F4004343F0800395
:103CA0000C78640022F814300B785B0032F8133083
:103CB0004BF68F7403EA040040F4004343F08003A2
:103CC0000C78640022F8143000BF002010BD10B53D
:103CD0000446002010BD10B50246887A00284DD158
:103CE000487828B30878400032F8100000F040000F
:103CF00068B10878400032F8100048F68F73184019
:103D000048F2C00318430B785B0022F813000B78CD
:103D10005B0032F8133048F6BF7403EA040040F445
:103D2000004343F080030C78640022F81430DAE09A
:103D30000878400032F8100000F4804068B108783C
:103D4000400032F8100048F68F7318404CF28003A0
:103D500018430B785B0022F813000B785B0032F8F5
:103D600013304BF68F7403EA040040F4004343F031
:103D700080030C78640022F81430B4E048780028FE
:103D800058D10878400032F8100000F4804068B143
:103D90000878400032F8100048F68F7318404CF253
:103DA000800318430B785B0022F81300087840006A
:103DB00032F8100000F0400068B10878400032F896
:103DC000100048F68F73184048F2C00318430B7870
:103DD0005B0022F813000878400032F8100048F623
:103DE0008F73184048F2C00318430B785B0022F829
:103DF00013000B785B0032F813304BF68F7403EA34
:103E0000040040F4004343F080030C78640022F87F
:103E100014300B785B0032F8133048F6BF7403EAB5
:103E2000040040F4004343F080030C78640022F85F
:103E3000143058E00878400032F8100000F4804058
:103E400068B10878400032F8100048F68F731840C7
:103E50004CF2800318430B785B0022F813000878BB
:103E6000400032F8100000F0400068B108784000CF
:103E700032F8100048F68F73184048F2C003184318
:103E80000B785B0022F813000878400032F810002D
:103E900048F68F7318404CF2800318430B785B0090
:103EA00022F813000B785B0032F8133048F6BF7429
:103EB00003EA040040F4004343F080030C786400FC
:103EC00022F814300B785B0032F813304BF68F7405
:103ED00003EA040040F4004343F080030C786400DC
:103EE00022F8143000BF002010BD014600207047AA
:103EF00001460020704710B50446012024F8400F09
:103F000000202080A0802082403C204600F046FA1D
:103F1000002010BD014600224FF43D42B1F84000A0
:103F20009043A1F8400000207047024600207047EF
:103F300010B50246487848B30878400032F81000BF
:103F400000F0400068B10878400032F8100048F6F0
:103F50008F73184048F2C00318430B785B0022F8B7
:103F600013000B785B0032F8133048F6BF7403EA95
:103F7000040080F0100080F0200040F4004343F083
:103F800080030C78640022F8143029E0087840009F
:103F900032F8100000F4804068B10878400032F830
:103FA000100048F68F7318404CF2800318430B78CA
:103FB0005B0022F813000B785B0032F813304BF6ED
:103FC0008F7403EA040080F4805080F4005040F4C1
:103FD000004343F080030C78640022F8143000BFE3
:103FE000002010BD10B502460878A0B90B785B0020
:103FF00032F813304BF6BF7403EA040080F48050AB
:1040000080F0100040F4004343F080030C7864001B
:1040100022F8143027E0487890B10B785B0032F832
:10402000133048F6BF7403EA040080F0100040F437
:10403000004343F080030C78640022F8143012E04F
:104040000B785B0032F813304BF68F7403EA0400F0
:1040500080F4805040F4004343F080030C78640007
:1040600022F8143000BF002010BDF0B506460C4603
:104070000027A569607801287CD12169A069884260
:1040800004D92569A069401BA06102E0A569002050
:10409000A061A07A80B9ABB2A2883046616900F015
:1040A000B4F9B6F85010207801EBC000801C06F57A
:1040B000806141F81050A1E02078400036F81000EF
:1040C00000F04000C0B3607838BBB6F850202078CC
:1040D00002EBC000801D06F5806202EB40013E2D20
:1040E0000ED9C5F34F1005F01F020AB9421E90B257
:1040F0004FF6FF7202EA802242F400420A600BE0AF
:10410000C5F34F0005F001020AB1421C90B24FF610
:10411000FF7202EA80220A600CE06078012809D16F
:10412000B6F85010207801EBC000801C06F58061C5
:1041300041F81050278939E0FFE7607840BBB6F8B6
:104140005020207802EBC000801C06F5806202EB54
:1041500040013E2D0FD9C5F34F1005F01F020AB9DB
:10416000421E90B24FF6FF7202EA802242F40042F1
:104170000A600CE057E0C5F34F0005F001020AB1F8
:10418000421C90B24FF6FF7202EA80220A600CE0F5
:104190006078012809D1B6F85010207801EBC000F2
:1041A000801C06F5806141F81050E788ABB23A46B2
:1041B0003046616900F029F9607870B920784000D4
:1041C00036F8100048F68F71084048F2C0010843E5
:1041D0002178490026F8110010E0607801280DD1FF
:1041E0002078400036F8100048F68F7108404CF2F5
:1041F000800108432178490026F811002178490000
:1042000036F8111048F6BF7201EA020080F0100083
:1042100080F0200040F4004141F0800122785200FB
:1042200026F81210B8E02169A069884204D92569EE
:10423000A069401BA06102E0A5690020A061A07AEE
:1042400038BBB6F85020207802EBC000801D06F580
:10425000806202EB40013E2D0ED9C5F34F1005F0F0
:104260001F020AB9421E90B24FF6FF7202EA802284
:1042700042F400420A600BE0C5F34F0005F0010272
:104280000AB1421C90B24FF6FF7202EA80220A6025
:104290006DE0607838BBB6F85020207802EBC000A3
:1042A000801C06F5806202EB40013E2D0ED9C5F35D
:1042B0004F1005F01F020AB9421E90B24FF6FF726E
:1042C00002EA802242F400420A600BE0C5F34F008C
:1042D00005F001020AB1421C90B24FF6FF7202EAE9
:1042E00080220A600CE06078012809D1B6F85010ED
:1042F000207801EBC000801C06F5806141F8105069
:10430000607838BBB6F85020207802EBC000801DE2
:1043100006F5806202EB40013E2D0ED9C5F34F1029
:1043200005F01F020AB9421E90B24FF6FF7202EA70
:10433000802242F400420A600BE0C5F34F0005F012
:1043400001020AB1421C90B24FF6FF7202EA8022CB
:104350000A600CE06078012809D1B6F85010207886
:1043600001EBC000801C06F5806141F810502178F7
:10437000490036F811104BF68F7201EA020080F402
:10438000805080F4005040F4004141F080012278D8
:10439000520026F8121000BF0020F0BD0146002296
:1043A0004FF43F42B1F840001043A1F84000002014
:1043B0007047000010B50248FDF7A6FF10BD0000D1
:1043C000E403002001460020B1F844007047F0B536
:1043D0005F1C7E100024002500EB420707F5806576
:1043E000344605E035F804CB21F801CB491C641EA6
:1043F000002CF7D1F0BD024600207047024611B9EB
:104400008020A2F84C00002070472DE9F0410446BE
:1044100003F101084FEA68070025AC46002600209A
:1044200004EB420808F580603D460BE091F800C0BF
:10443000491C91F800804CEA082620F8026B801C89
:10444000491C6D1E002DF1D1BDE8F08100BFFEE7D3
:1044500010B5002204490548FEF72DFE0449034823
:10446000FEF722FE002010BD4C100020C0010020ED
:10447000640C00200146002002E0421CD0B2491C1E
:104480000A78002AF9D1704730B50B46002100BFE9
:1044900016E00A24B4EB107F05D9302404EB107425
:1044A00003F8114005E0412404EB10740A3C03F8C2
:1044B0001140000100254C00641C1D554C1CE1B24C
:1044C0009142E6DB30BD000008B500BF12488069AC
:1044D00040F02000104988610846806900F0200003
:1044E000009000BF00BF0846806940F0040088616A
:1044F0000846806900F00400009000BF00BF084635
:10450000806940F0080088610846806900F0080072
:10451000009000BF08BD000000100240002070475E
:1045200070B50A480468001D0568001D066834441B
:1045300054B1082206492046FFF7A6FF0422044989
:1045400010312846FFF7A0FF70BD0000E8F7FF1FFD
:104550005A0100202DE9F04104460F460026207C38
:1045600070B94FF40073022281212046FEF796FFB6
:104570004FF40073022201212046FEF78FFF0BE06B
:104580004023022281212046FEF788FF4023022299
:1045900001212046FEF782FF0823032282212046C4
:1045A000FEF77CFF4FF40770FFF7B6F9C4F8180266
:1045B000D4F8180208B901261CE0D4F81852D4F82F
:1045C0001C12086880470020C5F81402C5F81802BC
:1045D000207C40B94FF4007301212046D5F8042215
:1045E000FEF774FF06E0402301212046D5F804229F
:1045F000FEF76CFF3046BDE8F0810346042B15D072
:1046000007DC7BB1012B0ED0022B0DD0032B12D176
:104610000BE0202B0BD0212B0AD0222B09D0232BEF
:1046200009D107E008E007E006E005E004E003E068
:1046300002E001E000E000BF00BF00207047000082
:1046400070B504460D4621460348FEF72DFD02488D
:10465000FEF706FD002070BDC001002070B50546C4
:104660000C46D5F81862207800F0600040B320288E
:1046700035D1E088E0B1207800F0800060B1E288B8
:104680006078D5F81C128B6831469847E28831462D
:104690002846FEF76AFD12E0607886F80002A079ED
:1046A00086F80102E28831462846FEF73DFD06E025
:1046B0006078D5F81C1200228B68214698470FE0DD
:1046C00060780A2802D00B2807D105E001220649AC
:1046D0002846FEF74AFD00E000BF00BF00BF00BF54
:1046E00000BF002070BD00002301002070B504460B
:1046F0000D46E888012804D029462046FEF708FD2B
:104700001BE094F8FC01022802D003280FD108E036
:104710000020A060012204F108012046FEF725FDDB
:104720000AE00122211D2046FEF71FFD04E0294674
:104730002046FEF7EDFC00BF00BF70BD70B504461B
:104740000D4694F8FC01022802D0032811D100E0A4
:1047500000BF0120E060D4F8040218B1E06840F026
:104760000200E060022204F10C012046FEF7FDFC8D
:1047700004E029462046FEF7CBFC00BF00BF70BD19
:1047800070B504460D46A87834490870084600788C
:10479000012804DD29462046FEF7BAFC5BE094F8C8
:1047A000FC01022802D003284FD11CE02B480078DE
:1047B000A8B12A4800786060032084F8FC012748EB
:1047C00001782046FEF785FF022804D129462046BD
:1047D000FEF79EFC70BD2046FEF7D8FC02E02046A6
:1047E000FEF7D4FC36E01D48007870B9022084F84A
:1047F000FC011A4800786060184801782046FEF7EE
:1048000064FC2046FEF7C2FC1EE01449097860688B
:10481000884216D021792046FEF757FC0F480078D1
:1048200060600E4801782046FEF753FF022804D14D
:1048300029462046FEF76CFCCCE72046FEF7A6FC96
:1048400002E02046FEF7A2FC04E029462046FEF7DF
:104850005FFC00BF00BF00BFBCE7000010000020ED
:1048600002460B46D2F81812D2F8180218B10020EE
:10487000C1F8140270470220FCE770B504460E46EA
:10488000002581212046FEF7E3FC01212046FEF7AA
:10489000DFFC82212046FEF7DBFCD4F8180250B181
:1048A000D4F81C1248688047D4F81802FFF732F891
:1048B0000020C4F81802284670BD70B504460D46A5
:1048C00094F8FC01022802D0032811D100E000BFB7
:1048D000688801280BD10020C4F80402D4F814021F
:1048E00029468268204690472046FEF74FFC04E0A8
:1048F00029462046FEF70CFC00BF00BF70BD70B516
:1049000004460D46A888F8B9E888E8B9A87800F008
:104910007F0694F8FC01032804D129462046FEF7BF
:10492000F7FB15E084F8FE6131462046FEF724FED1
:104930002046FEF72BFC1EB1022084F8FC0107E0A4
:10494000012084F8FC0103E029462046FEF7E0FB45
:1049500070BD70B504460D46688801280AD1C4F8B8
:104960000402D4F814022946826820469047204663
:10497000FEF70CFC70BD70B504460E46D4F8185214
:1049800031462046FEF727FDC5F80C02D4F8180280
:1049900048B1D5F80402D4F81C12CA6805F50371B1
:1049A0009047002070BD0220FCE72DE9FC41054640
:1049B0000024002700260020019000900CE2BDF8A2
:1049C000040000F00F06002E7DD1BDF8040000F0B9
:1049D000100088BB2868008848F60F7108402968D5
:1049E000088005F128042868B0F85010207801EB01
:1049F000C000801C296801F5806131F81000C0F307
:104A00000900E061E16960690844606100212846AD
:104A1000FDF732FB95F824000028CFD0A0690028CC
:104A2000CCD195F8240040F080002968A1F84C0012
:104A3000002085F82400CFE1FFE705F50A74286817
:104A400000880090BDF8000000F4006018B32868EA
:104A5000B0F85010207801EBC000801D296801F5E6
:104A6000806131F81000C0F30900E061A18B8BB2C6
:104A7000A28805F22C412868FFF7A9FC2868008865
:104A8000C0F30E0048F68F71084029680880284658
:104A9000FDF7D7FDA0E1BDF8000000F400400028BC
:104AA0008CD028680088C0F30E0048F68F7108404B
:104AB000296808802868B0F85010207801EBC00001
:104AC000801D296800E055E001F5806131F8100093
:104AD000C0F30900E061E06960B1B4F81CC01FFADE
:104AE0008CF3A28861692868FFF771FCE16960694D
:104AF0000844606100212846FDF7CCFA2A6802F5D7
:104B000080622868B0F85000801D02EB40012269E5
:104B10003E2A10D92269C2F34F10227C02F01F02F4
:104B20000AB9421E90B24FF6FF7202EA802242F4A6
:104B300000420A600DE02269C2F34F00227C02F0BD
:104B400001020AB1421C90B24FF6FF7202EA8022C3
:104B50000A60296809884BF68F7201EA020080F426
:104B6000805080F4005040F4004141F080012A68F8
:104B7000118031E17100286830F811000090BDF813
:104B8000000000F4004000287CD07100286830F854
:104B90001100C0F30E0048F68F71084072002968BA
:104BA00021F8120005F50A7000EB4614A07AA8B9A6
:104BB0002868B0F85010207801EBC000801D2968EB
:104BC00001F5806131F81000C0F30907EFB3A28846
:104BD00061693B462868FFF7FAFB44E02178490009
:104BE000286830F8110000F48040A8B12868B0F8B7
:104BF0005010207801EBC000801C296801F580610D
:104C000031F81000C0F30907DFB1E28861693B4663
:104C10002868FFF7DCFB14E02868B0F85010207813
:104C200001EBC000801D296801F5806131F810009A
:104C3000C0F309072FB1228961693B462868FFF755
:104C4000C6FB21784900286800E00CE030F811002C
:104C500048F68F71084048F2C0010843227852009C
:104C6000296821F81200E0693844E061606938443D
:104C70006061A06910B12069B84204D92178284642
:104C8000FDF708FA05E021782846D4E90523FDF769
:104C9000B7FABDF8000000F0800000287CD005F1D4
:104CA000280000EB46147100286830F8110048F61F
:104CB0000F7108407200296821F81200A07AD0B95B
:104CC0002868B0F85010207801EBC000801C2968DB
:104CD00001F5806131F81000C0F30900E061E0697E
:104CE000E8B3B4F81CC01FFA8CF3A2886169286885
:104CF000FFF78BFB4EE021784900286830F811005F
:104D000000F04000D0B12868B0F85010207801EBD6
:104D1000C000801C296801F5806131F81000C0F3E3
:104D20000900E061E06928B3B4F81CC01FFA8CF3F5
:104D3000E28861692868FFF768FB1BE02868B0F823
:104D40005010207801EBC000801D296801F58061BA
:104D500031F81000C0F30900E061E06900E019E0FB
:104D600040B1B4F81CC01FFA8CF32289616928682D
:104D7000FFF74BFB21784900286830F8110048F60E
:104D80008F7108404CF28001084322785200296854
:104D900021F81200286800E01EE0B0F850102078DA
:104DA00001EBC000801C296801F5806131F810001A
:104DB000C0F30900E061E169606908446061A069CD
:104DC00020B921782846FDF757F905E021782846D3
:104DD000D4E90523FDF772FA2868B0F84400019081
:104DE00000F4004000287FF4EAADBDE8FC8100B586
:104DF00093B0282109A8FBF70AFD142104A8FBF7AA
:104E000006FD00200090019002900390012009907F
:104E100000040A9000200B9001200D9002201090B9
:104E2000C1031191C104129109A8FDF721FE08B137
:104E3000FCF7A6FD0F2004900220059000200690AC
:104E40004FF48060079000200890012104A8FDF72E
:104E5000C7FC08B1FCF794FD10200090800403907B
:104E60006846FDF727FC08B1FCF78AFD13B000BDCA
:104E7000F8B504460E467088001208287FD2DFE895
:104E800000F07E040C207E7E5F6D207CD4F8101232
:104E90000A6869469047054676E0207C40B9D4F818
:104EA0001402816A6846884705460221697007E056
:104EB000D4F81402C16A6846884705460221697021
:104EC00062E0B078062834D2DFE800F0030B131B51
:104ED000232B207CD4F810124A6869469047054677
:104EE0002CE0207CD4F810128A6869469047054669
:104EF00024E0207CD4F81012CA6869469047054621
:104F00001CE0207CD4F810120A69694690470546D7
:104F100014E0207CD4F810124A696946904705468F
:104F20000CE0207CD4F810128A6969469047054647
:104F300004E031462046FEF7EBF8F8BD00BF23E061
:104F4000207C30B9D4F81402416B68468847054686
:104F50001AE031462046FEF7DBF8EEE7207C48B940
:104F6000D4F81402016B684688470546072169702A
:104F70000AE004E031462046FEF7CAF8DDE7314694
:104F80002046FEF7C5F8D8E700BFBDF8000088B19D
:104F9000F08878B1F088BDF80010884202DDBDF8D5
:104FA000000000E0F0880090BDF80020294620466F
:104FB000FEF7DBF800BFC0E710B5002804DB0A07E6
:104FC000130E054A135406E00A07140E034A00F0B4
:104FD0000F031B1FD45410BD00E400E018ED00E0E7
:104FE0000146002031B1012906D0022906D003294B
:104FF00008D105E0002007E0022005E0012003E0E1
:10500000022001E0022000BF00BF704770B50546D6
:10501000D5F81842D5F81C0278B194F80002FF28A0
:105020000BD094F8012294F80002D5F81C128B687A
:1050300021469847FF2084F80002002070BD000040
:105040000146432008800148704700009C00002072
:1050500001464320088001487047000058000020A6
:1050600002461220088001487047000040010020DD
:1050700002480068C0F30220704700000CED00E019
:1050800070B505460C462DB92246064906A0FEF726
:105090008AF804E02246034903A0FEF784F8014899
:1050A00070BD0000640A002043444320436F6E66D5
:1050B000696700000246042008800148704700002C
:1050C0005401002070B505460C461A202080FFF7D9
:1050D00027FA014870BD00005801002070B5054650
:1050E0000C462DB92246064906A0FEF75CF804E0FE
:1050F0002246034903A0FEF756F8014870BD0000A0
:10510000640A002053544D3332205669727475611D
:105110006C20436F6D506F72740000000146432095
:105120000880014870470000E000002070B5054687
:105130000C462DB92246064906A0FEF734F804E0D5
:105140002246034903A0FEF72EF8014870BD000077
:10515000640A002043444320496E746572666163AB
:105160006500000070B505460C462246024903A0C2
:10517000FEF719F8004870BD640A002053544D69C9
:1051800063726F656C656374726F6E696373000040
:1051900001460A20088001487047000014000020E2
:1051A00008B508490968C9084FF47A72B1FBF2F1F1
:1051B0004143009100BF00BF00994A1E00920029A0
:1051C000F9D108BD0C00002010B5044600F06BF9C1
:1051D0002168401A10BD10B5044600F064F9206043
:1051E0000020606010BD10B504462046FFF7F3FFB5
:1051F000204610BD10B5FCF765FEFFF7F8FDFFF780
:1052000063F9FDF7B3FEFDF7CFFE10BD2DE9F041C8
:1052100004460D4616461F46384600F015F900F0C4
:105220003BF8052805D12278F11C284600F03AF811
:105230000EE000F031F8082805D1227831462846E2
:1052400000F030F804E022783146284600F0B6F845
:10525000207800F005F82844BDE8F081017070471F
:10526000014601EBC10202480068001D805C7047E6
:105270009401002005490978884200D1704704490B
:1052800051F82010034A116000BFF7E7A801002081
:1052900098010020940100200148006800687047D0
:1052A000940100202DE9FE4F05468846164606EB80
:1052B000C6011C480068001D405C4FFA80F919487F
:1052C000006800784FFA80FA002425E02146304635
:1052D00000F054F8F8B1AB4608EB04000930A0EB3D
:1052E0000A000290C9F10800019007270FE03A4632
:1052F0002146304600F018F830B10223594668467E
:10530000029A00F0C1F800BF0BF1010B7F1E01985B
:105310008742ECDA00BF641C5445D7DB05EB09007B
:10532000BDE8FE8F9401002010B503460F480068C9
:10533000884203D10E48006898420DD003EBC304A5
:105340000C480068001D2044401C405C0A4C207042
:10535000074803600548016001209040064C24780E
:10536000204008B1012010BD0020FCE7BC01002056
:10537000B801002094010020B401002002460C482E
:10538000006882420BD00A480260006800EBC0034C
:1053900008480068001D1844401C074B1860064868
:1053A0000068405C08B1012070470020FCE7000065
:1053B000B001002094010020AC0100202DE9FE4F37
:1053C00007468846154605EBC5011B480068001DC9
:1053D000405C40B202901848006800784FFA80F9AB
:1053E000002424E021462846FFF7C8FFF0B1BA4662
:1053F00008EB04000930A0EB090001900298C0F10D
:10540000080B07260FE0324621462846FFF78CFF9F
:1054100030B1022351466846019A00F035F800BFCA
:105420000AF1010A761E5E45EDDA00BF641C4C45A8
:10543000D8DBBDE8FE8F0000940100200148007811
:105440007047000090010020022801D00149087037
:1054500070470000900100202DE9F04106460C46FF
:10546000174698464046FFF7EFFF254604E03946C9
:10547000284600F073F96D1C30682044A842F6DC21
:10548000BDE8F081016070472DE9F04107460C4608
:1054900015461E463046FFF7D7FF2946204600F046
:1054A0005DF9BDE8F08110B5FCF714FC10BD2DE9E5
:1054B000F04106460F46144698464046FFF7C4FFA3
:1054C000254604E02946384600F048F96D1C30684E
:1054D0002044A842F6DCBDE8F0810160704710B5B9
:1054E0000446204600F02CF910BD000010B504461B
:1054F000012291031748FCF7E7FB00224FF480518B
:105500001448FCF7E1FB1448006840F400601249BD
:10551000086000BF10480830006800F00200002852
:10552000F8D00D480C30046000BF0B48083000680C
:1055300000F002000028F8D000BF074808300068DB
:1055400000F080000028F8D1012211030148FCF787
:10555000BBFB10BD000C01400038004010B50446F4
:1055600000224FF480411848FCF7AEFB00224FF4B4
:1055700080511548FCF7A8FB1448006820F400602F
:105580001249086000BF11480830006800F00200AE
:105590000028F8D00D480C30046000BF0B480830DC
:1055A000006800F002000028F8D000BF074808306B
:1055B000006800F080000028F8D1012211030248A1
:1055C000FCF782FB10BD0000000C014000380040D9
:1055D00000B589B000BF5448C06940F480405249CA
:1055E000C8610846C06900F48040009000BF00BF59
:1055F0000846806940F0080088610846806900F02C
:105600000800009000BF00200590069007900890C9
:105610004FF420400590022006900320089005A931
:105620004248FCF7C3F94248424908604FF482708F
:10563000486000213F488160C160016141614FF4D1
:10564000007181610821C1610021016241628162B2
:105650000A21C162FDF72AFC08B1FCF791F900208C
:10566000019002900390049000224FF4B0412F4823
:10567000FCF72AFB4FF4B04001900120029000207B
:1056800003900220049001A92848FCF78FF92848CC
:10569000006840F040002649086000228914234831
:1056A000FCF712FB0122D1022048FCF70DFB05207C
:1056B000FCF768F900224FF400611C48FCF704FB7A
:1056C0000520FCF75FF90122D1021848FCF7FCFA2B
:1056D0000520FCF757F90120FFF740FF0C20FCF7ED
:1056E00051F91120FFF73AFF0C20FCF74BF93A2053
:1056F000FFF734FF052000F0CDF93620FFF72EFF2D
:10570000A02000F0C7F9B120FFF728FF0F20FFF716
:10571000EDFE0F20FFF7EAFE0F20FFF7E7FE29203E
:10572000FFF71CFF09B000BD00100240000C014053
:1057300000380040883C0020004870478814002052
:1057400070B5044644EA0410C5B22A464FF420510D
:105750000148FBF754F870BD881400202DE9F04192
:1057600004460E46002C01DABDE8F081002E00DA76
:10577000FAE7A02C00DBF7E7802E00DBF4E706EB6E
:10578000860104EB411000EBD0710D4A02EB61077A
:105790003D78204604EBD0714910A4EB410139B1AA
:1057A00005F00F05FFF74AFE45EA0010C5B204E018
:1057B00005F0F005FFF742FE05433D7000BFD3E75B
:1057C000881400202DE9F0438FB001A8FFF70BFDEE
:1057D0004FF0000801263046FFF781FE0DA88C210E
:1057E0001E220160426000BF8146434605220A2115
:1057F00000F0AEF907210CA8FFF76FFE8146334693
:105800001722444801684846FFF751FE41480068A6
:10581000401C4049086008460068962801D10020D5
:10582000086014210BA8FFF72DFE814643463A4835
:10583000052102684846FFF70FFE37480068401C04
:105840003549086008460068802801D12820086092
:105850000120FFF70FFD31A103A800F013FA8146E4
:1058600033460A22282100F0DFF92D241E270F25B8
:105870002EA103A800F006FA814643462246394687
:1058800000F0D2F92EA103A800F0FCF981466219BC
:105890000223394600F0C8F92FA103A800F0F2F95D
:1058A0008146022000FB054203463946484600F087
:1058B000BBF92FA103A800F0E5F98146032000FB06
:1058C000054202233946484600F0AEF92DA103A84F
:1058D00000F0D8F98146042000FB05420223394636
:1058E000484600F0A1F92C482CA1026803A800F05A
:1058F000C9F98146334619227D2100F095F900F05F
:1059000051F801A8FFF760FC234908600FB0BDE81B
:10591000F0830000880100208C010020D2E5F1F224
:10592000EEE2E0FF20F1F2F0EEEAE000C4E0E2EBAC
:10593000E5EDE8E5203A2031303020CCCF610000A1
:10594000CEF1E2E5F9B8EDEDEEF1F2FC203A2031CE
:10595000303020EBFEEAF100D1EAEEF0EEF1F2FC9D
:10596000203A20313020EAEC2FF1E5EA0000000077
:10597000D2E5ECEFE5F0E0F2F3F0E0203A2032334C
:1059800020D10000C2EBE0E6EDEEF1F2FC203A207F
:105990003130302525000000840100202564206D71
:1059A0007300000010B58023A0220021084600F0FB
:1059B000A1F82C20FFF7D2FDFFF7BEFE04463248C7
:1059C000006840F4006030490860012209142F4843
:1059D000FCF77AF900224FF480512C48FCF774F957
:1059E000002042E000BF28490831096801F00201A7
:1059F0000029F8D0217801F00F01254A32F8111062
:105A0000214A0C32116000BF1F490831096801F0BA
:105A100002010029F8D000BF1B490831096801F0D4
:105A200080010029F8D100BF17490831096801F049
:105A300002010029F8D021780909154A32F811101D
:105A4000114A0C32116000BF0F490831096801F09A
:105A500002010029F8D000BF0B490831096801F0A4
:105A600080010029F8D1641C401CB0F5205FB9DB2F
:105A7000012211030548FCF727F90348006820F4C8
:105A800000600149086010BD00380040000C014072
:105A9000CE5C000810B50446012291031348FCF7C0
:105AA00013F900224FF480511048FCF70DF900BFA4
:105AB0000F48006800F002000028F9D00C48001DD3
:105AC000046000BF0A48006800F002000028F9D016
:105AD00000BF0748006800F080000028F9D10122CB
