:020000040800F2
:10000000984F0020BD020008C9490008C5490008F2
:10001000C7490008B9200008B75C000800000000CC
:10002000000000000000000000000000CD490008B2
:10003000BB20000800000000CB490008CF490008A1
:10004000D7020008D7020008D7020008D70200082C
:10005000D7020008D7020008D7020008D70200081C
:10006000D7020008D7020008D7020008D70200080C
:10007000D7020008D7020008D7020008D7020008FC
:10008000D7020008D7020008A11F0008D702000805
:10009000435C0008D7020008D7020008D702000816
:1000A000D7020008D7020008D7020008D7020008CC
:1000B000D70200081D4A0008D7020008D70200082E
:1000C000D7020008D7020008D7020008D7020008AC
:1000D000D7020008A14A0008D7020008D70200088A
:1000E000D7020008D7020008D702000800F002F883
:1000F00000F0BBF80AA090E8000C82448344AAF107
:100100000107DA4501D100F0B0F8AFF2090EBAE804
:100110000F0013F0010F18BFFB1A43F0010318473B
:100120003CE400005CE400000A444FF0000C10F8CE
:10013000013B13F0070408BF10F8014B1D1108BF65
:1001400010F8015B641E05D010F8016B641E01F805
:10015000016BF9D113F0080F1EBF10F8014BAD1C55
:100160000C1B09D16D1E58BF01F801CBFAD505E073
:1001700014F8016B01F8016B6D1EF9D59142D6D3CD
:10018000704700000023002400250026103A28BFF5
:1001900078C1FBD8520728BF30C148BF0B607047F9
:1001A0006E2900F0FD85702900F0418266290BF070
:1001B000328565290BF02F8567290BF02C85612985
:1001C000AFF3008003681B0A28BF41F08001692952
:1001D00000F01C81642900F01981752900F0168156
:1001E0006F2900F0CE81782900F00D82E92901F015
:1001F0004580E42901F04280F52901F03F80EF2994
:1002000000F0CB81F82900F00C820368DB0928BFDD
:1002100041F08001632901F00E80732901F0138001
:10022000E32901F01E80F32901F0238000207047AC
:100230001FB59DE8030001F0F3F800F0DCFA01F0CF
:10024000CFF80400002000210AF0B2FB401C6060DF
:10025000002000210AF096FBE06000F0D1FC1FBDF9
:1002600010B5002001F068F810BD01F02EFA11461B
:10027000FFF7DEFF0AF080FB01F066FA03B4FFF738
:10028000EFFF03BC01F070FA0B49D1F800C04A68D7
:100290005CF8043B1068184442F8040B8C4528BFF6
:1002A000A1F1DC0C8A4228BFA1F1DC02C1F800C038
:1002B0004A6020F0004070473047002009488047DE
:1002C00009480047FEE7FEE7FEE7FEE7FEE7FEE738
:1002D000FEE7FEE7FEE7FEE704480549054A064B50
:1002E00070470000D5490008ED000008984700203D
:1002F000984F0020984B0020984B0020B2F120032B
:100300000AD5C2F1200320FA02F001FA03F321FA20
:1003100002F140EA0300704721FA03F04FF00001B8
:10032000704700001CB50C46064B7B4469460090A4
:10033000204600F05EFF04460020694600F06CFF96
:1003400020461CBDEB0E000070B5044685690068B0
:10035000C10601D5302600E02026C00707D070BDB9
:10036000D4E9012130469047206A401C20626D1E6E
:10037000F6D570BD70B5044685690078C00707D111
:1003800070BDD4E9012120209047206A401C2062E2
:100390006D1EF6D570BD09684A0501D540B270479B
:1003A000C905FCD500B2704709684A0501D5C0B23D
:1003B0007047C905FCD580B2704770B50C4605463C
:1003C000012A05D02878800600D5EA69002302E0DA
:1003D000012305E05B1C934202D2E05C0028F9D1C6
:1003E000A869E618C01AA861286A18442862284635
:1003F000FFF7AAFF04E0D5E9012114F8010B9047AB
:10040000B442F8D32846FFF7B5FF70BD2DE9F0419F
:100410000646002410687529314616A510D0FFF74E
:10042000BAFF002802DA404213A507E031688A07C4
:1004300001D512A502E0490704D511A5012401E068
:10044000FFF7B2FF00210A2206F1240709E0B0FB02
:10045000F2FCB0FBF2F302FB1C003030785418467B
:10046000491C0028F3D123462A463046BDE8F04116
:1004700000F03DBC000000002D0000002B0000003B
:10048000200000002DE9FF5F15468A460446DFF88C
:10049000AC80F8440027D8E900103E46CDE90010B2
:1004A00010E03AF816106A4602A800F025FF411C39
:1004B00007D02178890603D5E269391891420DD811
:1004C0000744761C2078800602D5E069B84205DD35
:1004D000AE42E6DB3AF816000028E2D1A069C01B64
:1004E000A0612046FFF730FFD8E90010CDE90010E9
:1004F000002017E03AF818106A4602A800F0FCFE47
:10050000B0F1FF3F81460BD000250DF1080B05E04F
:10051000D4E901211BF8050090476D1C4D45F7D328
:1005200008F10100B0428046E4DB206A38442062D2
:100530002046FFF71FFFBDE8FF9F00005ADE0000C6
:1005400030B4002100F1240408E002F00705D208CD
:10055000303542EA4372DB086554491C52EA030510
:10056000F3D10468002310A2250707D5A40600D400
:1005700021B1C46901230DA2641EC46130BC00F026
:10058000B6BB10B5044621461068FFF70DFF0246C2
:100590002046BDE810400023D2E7D21D22F007011B
:1005A000D1E90023CCE7000000000000300000008B
:1005B000F0B40D460188090502D5214C7C4402E0C7
:1005C0001F4C7C440E34002100F1240608E002F0A8
:1005D0000F071209E75D42EA03721B097754491CB1
:1005E00052EA0307F3D102780023120704D5702DD5
:1005F00006D009B1022311342246F0BC00F077BBCB
:1006000001231034F8E770B504460D462146106802
:10061000FFF7CAFE024629462046BDE87040002387
:10062000C6E7D21D22F00703D3E90023C0E7036821
:10063000126843F0200303600823C3610023B7E777
:1006400038DD00002DE9F05F894604464FF0000ACE
:10065000DFF874B1FB44C0F820A02046E168884769
:10066000002874D0252806D0D4E901219047206ABB
:10067000401C2062F1E700265F462046E16888477B
:100680002028054607DB312D05D2781910F8200CFB
:1006900008B10643F1E7B00701D526F00406C4F817
:1006A0001CA00027C4F818A02A2D09D0284609F05C
:1006B000A9FB38B304EB8708303DC8F8185019E09F
:1006C00059F8041B204604EB87029161E1688847D2
:1006D000012F054618D1E069002820DA26F020060F
:1006E0001DE0D8F8180000EB800005EB4000303822
:1006F000C8F818002046E1688847054609F082FBE3
:100700000028EED1012F0AD02E2D08D12046E16815
:1007100088477F1C0546022F46F02006C4DBA069EF
:10072000002803DA404246F00106A061F00701D03C
:1007300026F010066C2D0BD0682D09D04C2D39D029
:100740006A2D35D0742D35D07A2D33D016E038E0AF
:10075000E1682F4620468847B842054609D16C2FEC
:1007600026D04FF48060E16806432046884705465E
:1007700004E06C2F1AD04FF4807006430DB3A5F13E
:100780004100192802D8203546F400664A46294619
:10079000204626604E46FFF703FD80B101280BD0AE
:1007A000F61D26F0070000F1080956E74020E4E7AF
:1007B0008020D8E70020D6E706F104094DE7284657
:1007C00052E7206ABDE8F09FC8DC00000B4910B575
:1007D000A1F17C020A4CC2E93712372106E000EB96
:1007E000104342F82130074B00FB03400B1EA1F1E0
:1007F0000101F4DC10BD0120E8E70000D046002034
:10080000E119D666CD0D01002DE9F04107461546E8
:100810000E46102000F00AFA04000AD06760C4E90E
:10082000026500F0FFF90168216004600020BDE866
:10083000F0810120FBE740EA010310B59B070FD1CF
:10084000042A0DD310C808C9121F9C42F8D020BA40
:1008500019BA884201D9012010BD4FF0FF3010BDF8
:100860001AB1D30703D0521C07E0002010BD10F8C6
:10087000013B11F8014B1B1B07D110F8013B11F88C
:10088000014B1B1B01D1921EF1D1184610BD10B5B2
:10089000431C02E010F8011B71B18107FAD14FF03F
:1008A000013202C88C1A8C4314EAC211F9D0C01A62
:1008B0000A0603D0C01E10BDC01A10BD0A0401D024
:1008C000801E10BD0902FCD0401E10BD032A40F25C
:1008D000308010F0030C00F0158011F8013BBCF1E2
:1008E000020F624498BF11F801CB00F8013B38BFFA
:1008F00011F8013BA2F1040298BF00F801CB38BF08
:1009000000F8013B11F0030300F02580083AC0F025
:10091000088051F8043B083A51F804CBA0E80810CD
:10092000F5E7121D5CBF51F8043B40F8043BAFF300
:100930000080D20724BF11F8013B11F801CB48BF5A
:1009400011F8012B24BF00F8013B00F801CB48BF90
:1009500000F8012B704710B5203AC0F00B80B1E8C9
:100960001850203AA0E81850B1E81850A0E81850E4
:10097000BFF4F5AF5FEA027C24BFB1E81850A0E8ED
:10098000185044BF18C918C0BDE810405FEA827C07
:1009900024BF51F8043B40F8043B08BF7047D2071E
:1009A00028BF31F8023B48BF11F8012B28BF20F8BF
:1009B000023B48BF00F8012B704702F0FF0343EAF7
:1009C000032242EA024200F0DABC00004FF0013C90
:1009D00050F8042B51F8043B9A4221D1A2EB0C03AE
:1009E000934313EACC1317D150F8042B51F8043B6E
:1009F0009A4215D1A2EB0C03934313EACC130BD10B
:100A000050F8042B51F8043B9A4209D1A2EB0C0395
:100A1000934313EACC13DBD04FF00000704700BFC4
:100A2000D01A01BAB1FA81F101F0180122FA01F0ED
:100A3000CB40C1F12001DBB2C0B2C01A2CFA01F3E5
:100A4000D11A914311EAC311E6D1704710B503687A
:100A50001C1404EB21449BB289B2194494FBF2F3B9
:100A600002FB134394FBF2F401EB034393FBF2F11B
:100A700002FB113193FBF2F301E05B1E11440029EC
:100A8000FBDB016003EB044010BDF0B504464FF002
:100A9000FF3585B00068049060680290A0680390FC
:100AA000E068019020690090666906F18040B0F12D
:100AB000004F7CD83C22002104A8FFF7C7FF3C224E
:100AC000014602A8FFF7C2FF1822014603A8FFF75C
:100AD000BDFF411E40F2B55201A8FFF7B7FF0C223F
:100AE000074668460021FFF7B1FF414B00EB870046
:100AF000304400267B4411E0511A01910099491CB1
:100B00000229009102D00C2908D105E0810705D007
:100B10000199491C019101E0401C00960099019A3D
:100B2000595C9142E8DD0099012906D11C2A04D1C3
:100B3000810702D00221CDE90016A0F146018B29E0
:100B40003CD2DDE90061002202E09F5C521C394486
:100B5000B242FADB012E02DD820700D0491E40F2CC
:100B6000B55340F26D16C21700EB927292105A43C1
:100B700000F0030303FB062283070A4400D1521E40
:100B8000039E02EB4203049F06EBC303029EC3EBEA
:100B9000031306EB8303174E33441E149BB2C6EBBC
:100BA0000616C3EB0313B60007EB830300E005E072
:100BB00006EB134666F31F43360C02D0284605B0F9
:100BC000F0BD80C4029E40C4039E40C4019E761CBA
:100BD00044F80C6B009E44E902600720521C92FB13
:100BE000F0F600FB162084E823001846E7E7000033
:100BF0007CD80000A039CEFD7047704770470000D8
:100C000070B5064C7C44064D7D4403E020682044CA
:100C10008047241DAC42F9D170BD0000A0DA00006D
:100C2000C4DA0000004870477047002070B50646DF
:100C300000F0D2FB056806F10B0020F00704B44277
:100C40009CBF002070BD2B466A68BAB11068A042F4
:100C500010D304F1080188423CBF5068586007D3A4
:100C60005168101941601168091B016058601460D7
:100C7000101D70BD13465268002AE7D12146284650
:100C800000F0BAFB0028DED170BD70B50446051F28
:100C900000F0A2FB0068002C14BF446870BD002C5B
:100CA00018BFAC423CBF20466468F8D301680A18FC
:100CB000AA4218BF456003D12A6805461144016065
:100CC00028684119A1421CBF6C6070BD61686960F1
:100CD00021680844286070BD10B500F085FB0068ED
:100CE00010BD10B5044600F07FFB046010BD2DE977
:100CF000F0470D4699469246044600F124080168E3
:100D0000880604D5E06921F01001216000E001208F
:100D1000A84201DD471B00E00027A1697A1902EB18
:100D20000900081AA0612078C00602D42046FFF707
:100D30000BFB002608E0D4E901211AF806009047D1
:100D4000206A401C761C20624E45F4DB2078C006E9
:100D50000AD52046FFF7F8FA06E0D4E90121302051
:100D60009047206A401C2062381EA7F10107F4DC7E
:100D700007E0D4E9012118F805009047206A401CDB
:100D80002062281EA5F10105F3DC2046FFF7F2FAE8
:100D90002078000602D50220BDE8F0870120FBE79D
:100DA00011680268006A530501D508700AE0D3058E
:100DB00001D5088006E0130603D5C217C1E9000279
:100DC00000E008600120704770472DE9FF4F0C4696
:100DD0001E464FF0FF378BB0D2E90001DDF860808E
:100DE0000A908A46C1F30A5505B93D4600210846D6
:100DF0004FF00000BAF1000F00F4400005DA00EBFC
:100E000080004FF4400101EA50004FEA9059B9F1D7
:100E1000010F00DDB9460A9850EA4A000ED044F6A8
:100E20001050A5F2FF3545432F14B8F1000F1ED026
:100E30007542291E1EDDC9F100021CE0B8F1010F48
:100E40004FF0000001D0302103E0F24305E02154CF
:100E5000401CB042FBDB30460022002121540B999C
:100E6000C1F80880C1E900200FB0BDE8F08FBD1BBC
:100E70006D1CDEE74A4600DA694206A800F08CFBEA
:100E800006AB93E8070003AB83E8070050460A99D6
:100E900000F0BEFC8DE80700A0F500501F38009060
:100EA0000398002D0ADD42F21F014A460844002340
:100EB00003A90390684600F027FF09E0A0F5005061
:100EC0004A461F38002303A90390684600F031FF0B
:100ED0008DE807000004000C03D04FF0FF304108FC
:100EE00000E01046B8F1000F03D000220092154632
:100EF0001EE0751E05D400F0C9FA303262556D1E31
:100F0000F9D5B3460122084302D000227F1C04E039
:100F10002078302801D100227F1E002A099784D032
:100F20001DE0112D07DA00F0B1FA303262556D1C68
:100F300050EA0102F5D1084302D00098C8B10EE092
:100F40000021681E05E0235C625C63542254401E4D
:100F5000491C8142F7DBAB46A81B401E09900020CC
:100F600004F80B000B98099AC0F80880C0E9002B20
:100F70007AE711264FF0000857E72DE9F04F884631
:100F80000446D21D22F0070191B0D1E90001CDE95C
:100F90000A0108F0DBFD02460B98C00F01D02D209E
:100FA00007E02068810701D52B2002E0202101EA1B
:100FB000C000032A099001D0072A05DB03464146F9
:100FC000204600F0A9FA0BE12078800601D5E069FF
:100FD00000E00620B8F1650F814606D0B8F1660F33
:100FE00018D0B8F1670F70D131E00020B9F1110FBE
:100FF000009001DB112301E009F101030AAA01A914
:101000000CA8FFF7E2FEDDE90C70002609F10105EE
:10101000834647E001204B4600904FF000470AAA64
:1010200001A90CA8FFF7D1FEDDE90DB00C995D46D2
:10103000002610B909F101000D18B9EB050003D421
:10104000C0F1FF3609F10105A5EB09002BE0B9F16C
:10105000010F01DA4FF001090020B9F1110F0090E2
:10106000484601DD112300E003460AAA01A90CA8A5
:10107000FFF7ABFEDDE90C704D4600268346207875
:1010800000070AD4AB4500DA5D4601A8012D04DD56
:10109000411911F8011C302907D04F4502DA17F128
:1010A000040F04DA012082460FE06D1EEEE7002FE8
:1010B00002DCED1B3E4403E0781CA84200DD7D1CF1
:1010C000B81B00F1010A4FF000472078000703D455
:1010D000AA4501DB4FF0FF3A0021B7F1004F0DF1B7
:1010E00043088DF8431024D002202B23002F01DA6F
:1010F0007F422D230A21021EA0F1010000DC5FB116
:1011000097FBF1FC97FBF1F201FB1C7C17460CF1FD
:10111000300C08F801CDEEE7A8F10100037021883A
:10112000090501D5452100E06521A0F1010800F87D
:10113000011C09980FA9A1EB0807FF1D00B10120B0
:10114000411901EBEA70A1693844081A401EA061F8
:101150002078C00602D42046FFF7F6F8099828B197
:10116000D4E901219047206A401C20622078C00603
:1011700022D52046FFF7E8F81EE0002E04DBB34539
:1011800002DD01A8805D00E03020D4E90121904714
:10119000206A401C2062761CAAF101005FEA000A66
:1011A0000AD100F01DF9C0680168405CD4E9012152
:1011B0009047206A401C2062281EA5F10105DCDC56
:1011C00007E0D4E9012118F8010B9047206A401C80
:1011D0002062381EA7F10107F3DC2046FFF7CAF8AA
:1011E000032011B041E6000001694A1C0261087841
:1011F000704700B58FB0CDE9013100210591054957
:101200007944CDE9031011466846FFF71BFA0FB089
:1012100000BD0000E5FFFFFF0A6802F8010B0A604D
:10122000704710B5436913B1AFF3008001E0FFF7D9
:10123000C4F8012010BD127800F124010A700022C8
:101240004A700122EDE711684FF0FF32E9E710B56F
:10125000436913B1AFF3008001E0FFF713F90120F8
:1012600010BD128800F1240182840022C284012270
:10127000EDE711684FF0FF32E9E700002DE9F0419A
:101280008046D21D22F007020025D2E90002F5298E
:1012900015A614D0011E72F1000106DA0023D0EB6E
:1012A000030063EB020211A608E0D8F800108B07D8
:1012B00001D50FA602E0490701D50EA6012511466A
:1012C000002408F1240704E000F0E0F830323A5539
:1012D000641C50EA0102F7D12B46324621464046B3
:1012E000BDE8F041FFF703BD000000002D00000045
:1012F0002B0000002000000070B516460C46054685
:1013000000F062F8036893F80101012806D0FF2C71
:101310000FD8185D68B101202C7070BDD3F807019B
:101320003246214603F2071303442846BDE87040C5
:1013300018474FF0FF3070BD2DE9F0410646FFF72A
:1013400071FC8046454613E016B1E068B0420ED10C
:1013500020682860D4E90101D8F800708847204649
:10136000FFF793FCD8F80000B842EBD100E0254627
:101370002C68002CE8D1BDE8F0814FF00002042970
:10138000C0F0128010F0030C00F07A81CCF1040C54
:10139000BCF1020F18BF00F8012BA8BF20F8022BE8
:1013A000A1EB0C0100F06CB95FEAC17C24BF00F82E
:1013B000012B00F8012B48BF00F8012B70470000FB
:1013C000004870473847002010B500F009F8001DAC
:1013D00010BD00BFDD950000004870474047002069
:1013E00000487047584700200048704738470020A1
:1013F000704770477047704738B504460A4600206A
:101400006946AFF30080002808BF38BD0246009946
:10141000204600F07FF9012038BD012000F09DB981
:10142000F8B5AFF30080054600200C46102000BF41
:101430000646A819A0420DD9324669460020AFF3EE
:101440000080070008BF00F088F90098A04218BF8C
:101450000546C419FFF7C0FF05600746F01D20F0E0
:1014600007004619284600F00AF8B44208BFF8BD44
:10147000A21B31463868BDE8F84000F04BB90021A6
:101480000160C0E9011070471020704730B5B0F11D
:101490000A024FEA900E71F100034EEA817EB0EB32
:1014A0000E0061EB91014FEA101E4EEA017E10EB37
:1014B0000E0041EB11114FEA102E4EEA016E10EBB7
:1014C0000E0041EB11214FEA104E4EEA014E10EB97
:1014D0000E0041EB1141401841F100014FEAD000EC
:1014E00040EA41704FEAD10110EB80054FEA8104D8
:1014F00044EA907444EB01046D1944EB0404521B5C
:10150000A3414FF0000348BF0A3200D530BD401C54
:1015100041F1000130BD00002DE9F0411F460446B5
:1015200003260168072A01F4006004DB08B116A550
:1015300005E016A503E008B115A500E015A521F00A
:1015400010002060A069C01EA0610FB1401EA06104
:101550002046FEF7F9FE4FB1D4E901213846904705
:10156000206A401C2062C01C206206E0206AFAE764
:10157000D4E9012115F8010B9047761EF8D22046D8
:10158000FEF7F8FEBDE8F0814E414E006E616E0040
:10159000494E4600696E66002DE9F04781461646C1
:1015A0008AB0354878440DC88DE80D00324878443B
:1015B000801C03AC0DC884E80D0041F69B30084444
:1015C000372190FBF1F290FBF1F5A5F1800501FBCD
:1015D00012041B3C02D56442012000E00020DFF829
:1015E00098A080460027FA44AAF1BE0A0EE0E00760
:1015F0000AD03246684607EB470101230AEB810116
:1016000000F097FB8DE8070064107F1C002CEED1E2
:10161000194F7F44AE3F19E0E80715D007EB0410DF
:101620000DF1180A90E80E008AE80E00C068F0423A
:1016300001D1981908903246012306A903A800F0A9
:1016400078FB03AB83E807006D10641C002DE3D129
:101650004FF0010332466946B8F1000F03A802D0EB
:1016600000F052FB01E000F064FBC9E90001C9F899
:1016700008200AB0BDE8F08754CE00004FF0000209
:1016800000B5134694469646203922BFA0E80C5078
:10169000A0E80C50B1F12001BFF4F7AF090728BF53
:1016A000A0E80C5048BF0CC05DF804EB890028BFCF
:1016B00040F8042B08BF704748BF20F8022B11F0F8
:1016C000804F18BF00F8012B70477546FFF778FE72
:1016D000AE4605006946534620F00700854618B01F
:1016E00020B5FEF7F9FDBDE820404FF000064FF0B1
:1016F00000074FF000084FF0000B21F00701AC4647
:10170000ACE8C009ACE8C009ACE8C009ACE8C00965
:101710008D467047034640688C46002818BF8842B3
:101720003CBF03464068F8D318681844884207D085
:101730000CF1030020F00700001D411A521A014667
:10174000081D0A60FFF7A1BA10B50446AFF3008088
:101750002046BDE81040FEF791BD10B500F010F82E
:10176000BDE8104000F007B801491820ABBEFEE705
:10177000260002007047002801D0FFF7F5BF704730
:1017800010B5012805D0002103A000F021F80120A8
:1017900010BD09A1F8E7000053494752544D454D8B
:1017A0003A204F7574206F662068656170206D6502
:1017B0006D6F7279000000003A2048656170206DFD
:1017C000656D6F727920636F7272757074656400F5
:1017D00070B505460C460A2000E06D1C00F011F8BB
:1017E00035B128780028F8D102E0641C00F009F82F
:1017F00014B120780028F8D1BDE870400A20AFF37A
:10180000008008B569468DF800000320ABBE08BD16
:101810005FEA400C08BF91F0000F4FEA8C234FEABB
:10182000C12243EA51514FEA1C5018BF00F5F04065
:101830004FEA300018BF41F000415FEA6C5C00F0F5
:101840002980BCF1FF3F08BF40F080407047130C77
:1018500006BF12044FF0100C4FF0000C130E04BF23
:1018600012020CF1080C130F04BF12010CF1040C4E
:10187000930F04BF92000CF1020CD30F04BF52006F
:101880000CF1010C11464FF00002A0F11F00A0EB7B
:101890000C00704711F0004F08BF704731F0004155
:1018A0003FF4D5AF0B0C06BF09044FF0100C4FF0FE
:1018B000000C0B0E04BF09020CF1080C0B0F04BF47
:1018C00009010CF1040C8B0F04BF89000CF1020C10
:1018D000CB0F04BF49000CF1010CCCF12003A0EBAD
:1018E0000C0022FA03F302FA0CF241EA030100F1C0
:1018F0000100704720F07F4C80EA030023F07F470F
:10190000ACEB070303F57C5300F0004003F1FF0349
:101910002DE980494FEA154B09B44FEA144325EAF3
:101920000B4E24EA03480FF2042606EB132749085E
:101930003E785FEA320203FB0667C7F5000707FB44
:1019400006F64FEA54374FEAD64606F1020607FB81
:10195000066CCCF1005C4FEA1C472CEA074C07FBF5
:1019600006F40CFB06F504EB15464FEA961634BF59
:1019700000204FF000404FEAD13706FB07FC4FEA4A
:101980001C4C0CFB0BF7D21B03FB0CF761EB0701A4
:101990000CFB0EF7B0EB074072EB17420CFB08F79D
:1019A00034BFA2EB0742B2EB074261EB17414FEAAB
:1019B0000C444FEA910706FB07FC4FEA1C4C0CFB5A
:1019C0000BF7B0EBC74072EB573203FB0CF734BF99
:1019D000A2EBC742B2EBC74261EB57310CFB0EF7EB
:1019E000B0EBC70072EB57720CFB08F734BFA2EBE9
:1019F000C702B2EBC70261EB5771039F4FEA8161E7
:101A000041EA921104EBCC044FEAD1374FEA8262EB
:101A100006FB07FC42EA90124FEA80604FEA1C4C3A
:101A20000CFB0BF7D21B03FB0CF761EB07010CFB64
:101A30000EF7B0EB074072EB17420CFB08F734BF10
:101A4000A2EB0742B2EB074261EB17414FEA8C551C
:101A50004FEA910704EB9C2406FB07FC4FEA1C4C61
:101A60000CFB0BF7B0EBC74072EB573203FB0CF7E4
:101A700034BFA2EBC742B2EBC74261EB57310CFB5C
:101A80000EF7B0EBC70072EB57720CFB08F734BFD0
:101A9000A2EBC702B2EBC70261EB577115EB4C2505
:101AA0004FEA816141EA92114FEA82624FEAD137EF
:101AB00042EA901206FB07FC44F100044FEA806002
:101AC0004FEA1C4C0CFB0BF7D21B03FB0CF761EB32
:101AD00007010CFB0EF7B0EB074072EB17420CFB53
:101AE00008F734BFA2EB0742B2EB074261EB1741A4
:101AF00015EB1C154FEA813141EA92414FEA8232DF
:101B000042EA90424FEA80304FEA0C7644F10004FA
:101B100048EA03434EEA0B484FF0000EB2EB080CC4
:101B200071EB030724BF624639464EEB0E0E4FF0B1
:101B3000000B0018524149414BEB0B0BB2EB080C68
:101B400071EB03077BF1000B24BF624639464EEB75
:101B50000E0E4FF0000B0018524149414BEB0B0B9E
:101B6000B2EB080C71EB03077BF1000B24BF62465C
:101B700039464EEB0E0E51EA020718BF46F0010639
:101B800016EB0E7655F1000254F1000103D5BDE8C5
:101B90008901BDE80088BDE88901BDE80048B619A3
:101BA000524141EB0101A3F10103704780807F7E28
:101BB0007D7C7B7A797877767675747372717170C3
:101BC0006F6E6E6D6C6C6B6A6A6968686766666575
:101BD0006464636362616160605F5F5E5E5D5D5C03
:101BE0005C5B5B5A5A595958585757565655555574
:101BF0005454535352525251515050504F4F4F4ED4
:101C00004E4D4D4D4C4C4C4B4B4B4A4A4A49494921
:101C10004848484747474746464645454544444463
:101C2000444343434342424242414141002B9C468C
:101C300030D477002BD01CB54FEA370703B44FF0F0
:101C400010004FF01001BAF1000F06D0BCF1000FE8
:101C5000DCBF40F0080040F008014FF000000FBC6E
:101C6000BDE810400BF1010BBBF1010F08BF5FEAAB
:101C7000170722BF12F1010211F101014FF00041DB
:101C800043F1000300F0004043EA00007047F9D33D
:101C90005708D0E746EA064613F1400F4FEA1646CA
:101CA0001FDD13F1200FDFBF16430A46002120334A
:101CB0005B42BED0C3F1200746EA064602FA07F7A8
:101CC0004FEA164646EA0706C3F1200722FA03F256
:101CD00001FA07F721FA03F14FF0000342EA070285
:101CE000A7E746EA020646EA06464FEA164646EAED
:101CF0000106BCBF46EA0646360C4FF000034FF023
:101D000000024FF0000194E72DE9804C9A4693467B
:101D100070B491E8380007C831EA400C48BF34EA93
:101D2000430C03D5FFF7E6FDFFF780FFF0BCBDE8ED
:101D3000008C2DE9804C9A46934670B491E83800A7
:101D400007C810F0804F08BF13F0804F03D100F098
:101D500005F8FFF76BFFF0BCBDE8008C20F07F4773
:101D600080EA030023F07F4C07EB0C03A3F57C53C0
:101D700000F00040A3F1FE0392F0000F00F0B380EA
:101D800095F0000F00F077802DE901494FEA1140EE
:101D90004FEA144621EA004800FB06FC24EA064705
:101DA00008FB06F607FB08F800FB07F718EB0648E8
:101DB0004CEB164C4FEA124B18EB07484FEA15460E
:101DC0004CEB174022EA0B4E0BFB06FC25EA0647BC
:101DD0000EFB06F607FB0EFE0BFB07F71EEB064E8F
:101DE0004CEB164C4FF000061EEB074E4CEB174B1E
:101DF00018EB0B0840F1000018EB0E0B58EB000835
:101E000040F100008F1A4FF000013CBFC943661B30
:101E100014BFB5EB040C00213CBFC943F61B4FEACD
:101E200017444EEA8E0E27EA04454FEA1C4704FB8E
:101E300007622CEA074C05FB07F70CFB05F604FBD1
:101E40000CFC16EB074642EB174216EB0C4642EB36
:101E50001C421BEB060658EB0202414146EA9E0675
:101E600001D5BDE80189B619524141EB0101A3F149
:101E70000103BDE801894FEA14454FEA114724EAFE
:101E8000054621EA074C05FB07F406FB07F70CFBA8
:101E900006F105FB0CFC11EB074144EB17444FEA3C
:101EA000124711EB0C4144EB1C4422EA074C05FBA2
:101EB00007F206FB07F70CFB06F605FB0CFC16EB1E
:101EC000074642EB174216EB0C4642EB1C456A18DC
:101ED00054F1000148BF7047B619524141EB01016E
:101EE000A3F10103704795F0000F37D04FEA11427C
:101EF0004FEA144721EA024624EA074C02FB07F1A5
:101F000006FB07F70CFB06F402FB0CFC14EB074482
:101F100041EB17414FEA154714EB0C4441EB1C41D0
:101F200025EA074C02FB07F506FB07F70CFB06F654
:101F300002FB0CFC16EB074645EB174516EB0C466F
:101F400045EB1C42121951F1000148BF7047B61908
:101F5000524141EB0101A3F1010370474FEA1445DF
:101F60004FEA114724EA054621EA074C05FB07F131
:101F700006FB07F70CFB06F24FF0000605FB0CFC16
:101F800012EB074241EB174112EB0C4251EB1C41A3
:101F900048BF7047921841EB0101A3F1010370475C
:101FA0000148006800F0B1B92C02002070B5044669
:101FB0000068816811F0010F20D0816821F00101D3
:101FC000816000F0BFFD05462068806810F0010FB9
:101FD00014D000BF00F0B6FD401B022809D9A06A4A
:101FE00040F01000A062E06A40F00100E0620120D1
:101FF00070BD2068806810F0010FEBD1002070BD2B
:1020000070B582B00026044601960068816811F020
:10201000010F44D1816841F00101816024482549C4
:102020000068B0FBF1F001900090C0B1B0F1004F3A
:1020300038D20028D8BF002005DD10F0010002D002
:102040000199491E01910099401C491C884206DAF9
:10205000019A801C521E521E01928842F8DB00F049
:1020600071FD05462068806810F0010F17D100BF90
:1020700000F068FD401B02280CD9A06A40F0100057
:10208000A062E06A40F00100E06284F8246002B0DF
:10209000012070BD2068806810F0010FE8D002B008
:1020A000002070BD0198401E0190FCD1D7E70000D0
:1020B0009000002040420F00FEE7704770B50546D3
:1020C00000F040FD294C0646E06810F0010F0ED0EC
:1020D000B5F1FF3F07D025B100F034FD801BA842C9
:1020E00001D9032070BDE06810F0010FF0D1E06865
:1020F00010F0200F1CBF2020E060E06810F0100FEF
:1021000001BFE06910F0010FE06810F0040008BFA3
:1021100070BD0021E06810F0100F154804D0C169AF
:1021200041F00201C1611021E26812F0040F05D0F4
:10213000C26942F00102C26141F00401E26912F099
:10214000010F07D0C26942F00402C261E06920F0C9
:102150000100E061A1F58070013818BFE16003D192
:10216000E06920F00100E061012070BD0020024024
:10217000D80600207047000070B483B04FF0000C08
:10218000CDF808C090F824206446012A01BF02203F
:1021900003B070BC7047012280F824204A681F23D6
:1021A000072A0DD205686E6B521E02EB8202934025
:1021B00026EA03030E6806FA02F21A436A631BE07A
:1021C00005680D2A0CD22E6BD21F02EB82029340BF
:1021D00026EA03030E6806FA02F21A432A630BE0AA
:1021E000EE6A0D3A02EB8202934026EA03030E6880
:1021F00006FA02F21A43EA620A68072503680A2A05
:102200000CD3DE680A3A02EB4202954026EA050545
:102210008E6806FA02F22A43DA600AE01E6902EBCF
:102220004202954026EA05058E6806FA02F22A4324
:102230001A610A68102A18BF112A0BD10268A2F18C
:102240008043B3F592330BD0816A41F02001816263
:102250004FF0010C80F8244003B0604670BC70471A
:10226000936813F4000FF5D1936843F4000393606F
:1022700009681029EED11549154A0968B1FBF2F138
:1022800001EB8101490002910091E3D0B1F1004FCF
:1022900016D20029D8BF002105DD11F0010102D0BE
:1022A000029A521E0292009A491C521C9142D1DAA3
:1022B000029B891C5B1E5B1E02939142F8DBC9E7FF
:1022C0000299491E0291FCD1C4E700009000002051
:1022D00040420F0010B500F015F809F0E1FA6FF078
:1022E0000B0109F0FAFC044909F022FB034909F04B
:1022F0001FFB0349486010BD333353400000A03F2B
:102300002C0200200068C06C704770B5044600685D
:1023100041684FF4602511F0200F1CBF016811F0D7
:10232000020F25D0A16A11F0100F03D1A16A41F468
:102330000071A162816835EA010104BFE1680029EA
:102340000FD1416821F020014160A06A20F4807023
:10235000A062A06A10F4805F03D1A06A40F001007F
:10236000A0622046FFF7B6FF21686FF012000860F8
:102370002068416811F0800F1CBF016811F0040F44
:102380002ED0A16A11F0100F03D1A16A41F40051BF
:10239000A16281684FF4E04232EA010109D041684C
:1023A00011F4806F01BF816835EA0101E1680029FD
:1023B0000FD1416821F080014160A06A20F4805073
:1023C000A062A06A10F4807F03D1A06A40F00100EF
:1023D000A0622046FFF7CEFE21686FF00C00086077
:1023E0002068416811F0400F1ABF006810F0010F1B
:1023F00070BDA06A40F48030A062204600F09EF8D4
:1024000021686FF00100086070BD00002DE9F04107
:102410004FF0000704003D4604BF0120BDE8F081F5
:10242000A06A002628B9E66284F82460204600F0FD
:1024300086F82046FFF7BAFD0146A06A10F0100F9B
:1024400008BF002904D0A06A40F01000A0626AE032
:10245000A06A20F4885040F00200A062E26960683F
:10246000E36840EA020047EA430240EA0202A06849
:10247000B0F5807F1ABF012800204FF48070D4F897
:1024800014C0BCF1010F08D1F3B1A36A43F02003DB
:10249000A362E36A43F00103E3622368D3F804C054
:1024A0002CF4694C4CEA0000586020688368DFF81F
:1024B00080C003EA0C0313438360A068B0F5807FFB
:1024C00018BF01280FD109E0DFF868C0A3690CEB41
:1024D000433343EA000040F40060DEE7208A4FEA1D
:1024E0000050A0F580152068C36A23F4700343EA06
:1024F0000503C362206880680F4B00EA0300904226
:1025000007D1E662A06A20F0020040F00100A0625C
:102510000AE0A06A20F0020040F01000A062E06A29
:1025200040F00100E06201210846BDE8F0810000B2
:10253000FDF7E1FF00E0FFFFFE0E1FFF7047704751
:1025400070B5044690F82400012804BF022070BD35
:10255000012084F824002046FFF752FD02004FF0CE
:10256000000018BF84F8240001D0104670BDA16A95
:1025700021F0010121F4606141F48071A162DFF872
:1025800098C02368254963452DD10D6815F4702F37
:1025900029D0A56A45F48015A5620D6815F4806FF1
:1025A00005D0A56A25F4005545F48055A562A56AB5
:1025B00015F4805F08BFE06203D0E56A25F00605E8
:1025C000E56284F824006FF0020018602068436818
:1025D00043F020034360206883684FF4602434EAAA
:1025E000030309D00EE0A56A25F48015A5625D6895
:1025F00015F4806FDBD0D4E7604508D1096811F489
:10260000702F04D0816841F480118160ADE781684A
:1026100041F4A001F9E70000002801400424014032
:1026200010B590F821100024022903D00421816301
:10263000012439E001680A6822F00E020A6001688C
:102640000A6822F001020A60184A0168914208BF34
:1026500001211DD0164A914208BF102118D0154AF9
:10266000914208BF4FF4807112D0134A914208BFC3
:102670004FF480510CD0114A914208BF4FF4803181
:1026800006D00F4A91420CBF4FF480114FF0807179
:102690000C4A5160012180F82110002180F820109F
:1026A000416B002918BF8847204610BD0800024032
:1026B0001C0002403000024044000240580002402A
:1026C0006C0002400000024070B5044600F03AFA87
:1026D0000546B4F1FF3F02D004480078044400F0FE
:1026E00031FA401BA042FAD370BD00000000002068
:1026F0002DE9F047304F06468A46387E4FF00108F4
:10270000012804BF0220BDE8F08701203876306838
:102710002A4D02284FF000094CF2503003D0FFF749
:10272000CDFCC0B143E0FFF7C9FC00283FD1C7F89A
:102730001C90286940F004002861286940F040009E
:1027400028614CF25030FFF7B9FC8046286920F030
:10275000040028612BE04FF0FF30CAF80000D6E9F2
:10276000024004EB8020A04221D900BFC7F81C9092
:10277000286940F0020028616C61286940F040003F
:1027800028614CF25030FFF799FC5FEA0008286995
:1027900020F00200286102D0CAF8004007E0D6E924
:1027A000020100EB812004F58064A042DED887F8A6
:1027B00018904046BDE8F087D8060020002002406F
:1027C0000348016941F08001016100207047000069
:1027D000002002402DE9FF5FDFF84081064600251A
:1027E00098F8180082B092469B46012802BF02204A
:1027F00006B0BDE8F09F012488F818404CF2503034
:10280000FFF75CFC4FF0000900287DD1012E08BFC6
:10281000012026D0022E0EBF02200420009020D0DE
:102820003F4C03982A0100EB450650465946FDF7F8
:1028300065FDC8F81C90216941F0010121613080DB
:102840004CF2503600F07EF90746E06810F0010FB8
:102850000DD000BF00F076F9C01BB04203D90320B1
:102860004AE00090DCE7E06810F0010FF2D1E06888
:1028700010F0200F1CBF2020E060E06810F0100F67
:1028800004BFE06910F0010F05D1E06810F0040FFB
:1028900008BF484630D0E168002011F0100F06D084
:1028A000D8F81C0040F00200C8F81C001020E168B5
:1028B00011F0040F07D0D8F81C1041F00101C8F83E
:1028C0001C1040F00400E16911F0010F09D0D8F8A4
:1028D0001C1041F00401C8F81C10E16921F001014D
:1028E000E161A0F58071013918BFE06003D1E069B2
:1028F00020F00100E0610120216921F00101216146
:1029000010B9691CCDB200E002E000998D4288D375
:1029100088F8189006B0BDE8F09F0000D8060020A7
:1029200000200240084900200A6912F0800F08BF09
:102930007047064A4A60064A4A60096911F0800FEA
:1029400018BF0120704700000020024023016745A6
:10295000AB89EFCD2DE9F84F714E4FF0000CDFF849
:10296000BC9163464FF001080F2706F1040E00BF2B
:102970000A6808FA03F42240A2427DD14D68A5F10D
:10298000805AAAF5881A4D4577D077DC032D08BF09
:102990004FF0000C1BD00DDC002D6ED0012D08BFB8
:1029A000D1F80CC013D0022D04BFD1F80CC00CF12B
:1029B000080C0CE0112D04BFD1F80CC00CF1040C74
:1029C00005D0122D04BFD1F80CC00CF10C0CB2F5DF
:1029D000807F34BF0546051D4FEA830428BF203C95
:1029E000D5F800A007FA04FB2AEA0B0A0CFA04F453
:1029F0004AEA04042C604C6814F0805F64D0494CAF
:102A0000A56945F00105A561A46904F001040094DD
:102A100023F0030404F1804505F58035D5F808A0BE
:102A20004FEA83744FEA147407FA04FB2AEA0B0A8C
:102A3000A0F1804BBBF5843B18D0A0F1804BBBF5D7
:102A4000863B08BF4FF0010B10D0A0F1804BBBF5C7
:102A5000883B08BF4FF0020B08D0A0F1804BBBF5BC
:102A60008A3B0CBF4FF0030B4FF0040B0BFA04F43E
:102A700044EA0A04AC6002E026E03EE02AE04C684A
:102A800014F4803F346814BF1443944334604C689A
:102A900014F4003FDEF8004014BF14439443CEF812
:102AA00000404C6814F4801F1F4C256814BF154368
:102AB000954325604C6814F4001F1C4C256814BF16
:102AC0002A4325EA020222605B1C102BFFF450AF60
:102AD000BDE8F88FBAF5881F0FD007DCBAF5803F44
:102AE00018BFBAF5801F7FF472AF06E0BAF5001F79
:102AF00018BFBAF5041F7FF46AAFD1F808C0BCF163
:102B0000000F08BF4FF0040C3FF461AFBCF1010FA0
:102B10004FF0080C0CBF0461446158E7000011102D
:102B20000004014000100240080401400C04014070
:102B30008068084018BF01207047002A08BF0904B8
:102B40000161704701488068704700000000002064
:102B500090F83D0070470000002804BF0120704736
:102B600070B5044690F83D00002520B984F83C502B
:102B7000204600F003FB242084F83D002068016813
:102B800021F00101016001F083F8444A616891423B
:102B900003D84349814203D804E04249814201D924
:102BA000012070BD40492368B0FBF1F159606368B2
:102BB0009A4241F1000107D24FF4967359434FF402
:102BC0007A73B1FBF3F1491C2368196261688A4288
:102BD0000FD34900401EB0FBF1F2521CC2F30B02AE
:102BE000042A31BF0420B0FBF1F0401CC0F30B00FD
:102BF00022E0A268002A3ED001EBC10303EB0113DF
:102C0000A0F1010CBCFBF3F35B1C43F480431B05F8
:102C10001B0D08BF01200FD0AAB301EBC10202EBCC
:102C20000111401EB0FBF1F0401CC0F30B0040F45A
:102C3000804000BF40F400402168C861D4E907012A
:102C4000084321680860D4E90310084321688860BC
:102C5000D4E9050108432168C8602068016841F093
:102C6000010101602564202084F83D00256384F87B
:102C70003E50002070BD01EB4103A0F1010CBCFBF4
:102C8000F3F35B1CC3E7FFE701EB4101401EB0FB20
:102C9000F1F0401CC0F30B00CCE70000A08601005F
:102CA00080841E0000093D0040420F002DE9FF4FC7
:102CB00083B09A46DDE9118593460446DDF84090DD
:102CC000FFF740FF064694F83D00202840F076814B
:102CD00019230122BB492046009603F0F5FD002888
:102CE00040F06C8194F83C00012800F067810120DD
:102CF00084F83C002068016811F0010F03D10168DD
:102D000041F0010101602068016821F40061016067
:102D1000222084F83D00402084F83E0000272764EC
:102D2000C4F82490A4F82A80A748E062608D20852A
:102D3000CDE9005653465A462046049903F0C0FC9C
:102D400048B1206C84F83C7004280CBF012003209B
:102D500007B0BDE8F08F208D58B3012832D002288B
:102D6000206801683ED041F48061016020684169BB
:102D700080690090208D4FF0200800281CBF6FF064
:102D80001009DFF848A200F00B8180B2032800F29E
:102D9000B880012834D002282B464FF0000251465B
:102DA0002046009659D003F08FFD00287AD000F01D
:102DB00001B92068416981690091016841F400719D
:102DC0000160D7E72068016821F48061016072B674
:102DD0002068416981690091016841F400710160D6
:102DE00062B6C7E741F40061016072B620684169CC
:102DF00081690091016821F48061016062B6B9E7E0
:102E00002068406910F0400F25D12068406910F01B
:102E1000100F09D02068C0F814902764276384F845
:102E20003D8084F83C700DE025B1FFF78BFE811BDF
:102E3000A9420BD9206C40F02000206484F83D802A
:102E400084F83C70206C20286FD080E020684069B6
:102E500010F0400FD9D0206893E003F035FD002832
:102E600063D172B62068016841F400710160206886
:102E70000169606A421C62620170208D401E2085DB
:102E8000608D401E608562B620680069616A4A1CD8
:102E900062620870208D401E2085608D401E608516
:102EA0007AE0FFE72068016821F48061016072B672
:102EB00020680169606A421C62620170208D401EB8
:102EC0002085608D401E60852B460022514620469D
:102ED000009603F0F9FC00286CD12068016841F4E9
:102EE0000071016020680169606A421C62620170C1
:102EF000208D401E2085608D401E608562B6206852
:102F00003FE02068406910F0400F29D120684069F7
:102F100010F0100F0AD02068C0F8149027642763BF
:102F200084F83D8084F83C700EE043E025B1FFF763
:102F300009FE811BA9420ED9206C40F020002064BC
:102F400084F83D8084F83C70206C202832D007B093
:102F50000120BDE8F08F2068406910F0400FD5D007
:102F600020680169606A421C62620170208D401E07
:102F70002085608D401E60852068416911F0040F36
:102F80000AD00169606A421C62620170208D401E95
:102F90002085608D401E6085208D00287FF4F5AE71
:102FA00084F83D8084F83E7084F83C7007B00020BF
:102FB000BDE8F08F07B00320BDE8F08F07B0022016
:102FC000BDE8F08F020010000000FFFF04000100C8
:102FD0002DE9FF4F83B09A46DDE9118793460446F9
:102FE000DDF84090FFF7AEFD064694F83D0020283E
:102FF00040F0BD80192301225E492046009603F06F
:1030000063FC00287CD194F83C00012878D0012092
:1030100084F83C002068016811F0010F03D10168B9
:1030200041F0010101602068016821F40061016044
:10303000212084F83D00402084F83E0000252564CE
:10304000C4F82490A4F82A804B48E062608D208563
:10305000CDE9007653465A462046049903F0D0FB4A
:1030600048B1206C84F83C50042818BF03207CD061
:1030700007B0BDE8F08F208D50B332463946204668
:1030800003F012FD18B1206C042869D04EE0606A8C
:10309000411C6162017820680161208D401E80B270
:1030A0002085618D491E618521684A6912F0040FEF
:1030B0000BD068B1606A421C626200780861208DA2
:1030C000401E2085608D401E6085208D0028D4D153
:1030D000206840694FF0200810F0040F2FD12068BD
:1030E000406910F4806F0CD021686FF480604861F3
:1030F00004202064256384F83D8084F83C5012E06D
:1031000035E0B7F1FF3F15D027B1FFF71BFD801B5E
:10311000B8420FD9206C40F020002064256384F869
:103120003D8084F83C50206C042819D007B003205F
:10313000BDE8F08F2068406910F0040FCFD02168FF
:10314000086840F40070086084F83D8084F83E50C0
:1031500084F83C50002007B0BDE8F08F05E0FFE7A1
:103160002068016841F4007101600120F3E702204A
:10317000F1E70000020010000000FFFF00B500684A
:1031800085B0A0F18041B1F5A8411CBF05B000BDDC
:10319000C020009012200190012002900320039093
:1031A00069460748FFF7D6FB0648C16941F400119C
:1031B000C161C06900F40010049005B000BD0000BA
:1031C000000C01400010024002488168027811445E
:1031D0008160704700000020074810B5016841F089
:1031E00010010160032000F07FF8002000F006F8D5
:1031F00000F024F8002010BD0020024070B50D4DF5
:1032000004464FF47A712878B1FBF0F00A49096856
:10321000B1FBF0F001F042F848B9102C07D20022BF
:103220002146501E00F02EF800206C6070BD012079
:1032300070BD0000000000209000002070470028B2
:10324000B8BF704700F01F01012202FA01F14009E6
:10325000800000F1E020C0F88011BFF34F8FBFF372
:103260006F8F70470028B8BF704700F01F01012220
:1032700002FA01F14009800000F1E020C0F80011DD
:1032800070470000174B10B41B68C3F30223C3F14F
:10329000070CBCF1040F88BF4FF0040C1C1D072C59
:1032A00034BF0023DB1E012404FA0CFCACF1010C3A
:1032B0000CEA0101994004FA03F35B1E1A40114322
:1032C00000284FEA0111A1BF00F1E02080F80014AE
:1032D00010BC704700F00F0000F1E02080F8141DD2
:1032E00010BC70470CED00E0074900F007000A68C9
:1032F0004FF6FF031A4042EA002040F0FD7040F014
:1033000080600860704700000CED00E011F0800F55
:1033100018BF01F07F0100EB411014BF283000F509
:103320000A7099B232B101228272C180190C0181F6
:1033300000207047002282728180F9E7704700EB1D
:103340004112D0F85C04D26B01F0B2BC00EB411228
:10335000D0F85C04D2F83C2201F002BD10B504465E
:1033600001F07F030A4611F0800F00EB431014BFF9
:1033700000F1280100F50A710B70D009487094F82B
:103380002804012804BF022010BD012084F828046D
:10339000206802F0D7F9002084F8280410BD70B529
:1033A00004460A4611F0800F01F07F0019BF04EBBC
:1033B0004011283104EB421101F50A7100258D708E
:1033C0000870D009487094F82804012804BF02202E
:1033D00070BD012084F82804206802F088FA84F87F
:1033E0002854002070BD01F00F0100EB4110B0F82F
:1033F000440280B2704770B5044601F07F058C46E8
:1034000011F0800F00EB451014BF00F1280100F50A
:103410000A710D704FEADC1048700A61CB7094F8A5
:103420002804012804BF022070BD012084F828046C
:10343000206802F019F8002084F8280470BD01F01B
:103440007F0C10B500EB4C11C1E98F230022C1F8AD
:10345000442281F8292281F828C201F50A71006806
:1034600002F0B1FA002010BD70B504460D4611F00F
:10347000800F01F07F0019BF04EB4011283104EBED
:10348000451101F50A7101228A700870E809487037
:1034900094F82804012804BF022070BD84F8282471
:1034A000206802F069FA15F07F0F04D104F22C4174
:1034B000206802F01AFA002084F8280470BD01F098
:1034C0007F0C10B500EB4C11C1E90F2300224A64B8
:1034D000012281F8292001F828CF006802F073FA50
:1034E000002010BD10B50446006802F0ACFB10F4DB
:1034F000004F1CBF204602F017FE206802F0A3FB1D
:1035000010F4806F19D02068B0F8441021F4806165
:10351000A0F84410204600F001F994F82804002196
:1035200001280AD0012284F8282484F82410206875
:1035300002F09DFB002184F82814206802F083FB30
:1035400010F4804F06D02068B0F8441021F4804178
:10355000A0F84410206802F076FB10F4005F06D05B
:103560002068B0F8441021F40051A0F844102068FD
:1035700002F069FB10F4805F17D02068B0F84010AB
:1035800021F00401A0F840102068B0F8401021F0AC
:103590000801A0F84010204600F0CDF82068B0F8EF
:1035A000441021F48051A0F84410206802F04BFB35
:1035B00010F4006F1DD02068B0F8401041F00801F1
:1035C000A0F840102068B0F8441021F40061A0F881
:1035D00044102068B0F8401041F00401A0F84010F9
:1035E000206802F030FB10F4805F04BF204600F03A
:1035F000DFF8206802F027FB10F4007F09D0206874
:10360000B0F8441021F40071A0F84410204600F0F6
:1036100096F8206802F017FB10F4807F08BF10BDF9
:103620002068B0F8441021F48071A0F8441010BD57
:10363000002804BF0120704770B5044690F82904A3
:1036400086B0002520B984F82854204600F048F8B8
:10365000032084F82904206802F03FF910340FCCCD
:103660008DE80F0054F82009049094E80F0002F050
:1036700066F80021206802F0F8FA00200F220126E7
:1036800004EB401181F8296081F8280081F82B5063
:103690008D63CD630D6481F8295281F828028886F4
:1036A00081F82B52C1F83852C1F83C52401CC1F885
:1036B0004052521EE4D104F110000FC88DE80F00F3
:1036C000206A049094E80F0002F0F5F884F8245082
:1036D00084F82964206802F0ECF806B0002070BD80
:1036E00008B50068A0F18041B1F5B84118BF08BD28
:1036F0000948C16941F40001C161C069002200F4B8
:103700000000009011461420FFF7BCFDBDE8084002
:103710001420FFF7A7BD00000010024010B50446BA
:103720000121D0F85C0401F0FCFBD4F85C04BDE896
:10373000104001F0C4BBD0F85C0401F0DFBBD0F84E
:103740005C0401F0E1BB10B5044690F828040128A0
:1037500004BF022010BD012084F8280484F824103E
:10376000206802F084FA002084F8280410BDD0F804
:103770005C2400F22C41104601F0E8BB10B5044671
:1037800090F82804012804BF022010BD012084F80D
:10379000280401462046FFF7D1FD206802F087F893
:1037A000206802F046FA002084F8280410BD0000CA
:1037B00010B50446D0F85C0401F01BFCA069002899
:1037C00008BF10BD0248016841F00601016010BD4C
:1037D00010ED00E010B586B001460FF2D80C9CE861
:1037E0000D108DE80D1037A0374C006804900020B4
:1037F00001292CD0022951D010291CBF06B010BDC0
:103800006168226812F0807F04BF06B010BDC1F36A
:10381000834211F4803F1DF8020004BF2B49484346
:1038200008D0616804AAC1F34041515C284AB2FB48
:10383000F1F14843616811F4800F1CBF06B010BD60
:103840004000244906B0A1FB0010400810BD216AC9
:1038500001F44072B2F5807F06D111F0020F1EBF55
:103860004FF4004006B010BDB2F5007F07D1626A88
:1038700012F0020F1EBF49F6404006B010BD4FF4D3
:10388000407232EA01011CBF06B010BD216811F47C
:10389000003F18BF4FF2244006B010BD00F008FAF8
:1038A000616806B0C1F38131491C4900B0FBF1F0F9
:1038B00010BD000002030405060708090A0B0C0DE1
:1038C0000E0F1010010200000010024000093D0020
:1038D00000127A00ABAAAAAA2DE9F84304460078A0
:1038E000DFF8148110F0010F6AD0D8F81C0000270F
:1038F00010F0805F0BD1D8F81C0040F08050C8F861
:103900001C00D8F81C00012700F0805000903B4EAE
:10391000306810F4807F14D1306840F480703060DB
:10392000FFF710F90546306810F4807F09D100BF19
:10393000FFF708F9401B64282BD8306810F4807F0B
:10394000F6D0D8F8200010F440702AD0A18801F4F5
:103950004071814225D0D8F82000012220F4407126
:103960002748026000220260C8F8201011F0010F01
:1039700017D0FFF7E7F80546D8F8200010F0020F3F
:1039800008BF41F288360CD1FFF7DCF8401BB0428B
:1039900002D90320BDE8F883D8F8200010F0020F08
:1039A000F2D0D8F82000616820F440700843C8F8CD
:1039B00020002FB1D8F81C0020F08050C8F81C005F
:1039C000207810F0020F07D0D8F80400A16820F486
:1039D00040400843C8F80400207810F0100F07D0CA
:1039E000D8F80400E16820F480000843C8F8040017
:1039F0000020BDE8F8830000001002400070004085
:103A0000400442422DE9F0436F4F054685B03868C7
:103A1000884600F0070040450AD2386820F00700C9
:103A200040EA08003860386800F0070040457ED161
:103A30002868664C10F0020F14D010F0040F03D069
:103A4000606840F4E0606060287810F0080F03D0F0
:103A5000606840F4605060606068A96820F0F00021
:103A600008436060287810F0010F50D06868012882
:103A700021D02168022823D011F0020F57D06168AD
:103A800021F0030108436060FFF75CF806466868B0
:103A900041F28839012817D00228606800F00C0034
:103AA00023D008B3FFF74EF8801B48452BD905B04B
:103AB0000320BDE8F083216811F4003FDFD136E038
:103AC00011F0007FDBD132E0606800F00C000428C8
:103AD0001DD000BFFFF736F8801B4845E7D8606867
:103AE00000F00C000428F5D111E008280FD000BF29
:103AF000FFF728F8801B4845D9D8606800F00C0013
:103B00000828F5D103E0606810F00C0FCAD13868BE
:103B100000F0070040450FD9386820F0070040EA60
:103B200008003860386800F00700404504D005B050
:103B30004FF00100BDE8F083287810F0040F06D0A4
:103B40006068E96820F4E06040EA0100606028787D
:103B500010F0080F06D06068296920F4605040EA30
:103B6000C10060601A4B0FCB8DE80F001948006848
:103B700004906168184811F00C0218BF042A14D090
:103B8000082A12D1C1F3834211F4803F1DF80200CC
:103B900004BF1249484308D0616804AAC1F34041F8
:103BA000515C0D4A5043B0FBF1F061680C4AC1F31F
:103BB0000311515CC8400B4908600020FFF71EFB51
:103BC00005B00020BDE8F083002002400010024054
:103BD000283D0008383D000800127A0000093D0029
:103BE000CCE00008900000200F21016027490A68FE
:103BF00012F4802F4FF0000218BF4FF4A02334D0EE
:103C000043604B6803F4003383600B6813F0010FCB
:103C10004FF0010314BF03610261D1F800C0CCF37F
:103C2000C40CC0F814C0D1F820C01CF0040F1CBF95
:103C30004FF0050CC0F80CC020D000BFD1F824C054
:103C40001CF0010F14BF836182610A6812F0807F4B
:103C50001ABF0222C261C3614A6802F48032026262
:103C6000496801F47011416270470B6813F4803F9A
:103C700014BF4FF480334260C2D1C2E7D1F820C0F4
:103C80001CF0010F14BFC360C260D7E700100240F0
:103C90000448054900684968044AC1F30221515C9F
:103CA000C84070479000002000100240DCE000088F
:103CB0000448054900684968044AC1F3C221515CBF
:103CC000C84070479000002000100240DCE000086F
:103CD00015A186B00FC98DE80F0017A0174A00681C
:103CE00004905168164811F00C0312BF042B06B063
:103CF0007047082B1CBF06B07047C1F3834311F413
:103D0000803F1DF8030001BF0E49484306B07047CD
:103D1000516804AAC1F34041515C094A06B05043BE
:103D2000B0FBF1F070470000020304050607080924
:103D30000A0B0C0D0E0F10100102000000100240C3
:103D400000127A0000093D002DE9F84F0446007882
:103D5000E04D10F0010F59D0686800F00C00042805
:103D600008D0686800F00C0008280CD1686810F4CE
:103D7000803F08D0286810F4003F47D060680028D2
:103D800000F0A58142E06068B0F5803F04BF28687C
:103D900040F480300AD010B1B0F5A02F11D02868BF
:103DA00020F480302860286820F480202860606833
:103DB000D0B1FEF7C7FE0646286810F4003F08D0D1
:103DC00024E0286840F480202860286840F480308F
:103DD000ECE7FEF7B7FE801B642800F23681286806
:103DE00010F4003FF5D011E0FEF7ACFE064628685F
:103DF00010F4003F0AD000BFFEF7A4FE801B642829
:103E000000F22381286810F4003FF5D12078B24EEB
:103E100010F0020F4FF0010B4FF0000845D068681A
:103E200010F00C0F14D0686800F00C00082804BFD4
:103E3000686810F4803F0BD0206918B3C6F800B052
:103E4000FEF780FE0746286810F0020F09D011E047
:103E5000286810F0020F1CBF206901280AD000F06A
:103E600036B9FEF76FFEC01B02287DD8286810F017
:103E7000020FF6D02868616920F0F80040EAC1001E
:103E8000286012E0C6F80080FEF75CFE074628684E
:103E900010F0020F09D000BFFEF754FEC01B02282D
:103EA00062D8286810F0020FF6D1207810F0080FC1
:103EB00035D08A48A169F9B1C0F800B0FEF742FEDA
:103EC0000746686A10F0020F09D100BFFEF73AFEFC
:103ED000C01B022848D8686A10F0020FF6D080484C
:103EE0004FF4FA510068B0FBF1F0009000BF009869
:103EF000411E0091FAD212E0C0F80080FEF722FEC7
:103F00000746686A10F0020F09D000BFFEF71AFEDC
:103F1000C01B022828D8686A10F0020FF6D120785A
:103F200010F0040F79D0E8694FF0000A10F0805FBC
:103F300009D1E86940F08050E861E8694FF0010A72
:103F400000F080500090DFF89C91D9F8000010F448
:103F5000807F19D1D9F8000040F48070C9F80000C2
:103F6000FEF7F0FD074600E06FE0D9F8000010F41E
:103F7000807F09D1FEF7E6FDC01B642865D8D9F81B
:103F8000000010F4807FF5D0E068012804BF286AA3
:103F900040F0010009D008B1052813D0286A20F0AC
:103FA00001002862286A20F004002862E06841F2DB
:103FB0008837D0B1FEF7C6FD8146286A10F0020F9F
:103FC00008D023E0286A40F004002862286A40F004
:103FD0000100EAE7FEF7B6FDA0EB0900B84234D8CD
:103FE000286A10F0020FF5D010E0FEF7ABFD814615
:103FF000286A10F0020F09D0FEF7A4FDA0EB09001B
:10400000B84222D8286A10F0020FF5D1BAF1000F99
:1040100003D0E86920F08050E861E069F0B3696896
:1040200001F00C01082952D00228C6F860800FD098
:10403000FEF788FD0446286810F0007F44D000BFDA
:10404000FEF780FD001B02283AD90320BDE8F88F57
:10405000FEF778FD0746286810F0007F09D000BF02
:10406000FEF770FDC01B0228EFD8286810F0007F13
:10407000F6D1206AB0F5803F05D16868A16820F4C8
:10408000003008436860D4E908010843696821F4F6
:10409000741108436860C6F860B000E014E0FEF7F1
:1040A00051FD0446286810F0007F0DD1FEF74AFD4F
:1040B000001B0228C9D8286810F0007FF6D003E062
:1040C000286810F0007FBBD10020BDE8F88F0120E8
:1040D000BDE8F88F001002400000424280044242D6
:1040E0009000002000700040002804BF01207047AD
:1040F0002DE9F0410446407C002618B9267420467C
:1041000000F08AF8022060742068416821F00801FC
:104110004160FEF717FD0546206840684FF0040730
:1041200010F0080F0FD100BFFEF70CFD401BB0F5DB
:104130007A7F03D967740120BDE8F0812068406868
:1041400010F0080FF0D0FEF7FDFC0546206840682F
:1041500010F0200F0BD100BFFEF7F4FC401BB0F5B0
:104160007A7FE7D82068406810F0200FF4D02068EC
:10417000416841F0100141602068416821F0070169
:104180004160A06820B12248016821F0010101606E
:1041900020480168A26821F46071114301606068E1
:1041A000B0F1FF3F19D021688A6822F00F0242EA7D
:1041B00010428A602168CA6860F30F02CA602068F2
:1041C000416821F010014160FEF7BCFC0546206803
:1041D000406810F0200F08D012E00120FFF7FAFA33
:1041E000002818BF401EDED1A4E7FEF7ABFC401B41
:1041F000B0F57A7F9ED82068406810F0200FF4D088
:10420000E67301206073A07360740020BDE8F08144
:10421000306C00402C6C00407047002804BF012027
:10422000704770B500250446856290F8510020B9AA
:1042300084F85050204600F030F8022084F85100F5
:104240002068016821F040010160D4E901010843C0
:10425000D4E903121143084361690843218B01F437
:1042600000710843E1690843216A0843A16A0843D1
:1042700021680860A069042101EA1040616A0843CE
:10428000216848602068C16921F40061C1616565E9
:10429000012084F85100002070BD7047411EB1F12B
:1042A000807F24BF012070474FF0E0204161054A24
:1042B000F02182F8141D0021816107210161002095
:1042C000704700000FE000E07047704710B50446EB
:1042D000022084F83D002068016A41F21112114267
:1042E00007D1016A9210114203D1016821F0010146
:1042F0000160204600F021F8002084F83D0084F899
:104300003C0010BD002804BF0120704710B50446D2
:1043100090F83D0028B9002084F83C00204600F0C9
:104320000DF8022084F83D00211D206800F07CFB80
:10433000012084F83D00002010BD704770470168DF
:10434000CA6842F00102CA600068016841F00101D8
:104350000160002070470168CA6822F00102CA604B
:104360000068016A41F21112114207D1016A9210EC
:10437000114203D1016821F0010101600020704762
:10438000704770B50446006801694FF0000511F0F0
:10439000020F1CBFC16811F0020F13D06FF00201B1
:1043A0000161012020772068806910F0030F20460A
:1043B00002D0FFF7E5FF04E000F099F8204600F096
:1043C00097F825772068016911F0040F1CBFC168B8
:1043D00011F0040F13D06FF0040101610220207767
:1043E0002068806910F4407F204602D0FFF7C8FFA4
:1043F00004E000F07CF8204600F07AF82577206889
:10440000016911F0080F1CBFC16811F0080F13D02B
:104410006FF008010161042020772068C06910F066
:10442000030F204602D0FFF7ABFF04E000F05FF877
:10443000204600F05DF825772068016911F0100F23
:104440001CBFC16811F0100F13D06FF01001016193
:10445000082020772068C06910F4407F204602D0F1
:10446000FFF78EFF04E000F042F8204600F040F82D
:1044700025772068016911F0010F1CBFC16811F098
:10448000010F05D06FF001010161204600F032F804
:104490002068016911F0800F1CBFC16811F0800F06
:1044A00005D06FF0800101612046FFF70DFF206805
:1044B000016911F0400F1CBFC16811F0400F05D019
:1044C0006FF040010161204600F026F82068016984
:1044D00011F0200F1ABFC16811F0200F70BD6FF0EE
:1044E000200101612046BDE87040FFF7EEBE704735
:1044F0007047000006494A68904218BF70474878E4
:1045000080F001024A7010210248FEF716BB00003D
:1045100044000020000C01407047704770B50168EE
:1045200004460868CA684B6910F00F0F4FF0200569
:1045300045D003F0010C02F490765CEA060C00F022
:10454000FF8010F0010F18BF12F4807F05D0D4F85F
:104550003CC04CF0010CC4F83CC010F0040F18BF74
:1045600013F0010F05D0D4F83CC04CF0020CC4F895
:104570003CC010F0020F18BF13F0010F05D0D4F8A3
:104580003CC04CF0040CC4F83CC010F0080F18BF3D
:1045900013F0010F03D0E36B43F00803E363E36B15
:1045A000002B08BF70BD10F0200F18BF12F0200FB5
:1045B00073D094F83A202046222A4BD088E010F09D
:1045C000200F18BF12F0200F00F0BA8094F83A20A4
:1045D0002046222A18BF70BD8268B2F5805F23D0C2
:1045E000026982B3496801F07F02816A4B1C8362D1
:1045F0000A70C18D491E0904090CC18518BF70BD20
:104600000168CA6822F02002CA600168CA6822F400
:104610008072CA6001684A6922F001024A6180F82A
:104620003A5000F02FF970BD0369826A4968002B87
:1046300014BFC9B2C1F308011180816A14BF491CBB
:10464000891C8162D5E7FFE74A68816A4B1C836257
:104650000A70CEE78268B2F5805F0FD00269EAB1D6
:10466000496801F07F02816A4B1C83620A70C18D28
:10467000491E0904090CC1852AD116E00369826A22
:104680004968002B14BFC9B2C1F308011180816AC7
:1046900014BF491C891C8162E9E719E04A68816AF4
:1046A00001F1010383620A70E1E70168CA6822F040
:1046B0002002CA600168CA6822F48072CA60016878
:1046C0004A6922F001024A6180F83A5000F0DAF8B3
:1046D00020684169E26BC1F3801112F0080F08BF36
:1046E000002926D0C16821F49071C1602068416919
:1046F00021F00101416184F83A502068416911F0CC
:10470000400F12D0416921F040014161606B60B1FE
:104710002D494163606BFDF783FF002808BF70BD22
:10472000606B416BBDE8704008472046FFF7F5FE1F
:1047300070BD2046FFF7F1FE0020E06370BD00BFB2
:1047400010F0800F18BF12F0800F2CD094F83900B1
:10475000212818BF70BDA068B0F5805F206A16D010
:10476000411C2162216800784860E08C401E0004F2
:10477000000CE08418BF70BD2068C16821F0800182
:10478000C1602068C16841F04001C16070BD00880F
:10479000C0F30800486020690028206A14BF401C4C
:1047A000801C2062E1E710F0400F14BF12F0400FB0
:1047B00070BD2046CA6822F04002CA6084F83950B1
:1047C00000F0FFF870BD00008B660008002804BFF1
:1047D0000120704770B5044690F83900002520B9D3
:1047E00084F83850204600F022F8242084F839005C
:1047F0002068C16821F40051C160204601F006FB29
:104800002068016921F4904101612068416921F02B
:104810002A0141612068C16841F40051C160E5632B
:10482000202084F8390084F83A00002070BD7047D9
:1048300090F83A30202B23D1002912BF002A012002
:10484000704790F83830012B1AD081628285C2857A
:104850000021C163222280F83A2080F838100168D4
:10486000CA6842F48072CA6001684A6942F0010273
:104870004A610068C16841F02001C16000207047B2
:104880000220704703490968884218BF704702F048
:1048900055BD0000240200202DE9F84F044690F891
:1048A00039001D4617460E4620287BD1002E12BF28
:1048B000002F0120BDE8F88F94F8380001287DD042
:1048C000012084F838004FF0000AC4F83CA02120F1
:1048D00084F83900FEF736F9A7848046E784E08C37
:1048E0004FF02009002854D0E08C401EE084A068DE
:1048F0004FF08007B0F5805F2068006827EA00006D
:104900001FD000283ED000BFB5F1FF3F35D02DB1FC
:10491000FEF718F9A0EB0801A9422ED92068C1685A
:1049200021F4D071C1602068416921F00101416129
:1049300084F8399084F83A9084F838A00320BDE8D0
:10494000F88F78B1B5F1FF3F07D0002DE6D0FEF724
:10495000F9F8A0EB0801A942E0D82068006837EA1E
:104960000000EFD130882168C0F30800486020695A
:1049700000280CBFB61C761C08E02068006837EAE7
:104980000000C1D1216816F8010B4860E08C0028B6
:10499000AAD14346002240212046009501F0E4FFC1
:1049A000002800E00AE01CBF0320BDE8F88F84F86F
:1049B000399084F838A00020BDE8F88F0220BDE8C7
:1049C000F88F7047FEE7FEE7704770477047FEF7C5
:1049D000FBBB00000E48016841F001010160416825
:1049E0000C4A11404160016821F4102121F08071CE
:1049F0000160016821F480210160416821F4FE0119
:104A000041604FF41F0181600349C0030860704793
:104A1000001002400000FFF808ED00E001480068C7
:104A2000FFF7AFBC4800002030B40268194BDFF834
:104A300068C01A4C984218BFB0F1804F03D060454F
:104A400018BFA04204D14D6822F0700245EA02026C
:104A5000984218BFB0F1804F03D0604518BFA04204
:104A600005D1D1F80CC022F440724CEA0202D1F810
:104A700014C022F080024CEA020202608A68C2621C
:104A80000A688262984204BF096901630121416199
:104A900030BC7047002C014000040040000800407A
:104AA00001480068FFF73ABD2402002010B5D0F895
:104AB0001812002904BF022010BD027C002AD1F880
:104AC000042205D04023012100F0E7F9002010BDA9
:104AD0004FF40073012100F0E0F9F7E702460220ED
:104AE00000291CBFC2F81C1200207047D0F8180221
:104AF000C0F8041200207047D0F81802C0F8102245
:104B0000C0F808120020704710B5D0F8181200291C
:104B100004BF022010BDD1F81422002A1CBF0120BE
:104B200010BD0122C1F81422B1F8102293B2D1F8BD
:104B30000822812100F066FA002010BD10B5D0F8DF
:104B4000142252689047002010BD134610B50A4643
:104B5000002100F0A2F9002010BD134610B50A464E
:104B6000002100F04FFA002010BD10B50323C0F85B
:104B70000821C0F8F431C0F80C2113460A46002180
:104B800000F08BF9002010BD10B505210023C0F8FE
:104B9000F4111A46194600F080F9002010BD10B536
:104BA00002238261C0F8F431C26113460A46002133
:104BB00000F028FA002010BD10B504210023C0F831
:104BC000F4111A46194600F01DFA002010BD00002D
:104BD00030B40025002804BF30BC70470346047879
:104BE0004FF0000C44B100BF13F8014F0CF1010C61
:104BF0000CF0FF0C002CF7D1022303EB4C031380C5
:104C00004B556A1C03238B540378AA1C002B12BF3C
:104C1000002330BC704700BF10F801CB01F802C080
:104C2000521CD2B28B54521C90F800C0D2B2BCF1CC
:104C3000000FF1D130BC7047002804BF022070473C
:104C4000D0F81432002B1CBF0023C0F81432002906
:104C500018BFC0F8101210B5012180F8FC110270C5
:104C600000F0B8F8002010BD10B5D0F82002FEF713
:104C700096FB01004FF0000008BF10BD012903D0D2
:104C8000022904BF012010BD022010BD10B5D0F8CC
:104C90002002FEF763FB01004FF0000008BF10BDCB
:104CA000012903D0022904BF012010BD022010BD3C
:104CB00070B51346044659B1D4F814024269002A6B
:104CC0004CD094F8FC01032804BF2046904745E0EF
:104CD000D4F8F411002504F11400022938D1D0E9E8
:104CE00002218A420DD9511A81608AB219462046A2
:104CF000FFF733FF00231A461946204600F0CDF88F
:104D000026E04068B0FBF1F201FB12029AB988423A
:104D100011D3D4F8F81188420DD200221146204652
:104D2000FFF71BFF00231A4619462046C4F8F85126
:104D300000F0B3F80CE0D4F81402C16829B194F87B
:104D4000FC01032804BF204688472046FFF71CFFCC
:104D500094F80002012808BF84F80052002070BDBA
:104D600070B51546044651B1D4F81402826952B3A5
:104D700094F8FC01032804BF2046904723E0D4F8B0
:104D8000F41104F5827003291DD1D0E902C39C45BA
:104D90000CD9ACEB03038360C068984298BF03460C
:104DA0009AB229462046FFF7D0FE0CE0D4F8140250
:104DB000016929B194F8FC01032804BF2046884703
:104DC0002046FFF7F9FE002070BDD0F82002FEF764
:104DD0000ABB000010B504461C481D490068C0F815
:104DE0005C44C4F820020160082141600221816016
:104DF00000218161C1610162FEF71AFC00221823C3
:104E00001146D4F82002FEF781FA582300228021AF
:104E1000D4F82002FEF77AFAC02300228121D4F8C8
:104E20002002FEF773FA4FF4887300220121D4F8B0
:104E30002002FEF76BFA4FF4807300228221D4F82F
:104E40002002FEF763FA002010BD0000F4000020ED
:104E5000005C004011F0800FD0F8200201F07F01CB
:104E600000EB411014BF90F82A0090F82A02704716
:104E700010B59C461346D0F820026246FEF7BBFAF6
:104E800001004FF0000008BF10BD012903D0022926
:104E900004BF012010BD022010BD10B5D0F82002C3
:104EA000FEF7CDFA01004FF0000008BF10BD012948
:104EB00003D0022904BF012010BD022010BD70B52F
:104EC0000022044640231146FFF7D2FF40252B461F
:104ED000002280212046C4F81051FFF7C9FF0120AD
:104EE000256284F8FC01D4F8180228B1D4F8140221
:104EF0002179426820469047002070BD90F8FD114E
:104F000080F8FC110020704710B590F8FC110329BF
:104F100005D1D0F81412C969002918BF88470020AC
:104F200010BD01740020704710B5D0F82002FEF7C4
:104F30000AFC01004FF0000008BF10BD012903D09A
:104F4000022904BF012010BD022010BD10B5044687
:104F500000F5027000F068F80120C4F8F401B4F81C
:104F60000E02C4F8F80194F8080210F01F010AD0EC
:104F700001290ED0022912D000F08001204600F055
:104F800014F8002010BD04F50271204600F07AF8F4
:104F9000F7E704F50271204600F041FAF1E704F565
:104FA0000271204600F0B6F9EBE710B5D0F8200208
:104FB000FEF75AFA01004FF0000008BF10BD0129AA
:104FC00003D0022904BF012010BD022010BD10B57E
:104FD000D0F82002FEF7D2FB01004FF0000008BF1E
:104FE00010BD012903D0022904BF012010BD0220F9
:104FF00010BD90F8FC1180F8FD11042180F8FC111F
:105000000020704710B5D0F82002FEF758FA0100D2
:105010004FF0000008BF10BD012903D0022904BFD2
:10502000012010BD022010BD0A7802704A7842703B
:105030008A78CB7802EB032242800A794B7902EB23
:10504000032282808A79C97902EB0121C1807047ED
:1050500002460020002914BFC2F814120220704733
:1050600010B5D0F81422022422B11268904700280B
:1050700008BF0024204610BD10B5FFF7A8FF002090
:1050800010BD0000F8B50D46497800260A2980F0C9
:10509000F180DFE801F0FAF9EFF8EF8505EFE3A41E
:1050A00004466888010A082980F0C380DFE801F01F
:1050B000C1040C1EC1C1555FD4F81012207C0A68CF
:1050C0006946904701465DE0207C0028D4F8140230
:1050D00005D0C16A684688470146022051E0816ACE
:1050E000684688470146022048704BE0C0B2062857
:1050F00074D2DFE800F0030B131B232BD4F810123B
:10510000207C4A686946904701463BE0D4F810127B
:10511000207C8A6869469047014633E0D4F8101233
:10512000207CCA686946904701462BE0D4F81012EB
:10513000207C0A6969469047014623E0D4F81012A2
:10514000207C4A696946904701461BE0D4F810125A
:10515000207C8A696946904707E0207C002868D156
:10516000D4F81402416B6846884701460AE0207C67
:1051700000285ED1D4F81402016B684688470146C6
:1051800007204870BDF8000000281CBFEA88002AEC
:1051900057D0824288BF0246ADF8002020467AE010
:1051A0000446A888002804BFE888002841D1A878D0
:1051B00000F07F0594F8FC0103283AD084F8FE51F2
:1051C00029462046FFF7B0FE2046FFF7F5FC002DEC
:1051D0000CBF0120022084F8FC0132E029E0A9780C
:1051E0004B4D04460129297023D894F8FC0102286C
:1051F00002D003280ED01CE041B10320616084F886
:10520000FC012046FFF72CFF022812D02046FFF7B2
:10521000D3FC16E0B9B160688842F7D0C1B220462D
:10522000FFF78CFC297820466160FFF719FF022800
:10523000ECD180212046FFF7B8FE00212046FFF781
:10524000B4FE3046F8BD022084F8FC0120466160BF
:10525000FFF774FC2046FFF7AFFCF2E7E98801296D
:1052600008D190F8FC11022910D0032904BF0122B3
:10527000011D10D004468021FFF797FE0021204633
:10528000FFF793FEDDE71CE02BE007E000218160E3
:10529000012200F10801FFF782FCD2E790F8FC112F
:1052A000022918BF0329E5D14FF00101C160D0F8F0
:1052B000041200291CBF0321C160022200F10C016D
:1052C000E9E70446688829460128BAD1C4F80402EF
:1052D000D4F814028268204690472046FFF76CFC01
:1052E000AFE7044690F8FC012946022818BF0328BE
:1052F0009FD148880128A4D10020C4F80402D4F822
:1053000014028268204690472046FFF755FC98E734
:105310000C02002070B50D46044628780026097955
:1053200000F06000202807D06878002848D00128C5
:1053300028D0032808D051E0D4F814022946826806
:1053400020469047002070BD94F8FC01022802D04E
:10535000032805D03AE0002918BF802943D13DE059
:10536000688828B900291EBF80292046FFF71DFE46
:10537000D4F8140229468268204690472046FFF759
:105380001BFC2BE094F8FC01022802D0032805D076
:105390001CE0002918BF802925D11FE06888E8B9E2
:1053A00011F07F0F08D02046FFF75EFCD4F81402FE
:1053B00029468268204690472046FFF7FDFB0DE016
:1053C00094F8FC0102280BD0032810D0802120463D
:1053D000FFF7EBFD00212046FFF7E7FD304670BDEB
:1053E00011F07F0FFAD02046FFF7DFFDF6E701F05E
:1053F0007F0011F0800F04EB001014BF00F11405C2
:1054000000F582752046FFF725FD002818BF012012
:105410000222286029462046FFF7C1FBDEE770B56F
:10542000044690F8FC010D4603280ED12879012886
:105430000BD8D4F81402826820469047E8880028E8
:1054400004BF2046FFF7B8FB07E080212046FFF7A6
:10545000ACFD00212046FFF7A8FD002070BD70477D
:105460000048704790310020F0B4CB780A786BB1D7
:10547000012B1DD0022B02BF30F8223023F4CE6363
:1054800023F4E0431CD0032B09D01BE030F822307A
:1054900023F4CE6323F4E04343F4007310E030F8C8
:1054A000223023F4CE6323F4E04343F4C06307E0E7
:1054B00030F8223023F4CE6323F4E04343F48063D6
:1054C00020F822300B7830F8232022F0700C2CF4D6
:1054D000E04C48F280024CEA020C43EA0C0C20F843
:1054E00023C08D7A042448F2C0034CF2800C002DB6
:1054F00069D00D7830F8256048F2801726F07006E4
:1055000026F4E0463E4320F82560CD88B0F8506090
:1055100025F001050F7806EBC70600EB4606C6F836
:1055200000540D89B0F8506025F001050F7804EBA8
:10553000C704344400EB4404C4F800544C78002CF5
:105540000C7830F8245005F480457DD04DB130F80A
:10555000245025F0700525F4E04545EA0C0520F8B7
:1055600024500C7830F8245015F0400F08D030F853
:10557000245025F0700525F4E0452B4320F8243015
:105580000B7830F8234024F0700424F4E04444EA1B
:105590000C0C20F823C00B7830F823C02CF4415CAD
:1055A0002CF4804C4CEA020C20F823C00B7830F825
:1055B000231021F0700121F48041114320F82310C1
:1055C000F0BC002070474D784DB3B1F804C0B0F87E
:1055D00050402CF0010C0D7804EBC50400EB4404A2
:1055E000C4F800C491F800C030F82C4014F0400F0B
:1055F00008D030F82C4024F0700424F4E044234315
:1056000020F82C30097830F8213023F4415323F46A
:10561000804383F020031A4320F82120D0E78B88B1
:10562000B0F8505023F001030E7804EBC6042C446C
:1056300000EB4404C4F80034B0F850300C78062570
:1056400005EBC404234400E03BE000EB430303F517
:1056500080650B694FF6FF763E2B28D9C3F34F14B4
:1056600013F01F0F04BF631E9CB206EA842343F4A9
:1056700000432B600B7830F8234014F4804F09D09E
:1056800030F8234024F0700424F4E04444EA0C0C85
:1056900020F823C0097830F8213023F0700323F478
:1056A000804383F440531A4320F8212088E7C3F352
:1056B0004F0413F0010F1CBF631C9CB206EA842345
:1056C000D7E74DB130F8245025F0700525F4E045BA
:1056D00045EA0C0C20F824C091F800C030F82C40AA
:1056E00014F0400F08D030F82C4024F0700424F45B
:1056F000E0441C4320F82C4091F800C030F82C40C6
:1057000024F0700424F4E044234320F82C300B7878
:1057100030F823C02CF0700C2CF4804C8CF4405CDE
:105720004CEA020C20F823C0097830F8213023F429
:10573000415323F480431A4320F8212040E70020FE
:105740007047000070B48E7A4D780A7848F2800372
:1057500048F2C00C4CF28004BEB3002D30F8225049
:1057600005F4804566D045B130F8225025F070052B
:1057700025F4E045254320F822500A7830F82250DD
:1057800015F0400F09D030F8225025F0700525F4AF
:10579000E04545EA0C0C20F822C00A7830F822C017
:1057A0002CF0700C2CF4E04C4CEA040C20F822C0D5
:1057B0000A7830F822C02CF4415C2CF4804C4CEA7E
:1057C000030C00BF20F822C029E0FFE7CDB130F87C
:1057D000224014F0400F09D030F8224024F0700429
:1057E00024F4E04444EA0C0C20F822C0097830F894
:1057F000212022F4415222F480421A4320F8212031
:1058000052E030F822C01CF4804F08D030F822C09B
:105810002CF0700C2CF4E04C4CEA040CD2E7097824
:1058200030F8212022F0700222F480421A4320F83E
:10583000212039E045B130F8225025F0700525F4DB
:10584000E0452C4320F822400A7830F8224014F03A
:10585000400F09D030F8224024F0700424F4E044D2
:1058600044EA0C0420F822400A7830F8224024F060
:10587000700424F4E04444EA0C0C20F822C00A78B6
:1058800030F822C02CF0700C2CF4804C4CEA030C45
:1058900020F822C00A7830F8221021F4415121F476
:1058A0008041194320F8221070BC0020704700206E
:1058B0007047002070470121A0F840100021A0F897
:1058C0004010A0F84410A0F85010B0F8401041F477
:1058D0003F41A0F8401000207047B0F8401021F47C
:1058E0003D41A0F84010002070470020704710B4E0
:1058F00091F801C00A78BCF1000F48F2800330F83B
:1059000022C01BD01CF0400F0BD030F822C048F250
:10591000C0042CF0700C2CF4E04C4CEA040C20F881
:1059200022C0097830F8212022F4415222F480422A
:1059300082F030021A4320F821201AE01CF4804F34
:105940000BD030F822C04CF280042CF0700C2CF4F8
:10595000E04C4CEA040C20F822C0097830F82120F1
:1059600022F0700222F4804282F440521A4320F85E
:10597000212010BC002070470A7848F28003AAB1A9
:105980004978002930F8221003BF21F0700121F47A
:10599000804181F4805121F441511CBF21F48041A8
:1059A00081F01001194320F822100AE0018821F04B
:1059B000400121F4804181F4805181F010011943AC
:1059C0000180002070472DE9F0018A694F788C7AB8
:1059D00002250B6994464FF0000848F28006012F1B
:1059E00012D09C4598BFC1F8188003D91A46ACEB79
:1059F00002038B614FF006084FF6FF7C002C70D03D
:105A0000002F6FD000F005B99C4598BFC1F81880F1
:105A100003D91A46ACEB02038B61A4B30B7830F8C0
:105A200023C01CF0400FB0F850C005EBC303634423
:105A300000EB4303C3F800240CBFCB880B8992B260
:105A4000521C5FEA520C4C6900EB430202F5806382
:105A500014D0A21E1B1F1CF0010F03D032F8024FFE
:105A600023F8044F5FEA6C0C08D054889C8032F80D
:105A7000044F23F8084FBCF1010CF6D14A787AB3F1
:105A8000012A3ED04AE0FFE7B1F804C094B2641C9A
:105A90004B6900EB4C0C64080CF5806C14D09B1E19
:105AA000ACF1040C14F0010F03D033F8027F2CF892
:105AB000047F641008D05F88ACF8047033F8047F6A
:105AC0002CF8087F641EF6D1B0F8503091F800C071
:105AD00005EBCC0C634400EB4303C3F800241DE04A
