:020000040802F0
:1000000010FB012021030208514F0208494F02084A
:100010004D4F020885250208317C020800000000CF
:10002000000000000000000000000000654F020812
:100030008925020800000000634F0208674F02088C
:100040003B0302083B0302083B0302083B03020890
:100050003B0302083B0302083B0302083B03020880
:100060003B0302083B0302083B0302083B03020870
:100070003B0302083B0302083B0302083B03020860
:100080003B0302083B0302083B0302083B03020850
:100090003B0302083B0302083B0302083B03020840
:1000A0003B0302083B0302083B0302083B03020830
:1000B0003B030208D94F02083B0302083B03020836
:1000C0003B0302083B0302083B0302083B03020810
:1000D0003B0302083B0302083B0302083B03020800
:1000E0003B0302083B0302083B0302083B030208F0
:1000F0003B0302083B0302083B0302083B030208E0
:100100003B0302083B0302083B0302083B030208CF
:100110003B0302083B0302083B0302083B030208BF
:100120003B0302083B0302083B0302083B030208AF
:100130003B0302083B0302083B0302083B0302089F
:100140003B0302083B0302083B030208534F02082B
:100150003B0302083B0302083B0302083B0302087F
:100160003B0302083B0302083B0302083B0302086F
:100170003B0302085B4F02083B030208000000003B
:100180003B0302083B03020800F002F800F0B8F855
:100190000AA090E8000C82448344AAF10107DA45E2
:1001A00001D100F0ADF8AFF2090EBAE80F0013F07C
:1001B000010F18BFFB1A43F001031847C83C0100A8
:1001C000F83C01000A444FF0000C10F8013B13F01A
:1001D000070408BF10F8014B1D1108BF10F8015BA0
:1001E000641E05D010F8016B641E01F8016BF9D193
:1001F00013F0080F1EBF10F8014BAD1C0C1B09D1EA
:100200006D1E58BF01F801CBFAD505E014F8016B5B
:1002100001F8016B6D1EF9D59142D6D370470000ED
:100220000023002400250026103A28BF78C1FBD8FF
:10023000520728BF30C148BF0B6070476E2900F0DD
:10024000F485702901F05B81662913F0F38065293C
:1002500013F0F080672913F0ED806129AFF300807F
:1002600003681B0A28BF41F08001692900F09481CE
:10027000642900F09181752900F08E816F2901F0C9
:10028000E880782901F02781E92901F08380E429B9
:1002900001F08080F52901F07D80EF2901F0E580F3
:1002A000F82901F026810368DB0928BF41F08001AD
:1002B000632901F00480732901F00980E32901F02A
:1002C0002D82F32901F03282002070471FB513F010
:1002D00070F89DE8030000F0D5FC01F065F904001A
:1002E0000020002112F052FA401C60600020002122
:1002F00012F036FAE06000F093FC1FBD10B510BD9F
:1003000001F079FC1146FFF7E1FF12F013FA01F05A
:100310009FFC03B4FFF7F2FF03BC01F003FD0000F4
:100320000948804709480047FEE7FEE7FEE7FEE789
:10033000FEE7FEE7FEE7FEE7FEE7FEE704480549C5
:10034000054A064B70470000754F020889010208F4
:10035000101B002010FB0120107B0120107B0120CE
:1003600070B5064600F06EFC056806F10B0020F043
:100370000704B4429CBF002070BD2B466A68BAB126
:100380001068A04210D304F1080188423CBF5068B5
:10039000586007D35168101941601168091B01604A
:1003A00058601460101D70BD13465268002AE7D1D2
:1003B0002146284600F052FC0028DED170BD70B501
:1003C0000446051F00F03EFC0068002C14BF446882
:1003D00070BD002C18BFAC423CBF20466468F8D307
:1003E00001680A18AA4218BF456003D12A68054669
:1003F0001144016028684119A1421CBF6C6070BDA6
:100400006168696021680844286070BD53EA020C85
:1004100000F069802DE9F04B4FF00006002B1FBF64
:10042000B3FA83F503FA05F424FA05F65E4012BF29
:100430001643B2FA82F502FA05F4C5F120051EBF93
:1004400022FA05FC44EA0C04203556EA044C4FEA33
:10045000144418BF641C4FF000084FF0000990428C
:1004600071EB030C39D3002919BFB1FA81F701FAF6
:1004700007F6B0FA80F700FA07F6C7F120071EBFAB
:1004800020FA07FC46EA0C062037B6FBF4FCA7EB83
:100490000507103F07F01F0BCBF120060CFA0BFBF2
:1004A0002CFA06F644BFB3460026202FA4BF5E46B2
:1004B0004FF0000B5BEA060C08BF4FF0010B19EB85
:1004C0000B09ABFB027C48EB0608C01B06FB02CC09
:1004D0000BFB03CC71EB0C01C1E70B460246414616
:1004E0004846BDE8F08B13B54FF000004FF0000117
:1004F000AFF30080BDE81C407047B2F120030AD57D
:10050000C2F1200320FA02F001FA03F321FA02F10A
:1005100040EA0300704721FA03F04FF000017047F2
:100520001CB50C46064B7B4469460090204600F003
:10053000A4FE04460020694600F0B2FE20461CBD21
:10054000770D000070B50C460546012A05D02878C5
:10055000800600D5EA69002302E0012305E05B1C68
:10056000934202D2E05C0028F9D1A869E618C01ACB
:10057000A861286A18442862284600F0C4FB04E0F9
:10058000D5E9012114F8010B9047B442F8D328466D
:1005900000F0CFFB70BD00002DE9F04106460024BD
:1005A00010687529314616A510D000F0D3FB00283D
:1005B00002DA404213A507E031688A0701D512A587
:1005C00002E0490704D511A5012401E000F0CBFBAE
:1005D00000210A2206F1240709E0B0FBF2FCB0FB7F
:1005E000F2F302FB1C00303078541846491C0028F6
:1005F000F3D123462A463046BDE8F04100F0BCBBAB
:10060000000000002D0000002B0000002000000072
:100610002DE9F05F894604464FF0000ADFF874B117
:10062000FB44C0F820A02046E1688847002874D029
:10063000252806D0D4E901219047206A401C206279
:10064000F1E700265F462046E168884720280546F6
:1006500007DB312D05D2781910F8200C08B10643BC
:10066000F1E7B00701D526F00406C4F81CA0002766
:10067000C4F818A02A2D09D0284611F015FB38B36C
:1006800004EB8708303DC8F8185019E059F8041BEE
:10069000204604EB87029161E1688847012F0546F7
:1006A00018D1E069002820DA26F020061DE0D8F8ED
:1006B000180000EB800005EB40003038C8F8180047
:1006C0002046E1688847054611F0EEFA0028EED191
:1006D000012F0AD02E2D08D12046E16888477F1CC3
:1006E0000546022F46F02006C4DBA069002803DA85
:1006F000404246F00106A061F00701D026F0100646
:100700006C2D0BD0682D09D04C2D39D06A2D35D0E9
:10071000742D35D07A2D33D016E038E0E1682F46BD
:1007200020468847B842054609D16C2F26D04FF4A1
:100730008060E168064320468847054604E06C2F48
:100740001AD04FF4807006430DB3A5F1410019286B
:1007500002D8203546F400664A46294620462660DF
:100760004E46FFF76BFD80B101280BD0F61D26F039
:10077000070000F1080956E74020E4E78020D8E7A9
:100780000020D6E706F104094DE7284652E7206A23
:10079000BDE8F09F103601000FB400B58DB010A970
:1007A000099000910B904FF0FF300A9000200C90C0
:1007B000064878440690064878446A4607900F99A0
:1007C00009A800F0BBFE0DB05DF814FBA70D0000FA
:1007D000BF0D00002DE9FF5F1D464FF0FF3B914626
:1007E0004FF000085F46D5E90146A96901987F1CD2
:1007F0008847296A824688470028F6D1BAF1FF3F28
:100800000CD0002E24F4C06419DD600614D5BAF1B2
:100810002B0F09D0BAF12D0F0ED103E0584604B0CA
:10082000BDE8F09F44F48064A96901987F1C884763
:10083000761E8246002E02DDBAF1300F03D0B9F1E8
:10084000000F26D032E0A969761E01987F1C44F47F
:1008500000748847002E824605DDBAF1780F06D075
:10086000BAF1580F03D0B9F1000F10D01EE0B9F162
:10087000000F02D0B9F1100F18D1A969761E0198A6
:100880007F1C24F4007488478246102002E0082070
:1008900000E00A20814609E0A96908FB0908761EE4
:1008A00001987F1C44F4007488478246002E05DDC1
:1008B0004946504600F02EFE0028EDDAE96901981D
:1008C0008847A00502D46FF00100A8E7E00725D112
:1008D000600613D5600502D5C8F1000000E040466F
:1008E00029680A1D2A600968220501D5087015E0EB
:1008F000220701D5088011E008600FE02868011D7B
:1009000029600068210502D580F8008006E02107F3
:1009100002D5A0F8008001E0C0F8008038467EE7EC
:1009200040EA010310B59B070FD1042A0DD310C86C
:1009300008C9121F9C42F8D020BA19BA884201D9BE
:10094000012010BD4FF0FF3010BD1AB1D30703D006
:10095000521C07E0002010BD10F8013B11F8014BBC
:100960001B1B07D110F8013B11F8014B1B1B01D1D8
:10097000921EF1D1184610BD40EA0103024630B57F
:100980009B0710D14FF0013400E008C208C91D1BBD
:100990009D4315EAC41FF8D013F0FF0102F8011BB4
:1009A0000DD01B0AF8E711F8013B002B02F8013BC0
:1009B00005D011F8013B002B02F8013BF3D130BD0B
:1009C00010B5431C02E010F8011B71B18107FAD188
:1009D0004FF0013202C88C1A8C4314EAC211F9D0CC
:1009E000C01A0A0603D0C01E10BDC01A10BD0A04EA
:1009F00001D0801E10BD0902FCD0401E10BD421E59
:100A000012F8013F002BFBD111F8013B002B02F83B
:100A1000013BF9D17047032A40F2308010F0030CFB
:100A200000F0158011F8013BBCF1020F624498BF41
:100A300011F801CB00F8013B38BF11F8013BA2F1DE
:100A4000040298BF00F801CB38BF00F8013B11F059
:100A5000030300F02580083AC0F0088051F8043BF9
:100A6000083A51F804CBA0E80810F5E7121D5CBF66
:100A700051F8043B40F8043BAFF30080D20724BF99
:100A800011F8013B11F801CB48BF11F8012B24BF2D
:100A900000F8013B00F801CB48BF00F8012B70477C
:100AA00010B5203AC0F00B80B1E81850203AA0E809
:100AB0001850B1E81850A0E81850BFF4F5AF5FEA3D
:100AC000027C24BFB1E81850A0E8185044BF18C9F0
:100AD00018C0BDE810405FEA827C24BF51F8043B97
:100AE00040F8043B08BF7047D20728BF31F8023BEB
:100AF00048BF11F8012B28BF20F8023B48BF00F87F
:100B0000012B70474FF000020429C0F0128010F052
:100B1000030C00F01B80CCF1040CBCF1020F18BFD9
:100B200000F8012BA8BF20F8022BA1EB0C0100F06C
:100B30000DB85FEAC17C24BF00F8012B00F8012B3F
:100B400048BF00F8012B70474FF0000200B5134674
:100B500094469646203922BFA0E80C50A0E80C50DD
:100B6000B1F12001BFF4F7AF090728BFA0E80C508E
:100B700048BF0CC05DF804EB890028BF40F8042B87
:100B800008BF704748BF20F8022B11F0804F18BFF4
:100B900000F8012B704700004FF0013C50F8042B87
:100BA00051F8043B9A4221D1A2EB0C03934313EA80
:100BB000CC1317D150F8042B51F8043B9A4215D1AD
:100BC000A2EB0C03934313EACC130BD150F8042B84
:100BD00051F8043B9A4209D1A2EB0C03934313EA68
:100BE000CC13DBD04FF00000704700BFD01A01BA21
:100BF000B1FA81F101F0180122FA01F0CB40C1F104
:100C00002001DBB2C0B2C01A2CFA01F3D11A914311
:100C100011EAC311E6D17047704770477047000072
:100C200070B5064C7C44064D7D4403E020682044AA
:100C30008047241DAC42F9D170BD0000B8330100DB
:100C4000CC33010000487047B81A002000487047B4
:100C5000E41A0020704770477047704738B5044663
:100C60000A4600206946AFF30080002808BF38BD5F
:100C700002460099204600F09FFC012038BD01206B
:100C800000F0A4BFF8B5AFF30080054600200C4685
:100C9000102000BF0646A819A0420DD93246694669
:100CA0000020AFF30080070008BF00F08FFF00981E
:100CB000A04218BF0546C419FFF7C4FF05600746E8
:100CC000F01D20F007004619284600F00AF8B4424B
:100CD00008BFF8BDA21B31463868BDE8F84000F0F7
:100CE0006BBC00210160C0E9011070471020704703
:100CF00010B500F05DFC006810BD10B5044600F0B2
:100D000057FC046010BD70B5044685690068C106D3
:100D100001D5302600E02026C00707D070BDD4E9F9
:100D2000012130469047206A401C20626D1EF6D596
:100D300070BD70B5044685690078C00707D170BDE5
:100D4000D4E9012120209047206A401C20626D1EBA
:100D5000F6D570BD09684A0501D540B27047C9058E
:100D6000FCD500B2704709684A0501D5C0B270478A
:100D7000C905FCD580B270472DE9F0470D4699466C
:100D80009246044600F124080168880604D5E0690B
:100D900021F01001216000E00120A84201DD471B85
:100DA00000E00027A1697A1902EB0900081AA06186
:100DB0002078C00602D42046FFF7A5FF002608E0F1
:100DC000D4E901211AF806009047206A401C761CDD
:100DD00020624E45F4DB2078C0060AD52046FFF796
:100DE00092FF06E0D4E9012130209047206A401CA0
:100DF0002062381EA7F10107F4DC07E0D4E90121E5
:100E000018F805009047206A401C2062281EA5F1B2
:100E10000105F3DC2046FFF78CFF2078000602D5A1
:100E20000220BDE8F0870120FBE711680268006A34
:100E3000530501D508700AE0D30501D5088006E006
:100E4000130603D5C217C1E9000200E008600120C3
:100E5000704770472DE9FF4F0C461E464FF0FF3795
:100E60008BB0D2E90001DDF860800A908A46C1F3B8
:100E70000A5505B93D46002108464FF00000BAF179
:100E8000000F00F4400005DA00EB80004FF4400151
:100E900001EA50004FEA9059B9F1010F00DDB9465F
:100EA0000A9850EA4A000ED044F61050A5F2FF35D9
:100EB00045432F14B8F1000F1ED07542291E1EDDC8
:100EC000C9F100021CE0B8F1010F4FF0000001D0A1
:100ED000302103E0F24305E02154401CB042FBDB2B
:100EE00030460022002121540B99C1F80880C1E945
:100EF00000200FB0BDE8F08FBD1B6D1CDEE74A4639
:100F000000DA694206A800F0CFFD06AB93E80700BF
:100F100003AB83E8070050460A9900F06BFF8DE8A9
:100F20000700A0F500501F3800900398002D0ADD3F
:100F300042F21F014A460844002303A90390684671
:100F400001F0D4F909E0A0F500504A461F3800230B
:100F500003A90390684601F0DEF98DE8070000045C
:100F6000000C03D04FF0FF30410800E01046B8F10C
:100F7000000F03D00022009215461EE0751E05D416
:100F800000F034FB303262556D1EF9D5B3460122B4
:100F9000084302D000227F1C04E02078302801D1D1
:100FA00000227F1E002A099784D01DE0112D07DA48
:100FB00000F01CFB303262556D1C50EA0102F5D185
:100FC000084302D00098C8B10EE00021681E05E079
:100FD000235C625C63542254401E491C8142F7DB4F
:100FE000AB46A81B401E0990002004F80B000B988C
:100FF000099AC0F80880C0E9002B7AE711264FF063
:10100000000857E72DE9F04F88460446D21D22F02C
:10101000070191B0D1E90001CDE90A0110F01CFAF5
:1010200002460B98C00F01D02D2007E020688107F1
:1010300001D52B2002E0202101EAC000032A0990FB
:1010400001D0072A05DB03464146204600F01CFB81
:101050000BE12078800601D5E06900E00620B8F1B8
:10106000650F814606D0B8F1660F18D0B8F1670F4A
:1010700070D131E00020B9F1110F009001DB112394
:1010800001E009F101030AAA01A90CA8FFF7E2FE99
:10109000DDE90C70002609F10105834647E00120D7
:1010A0004B4600904FF000470AAA01A90CA8FFF791
:1010B000D1FEDDE90DB00C995D46002610B909F1AD
:1010C00001000D18B9EB050003D4C0F1FF3609F19A
:1010D0000105A5EB09002BE0B9F1010F01DA4FF092
:1010E00001090020B9F1110F0090484601DD1123DC
:1010F00000E003460AAA01A90CA8FFF7ABFEDDE950
:101100000C704D4600268346207800070AD4AB4574
:1011100000DA5D4601A8012D04DD411911F8011C1A
:10112000302907D04F4502DA17F1040F04DA012005
:1011300082460FE06D1EEEE7002F02DCED1B3E4401
:1011400003E0781CA84200DD7D1CB81B00F1010AF9
:101150004FF000472078000703D4AA4501DB4FF089
:10116000FF3A0021B7F1004F0DF143088DF843100D
:1011700024D002202B23002F01DA7F422D230A21C5
:10118000021EA0F1010000DC5FB197FBF1FC97FBB0
:10119000F1F201FB1C7C17460CF1300C08F801CD74
:1011A000EEE7A8F1010003702188090501D545216A
:1011B00000E06521A0F1010800F8011C09980FA9C1
:1011C000A1EB0807FF1D00B10120411901EBEA70F6
:1011D000A1693844081A401EA0612078C00602D4D4
:1011E0002046FFF790FD099828B1D4E901219047E6
:1011F000206A401C20622078C00622D52046FFF7D6
:1012000082FD1EE0002E04DBB34502DD01A8805DF7
:1012100000E03020D4E901219047206A401C206280
:10122000761CAAF101005FEA000A0AD100F0BCF9BD
:10123000C0680168405CD4E901219047206A401CE5
:101240002062281EA5F10105DCDC07E0D4E90121BC
:1012500018F8010B9047206A401C2062381EA7F145
:101260000107F3DC2046FFF764FD032011B041E6DF
:1012700001694A1C02610878704700B58FB0CDE95A
:1012800001310021059105497944CDE9031011464A
:101290006846FFF7BDF90FB000BD0000E5FFFFFF96
:1012A0000A6802F8010B0A60704710B5436913B170
:1012B000AFF3008001E0FFF745F9012010BD12787F
:1012C00000F124010A7000224A700122EDE7116842
:1012D0004FF0FF32E9E700002DE9FF5F15468A462F
:1012E0000446DFF8AC80F8440027D8E900103E46F9
:1012F000CDE9001010E03AF816106A4602A800F096
:1013000045FC411C07D02178890603D5E2693918CC
:1013100091420DD80744761C2078800602D5E069FA
:10132000B84205DDAE42E6DB3AF816000028E2D10D
:10133000A069C01BA0612046FFF7E5FCD8E90010BA
:10134000CDE90010002017E03AF818106A4602A80C
:1013500000F01CFCB0F1FF3F81460BD000250DF1E1
:10136000080B05E0D4E901211BF8050090476D1C2E
:101370004D45F7D308F10100B0428046E4DB206A16
:10138000384420622046FFF7D4FCBDE8FF9F0000F0
:101390009E2A01002DE9F0418046D21D22F007026D
:1013A0000025D2E90002F52915A614D0011E72F11C
:1013B000000106DA0023D0EB030063EB020211A662
:1013C00008E0D8F800108B0701D50FA602E0490706
:1013D00001D50EA601251146002408F1240704E0DA
:1013E00000F004F930323A55641C50EA0102F7D19A
:1013F0002B46324621464046BDE8F041FFF7BCBCD3
:10140000000000002D0000002B0000002000000064
:1014100030B4002100F1240408E002F00705D208EE
:10142000303542EA4372DB086554491C52EA030531
:10143000F3D10468002310A2250707D5A40600D421
:1014400021B1C46901230DA2641EC46130BCFFF741
:1014500093BC10B5044621461068FFF784FC024691
:101460002046BDE810400023D2E7D21D22F007013C
:10147000D1E90023CCE700000000000030000000AC
:10148000F0B40D460188090502D5214C7C4402E0E8
:101490001F4C7C440E34002100F1240608E002F0C9
:1014A0000F071209E75D42EA03721B097754491CD2
:1014B00052EA0307F3D102780023120704D5702DF6
:1014C00006D009B1022311342246F0BCFFF754BC08
:1014D00001231034F8E770B504460D462146106824
:1014E000FFF741FC024629462046BDE87040002334
:1014F000C6E7D21D22F00703D3E90023C0E7036843
:10150000126843F0200303600823C3610023B7E798
:10151000002901003A2800D2303820F02002412A68
:1015200001D3A2F13700884201D34FF0FF3070475A
:10153000026811441378016018467047D16005496C
:1015400079445161044979441162002111611146C5
:1015500000F0F0B8EDFFFFFF2D010000426842B13E
:10156000016811F8013B23B1521EC0E90012184670
:1015700070470121C160881E704742685AB1C36834
:10158000016843B983688B4205D0491E521CC0E9EB
:101590000012002070474FF0FF30704700F01DBB75
:1015A00000487047B01A002000487047D01A002049
:1015B00000487047B01A0020034640688C46002857
:1015C00018BF88423CBF03464068F8D318681844E7
:1015D000884207D00CF1030020F00700001D411ADB
:1015E000521A0146081D0A60FEF7E9BE30B5B0F197
:1015F0000A024FEA900E71F100034EEA817EB0EBD1
:101600000E0061EB91014FEA101E4EEA017E10EBD5
:101610000E0041EB11114FEA102E4EEA016E10EB55
:101620000E0041EB11214FEA104E4EEA014E10EB35
:101630000E0041EB1141401841F100014FEAD0008A
:1016400040EA41704FEAD10110EB80054FEA810476
:1016500044EA907444EB01046D1944EB0404521BFA
:10166000A3414FF0000348BF0A3200D530BD401CF3
:1016700041F1000130BD10B5044600F0E1FA006808
:10168000005D00F0010010BD2DE9F0411F46044649
:1016900003260168072A01F4006004DB08B116A5DF
:1016A00005E016A503E008B115A500E015A521F099
:1016B00010002060A069C01EA0610FB1401EA06193
:1016C0002046FFF720FB4FB1D4E90121384690476F
:1016D000206A401C2062C01C206206E0206AFAE7F3
:1016E000D4E9012115F8010B9047761EF8D2204667
:1016F000FFF71FFBBDE8F0814E414E006E616E00AA
:10170000494E4600696E660010B5436913B1AFF3E8
:10171000008001E0FFF7E0FD012010BD128800F11C
:10172000240182840022C2840122EDE711684FF077
:10173000FF32E9E72DE9F34F4FF0000A0C46564619
:101740008DB001200C9001F10C000B9062690B9898
:1017500001219047051E2DD0252D2CD0216A8847C8
:10176000C0B162690B9801219047216A884700281F
:10177000F7D16269411E0B98904700E0761CA16981
:101780000D988847216A88470028F7D1E1690D98AC
:101790008847DBE7A1690D988847A842074601D131
:1017A000761CD3E7E1690D9888477F1C02D1BAF116
:1017B000000F6FD06CE162690B9800273D463946F7
:1017C00090472A2804D162690B980121904701258E
:1017D000DFF8D08262690B9801219047A0F13001B7
:1017E0000A290AD24745E5DC07EB870100EB4107F0
:1017F000303FDFD445F01005ECE7E90601D46FF087
:1018000000476C280AD04C2814D0682815D06A28C4
:101810000DD074281CD07A281AD01DE062690B986C
:10182000012190476C2802D045F0040514E045F0F2
:1018300002050DE045F020050AE062690B980121E0
:101840009047682802D045F0080505E045F400659A
:1018500062690B9801219047C4E9015765283DD082
:1018600019DC58287AD00CDC452837D004DC252830
:1018700026D041289ED131E046282FD0472899D143
:101880002CE05B2877D0612828D063287CD064289E
:1018900023D15AE0F7E06F2848D008DC66281DD035
:1018A00067281BD0692821D06E2816D127E0702820
:1018B00045D0732868D0752847D078280DD14DE0E1
:1018C000A1690D988847252805463FF469AFE1696D
:1018D0000D9888476D1C3FF46AAFD9E00D992346F7
:1018E0006A466FF00100AFF30080C6E045F04000AB
:1018F00023464FF000026060A80736D43EE0E807B8
:101900007FF447AF2068011D21600068290501D5DB
:1019100006701BE7290701D5068017E7A90703D53D
:10192000F117C0E9006111E706600FE745F04000DC
:1019300023464FF008026060A80716D41EE040F668
:101940000E0125EA0100606016E045F040002346E4
:101950004FF00A026060A80707D40FE045F040008E
:101960006060A80708D5234610220D996FF001008A
:10197000AFF3008081E007E0102223460D996FF05D
:101980000100FEF727FF78E04FF0000963284F467B
:10199000C8464B46CB4602D05B2807D039E02079B9
:1019A000C00601D40120A060012732E06269D4F8AA
:1019B0000CB00B98012190475E2807D14FF0010928
:1019C00049466269D4F80CB00B989047216939B93F
:1019D00000210A4603AB43F82120491C0829FADB01
:1019E000D8B3216949B308F1010862690B98012154
:1019F00090475D28F4D1B9F1000F09D0002003A968
:101A000051F82020D24341F82020401C0828F7DB61
:101A100003AB2069002820794FEA40701ED05B4656
:101A20002246CDF80080CDE901970D9900286FF08E
:101A3000010020DAAFF300801FE0C11703AA00EB1A
:101A4000D1614B1121F01F0102EB8302411A13688F
:101A50000120884003431360C7E719E00D9922462F
:101A600000286FF00100009702DAAFF3008004E075
:101A7000AFF3008001E0AFF3008000280ADA401CD9
:101A800006D10C9820B14FF0FF300FB0BDE8F08FB9
:101A90005046FAE7E90701D10AF1010A064400209D
:101AA0000C9053E6CCCCCC0C2DE9F0478146164681
:101AB0008AB0354878440DC88DE80D003248784426
:101AC000801C03AC0DC884E80D0041F69B3008442F
:101AD000372190FBF1F290FBF1F5A5F1800501FBB8
:101AE00012041B3C02D56442012000E00020DFF814
:101AF00098A080460027FA44AAF1BE0A0EE0E0074B
:101B00000AD03246684607EB470101230AEB810100
:101B100000F001FC8DE8070064107F1C002CEED162
:101B2000194F7F44AE3F19E0E80715D007EB0410CA
:101B30000DF1180A90E80E008AE80E00C068F04225
:101B400001D1981908903246012306A903A800F094
:101B5000E2FB03AB83E807006D10641C002DE3D1AA
:101B60004FF0010332466946B8F1000F03A802D0D6
:101B700000F0BCFB01E000F0CEFBC9E90001C9F8B0
:101B800008200AB0BDE8F0877C23010070B5164636
:101B90000C46054600F054F8036893F8010101284B
:101BA00006D0FF2C0FD8185D68B101202C7070BDD5
:101BB000D3F807013246214603F2071303442846AF
:101BC000BDE8704018474FF0FF3070BD10B500F011
:101BD00059F8BDE8104000F04FB810B500F07DF89E
:101BE000016919B100220261884701E080688047DD
:101BF00000F037F870477546FFF7D2FCAE46050097
:101C00006946534620F00700854618B020B5FEF718
:101C100095FBBDE820404FF000064FF000074FF065
:101C200000084FF0000B21F00701AC46ACE8C009FA
:101C3000ACE8C009ACE8C009ACE8C0098D46704703
:101C400010B5FFF7B1FC001D10BD00BF410B010036
:101C500010B50446AFF300802046BDE81040FEF703
:101C600058BB10B5002000F080F8FEF747FBBDE838
:101C70001040012000F056B8002801D000F052B802
:101C80007047000010B5012805D0002103A000F026
:101C900053F8012010BD09A1F8E70000534947524D
:101CA000544D454D3A204F7574206F66206865612C
:101CB00070206D656D6F7279000000003A204865F4
:101CC0006170206D656D6F727920636F72727570CF
:101CD0007465640010B5FFF7C4FF70B500F028F814
:101CE00004680546A4B92020FEF73AFB040011D091
:101CF000094900202C60C4E900010849A160207353
:101D0000206160610649A06109B100F035F8E06129
:101D1000204670BDFFF7A5FF00000000D51C02089B
:101D20000000000001491820ABBEFEE726000200BB
:101D300000487047EC1A002070B505460C460A2092
:101D400000E06D1C00F036F835B128780028F8D195
:101D500002E0641C00F02EF814B120780028F8D1BD
:101D6000BDE870400A2000F025B810B500F02AF850
:101D7000BDE81040FFF780BF10B58820FEF7F0FAED
:101D8000002801D00021017010BD802902D808B1BF
:101D9000017809B100207047012100F8081B704745
:101DA00018B100F10802914201D0002070470021D3
:101DB0000170704708B569468DF800000320ABBE7E
:101DC00008BD000010B5002102A0FFF7B5FF0120FB
:101DD00010BD0000534947414252543A2041626EBF
:101DE0006F726D616C207465726D696E6174696F7C
:101DF0006E0000005FEA400C08BF91F0000F4FEA50
:101E00008C234FEAC12243EA51514FEA1C5018BFBC
:101E100000F5F0404FEA300018BF41F000415FEAA2
:101E20006C5C00F02980BCF1FF3F08BF40F08040AF
:101E30007047130C06BF12044FF0100C4FF0000C4B
:101E4000130E04BF12020CF1080C130F04BF120191
:101E50000CF1040C930F04BF92000CF1020CD30F91
:101E600004BF52000CF1010C11464FF00002A0F12A
:101E70001F00A0EB0C00704711F0004F08BF704727
:101E800031F000413FF4D5AF0B0C06BF09044FF011
:101E9000100C4FF0000C0B0E04BF09020CF1080CE3
:101EA0000B0F04BF09010CF1040C8B0F04BF890058
:101EB0000CF1020CCB0F04BF49000CF1010CCCF16A
:101EC0002003A0EB0C0022FA03F302FA0CF241EA21
:101ED000030100F10100704720F07F4C80EA03000D
:101EE00023F07F47ACEB070303F57C5300F0004081
:101EF00003F1FF032DE980494FEA154B09B44FEA7E
:101F0000144325EA0B4E24EA03480FF2042606EB9D
:101F1000132749083E785FEA320203FB0667C7F5DC
:101F2000000707FB06F64FEA54374FEAD64606F19C
:101F3000020607FB066CCCF1005C4FEA1C472CEA5A
:101F4000074C07FB06F40CFB06F504EB15464FEABD
:101F5000961634BF00204FF000404FEAD13706FB01
:101F600007FC4FEA1C4C0CFB0BF7D21B03FB0CF7D6
:101F700061EB07010CFB0EF7B0EB074072EB174269
:101F80000CFB08F734BFA2EB0742B2EB074261EB50
:101F900017414FEA0C444FEA910706FB07FC4FEA52
:101FA0001C4C0CFB0BF7B0EBC74072EB573203FB3A
:101FB0000CF734BFA2EBC742B2EBC74261EB57311B
:101FC0000CFB0EF7B0EBC70072EB57720CFB08F777
:101FD00034BFA2EBC702B2EBC70261EB5771039F9C
:101FE0004FEA816141EA921104EBCC044FEAD13708
:101FF0004FEA826206FB07FC42EA90124FEA8060D9
:102000004FEA1C4C0CFB0BF7D21B03FB0CF761EBEC
:1020100007010CFB0EF7B0EB074072EB17420CFB0D
:1020200008F734BFA2EB0742B2EB074261EB17415E
:102030004FEA8C554FEA910704EB9C2406FB07FC02
:102040004FEA1C4C0CFB0BF7B0EBC74072EB57325E
:1020500003FB0CF734BFA2EBC742B2EBC74261EB04
:1020600057310CFB0EF7B0EBC70072EB57720CFB4D
:1020700008F734BFA2EBC702B2EBC70261EB57719E
:1020800015EB4C254FEA816141EA92114FEA8262D9
:102090004FEAD13742EA901206FB07FC44F10004F4
:1020A0004FEA80604FEA1C4C0CFB0BF7D21B03FB82
:1020B0000CF761EB07010CFB0EF7B0EB074072EB7E
:1020C00017420CFB08F734BFA2EB0742B2EB074202
:1020D00061EB174115EB1C154FEA813141EA924142
:1020E0004FEA823242EA90424FEA80304FEA0C7661
:1020F00044F1000448EA03434EEA0B484FF0000E57
:10210000B2EB080C71EB030724BF624639464EEB75
:102110000E0E4FF0000B0018524149414BEB0B0BD8
:10212000B2EB080C71EB03077BF1000B24BF624696
:1021300039464EEB0E0E4FF0000B0018524149414C
:102140004BEB0B0BB2EB080C71EB03077BF1000BB5
:1021500024BF624639464EEB0E0E51EA020718BF05
:1021600046F0010616EB0E7655F1000254F100011F
:1021700003D5BDE88901BDE80088BDE88901BDE857
:102180000048B619524141EB0101A3F10103704728
:1021900080807F7E7D7C7B7A7978777676757473A4
:1021A000727171706F6E6E6D6C6C6B6A6A69686863
:1021B000676666656464636362616160605F5F5EF9
:1021C0005E5D5D5C5C5B5B5A5A595958585757566F
:1021D00056555555545453535252525151505050D4
:1021E0004F4F4F4E4E4D4D4D4C4C4C4B4B4B4A4A26
:1021F0004A4949494848484747474746464645456A
:1022000045444444444343434342424242414141A2
:10221000002B9C4630D477002BD01CB54FEA3707F3
:1022200003B44FF010004FF01001BAF1000F06D0C8
:10223000BCF1000FDCBF40F0080040F008014FF097
:1022400000000FBCBDE810400BF1010BBBF1010F0A
:1022500008BF5FEA170722BF12F1010211F1010165
:102260004FF0004143F1000300F0004043EA00005A
:102270007047F9D35708D0E746EA064613F1400FF6
:102280004FEA16461FDD13F1200FDFBF16430A4643
:10229000002120335B42BED0C3F1200746EA064648
:1022A00002FA07F74FEA164646EA0706C3F1200787
:1022B00022FA03F201FA07F721FA03F14FF00003C3
:1022C00042EA0702A7E746EA020646EA06464FEA5E
:1022D000164646EA0106BCBF46EA0646360C4FF0F3
:1022E00000034FF000024FF0000194E72DE9804C0D
:1022F0009A46934670B491E8380007C831EA400C1A
:1023000048BF34EA430C03D5FFF7E6FDFFF780FF33
:10231000F0BCBDE8008C2DE9804C9A46934670B421
:1023200091E8380007C810F0804F08BF13F0804FC5
:1023300003D100F005F8FFF76BFFF0BCBDE8008C9F
:1023400020F07F4780EA030023F07F4C07EB0C036B
:10235000A3F57C5300F00040A3F1FE0392F0000FC0
:1023600000F0B38095F0000F00F077802DE901496F
:102370004FEA11404FEA144621EA004800FB06FCF0
:1023800024EA064708FB06F607FB08F800FB07F7F8
:1023900018EB06484CEB164C4FEA124B18EB07486B
:1023A0004FEA15464CEB174022EA0B4E0BFB06FC9E
:1023B00025EA06470EFB06F607FB0EFE0BFB07F7AA
:1023C0001EEB064E4CEB164C4FF000061EEB074E74
:1023D0004CEB174B18EB0B0840F1000018EB0E0B01
:1023E00058EB000840F100008F1A4FF000013CBF8D
:1023F000C943661B14BFB5EB040C00213CBFC943A5
:10240000F61B4FEA17444EEA8E0E27EA04454FEAC0
:102410001C4704FB07622CEA074C05FB07F70CFB83
:1024200005F604FB0CFC16EB074642EB174216EBD5
:102430000C4642EB1C421BEB060658EB02024141E4
:1024400046EA9E0601D5BDE80189B619524141EB25
:102450000101A3F10103BDE801894FEA14454FEAE8
:10246000114724EA054621EA074C05FB07F406FB61
:1024700007F70CFB06F105FB0CFC11EB074144EBE5
:1024800017444FEA124711EB0C4144EB1C4422EA7B
:10249000074C05FB07F206FB07F70CFB06F605FBEE
:1024A0000CFC16EB074642EB174216EB0C4642EBD0
:1024B0001C456A1854F1000148BF7047B6195241D3
:1024C00041EB0101A3F10103704795F0000F37D0F4
:1024D0004FEA11424FEA144721EA024624EA074C28
:1024E00002FB07F106FB07F70CFB06F402FB0CFCF2
:1024F00014EB074441EB17414FEA154714EB0C442A
:1025000041EB1C4125EA074C02FB07F506FB07F7E8
:102510000CFB06F602FB0CFC16EB074645EB1745D9
:1025200016EB0C4645EB1C42121951F1000148BF55
:102530007047B619524141EB0101A3F10103704705
:102540004FEA14454FEA114724EA054621EA074CB1
:1025500005FB07F106FB07F70CFB06F24FF0000640
:1025600005FB0CFC12EB074241EB174112EB0C424E
:1025700051EB1C4148BF7047921841EB0101A3F198
:102580000103704700BFFEE7704730B504460D46B3
:1025900000222946204600F001F830BDF0B5034680
:1025A000012500241148407A01281CDA00200F4E32
:1025B000767A0E4FB8553846467A001D40F82630D8
:1025C000001F467A083082553E46707A461C7E725D
:1025D000044604F1300008703A2048702F208870BB
:1025E0000020C87000252846F0BD0000B803002078
:1025F00010B5002201B909E0012901D10A0205E064
:10260000022901D10A0201E04FF440720E4B1B680F
:1026100023F440730C4C236023461B681343236050
:1026200023461B6823F0F803236023461B6802241B
:1026300044EAC0042343044C236023461B6843F44C
:102640008033236010BD0000103C02401C4800682D
:1026500000F40070B0B11A48006820F40070184906
:10266000086000BF0846006840F400600860084643
:10267000006820F40060086000BF0846006840F46D
:10268000007008600E48006800F48060B0B10C482B
:10269000006820F480600A49086000BF08460068AE
:1026A00040F4805008600846006820F480500860BC
:1026B00000BF0846006840F4806008607047000072
:1026C000003C024070B50446002500201449C86152
:1026D00000F024FA054609E0601C38B124B100F08E
:1026E0001DFA401BA04201D9032070BD0D480068AF
:1026F00000F480300028EFD10A48006800F00100A3
:1027000010B10120074908600648006800F0F20097
:1027100018B107F013FD0120E7E70020E5E700000E
:10272000E40300200C3C024010B504460CB9012023
:1027300010BD607920B900202071204600F006F815
:1027400002206071012060710020F1E770470000F5
:1027500070B5044600F0E2F906462546681C10B143
:1027600004480078054400BF00F0D8F9801BA84257
:10277000FAD370BD100000202DE9F04104460E464A
:102780000127002500BF2548007E012802D1022034
:10279000BDE8F08101202149087600BF4CF250309D
:1027A000FFF790FF0746002F31D1401E30602068B0
:1027B00001280FD1207C616806F0C0FE4CF2503039
:1027C000FFF780FF07461648006820F00400144910
:1027D00008601AE0A56812E0217C2846FFF708FF90
:1027E0004CF25030FFF76EFF07460D48006820F0AE
:1027F000FA000B4908600FB1356005E06D1CD4E9A3
:1028000002100844A842E7D800BFFFF71FFF00BF2F
:1028100000200249087600BF3846B9E7E4030020EB
:10282000103C02400348006840F000400149086045
:1028300000207047103C02402DE9F04106460F464B
:1028400014461D464FF0010800BF1F48007E0128B6
:1028500002D10220BDE8F08101201B49087600BFAB
:102860004CF25030FFF72EFF8046B8F1000F23D115
:1028700026B9E1B2384607F03BFC12E0012E04D144
:10288000A1B2384608F0AEFE0BE0022E04D121467C
:10289000384607F03FFC04E022462B46384609F054
:1028A0002DF84CF25030FFF70DFF804607480068C6
:1028B00020F001000549086000BF002002490876A9
:1028C00000BF4046C6E70000E4030020103C024081
:1028D00000200949096801F0004159B10749064A39
:1028E0000C3A1160064911600349096801F0004182
:1028F00001B1012070470000103C024023016745F0
:10290000AB89EFCDF8B502460B4600250024002028
:102910000021DBE0012606FA01F51E6806EA05043F
:10292000AC4272D15E68022E02D05E68122E13D1C4
:10293000CF0802F1200656F827004E07F70E0F26A3
:10294000BE40B0434F07FF0E1E69BE403043CF0864
:1029500002F1200646F8270010684F000326BE400B
:10296000B0431E7906F003064F00BE4030431060AE
:102970005E68012E08D05E68022E05D05E68112EBA
:1029800002D05E68122E13D190684F000326BE401D
:10299000B0434F00DE68BE4030439060506801266F
:1029A0008E40B0431E79C6F300168E40304350600F
:1029B000D0684F000326BE40B0434F009E68BE4023
:1029C0003043D0605E6806F08056B6F1805F7CD1FF
:1029D00000BF002600963F4E366846F480463D4FC5
:1029E0003E603E46366806F48046009600BF3A4E8A
:1029F0008F0856F827008E07370F0F26BE40B043CA
:102A0000364EB24202D1002624E05EE0344EB2429D
:102A100001D101261EE0334EB24201D1022619E057
:102A2000314EB24201D1032614E0304EB24201D100
:102A300004260FE02E4EB24201D105260AE02D4EAB
:102A4000B24201D1062605E02B4EB24201D1072643
:102A500000E008268F073F0FBE4030431E4E8F0810
:102A600046F82700254E3068A0435E6806F480369D
:102A7000B6F5803F00D12043204E3060361D3068CF
:102A8000A0435E6806F40036B6F5003F00D120434F
:102A90001A4E361D3060361D3068A0435E6806F45D
:102AA0008016B6F5801F00D12043144E08363060E2
:102AB000361D3068A0435E6806F40016B6F5001FA8
:102AC00000D120430D4E0C363060491C1029FFF414
:102AD00021AFF8BD443802400838014000000240F0
:102AE0000004024000080240000C024000100240B6
:102AF0000014024000180240001C0240003C01404B
:102B0000024613690B400BB1012000E00020704722
:102B10000AB1816101E00B048361704701480068DC
:102B2000704700000800002010B50446D4F8940255
:102B300003F09FF810BD10B50446D4F8940203F0DA
:102B4000AFF810BD10B50446206804F071FC10BD4C
:102B500010B50446206804F093FC10BD024601EB5A
:102B6000810302F1380000EBC30090F824007047A5
:102B7000024601EB810302F1380000EBC30040691B
:102B8000704770B504460D46002600BF94F89002C9
:102B9000012801D1022070BD012084F8900200BFFD
:102BA0002946206804F07AFC00BF002084F89002D7
:102BB00000BF3046EFE72DE9FE4F04460D461646AE
:102BC0001F46DDE90D9ADDF830804FF0000B00BFA5
:102BD00094F89002012802D10220BDE8FE8F012066
:102BE00084F8900200BF05EB850104F1380000F87D
:102BF000317005EB850100EBC100A0F808A005EBE2
:102C0000850104F1380000EBC100457005EB85013A
:102C100004F1380000EBC10080F8079006F07F0156
:102C200005EB850204F1380000EBC2008170C6F3A9
:102C3000C01105EB850204F1380000EBC200C17041
:102C400005EB850104F1380000EBC10080F8048039
:102C50008DE800073B4632462946206804F0C2FC56
:102C6000834600BF002084F8900200BF5846B4E7B6
:102C700070472DE9F05F04460D4616461F46DDE914
:102C80000BB9DDF834A0DDF8288005EB850104F1EF
:102C9000380000EBC100C67005EB850104F1380077
:102CA00000EBC100C771B8F1000F08D1032105EB9B
:102CB000850204F1380000EBC200817207E00221B6
:102CC00005EB850204F1380000EBC200817237B1D8
:102CD000012F7DD0022F3DD0032F3AD182E0B8F1F1
:102CE000010F36D1AEBBB9F1000F07D1012105EBC1
:102CF000850204F1380000EBC200417605EB850146
:102D000004F1380000EBC100407E40B9002105EB22
:102D1000850204F1380000EBC200817207E0022155
:102D200005EB850204F1380000EBC200817205EB6F
:102D3000850104F1380000EBC10090F8240002285E
:102D400007D005EB850104F1380000EBC10080F8E5
:102D500005A085E05EBB05EB850104F1380000EBC2
:102D6000C100407E40B9002105EB850204F1380026
:102D700000EBC200817207E0022105EB850204F13D
:102D8000380000EBC200817205EB850104F13800C8
:102D900000EBC10090F82400022822D005EB850149
:102DA00004F1380000EBC10080F805A019E005EB44
:102DB000850104F1380000EBC100007E48B9002114
:102DC00005EB850204F1380000EBC200817208E0D7
:102DD0003DE0022105EB850204F1380000EBC20062
:102DE00081723DE0CEB905EB850104F1380000EBBE
:102DF000C100407E40B9002105EB850204F1380096
:102E000000EBC200817221E0022105EB850204F192
:102E1000380000EBC200817218E005EB850104F177
:102E2000380000EBC100007E40B9002105EB8502AF
:102E300004F1380000EBC200817207E0022105EBCB
:102E4000850204F1380000EBC200817208E0002125
:102E500005EB850204F1380000EBC200817200BF6F
:102E600000BF05EB850104F1380000EBC100C0F89C
:102E70000CB005EB850104F1380000EBC100C0F88F
:102E80001090002105EB850204F1380000EBC20030
:102E900080F8241005EB850204F1380000EBC20035
:102EA000416105EB850104F1380000EBC10045707C
:102EB000002105EB850204F1380000EBC20080F828
:102EC0002510227C05EB850C04F1380303EBCC01C3
:102ED000206804F051FCBDE8F09F2DE9F041044664
:102EE000266800250027206804F0D3FA012871D154
:102EF000206804F0CDFD08B9BDE8F081206804F039
:102F0000C7FD00F40010B0F5001F03D14FF400100E
:102F100021684861206804F0BBFD00F48010B0F522
:102F2000801F03D14FF4801021684861206804F0AD
:102F3000AFFD00F08060B0F1806F03D14FF0806092
:102F400021684861206804F0A3FD00F00200022817
:102F500001D121684861206804F09AFD00F000501A
:102F6000B0F1005F10D1D6F8400420F02E00C6F872
:102F700040042046FFF7DFFD0121206804F036FD04
:102F80004FF0005021684861206804F081FD00F096
:102F90008070B0F1807F02D1204607F009FB2068E5
:102FA00004F076FD00F00800082805D1204600F066
:102FB0007BF8082021684861206804F069FD00F072
:102FC0000070B0F1007F23D1206804F0CFFB0746EA
:102FD000002516E032E00120A840384080B106F517
:102FE000A06000EB4510006800F4004020B1E9B299
:102FF000204607F080FB03E0E9B2204607F027FFF8
:103000006D1CA068A842E6D84FF0007021684861A6
:10301000206804F03DFD00F0100010280ED120685B
:10302000806920F0100021688861204608F078F956
:103030002068806940F010002168886100BF5BE76C
:1030400010B58AB0044614B901200AB010BD03209F
:1030500084F89102204600F020F8206803F07EFEFC
:10306000282204F110016846FDF71AFD94E80F00CC
:1030700003F0C8FC0121206804F039FD282204F186
:1030800010016846FDF70CFD94E80F0004F038FCD1
:10309000012084F891020020D7E7704710B504465C
:1030A000206804F00CFD10BD10B50446D4F894025D
:1030B00002F04BFE10BD10B5044600BF94F890021C
:1030C000012801D1022010BD012084F8900200BF28
:1030D000206804F077F90121206803F067FE00BF43
:1030E000002084F8900200BF00BFECE710B5044652
:1030F00000BF94F89002012801D1022010BD0120E8
:1031000084F8900200BF206804F023FD00BF002077
:1031100084F8900200BF00BFF0E7000070B50446DD
:10312000002600250CB9012070BD94F83D0028B997
:10313000002084F83C00204600F04EF9242084F85A
:103140003D002068006820F001002168086001F05F
:1031500019F905463948B5FBF0F62068466038494C
:103160006068884201D8701C07E04FF49670704385
:103170004FF47A71B0FBF1F0401C216808623049CD
:10318000606888420ED860684000B5FBF0F0C0F37C
:103190000B00042801D204202DE060684000B5FB3C
:1031A000F0F028E0A06828B9606800EB4000B5FBAB
:1031B000F0F008E0606800EBC00101EB0010B5FB27
:1031C000F0F040F48040C0F30B0008B9012012E099
:1031D000A06828B9606800EB4000B5FBF0F008E09B
:1031E000606800EBC00101EB0010B5FBF0F040F4AB
:1031F000804040F400402168C861D4E907010843D9
:1032000021680860D4E90310084321688860D4E984
:10321000050108432168C8602068006840F001008B
:103220002168086000202064202084F83D000020F0
:10323000206384F83E0000BF76E7000040420F00A4
:10324000A08601002DE9F8430446894616461F462C
:10325000DDF820800025FFF761FC054694F83D006D
:1032600020287DD11923012259492046009508F0D4
:1032700097FB10B10220BDE8F88300BF94F83C0032
:10328000012801D10220F6E7012084F83C0000BFAC
:103290002068006800F0010028B92068006840F04C
:1032A0000100216808602068006820F4006021683F
:1032B0000860212084F83D00102084F83E000020A2
:1032C0002064666267854348E062608D20852B46F6
:1032D00042464946204608F099F980B1206C0428FE
:1032E00006D100BF002084F83C0000BF0120C2E7E7
:1032F00000BF002084F83C0000BF0320BBE700BFF4
:10330000002000902068406900902068806900904B
:1033100000BF46E02A464146204608F05AFC60B10C
:10332000206C042807D12068006840F400702168F0
:10333000086001209FE703209DE7616A481C6062E6
:10334000087821680861608D401E6085208D401ED0
:10335000208520684069C0F3800078B1208D00E0AE
:1033600033E058B1616A481C6062087821680861DE
:10337000608D401E6085208D401E20852A46414676
:10338000204608F0FBFB60B1206C042807D12068C0
:10339000006840F400702168086001206BE703209A
:1033A00069E7208D0028B5D12068006840F40070DE
:1033B00021680860202084F83D00002084F83E0049
:1033C00000BF84F83C0000BF55E7022053E700002F
:1033D000020010000000FFFF704700000348006873
:1033E0000349097808440149086070470800002033
:1033F0001000002010B50D48006840F400700B4923
:1034000008600846006840F480600860084600686C
:1034100040F480700860032000F0A6F8002000F05F
:1034200007F800F02BF8002010BD0000003C02401F
:1034300070B504460E4800784FF47A71B1FBF0F095
:103440000C490968B1FBF0F5284601F019FD08B1F7
:10345000012070BD102C07D200222146501E00F022
:1034600045F80548046001E00120F2E70020F0E79C
:1034700010000020500100200C00002010B5032097
:1034800000F072F8002211466FF00B0000F02EF8E9
:10349000002211466FF00A0000F028F800221146C1
:1034A0006FF0090000F022F800221146501F00F0D2
:1034B0001DF800221146101F00F018F800221146D6
:1034C000901E00F013F800221146501E00F00EF876
:1034D00010BD00BF00F01F0201219140420992007F
:1034E00002F1E022C2F8001100BF70472DE9F05F41
:1034F00080460D461646002708F016FA074639465C
:103500002A46334601F00700C0F1070ABAF1040F5A
:1035100002D94FF0040A01E0C0F1070AD14600F1D8
:10352000040ABAF1070F02D24FF0000A01E0A0F13D
:10353000030AD4464FF0010A0AFA09FAAAF1010A6D
:103540000AEA020A0AFA0CFA4FF0010B0BFA0CFB1A
:10355000ABF1010B0BEA030B4AEA0B042146404690
:1035600006F02EFABDE8F09F00BF00F00702064B00
:1035700019684FF6FF031940044B0B4343EA02213D
:10358000014B196000BF70470CED00E00000FA0528
:1035900002461068416200207047F0B503461446A9
:1035A000002500221868426A21B942EA04401E68D8
:1035B000B06219E01868806A02EB1042002508E04A
:1035C000186800F5827050F8250002EB1042681C64
:1035D000C5B2481EA842F3DC42EA0447186800F569
:1035E00082704E1E40F826700020F0BD10B50446D3
:1035F000D4F8EC0301F03DFF10BD70B504460D4654
:10360000C5EBC50304F1380101EB8301CA68294603
:10361000D4F8EC0301F07DFE70BD70B504460D4694
:10362000C5EBC50304F5FC7101EB8301CA682946AB
:10363000D4F8EC0301F0DAFE70BD10B50446D4F8FE
:10364000EC0301F020FF10BD70B504460D4605F0F7
:103650008000802808D105F07F00C0EBC00104F194
:10366000380000EB810607E005F07F00C0EBC001E9
:1036700004F5FC7000EB810605F07F00307005F06A
:103680008000C009707000BF94F8B803012801D110
:10369000022070BD012084F8B80300BF31462068C5
:1036A00003F0E8F900BF002084F8B80300BF00BFB2
:1036B000EFE770B504460D4605F08000802808D17C
:1036C00005F07F00C0EBC00104F1380000EB81067B
:1036D00005E0C5EBC50104F5FC7000EB8106002098
:1036E000B07005F07F003070C5F3C010707000BF7F
:1036F00094F8B803012801D1022070BD012084F89C
:10370000B80300BF3146206803F06AFC00BF002008
:1037100084F8B80300BF00BFEFE7024601F00F00D6
:10372000C0EBC00302F5FC7000EB8300008B80B29D
:1037300070472DE9F04705460E4690461F464FF06C
:10374000000906F08000802808D106F07F00C0EB59
:10375000C00105F1380000EB810407E006F07F00AE
:10376000C0EBC00105F5FC7000EB810406F07F00A2
:10377000207006F08000C0096070C4F80880E7700F
:10378000607808B12078E080022F01D100202071FC
:1037900000BF95F8B803012802D10220BDE8F087E8
:1037A000012085F8B80300BF2146286803F0A6F879
:1037B00000BF002085F8B80300BF4846EEE72DE9BA
:1037C000F04104460E461746984606F07F00C0EBCF
:1037D000C00104F5FC7000EB8105EF60C5F81480B2
:1037E0000020A861687006F07F0028702069012819
:1037F00000D12F6106F07F0028B9227C294620687D
:1038000003F0F6FA04E0227C2946206803F072FCFB
:103810000020BDE8F08170B504460D4605F080003B
:10382000802808D105F07F00C0EBC00104F138000A
:1038300000EB810605E0C5EBC50104F5FC7000EB6B
:1038400081060120B07005F07F003070C5F3C01014
:10385000707000BF94F8B803012801D1022070BD38
:10386000012084F8B80300BF3146206803F0FCFB58
:1038700005F07F0028B9217C04F56F72206803F001
:103880008DFB00BF002084F8B80300BF00BFE6E74F
:103890002DE9F04104460E461746984606F07F0093
:1038A000C0EBC00104F1380000EB8105EF60C5F802
:1038B00014800020A8610120687006F07F00287045
:1038C0002069012800D12F6106F07F0028B9227CF1
:1038D0002946206803F08CFA04E0227C29462068FF
:1038E00003F008FC0020BDE8F08100002DE9FC5F3A
:1038F000044626684FF0000B002001908146002509
:1039000000908046F74F206803F0C3FD00286CD17B
:10391000206804F0BDF808B9BDE8FC9F206804F0F9
:10392000B7F800F00200022805D12068406900F0D5
:10393000020021684861206804F0AAF800F4002021
:10394000B0F5002F7ED10025206804F077F80190B3
:1039500075E0019800F0010000286CD0E9B2206801
:1039600004F08BF8814609F00100E8B3012106F567
:10397000306000EB45108160206901282BD1C5EB38
:10398000C50104F5FC7000EB8100816806F530602C
:1039900000EB45100069C0F31200091AC5EBC5021F
:1039A00004F5FC7000EB82008161C5EBC50104F5F4
:1039B000FC7000EB8100C5EBC502C16804F5FC702A
:1039C00000EB820080680144C5EBC50204F5FC7081
:1039D00000EB8200C160E9B22046FFF71EFE2069BD
:1039E000012811D105B901E00EE0B2E2C5EBC50135
:1039F00004F5FC7000EB8100406928B904F56F7292
:103A00000121206803F0CAFA09F00800082808D14B
:103A1000204600F0A7FB082106F5306000EB4510BA
:103A2000816009F01000102805D1102106F53060E2
:103A300000EB451081606D1C0198400801900198D1
:103A4000002800E000E084D1206804F021F800F4B0
:103A50008020B0F5802F7DD1206803F0E6FF019033
:103A6000002585E0019800F0010000287CD0E9B233
:103A7000206803F0ECFF814609F00100F0B301205B
:103A8000A840009040F6340080590099884340F6E1
:103A900034018851012106F5106000EB451081606A
:103AA0002069012815D1C5EBC50104F1380000EBF0
:103AB0008100C5EBC502C16804F1380000EB82004B
:103AC00080680144C5EBC50204F1380000EB8200B8
:103AD000C160E9B22046FFF790FD2069012810D1AE
:103AE00065B9C5EBC50104F1380000EB8100406900
:103AF00020B904F56F720121206800E001E003F0B5
:103B00004DFA09F00800082805D1082106F51060D3
:103B100000EB4510816009F01000102805D110213C
:103B200006F5106000EB4510816009F04000402868
:103B300005D1402106F5106000EB4510816009F0C9
:103B40000200022805D1022106F5106000EB4510A5
:103B5000816001E010E007E009F08000802803D1D7
:103B60002946204607F040F86D1C01984008019056
:103B7000019800287FF476AF206803F089FF00F0F9
:103B80000040B0F1004F10D140F60400805920F001
:103B9000010140F604008151204600F0BBFA206884
:103BA000406900F0004021684861206803F070FF20
:103BB00000F40060B0F5006F0ED140F608008059A7
:103BC00000F0010010B1204600F00EFB20684069B3
:103BD00000F4006021684861206803F059FF00F498
:103BE0008050B0F5805F5CD140F60400805920F031
:103BF000010140F6040081511021206803F000FC0F
:103C00004FF0000B0CE0FF2106F5106000EB4B10AD
:103C1000816006F5306000EB4B1081600BF1010B09
:103C200060685845EFD84FF0FF3140F618008151D9
:103C3000001D805940F0011140F61C008151206B9D
:103C400070B1D6F8840840F00B01C6F8841840F62D
:103C50004400805940F00B0140F6440081510EE0D1
:103C600040F61400805940F00B0140F614008151D9
:103C7000001F805940F00B014FF401608151D6F8CC
:103C8000000820F4FE60C6F80008217C04F56F727D
:103C9000206803F083F92068406900F480502168AF
:103CA0004861206803F0F4FE00F40050B0F5005FB6
:103CB0006FD1206802F084FE2068C06820F4705044
:103CC0002168C860206803F0B9FB68B90021E16091
:103CD0004FF4007161612068C06840F410502168A1
:103CE000C86084E00095BA0A0321E1604021616167
:103CF00000F042FB07469848874209D3974887421D
:103D000006D22068C06840F470502168C8606EE038
:103D10009248874209D39248874206D22068C068F9
:103D200040F460502168C86061E08D48874209D343
:103D30008C48874206D22068C06840F45050216801
:103D4000C86054E08748874209D38748874206D233
:103D50002068C06840F440502168C86047E082484D
:103D6000874209D38148874206D22068C06840F460
:103D700030502168C8603AE07C4887420AD37C48CA
:103D8000874207D22068C06840F420502168C8608C
:103D90002DE035E07648874209D37648874206D23F
:103DA0002068C06840F410502168C8601FE0714866
:103DB000874209D37048874206D22068C06840F421
:103DC00000502168C86012E06B48874209D36B48F5
:103DD000874206D22068C06840F4E0502168C8607D
:103DE00005E02068C06840F4C0502168C8602046E3
:103DF00000F07AF92068406900F4005021684861B9
:103E0000206803F045FE00F01000102845D120681E
:103E1000806920F0100021688861D6F8208008F0C1
:103E20000F00C0EBC00104F5FC7000EB810AC8F381
:103E3000434002281AD147F6F07008EA000030B378
:103E4000C8F30A123046DAF80C1003F027FEC8F364
:103E50000A11DAF80C000844CAF80C00C8F30A1179
:103E6000DAF818000844CAF8180010E0C8F3434014
:103E700006280CD1082204F56F71304603F00EFEBF
:103E8000C8F30A11DAF818000844CAF818002068C4
:103E9000806940F0100021688861206803F0F8FD17
:103EA00000F00800082808D1204600F03AF9206800
:103EB000406900F0080021684861206803F0E8FDCF
:103EC00000F48010B0F5801F09D1E9B2204600F05F
:103ED00057F82068406900F4801021684861206824
:103EE00003F0D6FD00F40010B0F5001F09D1E9B2CF
:103EF000204600F04EF82068406900F40010216868
:103F00004861206803F0C4FD00F08040B0F1804FAC
:103F100008D12046FFF76AFB2068406900F0804026
:103F200021684861206803F0B3FD00F00400042814
:103F30000FD12068D0F8048008F00400042802D1D2
:103F40002046FFF77AFB2068406840EA08002168B5
:103F5000486000BFE0E40000C0ACD800C0E1E4006D
:103F60000024F40080730601A0491A01002D3101DC
:103F700040A44C0100366E0120ABA6010048E801C8
:103F800070B504460D462946D4F8EC0301F0B4FAA6
:103F900070BD70B504460D462946D4F8EC0301F017
:103FA000AEFA70BD30B58BB00446002514B90120BF
:103FB0000BB030BD032084F8B903204600F093F81D
:103FC000206802F0CBFE282204F110016846FCF7BD
:103FD00067FD94E80F0002F015FD0021206803F052
:103FE00086FD002530E00121C5EBC50204F1380053
:103FF00000EB82004170C5EBC50204F1380000F807
:104000002250C5EBC50200EB8200C5800021C5EB44
:10401000C50204F1380000EB8200C170C5EBC50297
:1040200004F1380000EB82008160C5EBC50204F1A9
:10403000380000EB8200C160C5EBC50204F1380016
:1040400000EB820041616D1C0F2DCCD3002536E0C2
:104050000021C5EBC50204F5FC7000EB8200417045
:10406000C5EBC50204F5FC7000F82250C5EBC50293
:1040700004F1380000EB8200C580C5EBC50204F5F1
:10408000FC7000EB8200C170C5EBC50204F5FC704A
:1040900000EB82008160C5EBC50204F5FC7000EB0B
:1040A0008200C160C5EBC50204F5FC7000EB820024
:1040B0004161206800F5827040F825106D1C0F2DBD
:1040C000C6D3282204F110016846FCF7E9FC94E805
:1040D0000F0002F073FD012084F8B903206802F09C
:1040E0005EFD002064E7704770B504460125E06876
:1040F00010B1022803D101E0002500E000BF00BF9D
:104100002946D4F8EC0301F057FAD4F8EC0301F097
:1041100019FA70BD10B50446D4F8EC0301F034FA76
:1041200010BD10B50446D4F8EC0301F034FA10BD0C
:1041300070B504460D4600BF94F8B803012801D1BC
:10414000022070BD012084F8B80300BF2946206812
:1041500003F0E5FC00BF002084F8B80300BF00BFF7
:10416000EFE700007CB5044604F56F71D4F8EC036A
:1041700001F030FAD4F8EC53D5F808120091D5F8D4
:104180000C020190BDF8060060B90948008830B102
:10419000012009F09BFF012009F092FF02E00020BE
:1041A00009F08EFFBDF80600014908807CBD0000C3
:1041B0007802002010B5044600BF94F8B803012827
:1041C00001D1022010BD012084F8B80300BF20688F
:1041D00002F0D6FC206803F0F5F800BF002084F858
:1041E000B80300BF00BFEDE710B50446D4F8EC03F8
:1041F00001F03CFA10BD000070B504460D460CB944
:10420000012070BD5848006800F00F00A84209D294
:1042100055490D700846006800F00F00A84201D013
:104220000120EEE7207800F0020002281DD120785E
:1042300000F00400042805D14C48006840F4E05028
:104240004A490860207800F00800082805D147484E
:10425000006840F46040454908604448006820F028
:10426000F000A168084341490860207800F001008F
:10427000A8B36068012807D13C4808380068C0F33B
:104280004040B8B90120BCE76068022802D06068ED
:10429000032807D1354808380068C0F3406048B9A2
:1042A0000120AEE7314808380068C0F3400008B983
:1042B0000120A6E72D48006820F00300616808434C
:1042C0002A490860FEF72AFC064609E0FEF726FCAC
:1042D000801B41F28831884202D9032091E707E030
:1042E0002248006800F00C006168B0EB810FEDD14E
:1042F0001D48006800F00F00A84209D91A490D7046
:104300000846006800F00F00A84201D0012078E7BD
:10431000207800F00400042807D11448006820F435
:10432000E050E168084311490860207800F0080077
:10433000082808D10D48006820F46040216940EA4F
:10434000C1000A49086000F02DF808490968C1F366
:104350000311074A515CC840064908600020FFF776
:1043600067F800204DE70000003C0240083802409A
:104370009038030850010020014800687047000091
:104380005001002000B5FFF7F7FF04490968C1F3A9
:104390008221034A515CC84000BD00000838024039
:1043A000A03803082DE9F047002400250026A14687
:1043B0002548006800F00C0020B1042805D008282A
:1043C0003AD105E0DFF8849039E0DFF8849036E0F8
:1043D0001D48001F006800F03F041B48001F0068D4
:1043E00000F4800078B11A481749091F0968C1F321
:1043F0008811A0FB01700146224600233846FCF7D5
:1044000005F805460EE011480F49091F0968C1F378
:104410008811A0FB01700146224600233846FBF7B5
:10442000F5FF05460848001F0068C0F30140401C26
:104430004600B5FBF6F902E0DFF8109000BF00BFC0
:104440004846BDE8F0870000083802400024F40028
:1044500040787D01F8B504460CB90120F8BD2078FC
:1044600000F00100002874D0F948006800F00C004A
:1044700004280DD0F648006800F00C00082813D17D
:10448000F348001F006800F48000B0F5800F0BD1E6
:10449000EF4808380068C0F34040002859D06068F1
:1044A000002856D10120D9E700BF6068B0F5803FF1
:1044B00008D1E7480838006840F48030E4490839FA
:1044C00008601EE06068B0F5A02F0DD1E048083804
:1044D000006840F48020DE4908390860084600681A
:1044E00040F4803008600CE0D9480838006820F4B7
:1044F0008030D749083908600846006820F48020D9
:10450000086000BF606890B1FEF708FB054606E052
:10451000FEF704FB401B642801D903209EE7CC482A
:1045200008380068C0F340400028F1D011E0FEF7E1
:10453000F5FA054606E0FEF7F1FA401B642801D9BA
:1045400003208BE7C24808380068C0F340400028C9
:10455000F1D1207800F0020002285FD1BC48006849
:1045600000F00C0058B1BA48006800F00C000828B0
:104570001CD1B748001F006800F48000B0B9B448EF
:1045800008380068C0F3400020B1E068012801D07D
:10459000012063E7AE480838006820F0F800216980
:1045A00040EAC100AA490839086037E0E06800B372
:1045B0000120A8490860FEF7B1FA054606E0FEF7BB
:1045C000ADFA401B022801D9032047E7A04808386C
:1045D0000068C0F340000028F1D09D48083800680A
:1045E00020F0F800216940EAC100994908390860C3
:1045F00014E0002097490860FEF790FA054606E0AF
:10460000FEF78CFA401B022801D9032026E79048C8
:1046100008380068C0F340000028F1D1207800F08D
:10462000080008282CD16069A8B101208A490860D7
:10463000FEF774FA054606E0FEF770FA401B022802
:1046400001D903200AE782486C300068C0F34000BB
:104650000028F1D014E000207F490860FEF75EFAE0
:10466000054606E0FEF75AFA401B022801D903204E
:10467000F4E677486C300068C0F340000028F1D1C0
:10468000207800F0040004286FD1002670483830EC
:10469000006800F0805088B900BF002000906C488E
:1046A0003830006840F08050694938310860084669
:1046B000006800F08050009000BF01266748006845
:1046C00000F48070B0B96548006840F480706349B8
:1046D0000860FEF723FA054606E0FEF71FFA401BC6
:1046E000022801D90320B9E65C48006800F4807014
:1046F0000028F2D000BFA068012808D154486830D3
:10470000006840F001005249683108601DE0A0686F
:1047100005280DD14E486830006840F004004C492F
:10472000683108600846006840F0010008600CE04D
:1047300047486830006820F001004549683108604A
:104740000846006820F00400086000BFA068A8B117
:10475000FEF7E4F9054609E0FEF7E0F9401B41F2F7
:104760008831884202D9032078E626E0384868304C
:104770000068C0F340000028EED013E0FEF7CEF949
:10478000054608E0FEF7CAF9401B41F2883188422D
:1047900001D9032062E62E4868300068C0F340006B
:1047A0000028EFD1012E07D129483830006820F0C9
:1047B000805027493831086000BFA069B8B3244849
:1047C000006800F00C0008285FD0A069022847D1DB
:1047D000002020490866FEF7A1F9054606E0FEF72D
:1047E0009DF9401B022801D9032037E618480838F4
:1047F0000068C0F340600028F1D1D4E90701084304
:10480000616A40EA81110122A06AC2EB500041EACC
:1048100000412C20005D41EA00600D49091F08603D
:1048200001200C490866FEF779F9054607E02EE0FD
:10483000FEF774F9401B022801D903200EE6044854
:1048400008380068C0F340600028F1D01FE0000085
:104850000838024000004742800E47420070004086
:1048600000200C490866FEF759F9054606E0FEF7F8
:1048700055F9401B022801D90320EFE506480068DE
:10488000C0F340600028F2D101E00120E6E50020FD
:10489000E4E50000000047420038024010B504463D
:1048A0000CB9012010BD606A00B900BF0021A162EF
:1048B00094F8510028B9002084F85000204600F0F8
:1048C00033F8022084F851002068006820F040008E
:1048D00021680860D4E901010843E16808432169BF
:1048E000084361690843218B01F400710843E169C1
:1048F0000843216A0843A16A08432168086004212B
:10490000A06901EA1040616A084321684860206894
:10491000C06920F400602168C86100206065012042
:1049200084F851000020BDE770472DE9F8430446A4
:104930000D4617461E464FF00008C1466068B0F5A8
:10494000827F0DD1A06858B9042084F851003B46FD
:104950002A4629462046009600F06FF9BDE8F88304
:1049600000BF94F85000012801D10220F6E7012091
:1049700084F8500000BFFEF7D1F8804694F851004B
:10498000012802D04FF002097BE005B117B94FF0C2
:10499000010976E0042084F8510000206065A563D9
:1049A000A787E7872063A086E08620646064A0680C
:1049B000B0F5004F05D12068006820F480402168E0
:1049C00008602068006800F04000402805D020689A
:1049D000006840F0400021680860E068E8B918E02D
:1049E0002068806800F0010038B12068007B2870E2
:1049F0006D1CE08F401EE0870BE03EB1701C40B1A3
:104A0000FEF78CF8A0EB0800B04202D34FF0030988
:104A100037E0E08F0028E3D11CE018E020688068D0
:104A200000F0010038B12068C0682880AD1CE08F1C
:104A3000401EE0870BE03EB1701C40B1FEF76EF8FF
:104A4000A0EB0800B04202D34FF0030919E0E08F59
:104A50000028E3D16068B0F5827F0DD1A068B0F581
:104A6000004F03D0A068B0F5806F05D120680068C2
:104A700020F0400021680860606D08B14FF0010926
:104A800000BF012084F8510000BF002084F85000CE
:104A900000BF484662E72DE9F84304460D46174635
:104AA0001E464FF00008C14600BF94F85000012890
:104AB00002D10220BDE8F883012084F8500000BF35
:104AC000FEF72CF8804694F85100012802D04FF0F0
:104AD0000209A8E005B117B94FF00109A3E00320CE
:104AE00084F85100002060652563A786E786A063EF
:104AF000A087E08760642064A068B0F5004F05D10E
:104B00002068006840F480402168086020680068E0
:104B100000F04000402805D02068006840F04000C8
:104B200021680860E068B0F5006F2AD1606810B1B4
:104B3000E08E012806D128882168C860AD1CE08E6F
:104B4000401EE08619E02068806800F0020002281C
:104B500007D128882168C860AD1CE08E401EE08621
:104B60000BE03EB1701C40B1FDF7D8FFA0EB080090
:104B7000B04202D34FF0030955E0E08E0028E2D1A5
:104B800029E0606810B1E08E012806D128782168FC
:104B900008736D1CE08E401EE08619E02068806876
:104BA00000F00200022807D12878216808736D1CE4
:104BB000E08E401EE0860BE03EB1701C40B1FDF778
:104BC000ADFFA0EB0800B04202D34FF003092AE08A
:104BD000E08E0028E2D13346012202212046CDF8A2
:104BE000008007F021F810B14FF003091BE04246A6
:104BF0003146204605F092F920B14FF001092020FE
:104C0000606510E0A06848B900BF002000902068EF
:104C1000C068009020688068009000BF606D08B197
:104C20004FF0010900BF012084F8510000BF0020AF
:104C300084F8500000BF48463CE72DE9FE4F04468B
:104C40000D4616461F46DDF830804FF0000A002062
:104C5000029081464FF0010B019000BF94F8500084
:104C6000012802D10220BDE8FE8F012084F8500007
:104C700000BFFDF753FF814694F851A06068029091
:104C8000BAF1010F0BD00298B0F5827F04D1A06871
:104C900010B9BAF1040F02D002200190D1E00DB199
:104CA00006B117B901200190CBE094F8510001281A
:104CB00002D1052084F8510000206065A663E787D3
:104CC000A7872563E786A78620646064206800685C
:104CD00000F04000402805D02068006840F0400007
:104CE00021680860E068B0F5006F43D1606810B1DA
:104CF000E08E012806D128882168C860AD1CE08EAE
:104D0000401EE0862FE0BBF1000F10D0E08E70B1A6
:104D10002068806800F00200022808D128882168F5
:104D2000C860AD1CE08E401EE0864FF0000BE08FA7
:104D300068B12068806800F0010040B12068C06858
:104D40003080B61CE08F401EE0874FF0010B08F169
:104D5000010040B1FDF7E2FEA0EB0900404502D39F
:104D6000032001906DE0E08E0028CCD1E08F002878
:104D7000C9D142E0606810B1E08E012806D12878E0
:104D8000216808736D1CE08E401EE0862FE0BBF1A9
:104D9000000F10D0E08E70B12068806800F0020033
:104DA000022808D115F8010B21680873E08E401E17
:104DB000E0864FF0000BE08F68B12068806800F05B
:104DC000010040B12068C06806F8010BE08F401E6A
:104DD000E0874FF0010B08F1010040B1FDF79EFEA6
:104DE000A0EB0900404502D30320019029E0E08EAA
:104DF0000028CCD1E08F0028C9D1434601220221EE
:104E00002046CDF8009006F00FFF10B1032001906E
:104E100017E04A464146204605F080F820B10120BF
:104E20000190202060650CE0A06848B900BF002018
:104E300000902068C068009020688068009000BFE3
:104E400000BF012084F8510000BF002084F850000A
:104E500000BF019807E7042808D14FF0E021096955
:104E600041F004014FF0E022116107E04FF0E02132
:104E7000096921F004014FF0E02211617047704789
:104E800070B504462546681EB0F1807F01D301202D
:104E90000FE0681E4FF0E02148610F214FF0FF3016
:104EA00004F08EFD00204FF0E021886107200861AA
:104EB000002070BD10B5FFF7E2FF10BD10B504462D
:104EC0000CB9012010BD94F8390028B9002084F8ED
:104ED0003800204600F00CF8022084F83900211D2B
:104EE000206800F08FF8012084F839000020E9E7FD
:104EF000704701460868C06840F001000A68D06049
:104F00000868006840F001000A68106000207047DF
:104F100001460868C06820F001000A68D06000BF40
:104F20000868006A41F21112104050B90868006A1E
:104F30009210104028B90868006820F001000A6843
:104F4000106000BF0020704700BFFEE700BFFEE713
:104F5000704710B50BF0CEF910BD10B50BF0A2FAEA
:104F600010BD7047704710B5FEF738FAFFF7A2FF83
:104F700010BD00001348006840F47000114908603B
:104F80001148006840F001000F49086000200E49F8
:104F9000083108600C4800680C4908400A4908605C
:104FA0000B48091D0860081F006820F48020091FB5
:104FB0000860002004490C31086006480149803926
:104FC0000860704788ED00E000380240FFFFF6FE01
:104FD000103000240000020810B50948006800F0F5
:104FE000010058B10648001F006800F0010028B118
:104FF0006FF00100024908600AF082F910BD00005C
:1050000010040040002202682C4B98420ED0B0F1F0
:10501000804F0BD02A4B984208D02A4B984205D09B
:10502000294B984202D0294B984201D1012300E03C
:1050300000231BB122F070024B681A431F4B9842A9
:1050400020D0B0F1804F1DD01D4B98421AD01D4B7F
:10505000984217D01C4B984214D01C4B984211D048
:105060001B4B98420ED01B4B98420BD01A4B9842C8
:1050700008D01A4B984205D0194B984202D0194BD0
:10508000984201D1012300E000231BB122F44072B9
:10509000CB681A4302608B68C3620B688362074B5C
:1050A000984202D0094B984201D1012300E000232D
:1050B0000BB10B690363012343617047000001409A
:1050C0000004004000080040000C004000040140C3
:1050D00000400140004401400048014000180040E9
:1050E000001C00400020004070B50446D4F818525F
:1050F000D4F8180298B1207C40B94FF40073012114
:105100002046D5F8042200F00DFA06E040230121E4
:105110002046D5F8042200F005FA002070BD0220D8
:10512000FCE70246022011B1C2F81C1200207047B1
:105130000246D2F81832C3F804120020704710B5A6
:105140000346D3F81842C4F80812C4F8102200200D
:1051500010BD70B50546D5F81842D5F8180290B1C3
:10516000D4F8140268B90120C4F81402B4F810028B
:1051700083B281212846D4F8082200F088FA002062
:1051800070BD0120FCE70220FAE770B504460D4629
:10519000D4F814022946426820469047002070BD8A
:1051A00070B506460C4615462B4622460021304671
:1051B00000F0B8F9002070BD70B506460C461546E3
:1051C0002B4622460021304600F061FA002070BDD7
:1051D00070B504460D468021204600F035FA0021C6
:1051E000204600F031FA70BD70B504460E461546F3
:1051F0000320C4F8F4014FF484700551001D0551DB
:105200002B4632460021204600F08CF9002070BD6C
:1052100010B504460520C4F8F40100231A461946C7
:10522000204600F07FF9002010BD70B504460E4600
:1052300015460220C4F8F401A561E5612B4632460B
:105240000021204600F023FA002070BD10B504466E
:105250000420C4F8F40100231A461946204600F041
:1052600016FA002010BD2DE9F04104460D46174600
:105270000026FCB1204602F0FFFE022101EB4000B7
:1052800038803A783046711CCEB22A540322304618
:10529000711CCEB22A540AE014F8012B3046711C5E
:1052A000CEB22A5400223046711CCEB22A54207845
:1052B0000028F1D1BDE8F08170B504460D461646D0
:1052C0000CB9022070BDD4F8140210B10020C4F84B
:1052D00014020DB1C4F81052012084F8FC012670AC
:1052E000204600F0E6F80020ECE770B504460D46D5
:1052F0002946D4F82002FEF7DCF9002070BD70B515
:1053000004460D462946D4F82002FEF79DF90020F8
:1053100070BD2DE9F04104460E461746002E54D1CB
:1053200004F11405D4F8F401022843D1D5E90201AF
:10533000884210D9D5E90201401AA860288982B2B2
:1053400039462046FFF738FF00231A461946204603
:1053500000F0E8F82EE0E9686868B0FBF1F201FBC4
:105360001200B8B9E9686868884213D36868D4F84D
:10537000F81188420ED2002211462046FFF71CFF8A
:105380000020C4F8F80100231A461946204600F010
:10539000C9F80FE0D4F81402C06840B194F8FC01D9
:1053A000032804D1D4F81402C16820468847204657
:1053B000FFF72EFF94F80002012814D1204600F0D8
:1053C00092F9002084F800020DE0D4F8140240693C
:1053D00048B194F8FC01032805D1D4F814023146F1
:1053E0004269204690470020BDE8F0812DE9F04158
:1053F00005460E4617465EBB05F58274D5F8F401E6
:10540000032833D1D4E90201884210D9D4E902013A
:10541000401AA060D4E90201884201D2A06800E0ED
:10542000E06882B239462846FFF7BAFE1EE0D5F89A
:105430001402006940B195F8FC01032804D1D5F8A5
:1054400014020169284688472846FFF7FFFE0DE051
:10545000D5F81402806948B195F8FC01032805D1FC
:10546000D5F8140231468269284690470020BDE8ED
:10547000F08110B50446012008F028FE002008F055
:105480001FFE002010BD10B50446012084F8FC0169
:105490002179D4F81402426820469047002010BDBC
:1054A00070B504460D462946D4F82002FEF735F9BA
:1054B00070BD10B5044620460AF0FCFFC0B210BD16
:1054C00010B50246D2F8203201F08000802809D1C0
:1054D00001F07F00C0EBC00403F1380000EB840052
:1054E000807810BD01F07F00C0EBC00403F5FC70B4
:1054F00000EB84008078F4E7024600207047024603
:10550000002070472DE9F04104460F4615461E461F
:105510002B4632463946D4F82002FEF70AF900201D
:10552000BDE8F0812DE9F04104460D4616461F46C0
:105530003B4632462946D4F82002FEF740F90020C7
:10554000BDE8F08110B504464023002211462046F4
:10555000FFF7D8FF40214FF488700151402300220B
:1055600080212046FFF7CEFF40212162012084F8F0
:10557000FC01D4F8180228B12179D4F81402426849
:1055800020469047002010BD014691F8FD0181F8AA
:10559000FC010020704710B5044694F8FC01032874
:1055A00008D1D4F81402C06920B1D4F81402C1693A
:1055B00020468847002010BD024611740020704725
:1055C00070B504460D462946D4F82002FEF7B0FD1A
:1055D000002070BD70B504460D46294604F50270E2
:1055E00000F065F80120C4F8F40140F20E20005BE1
:1055F000C4F8F80194F8080200F01F0020B1012857
:1056000008D0022815D10EE004F50271204600F002
:1056100085F816E004F50271204600F063F90020D9
:1056200008F04EFD0DE004F50271204600F0AFF8E1
:1056300007E094F8080200F08001204600F004F82A
:1056400000BF00BF002070BD70B504460D4629465E
:10565000D4F82002FEF7DFF8002070BD10B5044634
:10566000D4F82002FEF7A6FD002010BD10B50446B8
:10567000002008F02BFD002008F022FD94F8FC012A
:1056800084F8FD01042084F8FC01002010BD2DE900
:10569000F04104460D4616461F463B463246294613
:1056A000D4F82002FEF7F4F80020BDE8F0810A7873
:1056B00002704A7842708B78CA7803EB02224280EB
:1056C0000B794A7903EB022282808B79CA7903EB4A
:1056D0000222C28070470246002011B1C2F81412A3
:1056E00000E00220704701460020704770B5044674
:1056F0000D460226D4F8140238B1D4F81402294613
:1057000002682046904700B90026304670BD10B5AB
:1057100004462046FFF7A2FF002010BD70B50546E5
:105720000C46002660780A2829D2DFE800F0192309
:10573000281E280A0528140F2146284604F06BFD70
:1057400022E02146284604F04EF81DE02146284676
:1057500003F0C6FD18E02146284603F077FD13E06C
:105760002146284603F09AFD0EE02146284604F023
:1057700064F809E02146284604F013F804E02146C5
:105780002846FFF725FD00BF00BF304670BD2DE95C
:10579000F04105460E464FF000083479307800F0AD
:1057A0006000202808D1D5F81402314682682846C6
:1057B00090470020BDE8F0817078002855D001287E
:1057C0002AD003287AD195F8FC01022802D00328B8
:1057D0001BD107E02CB1802C03D021462846FFF7CF
:1057E00033FF17E0708830B92CB1802C03D02146EC
:1057F0002846FFF729FFD5F814023146826828466B
:1058000090472846FFF722FD04E031462846FFF77F
:10581000DFFC00BF00BF62E095F8FC01022802D067
:1058200003281BD107E02CB1802C03D02146284649
:10583000FFF70AFF17E0708878B904F07F0048B1DD
:1058400021462846FFF751FDD5F8140231468268FB
:10585000284690472846FFF7F9FC04E031462846E1
:10586000FFF7B6FC00BF00BF39E095F8FC01022845
:1058700002D003282BD107E004F07F0018B12146A5
:105880002846FFF7E1FE27E004F08000802806D1DB
:1058900004F07F0105F1140000EB011005E004F0B5
:1058A0007F0105F5827000EB01100746214628466E
:1058B000FFF706FE18B10120386002E00EE000207C
:1058C0003860022239462846FFF7AFFC04E0314633
:1058D0002846FFF77DFC00BF00BF00E000BF00BF0F
:1058E000404667E770B504460D46002694F8FC0173
:1058F000032814D1287901280CDCD4F81402294695
:10590000826820469047E88840B93EB92046FFF7B4
:105910009DFC03E029462046FFF75AFC04E0294697
:105920002046FFF755FC00BF00BF002070BD70B5DA
:1059300006460D46304604F07AF804464FF6FF70EE
:10594000844205D045F4004106F51F7040F824104C
:10595000E0B270BD2DE9FF4107460C4615461E46D4
:105960000020012102230A468DE8320003903146CF
:10597000384600F037FA002004B0BDE8F0812DE988
:10598000FF4104460D4617461E46DDF8288094F870
:105990001D0208B14FF00008012002230022314609
:1059A0008DE8A101204600F01DFA002004B0BDE8FA
:1059B000F08170B504460D462946204600F04FF9A7
:1059C000002070BD70B504460D46A078012807D1AF
:1059D000022121740121617400216182A582E1828A
:1059E00000221146204600F016F870BD2DE9FF4157
:1059F00007460C4615461E460020012103460A466E
:105A00008DE8320003903146384600F0EBF9002073
:105A100004B0BDE8F0812DE9F04104460E4617467A
:105A20000125A078012802D0022819D107E0A6603C
:105A3000A781012121760220A070012511E02046D6
:105A400004F08DFC05462DB90120A07000212176BF
:105A5000002504E0022D02D10120A07000BF00E06B
:105A600000BF00BF2846BDE8F0812DE9FF41044694
:105A70000D4617461E46DDF8288094F81D0208B131
:105A80004FF00008012000231A4631468DE8A1019D
:105A9000204600F0A7F9002004B0BDE8F0817FB5F2
:105AA00006460C46154600200821CDE900040346B1
:105AB0000246CDE902102946304600F093F9002055
:105AC00004B070BD10B5044620460AF06DFE10BD4E
:105AD000F0B506460C4615460022002106F2322794
