:020000040800F2
:1000000040F101203502000839240008312400089D
:100010003524000825090008733E00080000000090
:10002000000000000000000000000000452400085F
:1000300029090008000000004324000847240008A4
:100040004F0200084F0200084F0200084F0200084C
:100050004F0200084F0200084F0200084F0200083C
:100060004F0200084F0200084F0200084F0200082C
:100070004F0200084F0200084F0200084F0200081C
:100080004F0200084F0200084F0200084F0200080C
:100090004F0200084F0200084F0200084F020008FC
:1000A0004F0200084F0200084F0200084F020008EC
:1000B0004F020008B92400084F0200084F02000850
:1000C0004F0200084F0200084F0200084F020008CC
:1000D0004F0200084F0200084F0200084F020008BC
:1000E0004F0200084F0200084F0200084F020008AC
:1000F0004F0200084F0200084F0200084F0200089C
:100100004F0200084F0200084F0200084F0200088B
:100110004F0200084F0200084F0200084F0200087B
:100120004F0200084F0200084F0200084F0200086B
:100130004F0200084F0200084F0200084F0200085B
:100140004F0200084F0200084F0200083B2400083D
:100150004F0200084F0200084F0200084F0200083B
:100160004F0200084F0200084F0200084F0200082B
:100170004F0200084F0200084F0200080000000074
:100180004F0200084F02000800F002F800F042F8A9
:100190000AA090E8000C82448344AAF10107DA45E2
:1001A00001D100F037F8AFF2090EBAE80F0013F0F2
:1001B000010F18BFFB1A43F001031847D892000043
:1001C000F8920000103A24BF78C878C1FAD85207D4
:1001D00024BF30C830C144BF04680C6070470000C1
:1001E0000023002400250026103A28BF78C1FBD840
:1001F000520728BF30C148BF0B6070471FB508F0D9
:10020000DDFD9DE8030000F02BFA00F0F7F91FBDBB
:1002100010B510BD00F08FFA1146FFF7EFFF08F0A0
:10022000A7FD00F0ADFA03B4FFF7F2FF03BC00F046
:1002300011FB00000948804709480047FEE7FEE738
:10024000FEE7FEE7FEE7FEE7FEE7FEE7FEE7FEE786
:1002500004480549054A064B70470000552400082C
:10026000890100084011002040F101204071012067
:100270004071012070B5064600F0D2F9056806F11C
:100280000B0020F00704B4429CBF002070BD2B4639
:100290006A68BAB11068A04210D304F1080188421C
:1002A0003CBF5068586007D351681019416011680D
:1002B000091B016058601460101D70BD1346526820
:1002C000002AE7D12146284600F0B6F90028DED101
:1002D00070BD70B50446051F00F0A2F90068002C3F
:1002E00014BF446870BD002C18BFAC423CBF204610
:1002F0006468F8D301680A18AA4218BF456003D1A0
:100300002A6805461144016028684119A1421CBFB2
:100310006C6070BD6168696021680844286070BDC8
:1003200053EA020C00F069802DE9F04B4FF0000613
:10033000002B1FBFB3FA83F503FA05F424FA05F680
:100340005E4012BF1643B2FA82F502FA05F4C5F117
:1003500020051EBF22FA05FC44EA0C04203556EAAB
:10036000044C4FEA144418BF641C4FF000084FF0CF
:100370000009904271EB030C39D3002919BFB1FA7F
:1003800081F701FA07F6B0FA80F700FA07F6C7F12D
:1003900020071EBF20FA07FC46EA0C062037B6FBF2
:1003A000F4FCA7EB0507103F07F01F0BCBF120066D
:1003B0000CFA0BFB2CFA06F644BFB3460026202F9E
:1003C000A4BF5E464FF0000B5BEA060C08BF4FF07F
:1003D000010B19EB0B09ABFB027C48EB0608C01BB9
:1003E00006FB02CC0BFB03CC71EB0C01C1E70B4607
:1003F000024641464846BDE8F08B13B54FF0000079
:100400004FF00001AFF30080BDE81C40704740EAA8
:10041000010310B59B070FD1042A0DD310C808C9DA
:10042000121F9C42F8D020BA19BA884201D9012083
:1004300010BD4FF0FF3010BD1AB1D30703D0521CCE
:1004400007E0002010BD10F8013B11F8014B1B1B09
:1004500007D110F8013B11F8014B1B1B01D1921E73
:10046000F1D1184610BD032A40F2308010F0030C81
:1004700000F0158011F8013BBCF1020F624498BFF7
:1004800011F801CB00F8013B38BF11F8013BA2F194
:10049000040298BF00F801CB38BF00F8013B11F00F
:1004A000030300F02580083AC0F0088051F8043BAF
:1004B000083A51F804CBA0E80810F5E7121D5CBF1C
:1004C00051F8043B40F8043BAFF30080D20724BF4F
:1004D00011F8013B11F801CB48BF11F8012B24BFE3
:1004E00000F8013B00F801CB48BF00F8012B704732
:1004F00010B5203AC0F00B80B1E81850203AA0E8BF
:100500001850B1E81850A0E81850BFF4F5AF5FEAF2
:10051000027C24BFB1E81850A0E8185044BF18C9A5
:1005200018C0BDE810405FEA827C24BF51F8043B4C
:1005300040F8043B08BF7047D20728BF31F8023BA0
:1005400048BF11F8012B28BF20F8023B48BF00F834
:10055000012B704702F0FF0343EA032242EA024202
:1005600000F002B84FF000020429C0F0128010F031
:10057000030C00F01B80CCF1040CBCF1020F18BF7F
:1005800000F8012BA8BF20F8022BA1EB0C0100F012
:100590000DB85FEAC17C24BF00F8012B00F8012BE5
:1005A00048BF00F8012B70474FF0000200B513461A
:1005B00094469646203922BFA0E80C50A0E80C5083
:1005C000B1F12001BFF4F7AF090728BFA0E80C5034
:1005D00048BF0CC05DF804EB890028BF40F8042B2D
:1005E00008BF704748BF20F8022B11F0804F18BF9A
:1005F00000F8012B704770477047704770B5064C84
:100600007C44064D7D4403E0206820448047241D3F
:10061000AC42F9D170BD0000B08E0000BC8E00006D
:1006200000487047E4100020004870471011002077
:10063000704770477047704738B504460A46002037
:100640006946AFF30080002808BF38BD0246009914
:10065000204600F041F8012038BD012000F056B8D6
:10066000F8B5AFF30080054600200C46102000BF0F
:100670000646A819A0420DD9324669460020AFF3BC
:100680000080070008BF00F041F80098A04218BFA2
:100690000546C419FFF7C4FF05600746F01D20F0AA
:1006A00007004619284600F00AF8B44208BFF8BD12
:1006B000A21B31463868BDE8F84000F00DB80021B3
:1006C0000160C0E9011070471020704700F025B8A4
:1006D00000487047DC100020034640688C46002824
:1006E00018BF88423CBF03464068F8D318681844D6
:1006F000884207D00CF1030020F00700001D411ACA
:10070000521A0146081D0A60FFF7E3BD10B500F05C
:1007100051F8BDE8104000F047B810B500F075F88A
:10072000016919B100220261884701E080688047B1
:1007300000F02FF870477546FFF7CAFFAE46050078
:100740006946534620F00700854618B020B5FFF7EC
:100750007FFDBDE820404FF000064FF000074FF04E
:1007600000084FF0000B21F00701AC46ACE8C009CF
:10077000ACE8C009ACE8C009ACE8C0098D467047D8
:1007800010B50446AFF300802046BDE81040FFF7E7
:100790004ABD10B5002000F080F8FFF739FDBDE834
:1007A0001040012000F056B8002801D000F052B8E7
:1007B0007047000010B5012805D0002103A000F00B
:1007C00053F8012010BD09A1F8E700005349475232
:1007D000544D454D3A204F7574206F662068656111
:1007E00070206D656D6F7279000000003A204865D9
:1007F0006170206D656D6F727920636F72727570B4
:100800007465640010B5FFF7C4FF70B500F028F8F8
:1008100004680546A4B92020FFF72CFD040011D080
:10082000094900202C60C4E900010849A160207337
:10083000206160610649A06109B100F035F8E0610E
:10084000204670BDFFF7A5FF000000000508000866
:100850000000000001491820ABBEFEE726000200A0
:10086000004870471811002070B505460C460A2054
:1008700000E06D1C00F036F835B128780028F8D17A
:1008800002E0641C00F02EF814B120780028F8D1A2
:10089000BDE870400A2000F025B810B500F02AF835
:1008A000BDE81040FFF780BF10B58820FFF7E2FCDD
:1008B000002801D00021017010BD802902D808B1A4
:1008C000017809B100207047012100F8081B70472A
:1008D00018B100F10802914201D0002070470021B8
:1008E0000170704708B569468DF800000320ABBE63
:1008F00008BD000010B5002102A0FFF7B5FF0120E0
:1009000010BD0000534947414252543A2041626EA3
:100910006F726D616C207465726D696E6174696F60
:100920006E00000000BFFEE7704730B504460D467C
:1009300000222946204600F001F830BDF0B50346FC
:10094000012500241148407A01281CDA00200F4EAE
:10095000767A0E4FB8553846467A001D40F8263054
:10096000001F467A083082553E46707A461C7E72D9
:10097000044604F1300008703A2048702F20887037
:100980000020C87000252846F0BD0000E8000020C7
:1009900010B504460021204600F002F810BD00000A
:1009A00030B502460B46002101200D4C647A012C23
:1009B00014DB1478303CE1B2094C241D54F821407A
:1009C00064B10025064C241D44F82150241D6554B3
:1009D000083C647A641E024D6C72002030BD000039
:1009E000E800002010B5002201B909E0012901D179
:1009F0000A0205E0022901D10A0201E04FF4407227
:100A00000E4B1B6823F440730C4C236023461B6879
:100A10001343236023461B6823F0F8032360234617
:100A20001B68022444EAC0042343044C2360234689
:100A30001B6843F48033236010BD0000103C02406B
:100A40001C48006800F40070B0B11A48006820F437
:100A500000701849086000BF0846006840F4006054
:100A600008600846006820F40060086000BF08467F
:100A7000006840F4007008600E48006800F4806070
:100A8000B0B10C48006820F480600A49086000BFDB
:100A90000846006840F4805008600846006820F46A
:100AA0008050086000BF0846006840F4806008601D
:100AB00070470000003C024070B50446002500204D
:100AC0001449C86100F042FA054609E0601C38B1DB
:100AD00024B100F03BFA401BA04201D9032070BDB5
:100AE0000D48006800F480300028EFD10A48006803
:100AF00000F0010010B101200749086006480068B5
:100B000000F0F20018B104F04FFC0120E7E70020EC
:100B1000E5E70000140100200C3C024030B503461C
:100B20000C46002100BF1879012801D1022030BDF8
:100B30000120187100BF022058711868806840F0C9
:100B400001001D68A860002104E054F821001D6820
:100B50002860491C9142F8D30120587100BF002041
:100B6000187100BF18680068E1E710B504460CB9B9
:100B7000012010BD607920B900202071204600F0CE
:100B800006F802206071012060710020F1E77047D3
:100B900070B5044600F0DAF906462546681C10B127
:100BA00004480078054400BF00F0D0F9801BA8423B
:100BB000FAD370BD100000202DE9F04104460E4626
:100BC0000127002500BF2548007E012802D1022010
:100BD000BDE8F08101202149087600BF4CF2503079
:100BE000FFF76AFF0746002F31D1401E30602068B2
:100BF00001280FD1207C616803F06AFF4CF250306D
:100C0000FFF75AFF07461648006820F00400144911
:100C100008601AE0A56812E0217C2846FFF7E2FE92
:100C20004CF25030FFF748FF07460D48006820F0AF
:100C3000FA000B4908600FB1356005E06D1CD4E97E
:100C400002100844A842E7D800BFFFF7F9FE00BF32
:100C500000200249087600BF3846B9E71401002099
:100C6000103C02400348006840F000400149086021
:100C700000207047103C02402DE9F04106460F4627
:100C800014461D464FF0010800BF1F48007E012892
:100C900002D10220BDE8F08101201B49087600BF87
:100CA0004CF25030FFF708FF8046B8F1000F23D117
:100CB00026B9E1B2384604F051FB12E0012E04D10E
:100CC000A1B2384605F0F4FB0BE0022E04D1214618
:100CD000384604F055FB04E022462B46384605F022
:100CE00001FD4CF25030FFF7E7FE804607480068F0
:100CF00020F001000549086000BF00200249087685
:100D000000BF4046C6E7000014010020103C02402E
:100D100000200949096801F0004159B10749064A14
:100D20000C3A1160064911600349096801F000415D
:100D300001B1012070470000103C024023016745CB
:100D4000AB89EFCDF8B502460B4600250024002004
:100D50000021DBE0012606FA01F51E6806EA05041B
:100D6000AC4272D15E68022E02D05E68122E13D1A0
:100D7000CF0802F1200656F827004E07F70E0F267F
:100D8000BE40B0434F07FF0E1E69BE403043CF0840
:100D900002F1200646F8270010684F000326BE40E7
:100DA000B0431E7906F003064F00BE40304310608A
:100DB0005E68012E08D05E68022E05D05E68112E96
:100DC00002D05E68122E13D190684F000326BE40F9
:100DD000B0434F00DE68BE4030439060506801264B
:100DE0008E40B0431E79C6F300168E4030435060EB
:100DF000D0684F000326BE40B0434F009E68BE40FF
:100E00003043D0605E6806F08056B6F1805F7CD1DA
:100E100000BF002600963F4E366846F480463D4FA0
:100E20003E603E46366806F48046009600BF3A4E65
:100E30008F0856F827008E07370F0F26BE40B043A5
:100E4000364EB24202D1002624E05EE0344EB24279
:100E500001D101261EE0334EB24201D1022619E033
:100E6000314EB24201D1032614E0304EB24201D1DC
:100E700004260FE02E4EB24201D105260AE02D4E87
:100E8000B24201D1062605E02B4EB24201D107261F
:100E900000E008268F073F0FBE4030431E4E8F08EC
:100EA00046F82700254E3068A0435E6806F4803679
:100EB000B6F5803F00D12043204E3060361D3068AB
:100EC000A0435E6806F40036B6F5003F00D120432B
:100ED0001A4E361D3060361D3068A0435E6806F439
:100EE0008016B6F5801F00D12043144E08363060BE
:100EF000361D3068A0435E6806F40016B6F5001F84
:100F000000D120430D4E0C363060491C1029FFF4EF
:100F100021AFF8BD443802400838014000000240CB
:100F20000004024000080240000C02400010024091
:100F30000014024000180240001C0240003C014026
:100F40000AB1816101E00B048361704701480068C8
:100F5000704700000800002010B50446D4F8940241
:100F600001F0E5FC10BD10B50446D4F8940201F080
:100F7000F5FC10BD10B50446206802F0E9FB10BD79
:100F800010B50446206802F0E9FB10BD024601EBF3
:100F9000810302F1380000EBC30090F82400704791
:100FA000024601EB810302F1380000EBC300406907
:100FB000704770B504460D46002600BF94F89002B5
:100FC000012801D1022070BD012084F8900200BFE9
:100FD0002946206802F0D0FB00BF002084F8900270
:100FE00000BF3046EFE72DE9FE4F04460D4616469A
:100FF0001F46DDE90D9ADDF830804FF0000B00BF91
:1010000094F89002012802D10220BDE8FE8F012051
:1010100084F8900200BF05EB850104F1380000F868
:10102000317005EB850100EBC100A0F808A005EBCD
:10103000850104F1380000EBC100457005EB850126
:1010400004F1380000EBC10080F8079006F07F0142
:1010500005EB850204F1380000EBC2008170C6F395
:10106000C01105EB850204F1380000EBC200C1702D
:1010700005EB850104F1380000EBC10080F8048025
:101080008DE800073B4632462946206802F018FCEE
:10109000834600BF002084F8900200BF5846B4E7A2
:1010A00070472DE9F05F04460D4616461F46DDE900
:1010B0000BB9DDF834A0DDF8288005EB850104F1DB
:1010C000380000EBC100C67005EB850104F1380063
:1010D00000EBC100C771B8F1000F08D1032105EB87
:1010E000850204F1380000EBC200817207E00221A2
:1010F00005EB850204F1380000EBC200817237B1C4
:10110000012F7DD0022F3DD0032F3AD182E0B8F1DC
:10111000010F36D1AEBBB9F1000F07D1012105EBAC
:10112000850204F1380000EBC200417605EB850131
:1011300004F1380000EBC100407E40B9002105EB0E
:10114000850204F1380000EBC200817207E0022141
:1011500005EB850204F1380000EBC200817205EB5B
:10116000850104F1380000EBC10090F8240002284A
:1011700007D005EB850104F1380000EBC10080F8D1
:1011800005A085E05EBB05EB850104F1380000EBAE
:10119000C100407E40B9002105EB850204F1380012
:1011A00000EBC200817207E0022105EB850204F129
:1011B000380000EBC200817205EB850104F13800B4
:1011C00000EBC10090F82400022822D005EB850135
:1011D00004F1380000EBC10080F805A019E005EB30
:1011E000850104F1380000EBC100007E48B9002100
:1011F00005EB850204F1380000EBC200817208E0C3
:101200003DE0022105EB850204F1380000EBC2004D
:1012100081723DE0CEB905EB850104F1380000EBA9
:10122000C100407E40B9002105EB850204F1380081
:1012300000EBC200817221E0022105EB850204F17E
:10124000380000EBC200817218E005EB850104F163
:10125000380000EBC100007E40B9002105EB85029B
:1012600004F1380000EBC200817207E0022105EBB7
:10127000850204F1380000EBC200817208E0002111
:1012800005EB850204F1380000EBC200817200BF5B
:1012900000BF05EB850104F1380000EBC100C0F888
:1012A0000CB005EB850104F1380000EBC100C0F87B
:1012B0001090002105EB850204F1380000EBC2001C
:1012C00080F8241005EB850204F1380000EBC20021
:1012D000416105EB850104F1380000EBC100457068
:1012E000002105EB850204F1380000EBC20080F814
:1012F0002510227C05EB850C04F1380303EBCC01AF
:10130000206802F0A7FBBDE8F09F2DE9F0410446FC
:10131000266800250027206802F029FA012871D1EB
:10132000206802F0F0FC08B9BDE8F081206802F006
:10133000EAFC00F40010B0F5001F03D14FF40010D8
:1013400021684861206802F0DEFC00F48010B0F5EE
:10135000801F03D14FF4801021684861206802F09B
:10136000D2FC00F08060B0F1806F03D14FF080605C
:1013700021684861206802F0C6FC00F002000228E3
:1013800001D121684861206802F0BDFC00F00050E6
:10139000B0F1005F10D1D6F8400420F02E00C6F85E
:1013A00040042046FFF7DFFD0121206802F08CFC9D
:1013B0004FF0005021684861206802F0A4FC00F062
:1013C0008070B0F1807F02D1204604F063F920687C
:1013D00002F099FC00F00800082805D1204600F032
:1013E0007BF8082021684861206802F08CFC00F03E
:1013F0000070B0F1007F23D1206802F025FB074682
:10140000002516E032E00120A840384080B106F502
:10141000A06000EB4510006800F4004020B1E9B284
:10142000204604F0A6F903E0E9B2204604F0FDFCF2
:101430006D1CA068A842E6D84FF000702168486192
:10144000206802F060FC00F0100010280ED1206827
:10145000806920F0100021688861204604F04EFF6A
:101460002068806940F010002168886100BF5BE758
:1014700010B58AB0044614B901200AB010BD03208B
:1014800084F89102204600F020F8206802F0E0F88D
:10149000282204F110016846FFF72AF894E80F00AB
:1014A00002F09EF80121206802F05CFC282204F181
:1014B00010016846FFF71CF894E80F0002F08EFB5D
:1014C000012084F891020020D7E7704710B5044648
:1014D000206802F02FFC10BD10B50446D4F8940229
:1014E00001F091FA10BD10B5044600BF94F89002C7
:1014F000012801D1022010BD012084F8900200BF14
:10150000206802F0EFF80121206802F0C9F800BF5E
:10151000002084F8900200BF00BFECE710B504463D
:1015200000BF94F89002012801D1022010BD0120D3
:1015300084F8900200BF206802F02CFC00BF00205D
:1015400084F8900200BF00BFF0E700000348006885
:1015500003490978084401490860704708000020E1
:101560001000002010B50D48006840F400700B49D1
:1015700008600846006840F480600860084600681B
:1015800040F480700860032000F0A6F8002000F00E
:1015900007F800F02BF8002010BD0000003C0240CE
:1015A00070B504460E4800784FF47A71B1FBF0F044
:1015B0000C490968B1FBF0F5284600F0D5FE08B1EA
:1015C000012070BD102C07D200222146501E00F0D1
:1015D00045F80548046001E00120F2E70020F0E74B
:1015E00010000020380000200C00002010B503205F
:1015F00000F072F8002211466FF00B0000F02EF898
:10160000002211466FF00A0000F028F8002211466F
:101610006FF0090000F022F800221146501F00F080
:101620001DF800221146101F00F018F80022114684
:10163000901E00F013F800221146501E00F00EF824
:1016400010BD00BF00F01F0201219140420992002D
:1016500002F1E022C2F8001100BF70472DE9F05FEF
:1016600080460D461646002705F052F807463946D3
:101670002A46334601F00700C0F1070ABAF1040F09
:1016800002D94FF0040A01E0C0F1070AD14600F187
:10169000040ABAF1070F02D24FF0000A01E0A0F1EC
:1016A000030AD4464FF0010A0AFA09FAAAF1010A1C
:1016B0000AEA020A0AFA0CFA4FF0010B0BFA0CFBC9
:1016C000ABF1010B0BEA030B4AEA0B04214640463F
:1016D00003F0E0FABDE8F09F00BF00F00702064B00
:1016E00019684FF6FF031940044B0B4343EA0221EC
:1016F000014B196000BF70470CED00E00000FA05D7
:1017000070B504460D460CB9012070BD58480068FC
:1017100000F00F00A84209D255490D700846006834
:1017200000F00F00A84201D00120EEE7207800F081
:10173000020002281DD1207800F00400042805D101
:101740004C48006840F4E0504A490860207800F0B6
:101750000800082805D14748006840F46040454922
:1017600008604448006820F0F000A168084341493F
:101770000860207800F00100A8B36068012807D154
:101780003C4808380068C0F34040B8B90120BCE7C5
:101790006068022802D06068032807D135480838FD
:1017A0000068C0F3406048B90120AEE7314808380E
:1017B0000068C0F3400008B90120A6E72D48006882
:1017C00020F00300616808432A490860FFF7BEFB68
:1017D000064609E0FFF7BAFB801B41F288318842D8
:1017E00002D9032091E707E02248006800F00C00CE
:1017F0006168B0EB810FEDD11D48006800F00F006B
:10180000A84209D91A490D700846006800F00F0077
:10181000A84201D0012078E7207800F004000428D5
:1018200007D11448006820F4E050E16808431149EA
:101830000860207800F00800082808D10D480068EA
:1018400020F46040216940EAC1000A49086000F0C4
:101850001DF808490968C1F30311074A515CC840E3
:10186000064908600020FFF79BFE00204DE70000BE
:10187000003C0240083802401E9200083800002058
:101880000148006870470000380000202DE9F0474B
:10189000002400250026A1462548006800F00C0021
:1018A00020B1042805D008283AD105E0DFF884905B
:1018B00039E0DFF8849036E01D48001F006800F032
:1018C0003F041B48001F006800F4800078B11A48EC
:1018D0001749091F0968C1F38811A0FB017001466F
:1018E000224600233846FEF71BFD05460EE0114850
:1018F0000F49091F0968C1F38811A0FB0170014657
:10190000224600233846FEF70BFD05460848001F17
:101910000068C0F30140401C4600B5FBF6F902E048
:10192000DFF8109000BF00BF4846BDE8F087000018
:10193000083802400024F40040787D01F8B50446E0
:101940000CB90120F8BD207800F00100002874D007
:10195000F948006800F00C0004280DD0F648006833
:1019600000F00C00082813D1F348001F006800F4B1
:101970008000B0F5800F0BD1EF4808380068C0F345
:101980004040002859D06068002856D10120D9E78E
:1019900000BF6068B0F5803F08D1E74808380068AC
:1019A00040F48030E449083908601EE06068B0F512
:1019B000A02F0DD1E0480838006840F48020DE49AF
:1019C000083908600846006840F4803008600CE080
:1019D000D9480838006820F48030D74908390860B1
:1019E0000846006820F48020086000BF606890B15D
:1019F000FFF7ACFA054606E0FFF7A8FA401B64289B
:101A000001D903209EE7CC4808380068C0F3404065
:101A10000028F1D011E0FFF799FA054606E0FFF73C
:101A200095FA401B642801D903208BE7C248083887
:101A30000068C0F340400028F1D1207800F0020097
:101A400002285FD1BC48006800F00C0058B1BA48C9
:101A5000006800F00C0008281CD1B748001F00687F
:101A600000F48000B0B9B44808380068C0F3400002
:101A700020B1E068012801D0012063E7AE480838B2
:101A8000006820F0F800216940EAC100AA4908393D
:101A9000086037E0E06800B30120A8490860FFF75C
:101AA00055FA054606E0FFF751FA401B022801D916
:101AB000032047E7A04808380068C0F3400000282A
:101AC000F1D09D480838006820F0F800216940EA0C
:101AD000C10099490839086014E00020974908605E
:101AE000FFF734FA054606E0FFF730FA401B0228FC
:101AF00001D9032026E7904808380068C0F3400069
:101B00000028F1D1207800F0080008282CD1606965
:101B1000A8B101208A490860FFF718FA054606E0D7
:101B2000FFF714FA401B022801D903200AE7824874
:101B30006C300068C0F340000028F1D014E00020B1
:101B40007F490860FFF702FA054606E0FFF7FEF955
:101B5000401B022801D90320F4E677486C30006866
:101B6000C0F340000028F1D1207800F004000428E0
:101B70006FD1002670483830006800F0805088B976
:101B800000BF002000906C483830006840F0805062
:101B90006949383108600846006800F080500090BC
:101BA00000BF01266748006800F48070B0B965483E
:101BB000006840F4807063490860FFF7C7F9054684
:101BC00006E0FFF7C3F9401B022801D90320B9E65C
:101BD0005C48006800F480700028F2D000BFA06864
:101BE000012808D154486830006840F0010052498B
:101BF000683108601DE0A06805280DD14E486830A6
:101C0000006840F004004C496831086008460068EC
:101C100040F0010008600CE047486830006820F0A0
:101C200001004549683108600846006820F004005A
:101C3000086000BFA068A8B1FFF788F9054609E071
:101C4000FFF784F9401B41F28831884202D9032012
:101C500078E626E0384868300068C0F34000002885
:101C6000EED013E0FFF772F9054608E0FFF76EF9D2
:101C7000401B41F28831884201D9032062E62E4898
:101C800068300068C0F340000028EFD1012E07D172
:101C900029483830006820F08050274938310860E2
:101CA00000BFA069B8B32448006800F00C00082801
:101CB0005FD0A069022847D1002020490866FFF7BD
:101CC00045F9054606E0FFF741F9401B022801D916
:101CD000032037E6184808380068C0F34060002841
:101CE000F1D1D4E907010843616A40EA8111012278
:101CF000A06AC2EB500041EA00412C20005D41EA9D
:101D000000600D49091F086001200C490866FFF7B3
:101D10001DF9054607E02EE0FFF718F9401B0228E1
:101D200001D903200EE6044808380068C0F340607B
:101D30000028F1D01FE000000838024000004742B0
:101D4000800E47420070004000200C490866FFF7F3
:101D5000FDF8054606E0FFF7F9F8401B022801D917
:101D60000320EFE506480068C0F340600028F2D188
:101D700001E00120E6E50020E4E500000000474224
:101D80000038024010B504460CB9012010BD606A4D
:101D900000B900BF0021A16294F8510028B90020C9
:101DA00084F85000204600F033F8022084F85100F7
:101DB0002068006820F0400021680860D4E9010133
:101DC0000843E16808432169084361690843218B9E
:101DD00001F400710843E1690843216A0843A16ADC
:101DE0000843216808600421A06901EA1040616A83
:101DF0000843216848602068C06920F400602168B9
:101E0000C86100206065012084F851000020BDE712
:101E100070472DE9F84304460D4617461E464FF01D
:101E20000008C1466068B0F5827F0DD1A06858B93E
:101E3000042084F851003B462A4629462046009655
:101E400000F06FF9BDE8F88300BF94F85000012856
:101E500001D10220F6E7012084F8500000BFFFF70F
:101E600075F8804694F85100012802D04FF002091D
:101E70007BE005B117B94FF0010976E0042084F842
:101E8000510000206065A563A787E7872063A086CF
:101E9000E08620646064A068B0F5004F05D120683A
:101EA000006820F48040216808602068006800F025
:101EB0004000402805D02068006840F040002168BC
:101EC0000860E068E8B918E02068806800F0010068
:101ED00038B12068007B28706D1CE08F401EE087C1
:101EE0000BE03EB1701C40B1FFF730F8A0EB0800EA
:101EF000B04202D34FF0030937E0E08F0028E3D16E
:101F00001CE018E02068806800F0010038B120680B
:101F1000C0682880AD1CE08F401EE0870BE03EB11A
:101F2000701C40B1FFF712F8A0EB0800B04202D3DA
:101F30004FF0030919E0E08F0028E3D16068B0F5A5
:101F4000827F0DD1A068B0F5004F03D0A068B0F536
:101F5000806F05D12068006820F04000216808608B
:101F6000606D08B14FF0010900BF012084F85100F5
:101F700000BF002084F8500000BF484662E72DE90A
:101F8000F84304460D4617461E464FF00008C1466A
:101F900000BF94F85000012802D10220BDE8F88368
:101FA000012084F8500000BFFEF7D0FF804694F86F
:101FB0005100012802D04FF00209A8E005B117B97D
:101FC0004FF00109A3E0032084F851000020606570
:101FD0002563A786E786A063A087E0876064206406
:101FE000A068B0F5004F05D12068006840F480403B
:101FF000216808602068006800F04000402805D093
:102000002068006840F0400021680860E068B0F592
:10201000006F2AD1606810B1E08E012806D12888AF
:102020002168C860AD1CE08E401EE08619E0206883
:10203000806800F00200022807D128882168C86063
:10204000AD1CE08E401EE0860BE03EB1701C40B13E
:10205000FEF77CFFA0EB0800B04202D34FF003096B
:1020600055E0E08E0028E2D129E0606810B1E08EF2
:10207000012806D12878216808736D1CE08E401E67
:10208000E08619E02068806800F00200022807D18D
:102090002878216808736D1CE08E401EE0860BE0F6
:1020A0003EB1701C40B1FEF751FFA0EB0800B042FA
:1020B00002D34FF003092AE0E08E0028E2D1334634
:1020C000012202212046CDF8008004F087FB10B1E8
:1020D0004FF003091BE042463146204603F068F802
:1020E00020B14FF001092020606510E0A06848B9D8
:1020F00000BF002000902068C068009020688068C1
:10210000009000BF606D08B14FF0010900BF0120D1
:1021100084F8510000BF002084F8500000BF4846FA
:102120003CE72DE9FE4F04460D4616461F46DDF8F6
:1021300030804FF0000A0020029081464FF0010BE2
:10214000019000BF94F85000012802D10220BDE8A0
:10215000FE8F012084F8500000BFFEF7F7FE814695
:1021600094F851A060680290BAF1010F0BD0029868
:10217000B0F5827F04D1A06810B9BAF1040F02D083
:1021800002200190D1E00DB106B117B901200190F4
:10219000CBE094F85100012802D1052084F85100C9
:1021A00000206065A663E787A7872563E786A78683
:1021B000206460642068006800F04000402805D07A
:1021C0002068006840F0400021680860E068B0F5D1
:1021D000006F43D1606810B1E08E012806D12888D5
:1021E0002168C860AD1CE08E401EE0862FE0BBF188
:1021F000000F10D0E08E70B12068806800F00200FF
:10220000022808D128882168C860AD1CE08E401ED5
:10221000E0864FF0000BE08F68B12068806800F026
:10222000010040B12068C0683080B61CE08F401EBD
:10223000E0874FF0010B08F1010040B1FEF786FE88
:10224000A0EB0900404502D3032001906DE0E08E31
:102250000028CCD1E08F0028C9D142E0606810B1DD
:10226000E08E012806D12878216808736D1CE08E65
:10227000401EE0862FE0BBF1000F10D0E08E70B161
:102280002068806800F00200022808D115F8010BD0
:1022900021680873E08E401EE0864FF0000BE08F4F
:1022A00068B12068806800F0010040B12068C06813
:1022B00006F8010BE08F401EE0874FF0010B08F19C
:1022C000010040B1FEF742FEA0EB0900404502D3F9
:1022D0000320019029E0E08E0028CCD1E08F002877
:1022E000C9D14346012202212046CDF8009004F0D6
:1022F00075FA10B10320019017E04A464146204686
:1023000002F056FF20B101200190202060650CE012
:10231000A06848B900BF002000902068C068009005
:1023200020688068009000BF00BF012084F8510041
:1023300000BF002084F8500000BF019807E7042880
:1023400008D14FF0E021096941F004014FF0E0228B
:10235000116107E04FF0E021096921F004014FF01D
:10236000E02211617047704770B504462546681E2B
:10237000B0F1807F01D301200FE0681E4FF0E02113
:1023800048610F214FF0FF3002F084FC00204FF035
:10239000E021886107200861002070BD10B5FFF7BB
:1023A000E2FF10BD10B504460CB9012010BD94F831
:1023B000390028B9002084F83800204600F00CF8D5
:1023C000022084F83900211D206800F08BF80120DC
:1023D00084F839000020E9E7704701460868C068C2
:1023E00040F001000A68D0600868006840F0010011
:1023F0000A6810600020704701460868C06820F035
:1024000001000A68D06000BF0868006A41F211123A
:10241000104050B90868006A9210104028B9086846
:10242000006820F001000A68106000BF00207047BB
:1024300000BFFEE700BFFEE7704710B505F076FC71
:1024400010BD7047704710B5FFF780F8FFF7A6FF83
:1024500010BD00001448006840F470001249086084
:102460001248006840F001001049086000200F4940
:10247000083108600D4800680D4908400B490860A4
:102480000C48091D0860081F006820F48020091FFF
:102490000860002005490C3108604FF000600249D7
:1024A000803908607047000088ED00E00038024085
:1024B000FFFFF6FE1030002410B50948006800F058
:1024C000010058B10648001F006800F0010028B163
:1024D0006FF001000249086005F054FB10BD0000D8
:1024E00010040040002202682C4B98420ED0B0F13C
:1024F000804F0BD02A4B984208D02A4B984205D0E7
:10250000294B984202D0294B984201D1012300E087
:1025100000231BB122F070024B681A431F4B9842F4
:1025200020D0B0F1804F1DD01D4B98421AD01D4BCA
:10253000984217D01C4B984214D01C4B984211D093
:102540001B4B98420ED01B4B98420BD01A4B984213
:1025500008D01A4B984205D0194B984202D0194B1B
:10256000984201D1012300E000231BB122F4407204
:10257000CB681A4302608B68C3620B688362074BA7
:10258000984202D0094B984201D1012300E0002378
:102590000BB10B69036301234361704700000140E5
:1025A0000004004000080040000C0040000401400E
:1025B0000040014000440140004801400018004034
:1025C000001C00400020004070B506460D46304615
:1025D00002F07AFB04464FF6FF70844205D045F4C2
:1025E000004106F51F7040F82410E0B270BD2DE9DF
:1025F000FF4107460C4615461E46002001210223D6
:102600000A468DE8320003903146384600F048FA19
:10261000002004B0BDE8F0812DE9FF4104460D46DD
:1026200017461E46DDF8288094F81D0208B14FF0C9
:10263000000801200223002231468DE8A101204636
:1026400000F02EFA002004B0BDE8F08170B5044619
:102650000D462946204600F060F9002070BD70B597
:1026600004460D46A078012807D1022121740121DA
:10267000617400216182A582E18200221146204618
:1026800000F016F870BD2DE9FF4107460C461546CF
:102690001E460020012103460A468DE832000390C1
:1026A0003146384600F0FCF9002004B0BDE8F08166
:1026B0002DE9F04104460E4617460125A078012871
:1026C00002D0022819D107E0A660A7810121217656
:1026D0000220A070012511E0204602F0B1FE05465F
:1026E0002DB90120A07000212176002504E0022DE3
:1026F00002D10120A07000BF00E000BF00BF28464B
:10270000BDE8F0812DE9FF4104460D4617461E46FF
:10271000DDF8288094F81D0208B14FF00008012070
:1027200000231A4631468DE8A101204600F0B8F991
:10273000002004B0BDE8F0817FB506460C46154682
:1027400000200821CDE9000403460246CDE902102D
:102750002946304600F0A4F9002004B070BD10B541
:102760000446204602F0D1FDD4F8C00230B100206A
:10277000D4F87412C861204600F08AF9002010BD18
:1027800010B50446204605F027FC10BDF0B50646FE
:102790000C4615460022002106F232271AE002EB11
:1027A000820000EBC20C07F10A0000EB4C014879F3
:1027B000A04201D0FF2C0BD18879A84201D0FF2D77
:1027C00006D1C879984201D0FF2B01D1D0B2F0BD1B
:1027D000501C42B2022AE2DBFF20F8E702460B2936
:1027E00009DA02F51F7030F82100C0F30E0302F57C
:1027F0001F7040F82130002070472DE9F041044659
:102800000E4615461F46DDF81880A078012812D123
:1028100046F08001217406216174658205F47F40D1
:10282000B0F5407F03D140F20941A18201E00021CF
:10283000A182A4F81680424639462046FFF738FFA9
:10284000BDE8F08110B502460B88147823440B8054
:102850001378981810BDF8B504460D4604F11C060F
:1028600033464FF40072002120460095FFF7C5FF64
:10287000071E05D12A46314604F2322002F0ACFC94
:102880003846F8BDF8B504460D4604F11C034FF474
:102890008072002120460095FFF7AFFF061E06D18B
:1028A0002A4604F11C0104F5087002F002FD3046CE
:1028B000F8BD2DE9F84304460E4617461D4646F47A
:1028C000407204F11C03002120460095FFF795FF9C
:1028D000B0F1000805D12A46394604F11C0003F086
:1028E00089FA4046BDE8F88370B504460D461646A1
:1028F0000CB9022070BD84F8BC620020C4F87402D8
:10290000C4F87802204602F000FD0DB1C4F8C452AC
:10291000204600F083F80020ECE770B504460D4631
:102920002946D4F8C002FEF744FB002070BD10B564
:102930000446207858B9012184F81E12D4F8C40244
:1029400050B104212046D4F8C422904704E02078F6
:10295000012801D102202070002010BD10B50446CE
:10296000204600F095F821792046FFF737FF61797E
:102970002046FFF733FF002184F81E12D4F8C4026A
:1029800020B105212046D4F8C4229047204600F00B
:1029900077F803202070002010BD70B504460D4666
:1029A000C82005F019FB002070BD70B504460D4627
:1029B0002946D4F8C002FEF7F3FA70BD70B504469C
:1029C0000125D4F8C002FEF7DBFA20B1012804D0BB
:1029D000022805D102E0002502E001E0022500BF47
:1029E00000BF284670BD70B505460C46204605F070
:1029F000CDF970BD70B504460D462946D4F8C00225
:102A0000FEF7C4FA70BD10B50446D4F8B802401CF5
:102A1000C4F8B802204602F04DF810BD10B50446C7
:102A2000204605F08BF9C0B210BD2DE9FE4F0446DB
:102A30000D4616461F46DDE90D9ADDF830808DE81B
:102A400000073B4632462946D4F8C002FEF7CBFACF
:102A50000020BDE8FE8F10B50446D4F8C002FEF792
:102A600035FD002010BDC0F8B812704770B506469D
:102A70000C4615462946204605F0A2F9C0B270BDA5
:102A800010B50446D4F8C002FEF72DFD002010BD9D
:102A900010B50446D4F8C002FEF740FD002010BD7A
:102AA0002DE9FF5F04460D4616461F46DDE910ABD3
:102AB000DDE90E898DE8000F3B4632462946D4F801
:102AC000C002FEF7EEFA002004B0BDE8F09F00005F
:102AD0000246D2F87402C169054B4B65054B8B6504
:102AE000012381F8503081F85230002070470000F7
:102AF00055534243504030202DE9F84F0746884651
:102B00004FF001090126B2460025D7F87402C469C6
:102B1000AB4694F850000C2874D2DFE800F073063E
:102B2000153C477481B5C0DFF2F084F86180022162
:102B300084F850100120009063791F2204F15401A1
:102B40003846FFF769FD0AE161793846FFF752FF21
:102B50000546012D13D1E06D68B194F8600000F0D6
:102B60008000802803D1032184F8501012E0052151
:102B700084F850100EE0072184F850100AE0022D6E
:102B800003D1012184F8501004E0052D02D10A215F
:102B900084F85010E3E0237962898C20015938468B
:102BA000FFF725FD042184F85010D8E0217938463C
:102BB000FFF720FF0546012D1ED16189E06D884297
:102BC0000AD98C200059618901448C200151618906
:102BD000E06D411AE16501E00021E165E06D38B189
:102BE000237962898C2001593846FFF700FD08E0FF
:102BF000072184F8501004E0052D02D1092184F842
:102C00005010ACE0AAE001200090637922898C206A
:102C100001593846FFF700FD062184F850109EE068
:102C200061793846FFF7E6FE0546012D20D121895E
:102C3000E06D88420AD98C200059218901448C20FA
:102C400001512189E06D411AE16501E00021E16552
:102C5000E06D48B101200090637922898C200159F0
:102C60003846FFF7D9FC0EE0072184F850100AE03F
:102C7000022D03D1052184F8501004E0052D02D166
:102C80000A2184F850106AE023790D2204F17801BA
:102C90003846FFF7ACFC082184F850105FE021793A
:102CA0003846FFF7A7FE0546012D11D1012184F812
:102CB000501084F85210384602F0C0FC8246BAF137
:102CC000000F02D14FF0000907E04FF0020904E0C5
:102CD000052D02D1092184F8501040E00022414620
:102CE000384602F08CFC06461EB9072184F85010C5
:102CF00004E0042E02D10B2184F850102FE022E0D2
:102D0000FFE701224146384602F079FC0646A6B9A3
:102D100061793846FFF767FE8346CBF10100C2B206
:102D200061793846FFF7A2FE217900223846FFF785
:102D30009DFE092184F8501004E0042E02D10B21DD
:102D400084F850100BE0384600F01FF88146B9F1C6
:102D5000000F02D1012184F8501000E000BF00BF35
:102D60004846BDE8F88F70B504460D46A121217490
:102D7000FE21617400216182A1820121E182012290
:102D800029462046FFF794FC70BD10B5044621216A
:102D90002174FF21617400216182A182E1820022FD
:102DA00011462046FFF784FC10BD2DE9F041044692
:102DB0000D461646D4F87402C76920780A280ED149
:102DC00005EB850000EBC50207F1900000EB8201E6
:102DD00034223046FDF78CFB0020BDE8F081022054
:102DE000FBE72DE9F84F04460E4691469A460A9FA6
:102DF000D4F87402C56994F81E0260B120780A28DC
:102E000009D106EB860000EBC60105F1900010F831
:102E10002100012802D00220BDE8F88F0620287387
:102E2000062106EB860000EBC60205F1900000F8D3
:102E30002210A5F8FA6053464A46314620460097CC
:102E400000F096F8D4F8B8820FE0D4F8B802A0EBFE
:102E5000080142F210707843814202D894F81E02B1
:102E600018B9012028730220D6E73146204602F027
:102E700013FF0128E9D0012028730020CCE72DE9B9
:102E8000F04106460F4615464FF00208D6F8740288
:102E9000C46994F85200012802D0022863D12FE0BF
:102EA0002421E165802184F860100A2184F86210F1
:102EB000002104F10F00C4F86310C4F86710A4F8EF
:102EC0006B10122184F863107807010E84F86410E7
:102ED000002184F8651084F86610242184F86710B6
:102EE000002184F86810012184F85010022184F830
:102EF000521004F110008C2108514FF0010833E00A
:102F000039463046FFF7F8FD8046B8F1000F29D169
:102F100022212846FDF726FB8C200059007800F07E
:102F20001F0068708C2000590078401128708C2098
:102F300000594078C009A8708C2000598168C5F8F4
:102F40000310C068C5F807008C20005900F110017B
:102F5000102205F10C00FDF786FA8C200059006A5A
:102F6000C5F81D0000E000BF00BF4046BDE8F0818D
:102F70002DE9FF4105460F461E464FF00208D5F8E1
:102F80007402C46994F85200012802D002283AD190
:102F900033E00A984102E165802184F860100A213B
:102FA00084F86210102104F16300FDF7DBFA282198
:102FB00084F863109DF80B1084F865109DF80A10D2
:102FC00084F866109DF8091084F867109DF80810C1
:102FD00084F868109DF8291084F86A109DF828106C
:102FE00084F86B10012184F85010022184F85210EB
:102FF0008C2006514FF0010806E039462846FFF7BD
:103000007BFD804600E000BF00BF404604B0BDE845
:10301000F0812DE9F0410646884615460127D6F88D
:103020007402C46994F85200012802D002283FD1EA
:103030001BE00821E165802184F860100A2184F8F2
:103040006210102104F16300FDF78CFA252184F849
:103050006310012184F85010022184F8521004F109
:1030600010008C210851012723E041463046FFF72C
:1030700043FD0746DFB98C200059C1788C200059E8
:10308000807841EA00218C200059407841EA0041D3
:103090008C200059007841EA006028608C2000599B
:1030A000C1798C200059807941EA0020A88000E095
:1030B00000BF00BF3846BDE8F0812DE9F04106466B
:1030C0000F4615464FF00208D6F87402C46994F80A
:1030D0005200012802D0022843D12BE00E21E165E5
:1030E000802184F860100A2184F86210102104F114
:1030F0006300FDF737FA032184F863107807010EA7
:1031000084F86410002184F8651084F866100E219C
:1031100084F86710002184F86810012184F85010A9
:10312000022184F8521004F110008C2108514FF054
:10313000010817E039463046FFF7DEFC8046B8F15B
:10314000000F0DD18C200059807800F00F002870FE
:103150008C200059007B68708C200059407BA8703F
:1031600000E000BF00BF4046BDE8F0812DE9F0411E
:1031700005460E460227D5F87402C46994F8520039
:10318000012802D002281DD116E00021E16584F853
:1031900060100A2184F86210102104F16300FDF729
:1031A000E1F9002184F86310012184F85010022114
:1031B00084F85210012706E031462846FFF79CFCB0
:1031C000074600E000BF00BF3846BDE8F0812DE9AA
:1031D000FF4105460F461E464FF00208D5F874021F
:1031E000C46994F85200012802D002283AD133E091
:1031F0000A984102E165002184F860100A2184F8F0
:103200006210102104F16300FDF7ACF92A2184F863
:1032100063109DF80B1084F865109DF80A1084F86F
:1032200066109DF8091084F867109DF8081084F85E
:1032300068109DF8291084F86A109DF8281084F809
:103240006B10012184F85010022184F852108C2058
:1032500006514FF0010806E039462846FFF74CFCBE
:10326000804600E000BF00BF404604B0BDE8F081EA
:1032700010B50246D2F87402C36910780A280DD13D
:1032800001EB810000EBC10403F1900000EB84002E
:10329000407808B9012010BD0020FCE70020FAE7C3
:1032A0002DE9F84F04460E4691469A460A9FD4F8F7
:1032B0007402C56994F81E0260B120780A2809D109
:1032C00006EB860000EBC60105F1900010F8210026
:1032D000012802D00220BDE8F88F072028730721BB
:1032E00006EB860000EBC60205F1900000F8221004
:1032F000A5F8FA6053464A46314620460097FFF744
:1033000066FFD4F8B8820FE0D4F8B802A0EB080149
:1033100042F210707843814202D894F81E0218B924
:10332000012028730220D6E73146204602F0B4FC83
:103330000128E9D0012028730020CCE72DE9FE4FB9
:1033400004460D4616461F46DDE90D9ADDF830802D
:103350003B463246294620468DE80007FFF765FBCD
:103360000020BDE8FE8F7FB50446022003900025B3
:1033700020780D2872D2DFE800F0071314B7C74495
:103380009C556069AEC7C60094F81E0238B1012092
:103390002070C820FFF7F4F92046FFF75CFBB4E08B
:1033A000B3E06420FFF7ECF92046FFF707FB84F851
:1033B0001D020520207000212046FFF705F96071ED
:1033C00080212046FFF700F92071A079002294F8AF
:1033D0001D12CDE90012029094F81C32217980224E
:1033E0002046FFF7ABFFA079002294F81D12CDE92B
:1033F0000012029094F81C3261792046FFF79EFF7C
:1034000083E0204601F07CFB58B9002184F81F12AC
:1034100094F83102012802D10820207001E0072031
:10342000207072E0D4F8C40230B101212046D4F8F3
:10343000C42290470820207067E094F83712204695
:1034400000F09BF808B9092020705EE0D4F87802FB
:1034500040B30020C4F87402002511E054E004F5E4
:103460001C7050F82500017994F84102814205D181
:1034700004F51C7050F82500C4F87402681CC5B22D
:10348000012DECDBD4F8740280B1D4F874028168A9
:103490002046884738B90620207003212046D4F8FA
:1034A000C422904704E00C20207001E00C20207022
:1034B0002BE0D4F8740258B1D4F8740201692046A4
:1034C000884703909DF80C0020B90A20207001E085
:1034D0000C20207019E0D4F8740220B1D4F87402E2
:1034E00041692046884710E0204601F00EFFD4F8DD
:1034F000740238B1D4F87402C168204688470020AD
:10350000C4F8740201E000BF00BF00BF002004B097
:1035100070BD10B50246002071B1D2F878324BB9B7
:10352000D2F87842631CC2F8783202F51C7343F873
:10353000241002E0022000E0022010BD024600201C
:1035400092F836328B4202DD82F81F1200E0022030
:10355000704770B504460D46A078012807D10021B8
:1035600021740521617465820021A182E18200221B
:1035700011462046FFF79CF870BD70B504460D4615
:10358000A078012807D10021217409216174658286
:103590000021A182E182002211462046FFF788F82F
:1035A00070BD10B504462046FFF76AFA0121204697
:1035B000FFF7F3F9002010BD10B504462046FFF7D1
:1035C00067FA00212046FFF7E8F921792046FFF746
:1035D00005F961792046FFF701F9002010BD0000D0
:1035E0000FB410B504460898012816D1A06B20F43A
:1035F0008030A063E06815490840E060E06820F48E
:103600004010E0600F98012803D1E06840F480107A
:10361000E060204601F028FA09E0E06840F0400050
:10362000E060204601F020FA4FF48030A063069855
:10363000012807D1A06840F00600A060A06840F013
:103640002000A060002010BC5DF814FBBFFFBDFF90
:103650000146886820F00100886000207047000063
:1036600030B50246012400230C4800EAC44040F073
:10367000004502F5A06000EB4110056102F5A06075
:1036800000EB4110036823F0804343F0004302F550
:10369000A06000EB41100360002030BD0000F81F67
:1036A00008B50246D2F840040090009820F02E00A1
:1036B0000090009800F4805030B9012904D100989E
:1036C00040F48050C2F84004009800F48050B0F5F7
:1036D000805F05D121B9009820F48050C2F84004E1
:1036E000002008BD0146886840F001008860002085
:1036F00070470000014600221020086100BF501CE6
:103700000246064B984201D903207047086900F031
:1037100010001028F3D00020F7E70000400D030050
:1037200010B502460023202040EA8110106100BF3E
:10373000581C0346054CA04201D9032010BD106956
:1037400000F020002028F3D00020F7E7400D030010
:1037500001464FF48160405880B2704708B5014679
:10376000D1F8400400900098C0F3414008BD0146E4
:10377000486900F00100704710B50246002302F5C9
:10378000A06000EB41100068C0F3814040B102F539
:10379000A06000EB41100068C0F38140022846D1D0
:1037A00002F5A06000EB4110006840F0804402F593
:1037B000A06000EB41100460D06A00F47F0048BBB9
:1037C00002F5A06000EB4110006820F0004402F513
:1037D000A06000EB4110046002F5A06000EB411016
:1037E000006840F0004402F5A06000EB4110046066
:1037F00000BF581C0346B0F57A7F00D909E002F5F6
:10380000A06000EB4110006800F00040B0F1004FF4
:10381000EFD053E002F5A06000EB4110006840F0EB
:10382000004402F5A06000EB4110046046E002F5A0
:10383000A06000EB4110006840F0804402F5A060F9
:1038400000EB411004604FF48260805880B248BBA6
:1038500002F5A06000EB4110006820F0004402F582
:10386000A06000EB4110046002F5A06000EB411085
:10387000006840F0004402F5A06000EB41100460D5
:1038800000BF581C0346B0F57A7F00D909E002F565
:10389000A06000EB4110006800F00040B0F1004F64
:1038A000EFD00BE002F5A06000EB4110006840F0A3
:1038B000004402F5A06000EB41100460002010BD40
:1038C0002DE9F0410446DDE90757069E4FF0FF3C25
:1038D00004F5A06000EB4110C0F808C035B1012D1F
:1038E00048D0022D03D0032D5DD12AE000BF40F265
:1038F0009D4C04F5A06000EB4110C0F80CC002F034
:10390000800068B104F5A06000EB4110C06840F48D
:10391000807C04F5A06000EB4110C0F80CC00FE003
:10392000B4F1A04F0CD004F5A06000EB4110C068CA
:1039300040F0600C04F5A06000EB4110C0F80CC032
:1039400031E040F29D6C04F5A06000EB4110C0F83E
:103950000CC002F0800060B104F5A06000EB4110E3
:10396000C06840F4807C04F5A06000EB4110C0F812
:103970000CC018E040F2252C04F5A06000EB4110CB
:10398000C0F80CC002F0800060B104F5A06000EB4C
:103990004110C06840F4C07C04F5A06000EB411009
:1039A000C0F80CC000BF00BF4FF4836000594FF057
:1039B000010C0CFA01FC40EA0C00C4F81804A069E0
:1039C00040F00070A0614FF0FE5000EA83504FF4C9
:1039D000F04C0CEAC22C40EA0C00C2F3C01C4FF4BD
:1039E000004808EACC3C40EA0C00022E02D14FF01D
:1039F000010C01E04FF0000C4FF4003808EA4C4C89
:103A000040EA0C004FF4402C0CEA854C40EA0C00D4
:103A1000C7F30A0C40EA0C0004F5A06C0CEB411C47
:103A2000CCF80000032D0CD104F5A06000EB411090
:103A3000006840F0005C04F5A06000EB4110C0F8A5
:103A400000C00020BDE8F081014640F2144040581B
:103A500080B270472DE9F84F05460C4616464FF0E8
:103A6000000BDA4600274FF48078B946B5F1A04F35
:103A70001CD02079D0B94EB96079012806D161787F
:103A80002846FFF7EDFD0020BDE8F88F012E0DD18F
:103A9000607805F5A06101EB4010C06820F060027D
:103AA000607801EB4010C26000206071206968B14D
:103AB000218920690844401EB0FBF1F087B24745D8
:103AC00005DD474620897843206100E00127E07842
:103AD00010B12089784320612069C0F312003E496B
:103AE00001EAC7410843A17A4FF0C04202EA41719E
:103AF0000843617805F5A06202EB4111086136B117
:103B0000607805F5A06101EB4010E26842614FF476
:103B10008160405900F0010080F0010B607805F5EC
:103B2000A06101EB4010006820F00052607801EBCA
:103B300040100260607801EB4010006840EA4B7270
:103B4000607801EB40100260607801EB4010D0F823
:103B5000009029F0804949F00049607801EB40105D
:103B6000C0F80090AEBBE07898BB206988B3E079DC
:103B700030B1012813D0022803D003281ED10DE054
:103B800000BF2069C01CC0F38F0AE86A80B25045AC
:103B900003D2A86940F02000A86110E000BF2069AE
:103BA000C01CC0F38F0A4FF48260405980B2504568
:103BB00003D2A86940F08060A86100E000BF00BFA8
:103BC00000200090208A83B262782846E16800F0E5
:103BD00038F9002058E700000000F81F0FB470B556
:103BE00004460020C4F8000EA06B20F48020A063DF
:103BF000A06B20F40020A063A06B40F40010A06331
:103C00000798032809D1B4F1A04F06D0D4F80004D6
:103C100040F00400C4F8000405E0D4F8000420F0EB
:103C20000400C4F8000410212046FFF779FD204667
:103C3000FFF760FD00250DE04FF0FF3104F5A060B7
:103C400000EB45108160002104F5A06000EB4510F9
:103C5000C1606D1C0698A842EED801212046FFF7EE
:103C60001FFDC820FCF794FF0020A061401E60618A
:103C7000B4F1A04F07D1802060620E48A0620E48C8
:103C8000C4F8000107E04FF4007060620B48A062C6
:103C90000B48C4F80001089818B9A06940F010005A
:103CA000A061A06907490843A061002070BC5DF8CD
:103CB00014FB000080006000E000400000020001F2
:103CC0000003E000080020A30246D2F8000420F020
:103CD0000300C2F80004D2F8000401F00303184303
:103CE000C2F80004012905D14BF6803340F20440AC
:103CF000835006E0022904D141F2707340F204407F
:103D00008350002070470146002048698A691040AE
:103D1000704730B503460024D01C850800BF05E07D
:103D20004FF48050C0580860641C091DAC42F7D3A2
:103D3000084630BD38B50446D4F8400400900098D9
:103D400020F02E000090009840F48070C4F84004E9
:103D50000A20FCF71DFF009820F48070C4F840048E
:103D6000002038BD70B504460D46E06820F0C04024
:103D7000E060012D04D1E06840F00050E06004E014
:103D80001DB9E06840F08040E0603220FCF700FFA1
:103D9000002070BDF0B5054600272846FFF758FC07
:103DA00010212846FFF7BCFC2846FFF7A3FC00249F
:103DB00011E005F5A06000EB4410066846F080466F
:103DC00026F0004626F4004605F5A06000EB4410FE
:103DD0000660601CC4B20F2CEBDD002423E005F567
:103DE000A06000EB4410066846F0804646F00046AE
:103DF00026F4004605F5A06000EB4410066000BF05
:103E0000781C0746B0F57A7F00D909E005F5A06077
:103E100000EB4410006800F00040B0F1004FEFD01C
:103E200000BF601CC4B20F2CD9DD4FF0FF3140F24F
:103E300014404151084668612846FFF753FC0020B2
:103E4000F0BDF0B50446059E002700257EB9D81CBC
:103E5000870800BF09E0D1F800C004F5805000EBEE
:103E60000230C0F800C06D1C091DBD42F3D3002014
:103E7000F0BD00BFFEE70000F0B58DB005460E4670
:103E80001446012736B1012E06D0022E0FD0032E84
:103E900025D118E0002724E06A4629461348006827
:103EA000FEF783FF10B901982060002719E06A46E9
:103EB00029460E480068FEF778FF18B9BDF80800DB
:103EC000206000270DE06A46294608480068FEF792
:103ED0006CFF18B9BDF808002060002701E0042736
:103EE00000BF00BF38460DB0F0BD0000E00000206C
:103EF0002DE9F0418EB004460D4617461E464FF0A0
:103F000001082B463A462146134800960068FFF701
:103F1000C7F910B94FF0000819E001AA21460E4870
:103F20000068FEF742FF9DF81100042809D02728F9
:103F300004D0282807D03A2808D103E04FF002081F
:103F400004E000BF00BF4FF0030800BF00BF4046C1
:103F50000EB0BDE8F0810000E00000200146002026
:103F60000BE0074A02EB001212688A4204D10022D9
:103F7000034B03EB00131A60401C0228F1D3704777
:103F8000F4000020F0B503460D461E68D86A021DF5
:103F9000680A7789B0FBF7F400BF02CA09B90020AC
:103FA000F0BD8C4200D202E0641A121DF5E700BF9A
:103FB00010682044F4E70246891E9069801E8842FA
:103FC00001D8002070475389D06A01FB0300F9E74C
:103FD0004FF0FF3100200AE0074A02EB001292681E
:103FE0008A4203D2044A02EB00129168401C112855
:103FF000F2D30846704700003401002070B5044633
:104000000125214603480068FFF732F900B1002579
:10401000284670BDE00000202DE9F34F83B08146B3
:10402000049800680190D9F80000D0F80CA0002096
:104030000546064600BF3046761C01990C5C202CD4
:1040400000DA2BE02F2C01D05C2C0AD100E0761C8A
:104050000198805D2F28FAD00198805D5C28F6D009
:104060001CE0FF2D03D3062005B0BDE8F08FE4B2BD
:104070000121204604F0F6FD04460CB90620F3E7C2
:10408000802C06DA21466AA002F022FC08B1062044
:10409000EAE728466D1C2AF81040CCE700BF0198DB
:1040A000811904980160202C01DA042000E000202E
:1040B000074608E0681E3AF81040202C02D02E2C4B
:1040C00000D002E06D1E002DF4D100BF00202AF8C0
:1040D00015000DB90620C7E70B22202109F12400A5
:1040E00002F02EFD002600E0761C3AF8160020288B
:1040F000FAD03AF816002E28F6D00EB147F0030792
:1041000000E06D1E25B1681E3AF810002E28F8D187
:104110004FF00008CDF808804FF0080B00BF304684
:10412000761C3AF8104004B954E0202C03D02E2C11
:1041300004D1AE4202D047F00307F0E70298584599
:1041400001D2AE4216D1BBF10B0F02D147F00307EB
:1041500040E0AE4201D047F00307AE4200D939E05B
:104160002E46082002904FF00B0B4FEA88604FEA72
:104170001068D4E7802C0BDB0021204604F072FD90
:1041800004461CB1A4F180002C490C5C47F00207E6
:1041900000BF24B121462AA002F09AFB18B15F2487
:1041A00047F003070FE0412C04DB5A2C02DC48F0F7
:1041B000020808E0612C06DB7A2C04DC48F00108D8
:1041C000A4F1200084B20298411C029109F124015B
:1041D0000C54A4E700BF99F82400E52802D105207B
:1041E00089F82400BBF1080F03D14FEA88604FEA39
:1041F000106808F00C000C2803D008F00300032816
:1042000001D147F0020707F0020058B908F0030097
:10421000012801D147F0100708F00C00042801D153
:1042200047F008072F2000F8097000201CE7000065
:10423000222A3A3C3E3F7C7F00000000C68D0008E9
:104240002B2C3B3D5B5D00002DE9F74F8AB0002130
:104250000B9801600A9800F095FB089008980028D8
:1042600003DA0B200DB0BDE8F08FB349089851F880
:1042700020400CB90C20F5E70B9804600C9800F076
:10428000FE000C90207878B1607804F0D7F8814671
:1042900009F0010040B90C9820B109F0040008B100
:1042A0000A20DFE70020DDE700202070089860701A
:1042B000607804F081F8814609F0010008B103201C
:1042C000D0E70C9820B109F0040008B10A20C9E732
:1042D00000273946204602F0BBFD0546022D01D0DD
:1042E0002EDA2DE0002614E04FF4DF7000EB06110B
:1042F00004F13400084409900998007920B1099824
:10430000083002F0CCFF00E0002002A941F82600AE
:10431000761C042EE8D3002606B1761E00BF02A844
:1043200050F8267027B13946204602F091FD00E092
:1043300003200546022D03DB701C06460428EED33D
:10434000042D01D101208DE7022D01DB0D2089E72D
:1043500004F13F0002F0CFFBB0F5007F01D00D204B
:1043600080E704F14A0002F0C6FB8046B8F1000F76
:1043700004D104F1580002F092FF8046C4F81C807A
:104380004420005DA070A078012804D0A078022805
:1043900001D00D2066E7A07808FB00F84120005D01
:1043A0006081608918B16089411E084008B10D2004
:1043B00058E704F1450002F09EFB2081207A00F0CE
:1043C0000F0008B10D204DE704F1470002F093FB08
:1043D0008246BAF1000F04D104F1540002F05FFFED
:1043E000824604F1420002F086FB0190019808B970
:1043F0000D2037E701984044218900EB1110079008
:104400000798824501D20D202CE70798AAEB0000FF
:104410006189B0FBF1FBBBF1000F01D10D2021E759
:1044200003254FF6F570834500D8022540F6F57058
:10443000834500D801250BF10200A0612762019895
:104440003844606207983844E062032D13D104F1C8
:104450005E0002F050FB08B10D2003E7208908B18F
:104460000D20FFE604F1600002F019FFA062A069D0
:104470008000069014E0208908B90D20F2E6606AF9
:104480004044A062022D02D1A069400007E0207ED6
:1044900000F00100A16901EB410100EB5100069021
:1044A000E169069800F2FF10B1EB502F01D20D2008
:1044B000D8E64FF0FF306061206180202071032D2D
:1044C0002CD104F1640002F016FB012826D1791CDE
:1044D000204600F0E5F808BB0020207104F23220ED
:1044E00002F009FB4AF65521884217D104F1340045
:1044F00002F0D5FE1149884210D104F5067002F091
:10450000CEFE0F49884209D104F5077002F0C7FEBC
:10451000606104F5087002F0C2FE20612570094850
:104520000088401C80B207490880E0802046FFF7E1
:1045300015FD002096E60000000000205252614167
:1045400072724161040000202DE9F34104462646C1
:10455000D6F8008002E00198401C01900198007894
:104560002F28F8D0019800785C28F4D00020B060A3
:1045700001980078202808D280212F2001550021A1
:10458000204602F0FBF905462CE000BF01A92046B9
:10459000FFF742FD054605B123E0204602F0F6FC98
:1045A00005462F20075D3DB1042D04D100BF07F063
:1045B000040000B9052514E007F0040000B110E084
:1045C000B07900F0100008B905250AE0A08AC0F310
:1045D000080208F134001118404602F04DFEB060A8
:1045E000D4E700BF2846BDE8FC8100002DE9FF4F5D
:1045F00083B0814690461D460B224846049902F03E
:1046000092FA052D18D92F4611E038F802BB002484
:104610000BE0584667F35F0007464FEA6B0B07F461
:10462000803008B11D484740641C102CF1D3B8F805
:1046300000000028E9D13D46072400BF05F00F0027
:1046400000F1300ABAF1390F03DD0AF1070000F07A
:10465000FF0A2046641E01A901F800A02D09002DC3
:10466000ECD17E200855002600E0761CA64203D23D
:1046700019F806002028F8D100BF082C04D22046E3
:10468000641C01A9085C00E020203146761C09F872
:104690000100082EF1D307B0BDE8F08F2110010012
:1046A00070B504460D460026206BA84210D0204667
:1046B00000F010F806465EB9607801232A4604F13E
:1046C000340103F0A3FE10B14FF0FF35012625633E
:1046D000304670BD2DE9F04104460027E078F8B17E
:1046E000256B607801232A4604F1340103F0B4FEFF
:1046F00008B1012714E00020E070606A281AE1691F
:1047000088420DD2A67809E0E0690544607801236B
:104710002A4604F1340103F09FFE761E022EF3D2E6
:104720003846BDE8F081000030B587B005460C463C
:10473000F3200A490860FCF7EBFA1422084902A8A2
:10474000FBF7D6FE049505940020019001A902A86C
:10475000FCF732FAFCF786FA07B030BD0C3C024099
:10476000389200082DE9F04782468946DAF8004081
:10477000B9F1000F06D1276917B1A069B84215D861
:10478000012713E04946504602F045F90646022E3D
:1047900002D20120BDE8F087701C08B93046F9E765
:1047A000A069B04201D93046F4E74F463D4600BF0C
:1047B0006D1CA069A84204D80225BD4201D9002081
:1047C000E8E72946504602F026F9064606B909E010
:1047D000012E01D0701C08B93046DBE7BD42E7D19D
:1047E0000020D7E700BF4FF0FF322946204602F0F5
:1047F000B0F98046B8F1000F08D1B9F1000F05D02B
:104800002A464946204602F0A4F98046B8F1000F36
:104810000DD12561D4E90510801E814202D860695E
:10482000401E6061207940F00100207107E0B8F17E
:10483000010F02D14FF0FF3000E00120054628466D
:10484000A8E72DE9FE4F044626682F20005D00F002
:10485000A00010B10620BDE8FE8F4FF0000901E076
:1048600009F10109F06830F819000028F8D10C228C
:1048700004F12401684602F056F99DF80B0000F09F
:10488000010028B340212F2001554FF001080EE010
:104890004346694604F12400F268FFF7A7FE20466C
:1048A00002F074FB054605B104E008F10108B8F117
:1048B000640FEDD300BFB8F1640F01D10720CAE740
:1048C000042D01D02846C6E79DF80B102F20015576
:1048D0009DF80B0000F0020030B109F10C000D2131
:1048E000B0FBF1F0401C00E00120074639462046AD
:1048F00002F04EFD05464DBB781E071E26D06069AE
:10490000A0EB4711204602F039F80546F5B904F14D
:10491000240002F001FA824600BF3046E169FFF749
:10492000BFFE054605B110E0FAB2216A5346F068B1
:1049300002F0ACF90120F0700021204602F0A4FB47
:10494000054615B9781E071EE7D100BFC5B9304628
:10495000E169FFF7A5FE054695B920220021206AEE
:1049600002F0EEF80B2204F12401206A02F0DBF8D9
:104970002F20005D00F01800216A08730120F070FC
:10498000284668E770B502464FF0FF301568DDB184
:10499000116800E0491C0D78202D02D30D783A2DC6
:1049A000F8D10D783A2D0ED1146814F8015BA5F1F9
:1049B00030030A2B06D28C4204D11BB918464D1C79
:1049C0002946156070BD002000BFFBE72DE9F047C8
:1049D00081460E4617464FF00008D9F80040022ED7
:1049E00002D3A069B04202D80220BDE8F08767B1C7
:1049F00000BF4FF0FF323946204602F0AAF8804649
:104A0000B8F1000F01D04046EFE700BF31464846FD
:104A100002F001F8054605B922E0012D01D102207E
:104A2000E3E7681C08B90120DFE700223146204691
:104A300002F08FF88046B8F1000F01D04046D4E76D
:104A4000D4E90510801E814206D26069401C606175
:104A5000207940F0010020712E46A069B042D5D8DF
:104A600000BF0020C1E700000146002200BF501C2B
:104A700002460F4B984201D903207047086900F0A5
:104A800000400028F3D00022086940F001000861CE
:104A900000BF501C0246064B984201D90320ECE7A8
:104AA000086900F001000028F3D100BFE5E700002D
:104AB000400D030010B5044620780A2807D1D4F829
:104AC000740220B1D4F8740281692046884710BD71
:104AD0000A4A126822F44072084B1A601A46126899
:104AE00042F004021A601A4612684FF4803343EA17
:104AF00000231A43014B1A6070470000103C02402B
:104B00003EB504460125607808287CD2DFE800F035
:104B1000042A325B636C7F9108212046FDF7B2FEC8
:104B2000F8B994F82712A17101206070A0790022D1
:104B300094F81D12CDE90012029094F81C322179EC
:104B400080222046FEF7FAFBA079002294F81D127D
:104B5000CDE90012029094F81C3261792046FEF7EC
:104B6000EDFB77E012212046FDF78CFE08B902200C
:104B700060706FE001212046FEF7EBFC10BB0220C5
:104B8000FDF7FEFD012184F81C1203206070A0795E
:104B9000002294F81D12CDE90012029094F81C3204
:104BA000217980222046FEF7C9FBA079002294F8E3
:104BB0001D12CDE90012029094F81C326179204652
:104BC000FEF7BCFB46E009212046FDF744FE08B98C
:104BD000042060703EE0B4F834122046FDF73BFE3E
:104BE00008B90520607035E094F82E0260B194F8A1
:104BF0002E12FF2304F11C022046FDF75AFE28B9AD
:104C00000620607002E024E00620607022E094F844
:104C10002F0258B194F82F12FF2304F11C022046F2
:104C2000FDF747FE20B90720607001E007206070A3
:104C300010E094F8300250B194F83012FF2304F1E0
:104C40001C022046FDF735FE10B9002500E00025C6
:104C500000E000BF00BF28463EBD0146002070476F
:104C6000024600EE102AF8EEC00A00EE101AB8EE66
:104C7000C01A80EE810AF7EE000A30EEC00ADFEDBE
:104C8000040A20EE200ABDEEC00A10EE100A70479A
:104C90000000C84210B5002807DA0A07140E054ABA
:104CA00000F00F031B1FD45403E00A07130E024A3F
:104CB000135410BD18ED00E000E400E00121014AAA
:104CC00011707047A00000200246002100BF0AE0DA
:104CD00002F51F7030F8210000F4004008B90846C2
:104CE0007047481CC1B20B29F2DB4FF6FF70F7E7A3
:104CF0002DE9F0410646D6F87402C4694FF0010868
:104D000001250127207B10B101287AD121E2B4F8D6
:104D1000F8002168884275D20121B4F8F80000EB50
:104D2000800202EBC00204F1900000EB82004170AF
:104D3000B4F8F80000EB800101EBC00104F1900031
:104D400010F8210009287DD2DFE800F0057C5DFE27
:104D500015FD7C7CFC000421B4F8F80000EB800217
:104D600002EBC00204F1900000F82210D6F8B8025D
:104D7000C4F8FC0000BFB4F8F80000EB800303EBBC
:104D8000C00304F1900000EB830000F10F0294F8DF
:104D9000F8103046FEF773F8054655B90221B4F80D
:104DA000F80000EB800202EBC00204F1900000F872
:104DB0002210022D0BD10521B4F8F80000EB80027F
:104DC00002EBC00204F1900000F8221018E0042D5C
:104DD00016D10121B4F8F80000EB800202EBC0020A
:104DE00004F1900000F822100221B4F8F80000EB62
:104DF000800202EBC00204F1900000EB82004170DF
:104E00009BE1A9E19AE194F8F8103046FEF7AEF97B
:104E10000746EFBBB4F8F80000EB800101EBC001DE
:104E200004F1900000EB8100807878B10121B4F8A2
:104E3000F80000EB800202EBC00204F1900000EBEE
:104E4000820000E078E180F831100CE00021B4F835
:104E5000F80000EB800202EBC00204F1900000EBCE
:104E6000820080F831100321B4F8F80000EB8002D2
:104E700002EBC00204F1900000F822100021B4F807
:104E8000F80000EB800202EBC00204F1900000E0A9
:104E90000DE000EB82004170B4F8F80000EB8002F6
:104EA00002EBC00204F1900000EB82008170022F3F
:104EB0004FD1B4F8F80000EB800101EBC00104F120
:104EC000900000EB8100807802280DD00121B4F819
:104ED000F80000EB800202EBC00204F1900000EB4E
:104EE000820080F831100CE00021B4F8F80000EBEB
:104EF000800202EBC00204F1900000EB820080F817
:104F000031100521B4F8F80000EB800202EBC0027A
:104F100004F1900000F822100121B4F8F80000EB31
:104F2000800202EBC00204F1900000EB82004170AD
:104F30000221B4F8F80000EB800202EBC00204F199
:104F4000900002E0F2E075E01DE000EB820081706D
:104F500018E0042F16D10121B4F8F80000EB80020C
:104F600002EBC00204F1900000F822100221B4F814
:104F7000F80000EB800202EBC00204F1900000EBAD
:104F800082004170D9E0B4F8F80000EB800303EB35
:104F9000C00304F1900000EB8300021D94F8F810A8
:104FA0003046FEF736F80546E5B90121B4F8F800B9
:104FB00000EB800202EBC00204F1900000F8221026
:104FC0000021B4F8F80000EB800202EBC00204F10B
:104FD000900000EB82004170B4F8F800401CA4F887
:104FE000F80026E0022D0BD10521B4F8F80000EB03
:104FF000800202EBC00204F1900000F8221018E0D9
:10500000042D16D10121B4F8F80000EB800202EB68
:10501000C00204F1900000F822100221B4F8F80058
:1050200000EB800202EBC00204F1900000EB820072
:10503000417082E0B4F8F80000EB800303EBC0039A
:1050400004F1900000EB830000F10C0294F8F810DA
:105050003046FEF732F80546EDBBB4F8F80000EB39
:10506000800101EBC00104F1900000EB8100007BA6
:1050700006280CD0B4F8F80000EB800101EBC00169
:1050800004F1900000EB8100007B022814D1D6F8D7
:10509000B802D4F8FC10401A42F2107188420BD2C8
:1050A0000221B4F8F80000EB800202EBC00204F128
:1050B000900000F8221040E00121B4F8F80000EB65
:1050C000800202EBC00204F1900000F82210B4F854
:1050D000F800401C00E001E0A4F8F800022D0BD11C
:1050E0000821B4F8F80000EB800202EBC00204F1E2
:1050F000900000F8221018E0042D16D10121B4F818
:10510000F80000EB800202EBC00204F1900000F80E
:1051100022100221B4F8F80000EB800202EBC0027A
:1051200004F1900000EB8200417006E0B4F8F80052
:10513000401CA4F8F80000E000BF09E00020A4F83B
:10514000F8000120207302213046D6F8C42290478F
:1051500003E04FF0000800E000BF00BF4046BDE89C
:10516000F0810A7802704A7842708A788270CA7830
:10517000C2700B794A7903EB022282808A798271AC
:105180007047000006290FD2DFE801F00E03040883
:10519000090A09E00122054B1A7005E004E003E06A
:1051A0000322024B1A7000BF00BF7047DD000020D1
:1051B000F8B504460D4616462B46002280212046AF
:1051C000009601F00BFB28B1606D40F02000606597
:1051D0000320F8BD0020FCE72DE9F84F04460E46F9
:1051E000934635464FF00008C14600BF3078207026
:1051F00070786070B178F07801EB002060803079D1
:10520000207170796071B079A071F079E071307AB5
:105210002072BBF1090F4ADD0920009000273EE013
:1052200069462846FDF70EFB05466878042836D106
:1052300008EB880000EBC80104F10A0000EB41070D
:105240002946384601F03BFA4FF00009CA461AE0F9
:1052500069462846FDF7F6FA05466878052812D112
:1052600008EB880000EBC80104F10A0000EB4100E4
:105270000A3000EBC90A29465046FFF772FF09F1D0
:1052800001004FFA80F93879484504DD6088BDF89F
:1052900000108842DCDC08F101004FFA80F8B8F118
:1052A000020F04DA6088BDF800108842B8DCBDE85F
:1052B000F88F10B50B7803704B7843708C78CB78EF
:1052C00004EB032343800B7903714B7943718B7992
:1052D0008371CB79C371082A16DD0C7A4B7A04EB03
:1052E000032303818C7ACB7A04EB032343810C7B69
:1052F0004B7B04EB032383818B7B8373CB7BC37357
:105300000B7C03744B7C437410BD0146002205E006
:10531000002301F51F7040F82230521C0F2AF7D3EA
:10532000002204E0002301F11C008354521CB2F55A
:10533000007FF7D30020087048700120887000209B
:10534000C1F8B80201230B7640238B7100234B7602
:1053500081F81C32012381F81D327047074A126818
:1053600022F44072054B1A601A4612681A601A46F7
:10537000126842F001021A6001707047103C02404E
:10538000084A126822F44072064B1A601A461268E4
:1053900042F400721A601A46126842F001021A6062
:1053A00001607047103C02402348006800F0100084
:1053B00040B12248C06940F010002049C861102067
:1053C0001D4908601C48006800F0200040B11B48DF
:1053D000C06940F008001949C861202016490860DA
:1053E0001548006800F0400040B11448C06940F022
:1053F00004001249C86140200F4908600E48006847
:1054000000F0800040B10D48C06940F002000B4937
:10541000C8618020084908600748006800F0020061
:1054200040B10648C06940F020000449C86102202C
:1054300001490860704700000C3C02401401002044
:10544000F8B5044601270025207E0C2872D2DFE83B
:1054500000F0D2060F303C4E5C788498A6BB62798F
:1054600004F110012046FDF767F902212176C3E01F
:1054700061792046FDF7BEFA0546012D14D1207C46
:1054800000F08006E08A38B1802E02D10321217617
:105490000EE0052121760BE0802E02D10921217634
:1054A00006E00721217603E0042D01D10B212176AE
:1054B000A2E0D4F8B802E0812379A2892046A1684D
:1054C000FDF7E1F80421217696E021792046FDF7E9
:1054D00091FA0546012D01D109212176052D01D131
:1054E000032703E0042D01D10B21217684E0012064
:1054F00000906379A2892046A168FDF703F9D4F8EA
:10550000B802E0810621217676E061792046FDF738
:1055100071FA0546012D02D10721217610E0052DF3
:1055200003D10C21217603270AE0022D03D10521A6
:10553000217605E05FE0042D02D10B2121760227C0
:105540005AE02379002211462046FDF79CF8D4F852
:10555000B802E081082121764EE021792046FDF74E
:1055600049FA0546012D03D10D212176002707E0D8
:10557000042D02D10B21217602E0052D00D1032755
:105580003AE0012000906379002211462046FDF7A1
:10559000B9F8D4F8B802E0810A2121762CE06179CB
:1055A0002046FDF727FA0546012D03D100270D21DE
:1055B000217608E0022D02D10921217603E0042D95
:1055C00001D10B21217617E0607E401CC1B26176CB
:1055D000022907DC2046FDF75BFA01212176012034
:1055E000A07007E006212046D4F8C422904700218D
:1055F0006176022700E000BF00BF3846F8BD2DE904
:10560000F0410446884615460227D4F87402C6695C
:1056100015B1012D0CD105E0F1792046FDF71FF8F9
:10562000074606E0B1792046FDF719F8074600E085
:1056300000BF00BF3846BDE8F081000070B50546E8
:10564000D5F87402C469012621792846FDF7ADF921
:105650000D2801D0022619E00D49A06F884214D10F
:10566000E16FA06D814211D194F8840008B9002641
:105670000CE094F88400012801D1012606E094F89A
:105680008400022802D1022600E00226304670BDC6
:10569000555342537CB504462568D5F84004019023
:1056A000D5F840040090009820F02E00009001985A
:1056B00000F00200022810D1019800F0010040B172
:1056C0002068806920F00050216888612046FBF73F
:1056D00043FC009840F002000090019800F00800A0
:1056E000082833D1009840F008000090019800F09D
:1056F000040004281ED1A06902280FD1019800F4EB
:10570000C020B0F5802F04D102212068FEF7DCFA1A
:105710000CE001212068FEF7D7FA07E0E0680328D3
:1057200004D14EF6602140F2044041512046FBF77F
:1057300013FC0BE0D5F8400420F02E00C5F840041F
:105740002068806940F0005021688861019800F06D
:105750002000202803D1009840F0200000900098FD
:10576000C5F840047CBD7047014600207047704773
:1057700070472DE9F04106460C463568002705F5CF
:10578000A06000EB4410806800F0040090B1042198
:1057900005F5A06000EB4410816005F5A06000EB0A
:1057A0004410C06840F0020105F5A06000EB441011
:1057B000C16069E005F5A06000EB4410806800F06E
:1057C000200030B1202105F5A06000EB441081607D
:1057D0005AE005F5A06000EB4410806800F0080076
:1057E00028B305F5A06000EB4410C06840F002014A
:1057F00005F5A06000EB4410C160052104EB8402B4
:1058000006F1380000EBC20080F82510102105F5E4
:10581000A06000EB44108160082105F5A06000EB5A
:105820004410816021463068FDF7A6FF2CE005F5A5
:10583000A06000EB4410806800F4806020B305F5A0
:10584000A06000EB4410C06840F0020105F5A060C4
:1058500000EB4410C16021463068FDF78DFF102138
:1058600005F5A06000EB44108160082104EB840280
:1058700006F1380000EBC20080F82510C90105F5DB
:10588000A06000EB4410816005F5A06000EB4410BF
:10589000806800F40070B8B105F5A06000EB44101A
:1058A000C06840F0020105F5A06000EB4410C16043
:1058B00021463068FDF760FF4FF4007105F5A060E8
:1058C00000EB44108160CBE105F5A06000EB4410D3
:1058D000806800F0010000287DD03069A8B104EB99
:1058E000840106F1380000EBC100016905F5A060F4
:1058F00000EB44100069C0F31200091A04EB8402A3
:1059000006F1380000EBC2004161012104EB840282
:1059100006F1380000EBC20080F82510002104EBEE
:10592000840206F1380000EBC2000162012105F596
:10593000A06000EB4410816004EB840106F13800A4
:1059400000EBC100C07940B104EB840106F13800DE
:1059500000EBC100C079022816D105F5A06000EB6C
:105960004410C06840F0020105F5A06000EB44104F
:10597000C16021463068FDF7FFFE102105F5A060EB
:1059800000EB441081602BE004EB840106F1380049
:1059900000EBC100C079032822D105F5A06000EB1F
:1059A0004410006840F0005105F5A06000EB441081
:1059B0000160012104EB840206F1380000EBC20013
:1059C00080F8241004EB840106F1380000EBC100DC
:1059D00090F8242000E014E021463046FBF760FBFD
:1059E00004EB840106F1380000EBC100007E80F07A
:1059F000010104EB840206F1380000EBC2000176DD
:105A00002EE105F5A06000EB4410806800F0020074
:105A1000002871D005F5A06000EB4410C06820F0AC
:105A2000020105F5A06000EB4410C16004EB8401A5
:105A300006F1380000EBC10090F82500012809D1DB
:105A4000012104EB840206F1380000EBC20080F86B
:105A5000241069E004EB840106F1380000EBC1007A
:105A600090F82500052809D1052104EB840206F1F0
:105A7000380000EBC20080F8241055E004EB8401EC
:105A800006F1380000EBC10090F82500062809D087
:105A900004EB840106F1380000EBC10090F825000A
:105AA000082841D104EB840106F1380000EBC10065
:105AB00004EB8401026A06F1380000EBC100006AC1
:105AC000401C04EB840306F1380101EBC3010862BA
:105AD000032A12D9002104EB840206F1380000EBFE
