:020000040800F2
:10000000A04F0020BD020008454C00083D4C0008F0
:10001000414C0008892000085361000800000000DE
:10002000000000000000000000000000494C000833
:100030008D20000800000000474C00084B4C0008D1
:10004000D7020008D7020008D7020008D70200082C
:10005000D7020008D7020008D7020008D70200081C
:10006000D7020008D7020008D7020008D70200080C
:10007000D7020008D7020008D7020008D7020008FC
:10008000D7020008D7020008A11F0008D702000805
:10009000C3600008D7020008D7020008D702000892
:1000A000D7020008D7020008D7020008D7020008CC
:1000B000D7020008AD4C0008D7020008D70200089C
:1000C000D7020008D7020008D7020008D7020008AC
:1000D000D7020008314D0008D7020008D7020008F7
:1000E000D7020008D7020008D702000800F002F883
:1000F00000F0BBF80AA090E8000C82448344AAF107
:100100000107DA4501D100F0B0F8AFF2090EBAE804
:100110000F0013F0010F18BFFB1A43F0010318473B
:1001200084F50000A4F500000A444FF0000C10F81C
:10013000013B13F0070408BF10F8014B1D1108BF65
:1001400010F8015B641E05D010F8016B641E01F805
:10015000016BF9D113F0080F1EBF10F8014BAD1C55
:100160000C1B09D16D1E58BF01F801CBFAD505E073
:1001700014F8016B01F8016B6D1EF9D59142D6D3CD
:10018000704700000023002400250026103A28BFF5
:1001900078C1FBD8520728BF30C148BF0B607047F9
:1001A0006E2900F02386702900F0418266290CF048
:1001B000FA8565290CF0F78567290CF0F48561292B
:1001C000AFF3008003681B0A28BF41F08001692952
:1001D00000F01C81642900F01981752900F0168156
:1001E0006F2900F0CE81782900F00D82E92901F015
:1001F0006B80E42901F06880F52901F06580EF2922
:1002000000F0CB81F82900F00C820368DB0928BFDD
:1002100041F08001632901F03480732901F03980B5
:10022000E32901F04480F32901F049800020704760
:100230001FB59DE8030001F019F900F0DCFA01F0A8
:10024000F5F80400002000210BF06EFC401C6060FB
:10025000002000210BF052FCE06000F0F7FC1FBD15
:1002600010B5002001F08EF810BD01F039FA1146EA
:10027000FFF7DEFF0BF03CFC01F071FA03B4FFF76F
:10028000EFFF03BC01F026FA0B49D1F800C04A6821
:100290005CF8043B1068184442F8040B8C4528BFF6
:1002A000A1F1DC0C8A4228BFA1F1DC02C1F800C038
:1002B0004A6020F0004070473847002009488047D6
:1002C00009480047FEE7FEE7FEE7FEE7FEE7FEE738
:1002D000FEE7FEE7FEE7FEE704480549054A064B50
:1002E00070470000554C0008ED000008A0470020B2
:1002F000A04F0020A04B0020A04B0020B2F1200313
:100300000AD5C2F1200320FA02F001FA03F321FA20
:1003100002F140EA0300704721FA03F04FF00001B8
:10032000704700001CB50C46064B7B4469460090A4
:10033000204600F084FF04460020694600F092FF4A
:1003400020461CBD370F000070B504468569006863
:10035000C10601D5302600E02026C00707D070BDB9
:10036000D4E9012130469047206A401C20626D1E6E
:10037000F6D570BD70B5044685690078C00707D111
:1003800070BDD4E9012120209047206A401C2062E2
:100390006D1EF6D570BD09684A0501D540B270479B
:1003A000C905FCD500B2704709684A0501D5C0B23D
:1003B0007047C905FCD580B2704770B50C4605463C
:1003C000012A05D02878800600D5EA69002302E0DA
:1003D000012305E05B1C934202D2E05C0028F9D1C6
:1003E000A869E618C01AA861286A18442862284635
:1003F000FFF7AAFF04E0D5E9012114F8010B9047AB
:10040000B442F8D32846FFF7B5FF70BD2DE9F0419F
:100410000646002410687529314616A510D0FFF74E
:10042000BAFF002802DA404213A507E031688A07C4
:1004300001D512A502E0490704D511A5012401E068
:10044000FFF7B2FF00210A2206F1240709E0B0FB02
:10045000F2FCB0FBF2F302FB1C003030785418467B
:10046000491C0028F3D123462A463046BDE8F04116
:1004700000F063BC000000002D0000002B00000015
:10048000200000002DE9FF5F15468A460446DFF88C
:10049000AC80F8440027D8E900103E46CDE90010B2
:1004A00010E03AF816106A4602A800F04BFF411C13
:1004B00007D02178890603D5E269391891420DD811
:1004C0000744761C2078800602D5E069B84205DD35
:1004D000AE42E6DB3AF816000028E2D1A069C01B64
:1004E000A0612046FFF730FFD8E90010CDE90010E9
:1004F000002017E03AF818106A4602A800F022FF20
:10050000B0F1FF3F81460BD000250DF1080B05E04F
:10051000D4E901211BF8050090476D1C4D45F7D328
:1005200008F10100B0428046E4DB206A38442062D2
:100530002046FFF71FFFBDE8FF9F00008EEF000081
:1005400030B4002100F1240408E002F00705D208CD
:10055000303542EA4372DB086554491C52EA030510
:10056000F3D10468002310A2250707D5A40600D400
:1005700021B1C46901230DA2641EC46130BC00F026
:10058000DCBB10B5044621461068FFF70DFF02469C
:100590002046BDE810400023D2E7D21D22F007011B
:1005A000D1E90023CCE7000000000000300000008B
:1005B000F0B40D460188090502D5214C7C4402E0C7
:1005C0001F4C7C440E34002100F1240608E002F0A8
:1005D0000F071209E75D42EA03721B097754491CB1
:1005E00052EA0307F3D102780023120704D5702DD5
:1005F00006D009B1022311342246F0BC00F09DBBA5
:1006000001231034F8E770B504460D462146106802
:10061000FFF7CAFE024629462046BDE87040002387
:10062000C6E7D21D22F00703D3E90023C0E7036821
:10063000126843F0200303600823C3610023B7E777
:100640006CEE00002DE9F05F894604464FF0000A89
:10065000DFF874B1FB44C0F820A02046E168884769
:10066000002874D0252806D0D4E901219047206ABB
:10067000401C2062F1E700265F462046E16888477B
:100680002028054607DB312D05D2781910F8200CFB
:1006900008B10643F1E7B00701D526F00406C4F817
:1006A0001CA00027C4F818A02A2D09D028460AF05B
:1006B000BDFF38B304EB8708303DC8F8185019E087
:1006C00059F8041B204604EB87029161E1688847D2
:1006D000012F054618D1E069002820DA26F020060F
:1006E0001DE0D8F8180000EB800005EB4000303822
:1006F000C8F818002046E168884705460AF096FFCA
:100700000028EED1012F0AD02E2D08D12046E16815
:1007100088477F1C0546022F46F02006C4DBA069EF
:10072000002803DA404246F00106A061F00701D03C
:1007300026F010066C2D0BD0682D09D04C2D39D029
:100740006A2D35D0742D35D07A2D33D016E038E0AF
:10075000E1682F4620468847B842054609D16C2FEC
:1007600026D04FF48060E16806432046884705465E
:1007700004E06C2F1AD04FF4807006430DB3A5F13E
:100780004100192802D8203546F400664A46294619
:10079000204626604E46FFF703FD80B101280BD0AE
:1007A000F61D26F0070000F1080956E74020E4E7AF
:1007B0008020D8E70020D6E706F104094DE7284657
:1007C00052E7206ABDE8F09FFCED00000B4910B530
:1007D000A1F17C020A4CC2E93712372106E000EB96
:1007E000104342F82130074B00FB03400B1EA1F1E0
:1007F0000101F4DC10BD0120E8E70000D84600202C
:10080000E119D666CD0D01002DE9F04107461546E8
:100810000E46102000F030FA04000AD06760C4E9E8
:10082000026500F025FA0168216004600020BDE83F
:10083000F0810120FBE740EA010310B59B070FD1CF
:10084000042A0DD310C808C9121F9C42F8D020BA40
:1008500019BA884201D9012010BD4FF0FF3010BDF8
:100860001AB1D30703D0521C07E0002010BD10F8C6
:10087000013B11F8014B1B1B07D110F8013B11F88C
:10088000014B1B1B01D1921EF1D1184610BD10B5B2
:10089000431C02E010F8011B71B18107FAD14FF03F
:1008A000013202C88C1A8C4314EAC211F9D0C01A62
:1008B0000A0603D0C01E10BDC01A10BD0A0401D024
:1008C000801E10BD0902FCD0401E10BD032A40F25C
:1008D000308010F0030C00F0158011F8013BBCF1E2
:1008E000020F624498BF11F801CB00F8013B38BFFA
:1008F00011F8013BA2F1040298BF00F801CB38BF08
:1009000000F8013B11F0030300F02580083AC0F025
:10091000088051F8043B083A51F804CBA0E80810CD
:10092000F5E7121D5CBF51F8043B40F8043BAFF300
:100930000080D20724BF11F8013B11F801CB48BF5A
:1009400011F8012B24BF00F8013B00F801CB48BF90
:1009500000F8012B704710B5203AC0F00B80B1E8C9
:100960001850203AA0E81850B1E81850A0E81850E4
:10097000BFF4F5AF5FEA027C24BFB1E81850A0E8ED
:10098000185044BF18C918C0BDE810405FEA827C07
:1009900024BF51F8043B40F8043B08BF7047D2071E
:1009A00028BF31F8023B48BF11F8012B28BF20F8BF
:1009B000023B48BF00F8012B704702F0FF0343EAF7
:1009C000032242EA024200F000BD4FF0000200B5EF
:1009D000134694469646203922BFA0E80C50A0E862
:1009E0000C50B1F12001BFF4F7AF090728BFA0E810
:1009F0000C5048BF0CC05DF804EB890028BF40F8DC
:100A0000042B08BF704748BF20F8022B11F0804F1D
:100A100018BF00F8012B70474FF0013C50F8042B31
:100A200051F8043B9A4221D1A2EB0C03934313EA01
:100A3000CC1317D150F8042B51F8043B9A4215D12E
:100A4000A2EB0C03934313EACC130BD150F8042B05
:100A500051F8043B9A4209D1A2EB0C03934313EAE9
:100A6000CC13DBD04FF00000704700BFD01A01BAA2
:100A7000B1FA81F101F0180122FA01F0CB40C1F185
:100A80002001DBB2C0B2C01A2CFA01F3D11A914393
:100A900011EAC311E6D1704710B503681C1404EBCA
:100AA00021449BB289B2194494FBF2F302FB134335
:100AB00094FBF2F401EB034393FBF2F102FB1131DF
:100AC00093FBF2F301E05B1E11440029FBDB0160A4
:100AD00003EB044010BDF0B504464FF0FF3585B080
:100AE0000068049060680290A0680390E06801903C
:100AF00020690090666906F18040B0F1004F7CD813
:100B00003C22002104A8FFF7C7FF3C22014602A8AF
:100B1000FFF7C2FF1822014603A8FFF7BDFF411EE1
:100B200040F2B55201A8FFF7B7FF0C22074668460E
:100B30000021FFF7B1FF414B00EB87003044002656
:100B40007B4411E0511A01910099491C022900913E
:100B500002D00C2908D105E0810705D00199491C74
:100B6000019101E0401C00960099019A595C914264
:100B7000E8DD0099012906D11C2A04D1810702D0A1
:100B80000221CDE90016A0F146018B293CD2DDE916
:100B90000061002202E09F5C521C3944B242FADB41
:100BA000012E02DD820700D0491E40F2B55340F20B
:100BB0006D16C21700EB927292105A4300F00303B5
:100BC00003FB062283070A4400D1521E039E02EB58
:100BD0004203049F06EBC303029EC3EB031306EB21
:100BE0008303174E33441E149BB2C6EB0616C3EBA9
:100BF0000313B60007EB830300E005E006EB1346A2
:100C000066F31F43360C02D0284605B0F0BD80C401
:100C1000029E40C4039E40C4019E761C44F80C6BA7
:100C2000009E44E902600720521C92FBF0F600FB94
:100C3000162084E823001846E7E7000064E9000076
:100C4000A039CEFD704770477047000070B5064C64
:100C50007C44064D7D4403E0206820448047241DE9
:100C6000AC42F9D170BD00009CEB0000C0EB00006D
:100C7000004870477847002070B5064600F0D2FB68
:100C8000056806F10B0020F00704B4429CBF002069
:100C900070BD2B466A68BAB11068A04210D304F147
:100CA000080188423CBF5068586007D3516810194A
:100CB00041601168091B016058601460101D70BD0F
:100CC00013465268002AE7D12146284600F0BAFBB5
:100CD0000028DED170BD70B50446051F00F0A2FBF0
:100CE0000068002C14BF446870BD002C18BFAC42D3
:100CF0003CBF20466468F8D301680A18AA4218BFAE
:100D0000456003D12A6805461144016028684119ED
:100D1000A1421CBF6C6070BD6168696021680844B5
:100D2000286070BD10B500F085FB006810BD10B5DF
:100D3000044600F07FFB046010BD2DE9F0470D462E
:100D400099469246044600F124080168880604D5B5
:100D5000E06921F01001216000E00120A84201DDDE
:100D6000471B00E00027A1697A1902EB0900081A65
:100D7000A0612078C00602D42046FFF7E5FA0026DD
:100D800008E0D4E901211AF806009047206A401CC7
:100D9000761C20624E45F4DB2078C0060AD520463A
:100DA000FFF7D2FA06E0D4E9012130209047206A0B
:100DB000401C2062381EA7F10107F4DC07E0D4E9EB
:100DC000012118F805009047206A401C2062281E67
:100DD000A5F10105F3DC2046FFF7CCFA20780006E8
:100DE00002D50220BDE8F0870120FBE71168026808
:100DF000006A530501D508700AE0D30501D50880C3
:100E000006E0130603D5C217C1E9000200E008603E
:100E10000120704770472DE9FF4F0C461E464FF0EA
:100E2000FF378BB0D2E90001DDF860800A908A4676
:100E3000C1F30A5505B93D46002108464FF00000B0
:100E4000BAF1000F00F4400005DA00EB80004FF427
:100E5000400101EA50004FEA9059B9F1010F00DD5D
:100E6000B9460A9850EA4A000ED044F61050A5F24E
:100E7000FF3545432F14B8F1000F1ED07542291ECF
:100E80001EDDC9F100021CE0B8F1010F4FF00000B7
:100E900001D0302103E0F24305E02154401CB04270
:100EA000FBDB30460022002121540B99C1F8088059
:100EB000C1E900200FB0BDE8F08FBD1B6D1CDEE75F
:100EC0004A4600DA694206A800F08CFB06AB93E8BC
:100ED000070003AB83E8070050460A9900F098FC2E
:100EE0008DE80700A0F500501F3800900398002DF2
:100EF0000ADD42F21F014A460844002303A9039079
:100F0000684600F001FF09E0A0F500504A461F388E
:100F1000002303A90390684600F00BFF8DE807004B
:100F20000004000C03D04FF0FF30410800E01046F1
:100F3000B8F1000F03D00022009215461EE0751E86
:100F400005D400F0C9FA303262556D1EF9D5B346AA
:100F50000122084302D000227F1C04E020783028C0
:100F600001D100227F1E002A099784D01DE0112D97
:100F700007DA00F0B1FA303262556D1C50EA010216
:100F8000F5D1084302D00098C8B10EE00021681ED8
:100F900005E0235C625C63542254401E491C81427C
:100FA000F7DBAB46A81B401E0990002004F80B009D
:100FB0000B98099AC0F80880C0E9002B7AE711263F
:100FC0004FF0000857E72DE9F04F88460446D21D40
:100FD00022F0070191B0D1E90001CDE90A010AF040
:100FE00054F902460B98C00F01D02D2007E020686D
:100FF000810701D52B2002E0202101EAC000032A4D
:10100000099001D0072A05DB03464146204600F03F
:10101000A9FA0BE12078800601D5E06900E00620FE
:10102000B8F1650F814606D0B8F1660F18D0B8F157
:10103000670F70D131E00020B9F1110F009001DB92
:10104000112301E009F101030AAA01A90CA8FFF785
:10105000E2FEDDE90C70002609F10105834647E058
:1010600001204B4600904FF000470AAA01A90CA8A6
:10107000FFF7D1FEDDE90DB00C995D46002610B9F1
:1010800009F101000D18B9EB050003D4C0F1FF36DA
:1010900009F10105A5EB09002BE0B9F1010F01DA17
:1010A0004FF001090020B9F1110F0090484601DD11
:1010B000112300E003460AAA01A90CA8FFF7ABFE22
:1010C000DDE90C704D4600268346207800070AD4DF
:1010D000AB4500DA5D4601A8012D04DD411911F888
:1010E000011C302907D04F4502DA17F1040F04DA4A
:1010F000012082460FE06D1EEEE7002F02DCED1BA3
:101100003E4403E0781CA84200DD7D1CB81B00F1C2
:10111000010A4FF000472078000703D4AA4501DBFD
:101120004FF0FF3A0021B7F1004F0DF143088DF861
:10113000431024D002202B23002F01DA7F422D23DD
:101140000A21021EA0F1010000DC5FB197FBF1FC57
:1011500097FBF1F201FB1C7C17460CF1300C08F8F0
:1011600001CDEEE7A8F1010003702188090501D542
:10117000452100E06521A0F1010800F8011C099853
:101180000FA9A1EB0807FF1D00B10120411901EBD8
:10119000EA70A1693844081A401EA0612078C00690
:1011A00002D42046FFF7D0F8099828B1D4E90121EC
:1011B0009047206A401C20622078C00622D5204635
:1011C000FFF7C2F81EE0002E04DBB34502DD01A8E4
:1011D000805D00E03020D4E901219047206A401C66
:1011E0002062761CAAF101005FEA000A0AD100F031
:1011F0001DF9C0680168405CD4E901219047206A6C
:10120000401C2062281EA5F10105DCDC07E0D4E9C2
:10121000012118F8010B9047206A401C2062381EFB
:10122000A7F10107F3DC2046FFF7A4F8032011B073
:1012300041E6000001694A1C02610878704700B568
:101240008FB0CDE901310021059105497944CDE9FF
:10125000031011466846FFF7F5F90FB000BD000016
:10126000E5FFFFFF0A6802F8010B0A60704710B53E
:10127000436913B1AFF3008001E0FFF79EF801204E
:1012800010BD127800F124010A7000224A70012278
:10129000EDE711684FF0FF32E9E710B5436913B18C
:1012A000AFF3008001E0FFF7EDF8012010BD1288D8
:1012B00000F1240182840022C2840122EDE711683A
:1012C0004FF0FF32E9E700002DE9F0418046D21DE2
:1012D00022F007020025D2E90002F52915A614D054
:1012E000011E72F1000106DA0023D0EB030063EB6C
:1012F000020211A608E0D8F800108B0701D50FA64E
:1013000002E0490701D50EA601251146002408F187
:10131000240704E000F0E0F830323A55641C50EA4B
:101320000102F7D12B46324621464046BDE8F04146
:10133000FFF703BD000000002D0000002B0000009F
:101340002000000070B516460C46054600F062F815
:10135000036893F80101012806D0FF2C0FD8185D0F
:1013600068B101202C7070BDD3F8070132462146C8
:1013700003F2071303442846BDE8704018474FF0B6
:10138000FF3070BD2DE9F0410646FFF771FC804645
:10139000454613E016B1E068B0420ED120682860DF
:1013A000D4E90101D8F8007088472046FFF793FC84
:1013B000D8F80000B842EBD100E025462C68002C9C
:1013C000E8D1BDE8F0814FF000020429C0F012809E
:1013D00010F0030C3FF4FBAACCF1040CBCF1020F9B
:1013E00018BF00F8012BA8BF20F8022BA1EB0C01BD
:1013F000FFF7EDBA5FEAC17C24BF00F8012B00F8CB
:10140000012B48BF00F8012B7047000000487047CF
:101410004047002010B500F009F8001D10BD00BFC6
:1014200009A700000048704748470020004870475F
:1014300060470020004870474047002070477047D1
:101440007047704738B504460A4600206946AFF336
:101450000080002808BF38BD02460099204600F0F1
:1014600064F9012038BD012000F09BB9F8B5AFF355
:101470000080054600200C46102000BF0646A81933
:10148000A0420DD9324669460020AFF30080070024
:1014900008BF00F086F90098A04218BF0546C4199D
:1014A000FFF7C0FF05600746F01D20F00700461952
:1014B000284600F00AF8B44208BFF8BDA21B314626
:1014C0003868BDE8F84000F030B900210160C0E99B
:1014D000011070471020704730B5B0F10A024FEA92
:1014E000900E71F100034EEA817EB0EB0E0061EBCD
:1014F00091014FEA101E4EEA017E10EB0E0041EB07
:1015000011114FEA102E4EEA016E10EB0E0041EB66
:1015100011214FEA104E4EEA014E10EB0E0041EB46
:101520001141401841F100014FEAD00040EA4170FA
:101530004FEAD10110EB80054FEA810444EA907430
:1015400044EB01046D1944EB0404521BA3414FF01A
:10155000000348BF0A3200D530BD401C41F10001F4
:1015600030BD00002DE9F0411F4604460326016806
:10157000072A01F4006004DB08B116A505E016A5F2
:1015800003E008B115A500E015A521F010002060CA
:10159000A069C01EA0610FB1401EA0612046FEF7E9
:1015A000D3FE4FB1D4E9012138469047206A401C50
:1015B0002062C01C206206E0206AFAE7D4E901211B
:1015C00015F8010B9047761EF8D22046FEF7D2FEA2
:1015D000BDE8F0814E414E006E616E00494E4600FE
:1015E000696E66002DE9F047814616468AB0354897
:1015F00078440DC88DE80D0032487844801C03AC57
:101600000DC884E80D0041F69B300844372190FB5B
:10161000F1F290FBF1F5A5F1800501FB12041B3CF2
:1016200002D56442012000E00020DFF898A0804647
:101630000027FA44AAF1BE0A0EE0E0070AD03246BB
:10164000684607EB470101230AEB810100F071FBBB
:101650008DE8070064107F1C002CEED1194F7F44E9
:10166000AE3F19E0E80715D007EB04100DF1180A9A
:1016700090E80E008AE80E00C068F04201D1981987
:1016800008903246012306A903A800F052FB03ABE1
:1016900083E807006D10641C002DE3D14FF00103B7
:1016A00032466946B8F1000F03A802D000F02CFBC7
:1016B00001E000F03EFBC9E90001C9F808200AB0CA
:1016C000BDE8F0873CDF0000002801D000F002B840
:1016D0007047000001491820ABBEFEE7260002005B
:1016E0007546FFF793FEAE4605006946534620F067
:1016F0000700854618B020B5FEF7EEFDBDE8204096
:101700004FF000064FF000074FF000084FF0000BBD
:1017100021F00701AC46ACE8C009ACE8C009ACE870
:10172000C009ACE8C0098D467047034640688C4646
:10173000002818BF88423CBF03464068F8D31868A9
:101740001844884207D00CF1030020F00700001D68
:10175000411A521A0146081D0A60FFF7BCBA10B5BB
:101760000446AFF300802046BDE81040FEF786BD7A
:1017700070B505460C460A2000E06D1C00F018F814
:1017800035B128780028F8D102E0641C00F010F888
:1017900014B120780028F8D1BDE870400A2000F08C
:1017A00007B810B500F00CF8BDE81040FFF78CBF8B
:1017B00008B569468DF800000320ABBE08BD704730
:1017C00010B5012805D0002103A0FFF7D1FF0120AB
:1017D00010BD09A1F8E7000053494752544D454D4B
:1017E0003A204F7574206F662068656170206D65C2
:1017F0006D6F7279000000003A2048656170206DBD
:10180000656D6F727920636F7272757074656400B4
:101810005FEA400C08BF91F0000F4FEA8C234FEABB
:10182000C12243EA51514FEA1C5018BF00F5F04065
:101830004FEA300018BF41F000415FEA6C5C00F0F5
:101840002980BCF1FF3F08BF40F080407047130C77
:1018500006BF12044FF0100C4FF0000C130E04BF23
:1018600012020CF1080C130F04BF12010CF1040C4E
:10187000930F04BF92000CF1020CD30F04BF52006F
:101880000CF1010C11464FF00002A0F11F00A0EB7B
:101890000C00704711F0004F08BF704731F0004155
:1018A0003FF4D5AF0B0C06BF09044FF0100C4FF0FE
:1018B000000C0B0E04BF09020CF1080C0B0F04BF47
:1018C00009010CF1040C8B0F04BF89000CF1020C10
:1018D000CB0F04BF49000CF1010CCCF12003A0EBAD
:1018E0000C0022FA03F302FA0CF241EA030100F1C0
:1018F0000100704720F07F4C80EA030023F07F470F
:10190000ACEB070303F57C5300F0004003F1FF0349
:101910002DE980494FEA154B09B44FEA144325EAF3
:101920000B4E24EA03480FF2042606EB132749085E
:101930003E785FEA320203FB0667C7F5000707FB44
:1019400006F64FEA54374FEAD64606F1020607FB81
:10195000066CCCF1005C4FEA1C472CEA074C07FBF5
:1019600006F40CFB06F504EB15464FEA961634BF59
:1019700000204FF000404FEAD13706FB07FC4FEA4A
:101980001C4C0CFB0BF7D21B03FB0CF761EB0701A4
:101990000CFB0EF7B0EB074072EB17420CFB08F79D
:1019A00034BFA2EB0742B2EB074261EB17414FEAAB
:1019B0000C444FEA910706FB07FC4FEA1C4C0CFB5A
:1019C0000BF7B0EBC74072EB573203FB0CF734BF99
:1019D000A2EBC742B2EBC74261EB57310CFB0EF7EB
:1019E000B0EBC70072EB57720CFB08F734BFA2EBE9
:1019F000C702B2EBC70261EB5771039F4FEA8161E7
:101A000041EA921104EBCC044FEAD1374FEA8262EB
:101A100006FB07FC42EA90124FEA80604FEA1C4C3A
:101A20000CFB0BF7D21B03FB0CF761EB07010CFB64
:101A30000EF7B0EB074072EB17420CFB08F734BF10
:101A4000A2EB0742B2EB074261EB17414FEA8C551C
:101A50004FEA910704EB9C2406FB07FC4FEA1C4C61
:101A60000CFB0BF7B0EBC74072EB573203FB0CF7E4
:101A700034BFA2EBC742B2EBC74261EB57310CFB5C
:101A80000EF7B0EBC70072EB57720CFB08F734BFD0
:101A9000A2EBC702B2EBC70261EB577115EB4C2505
:101AA0004FEA816141EA92114FEA82624FEAD137EF
:101AB00042EA901206FB07FC44F100044FEA806002
:101AC0004FEA1C4C0CFB0BF7D21B03FB0CF761EB32
:101AD00007010CFB0EF7B0EB074072EB17420CFB53
:101AE00008F734BFA2EB0742B2EB074261EB1741A4
:101AF00015EB1C154FEA813141EA92414FEA8232DF
:101B000042EA90424FEA80304FEA0C7644F10004FA
:101B100048EA03434EEA0B484FF0000EB2EB080CC4
:101B200071EB030724BF624639464EEB0E0E4FF0B1
:101B3000000B0018524149414BEB0B0BB2EB080C68
:101B400071EB03077BF1000B24BF624639464EEB75
:101B50000E0E4FF0000B0018524149414BEB0B0B9E
:101B6000B2EB080C71EB03077BF1000B24BF62465C
:101B700039464EEB0E0E51EA020718BF46F0010639
:101B800016EB0E7655F1000254F1000103D5BDE8C5
:101B90008901BDE80088BDE88901BDE80048B619A3
:101BA000524141EB0101A3F10103704780807F7E28
:101BB0007D7C7B7A797877767675747372717170C3
:101BC0006F6E6E6D6C6C6B6A6A6968686766666575
:101BD0006464636362616160605F5F5E5E5D5D5C03
:101BE0005C5B5B5A5A595958585757565655555574
:101BF0005454535352525251515050504F4F4F4ED4
:101C00004E4D4D4D4C4C4C4B4B4B4A4A4A49494921
:101C10004848484747474746464645454544444463
:101C2000444343434342424242414141002B9C468C
:101C300030D477002BD01CB54FEA370703B44FF0F0
:101C400010004FF01001BAF1000F06D0BCF1000FE8
:101C5000DCBF40F0080040F008014FF000000FBC6E
:101C6000BDE810400BF1010BBBF1010F08BF5FEAAB
:101C7000170722BF12F1010211F101014FF00041DB
:101C800043F1000300F0004043EA00007047F9D33D
:101C90005708D0E746EA064613F1400F4FEA1646CA
:101CA0001FDD13F1200FDFBF16430A46002120334A
:101CB0005B42BED0C3F1200746EA064602FA07F7A8
:101CC0004FEA164646EA0706C3F1200722FA03F256
:101CD00001FA07F721FA03F14FF0000342EA070285
:101CE000A7E746EA020646EA06464FEA164646EAED
:101CF0000106BCBF46EA0646360C4FF000034FF023
:101D000000024FF0000194E72DE9804C9A4693467B
:101D100070B491E8380007C831EA400C48BF34EA93
:101D2000430C03D5FFF7E6FDFFF780FFF0BCBDE8ED
:101D3000008C2DE9804C9A46934670B491E83800A7
:101D400007C810F0804F08BF13F0804F03D100F098
:101D500005F8FFF76BFFF0BCBDE8008C20F07F4773
:101D600080EA030023F07F4C07EB0C03A3F57C53C0
:101D700000F00040A3F1FE0392F0000F00F0B380EA
:101D800095F0000F00F077802DE901494FEA1140EE
:101D90004FEA144621EA004800FB06FC24EA064705
:101DA00008FB06F607FB08F800FB07F718EB0648E8
:101DB0004CEB164C4FEA124B18EB07484FEA15460E
:101DC0004CEB174022EA0B4E0BFB06FC25EA0647BC
:101DD0000EFB06F607FB0EFE0BFB07F71EEB064E8F
:101DE0004CEB164C4FF000061EEB074E4CEB174B1E
:101DF00018EB0B0840F1000018EB0E0B58EB000835
:101E000040F100008F1A4FF000013CBFC943661B30
:101E100014BFB5EB040C00213CBFC943F61B4FEACD
:101E200017444EEA8E0E27EA04454FEA1C4704FB8E
:101E300007622CEA074C05FB07F70CFB05F604FBD1
:101E40000CFC16EB074642EB174216EB0C4642EB36
:101E50001C421BEB060658EB0202414146EA9E0675
:101E600001D5BDE80189B619524141EB0101A3F149
:101E70000103BDE801894FEA14454FEA114724EAFE
:101E8000054621EA074C05FB07F406FB07F70CFBA8
:101E900006F105FB0CFC11EB074144EB17444FEA3C
:101EA000124711EB0C4144EB1C4422EA074C05FBA2
:101EB00007F206FB07F70CFB06F605FB0CFC16EB1E
:101EC000074642EB174216EB0C4642EB1C456A18DC
:101ED00054F1000148BF7047B619524141EB01016E
:101EE000A3F10103704795F0000F37D04FEA11427C
:101EF0004FEA144721EA024624EA074C02FB07F1A5
:101F000006FB07F70CFB06F402FB0CFC14EB074482
:101F100041EB17414FEA154714EB0C4441EB1C41D0
:101F200025EA074C02FB07F506FB07F70CFB06F654
:101F300002FB0CFC16EB074645EB174516EB0C466F
:101F400045EB1C42121951F1000148BF7047B61908
:101F5000524141EB0101A3F1010370474FEA1445DF
:101F60004FEA114724EA054621EA074C05FB07F131
:101F700006FB07F70CFB06F24FF0000605FB0CFC16
:101F800012EB074241EB174112EB0C4251EB1C41A3
:101F900048BF7047921841EB0101A3F1010370475C
:101FA00010B50248006800F081F910BD2C02002035
:101FB00070B5044600252068806800F00100F0B18B
:101FC0002068806820F001002168886000F01CFE15
:101FD00005460EE000F018FE401B022809D9A06A51
:101FE00040F01000A062E06A40F00100E0620120D1
:101FF00070BD2068806800F001000028EAD1002050
:10200000F6E7000038B5044600250020009020685F
:10201000806800F0010080BB2068806840F001000B
:1020200021688860164800681649B0FBF1F00090FE
:1020300002E00098401E009000980028F9D100F0BE
:10204000E3FD054613E000F0DFFD401B02280ED93A
:10205000A06A40F01000A062E06A40F00100E06277
:1020600000BF002084F8240000BF012038BD206894
:10207000806800F001000028E5D00020F6E70000AD
:102080009400002040420F0000BFFEE770470000B0
:1020900070B5044600F0B8FD054609E0601C38B193
:1020A00024B100F0B1FD401BA04201D9032070BD56
:1020B0001248C06800F001000028EFD10F48C06846
:1020C00000F0200020B100BF20200C49C86000BFF4
:1020D0000A48C06800F0100048B90848C06900F01C
:1020E000010020B90548C06800F0040018B104F0F0
:1020F0007FFD0120DBE70020D9E70000002002403F
:102100007047000038B5024600230020009000BF51
:1021100092F82400012801D1022038BD012082F864
:10212000240000BF4868072812D21068406B0C7961
:10213000641E04EB84051F24AC40A0430D796D1E82
:1021400005EB85050C68AC4020431468606327E00C
:1021500048680D2812D21068006B0C79E41F04EB5C
:1021600084051F24AC40A0430D79ED1F05EB8505C8
:102170000C68AC4020431468206311E01068C06A0A
:102180000C790D3C04EB84051F24AC40A0430D7971
:102190000D3D05EB85050C68AC4020431468E062FA
:1021A00008680A2812D31068C0680C780A3C04EB4F
:1021B00044050724AC40A0430D780A3D05EB4505D6
:1021C0008C68AC4020431468E0600FE01068006940
:1021D0000C7804EB44050724AC40A0430D7805EBD4
:1021E00045058C68AC4020431468206108681028BD
:1021F00002D00868112827D1174C1068A0421ED1C0
:102200001068806800F40000F0B91068806840F43D
:1022100000001468A0600868102815D10F480068F5
:102220000F4CB0FBF4F000EB80004000009002E0A7
:102230000098401E009000980028F9D104E0906AB0
:1022400040F020009062012300BF002082F82400AB
:1022500000BF184661E70000002401409400002000
:1022600040420F002DE9F0410446204600F01AF8E4
:1022700080460AF0DDFB07464FF08B410AF0CAFAB0
:10228000064605490AF01CFC054604490AF018FCFC
:1022900003490860BDE8F081333353400000A03F9C
:1022A0003002002001460868C06C704710B5044633
:1022B0002068406800F0200020282FD120680068A6
:1022C00000F00200022829D1A06A00F0100018B91D
:1022D000A06A40F40070A0622068806800F460206A
:1022E000B0F5602F13D1E06888B92068406820F00D
:1022F000200021684860A06A20F48070A062A06A73
:1023000000F4805018B9A06A40F00100A062204695
:10231000FFF7A8FF6FF0120021680860206840688E
:1023200000F0800080283BD12068006800F00400A5
:10233000042835D1A06A00F0100018B9A06A40F452
:102340000050A0622068806800F4E040B0F5E04FE3
:102350000DD02068406800F48060D0B920688068A3
:1023600000F46020B0F5602F13D1E06888B92068D0
:10237000406820F0800021684860A06A20F4805006
:10238000A062A06A00F4807018B9A06A40F0010051
:10239000A0622046FFF7B4FE6FF00C0021680860D1
:1023A0002068406800F0400040280FD12068006895
:1023B00000F0010050B1A06A40F48030A0622046D5
:1023C00000F0A8F86FF001002168086010BD00005F
:1023D0002DE9F0410446002700250026A84614B93F
:1023E0000120BDE8F081A06810B1606900B100BFB4
:1023F000A06A30B90020E06284F82400204600F092
:102400008AF82046FFF7D4FD0746A06A00F01000C6
:10241000002873D1002F71D1A06A20F4885040F0B9
:102420000200A062E16960680843E16840EA410097
:102430000643A068B0F5807F02D0A068012802D1D1
:102440004FF4807000E0002005436069012811D13D
:10245000E06838B9A069401E4FF4006141EA40309D
:10246000054307E0A06A40F02000A062E06A40F067
:102470000100E0622068406820F469402843216838
:10248000486020688068214908403043216888609E
:10249000A068B0F5807F02D0A068012802D14FF477
:1024A000807000E00020B0F5807F03D1208A401EBC
:1024B0004FEA00582068C06A20F4700040EA080023
:1024C0002168C8622068806811490840B04208D17C
:1024D0000020E062A06A20F0020040F00100A0624B
:1024E00011E0A06A20F0020040F01000A062E06A53
:1024F00040F00100E062012705E0FFE7A06A40F03C
:102500001000A062012738466BE70000FDF7E1FFED
:10251000FE0E1FFF7047704770B50446002500BFD0
:1025200094F82400012801D1022070BD012084F814
:10253000240000BF2046FFF765FD0546002D7DD134
:10254000A06A40F60161884340F48070A0623F4970
:102550002068884208D13E48006800F4702008B91D
:10256000012002E0002000E0012078B1A06A20F400
:102570008010A0622068406800F4806000B3A06A08
:1025800020F4005040F48050A06219E0A06A40F4AA
:102590008010A0622E49091F2068884203D02B4971
:1025A0002068884204D12A48006800F4806000E076
:1025B000002028B1A06A20F4005040F48050A062AE
:1025C000A06A00F4805020B1E06A20F00600E062CA
:1025D00001E00020E06200BF002084F8240000BF7A
:1025E000C01E216808602068406840F02000216813
:1025F00048602068806800F46020B0F5602F16D134
:1026000012492068884208D11148006800F47020FF
:1026100008B9012002E0002000E0012038B1206864
:10262000806840F4A000216888600CE006E0206823
:10263000806840F480102168886004E000BF0020BA
:1026400084F8240000BF28466FE7000000280140FE
:102650000424014070B50446002594F821000228A6
:1026600003D00420A063012548E02068006820F022
:102670000E00216808602068006820F001002168D1
:1026800008601F492068884201D1012026E01C49CA
:1026900014312068884201D110201FE018492831E8
:1026A0002068884201D1801518E015493C31206826
:1026B000884201D1801411E01149503120688842CC
:1026C00002D14FF4803009E00D496431206888421E
:1026D00002D14FF4801001E04FF0807008490839B2
:1026E0004860012084F8210000BF002084F8200009
:1026F00000BF606B10B12046616B8847284670BDF3
:102700000800024070B5044600F07EFA06462546F1
:10271000681C10B104480078054400BF00F074FA4A
:10272000801BA842FAD370BD080000202DE9F041BB
:1027300004460E460127002500BF2648007E0128DA
:1027400002D10220BDE8F08101202249087600BFB5
:102750002068022813D14CF25030FFF799FC90BB4F
:10276000012004F055F84CF25030FFF791FC074679
:102770001948006920F004001749086123E04CF271
:102780005030FFF785FCF0B94FF0FF303060A5689E
:1027900012E0284604F050F84CF25030FFF778FC75
:1027A00007460D48006920F002000B4908610FB18F
:1027B000356007E005F58065D4E9021001EB802063
:1027C000A842E6D800BF00BF00200249087600BF3B
:1027D0003846B7E7E00600200020024003480069C1
:1027E00040F080000149086100207047002002404D
:1027F0002DE9FE4F05468B461746984601260024D4
:102800000020029000BF2448007E012802D102204F
:10281000BDE8FE8F01202049087600BF4CF2503001
:10282000FFF736FC064686BB012D02D1012002903F
:1028300006E0022D02D10220029001E00420029065
:1028400000241EE02201B946C24648465146FDF723
:1028500055FD80B20190022000FB04B00090019968
:1028600005F0F2F84CF25030FFF712FC06460B4828
:10287000006920F001000949086106B104E0601C0C
:10288000C4B202988442DDDB00BF00BF00200249D1
:10289000087600BF3046BBE7E0060020002002407B
:1028A00000200849096901F0800151B10649054A33
:1028B0005160064951601146096901F0800101B17A
:1028C000012070470020024023016745AB89EFCD0E
:1028D0002DE9F84703460024002000258446002700
:1028E00000226DE14FF0010808FA02F4D1F80080EF
:1028F00008EA0400A0427DD1DFF8D0A2D1F804801C
:10290000A8EB0A09D0453AD014DCB8F1030F50D037
:1029100009DCB8F1000F31D0B8F1010F1CD0B8F1CB
:10292000020F49D120E0B8F1110F18D0B8F1120F01
:1029300042D11EE0B9F5881F25D006DCB9F5803FED
:1029400020D0B9F5801F37D11AE0B9F5001F18D093
:10295000B9F5041F30D117E0D1F80CC02DE0D1F843
:102960000C8008F1040C28E0D1F80C8008F1080C68
:1029700023E0D1F80C8008F10C0C1EE000BF00BF72
:1029800000BF00BF00BF00BFD1F80880B8F1000F42
:1029900002D14FF0040C0BE0D1F80880B8F1010F20
:1029A00003D14FF0080C1C6102E04FF0080C5C6191
:1029B00003E04FF0000C00E000BF00BFFF2801D88B
:1029C000984601E003F104084646FF2802D84FEA82
:1029D000820803E0A2F108084FEA88084746D6F8C3
:1029E00000804FF00F0909FA07F928EA09080CFAE4
:1029F00007F900E087E048EA0908C6F80080D1F846
:102A0000048008F08058B8F1805F7CD100BFDFF807
:102A1000C081D8F8188048F00108DFF8B491C9F8EF
:102A20001880C846D8F8188008F00108CDF8008052
:102A300000BF4FEAB9384FEA920958F829504FEAD7
:102A400082784FEA18794FF00F0808FA09F825EA5A
:102A50000805DFF88081434502D14FF0000816E0F9
:102A6000DFF87481434502D14FF001080FE0DFF831
:102A70006C81434502D14FF0020808E0DFF8608125
:102A8000434502D14FF0030801E04FF004084FEA3C
:102A900082794FEA197908FA09F848EA0505DFF85A
:102AA00044814FEA920948F82950D1F8048008F48B
:102AB0008038B8F5803F0AD1DFF82C81D8F8008043
:102AC00048EA0008DFF82091C9F8008009E0DFF843
:102AD0001881D8F8008028EA0008DFF80C91C9F8BE
:102AE0000080D1F8048008F40038B8F5003F10D118
:102AF000DFF8F48008F10408D8F8008048EA0008FC
:102B0000DFF8E49000E05AE009F10409C9F8008018
:102B10000DE0DFF8D48008F10408D8F8008028EA36
:102B20000008DFF8C49009F10409C9F80080D1F861
:102B3000048008F48018B8F5801F0ED1DFF8A88053
:102B400008F10808D8F8008048EA0008DFF89890F3
:102B500009F10809C9F800800DE0DFF88C8008F160
:102B60000808D8F8008028EA0008DFF87C9009F10E
:102B70000809C9F80080D1F8048008F40018B8F5F5
:102B8000001F0ED1DFF8608008F10C08D8F8008033
:102B900048EA0008DFF8509009F10C09C9F80080F4
:102BA0000DE0DFF8448008F10C08D8F8008028EA2E
:102BB0000008DFF8349009F10C09C9F80080521CB4
:102BC000102AFFF48FAEBDE8F88700000000111056
:102BD0000010024000080140000C014000100140BC
:102BE00000140140080001400004014002469368BF
:102BF0000B400BB1012000E0002070470AB10161D9
:102C000001E00B0403617047014800687047000051
:102C100000000020014691F83D00704770B5044661
:102C2000002600250CB9012070BD94F83D0028B99C
:102C3000002084F83C00204600F012FB242084F899
:102C40003D002068006820F001002168086001F064
:102C5000ADF905464C496068884206D84B48854224
:102C600001D2012007E0002005E04948854201D259
:102C7000012000E00020012800D1D5E74548B5FB40
:102C8000F0F62068466040496068884201D8701CB0
:102C900007E04FF4967070434FF47A71B0FBF1F097
:102CA000401C2168086238496068884214D8681E50
:102CB00061684900B0FBF1F0401CC0F30B00042830
:102CC00001D204203DE0681E61684900B0FBF1F0CC
:102CD000401CC0F30B0034E0A06838B9681E61687E
:102CE00001EB4101B0FBF1F0401C0AE0681E616895
:102CF00001EBC10202EB0111B0FBF1F0401C40F40A
:102D00008040C0F30B0008B901201AE0A06848B960
:102D1000681E616801EB4101B0FBF1F0401CC0F39B
:102D20000B000CE0681E616801EBC10202EB0111AF
:102D3000B0FBF1F0401CC0F30B0040F4804040F4C5
:102D400000402168C861D4E9070108432168086090
:102D5000D4E90310084321688860D4E905010843D9
:102D60002168C8602068006840F0010021680860A0
:102D700000202064202084F83D000020206384F897
:102D80003E0000BF50E70000A086010080841E00C6
:102D900000093D0040420F002DE9FC5F04460F464C
:102DA00090469946DDE90CAB0E9E0025FFF72CFFFF
:102DB000054694F83D0020287ED119230122C349FD
:102DC0002046009504F0F4FF10B10220BDE8FC9FFE
:102DD00000BF94F83C00012801D10220F6E7012051
:102DE00084F83C0000BF2068006800F0010028B9AA
:102DF0002068006840F001002168086020680068D1
:102E000020F4006021680860222084F83D00402002
:102E100084F83E0000202064C4F824A0A4F82AB05E
:102E2000AB48E062608D20854B46424639462046DD
:102E3000CDE9006504F020FD80B1206C042806D1A6
:102E400000BF002084F83C0000BF0120BEE700BFA7
:102E5000002084F83C0000BF0320B7E7208D80B934
:102E600000BF0020019020684069019020688069BF
:102E7000019000BF2068006840F40070216808607D
:102E800049E0208D01281AD12068006820F4806074
:102E90002168086072B600BF002001902068406978
:102EA000019020688069019000BF2068006840F4AC
:102EB00000702168086000E005E162B62BE0208D1B
:102EC000022818D12068006840F40060216808607A
:102ED00072B600BF00200190206840690190206810
:102EE0008069019000BF2068006820F4806021683C
:102EF000086062B60FE02068006840F480602168D6
:102F0000086000BF0020019020684069019020689F
:102F10008069019000BFC7E0208D032875D8208DFF
:102F200001281AD12A463146204605F0F7F830B17B
:102F3000206C202801D1032048E7012046E72068C3
:102F40000069C1B2626A501C60621170208D401E1F
:102F50002085608D401E6085A6E0208D02282CD142
:102F6000334600225B492046009504F021FF08B15A
:102F700003202BE772B62068006840F400702168D7
:102F8000086020680069C1B2626A501C60621170FA
:102F9000208D401E2085608D401E608562B62068B1
:102FA0000069C1B2626A501C60621170208D401EBF
:102FB0002085608D401E608576E0334600224549BD
:102FC0002046009504F0F4FE08B10320FEE62068D8
:102FD000006820F480602168086072B6206800698B
:102FE000C1B2626A501C60621170208D401E208543
:102FF000608D401E6085334600223649204600958C
:1030000004F0D6FE10B10320E0E621E0206800685D
:1030100040F400702168086020680069C1B2626AEB
:10302000501C60621170208D401E2085608D401EF6
:10303000608562B620680069C1B2626A501C606235
:103040001170208D401E2085608D401E60852BE014
:103050002A463146204605F061F830B1206C202820
:1030600001D10320B2E60120B0E620680069C1B2B8
:10307000626A501C60621170208D401E2085608D38
:10308000401E608520684069C0F3800060B1206800
:103090000069C1B2626A501C60621170208D401ECE
:1030A0002085608D401E6085208D00287FF434AF20
:1030B000202084F83D00002084F83E0000BF84F802
:1030C0003C0000BF82E6022080E600000200100003
:1030D0000000FFFF040001002DE9FC5F04460F46DD
:1030E00090469946DDE90CAB0E9E0025FFF78CFD5E
:1030F000054694F83D0020287ED119230122564927
:103100002046009504F054FE10B10220BDE8FC9F5B
:1031100000BF94F83C00012801D10220F6E701200D
:1031200084F83C0000BF2068006800F0010028B966
:103130002068006840F0010021680860206800688D
:1031400020F4006021680860212084F83D004020C0
:1031500084F83E0000202064C4F824A0A4F82AB01B
:103160003E48E062608D20854B4642463946204607
:10317000CDE9006504F078FC80B1206C042806D10C
:1031800000BF002084F83C0000BF0120BEE700BF64
:10319000002084F83C0000BF0320B7E733E02A4654
:1031A0003146204604F087FF60B1206C042807D127
:1031B0002068006840F40070216808600120A5E7DD
:1031C0000320A3E7616A481C6062087821680861EF
:1031D000208D401E2085608D401E608520684069DE
:1031E000C0F3800078B1208D68B1616A481C6062CC
:1031F00008782168086100E02CE0208D401E2085C1
:10320000608D401E6085208D0028C8D12A46314639
:10321000204604F025FF60B1206C042807D1206807
:10322000006840F400702168086001206EE7032008
:103230006CE72068006840F4007021680860202076
:1032400084F83D00002084F83E0000BF84F83C0074
:1032500000BF5BE7022059E7020010000000FFFFFB
:1032600010B586B004460F492068884218D1C020A6
:10327000029012200390012004900320059002A9DF
:103280000948FFF725FB00BF0848C06940F400105B
:103290000649C8610846C06900F40010019000BFEB
:1032A00006B010BD00540040000C01400010024068
:1032B00003480068034909780844014908607047D9
:1032C000000000200800002010B50848006840F009
:1032D000100006490860032000F0A2F8002000F06A
:1032E00007F800F02BF8002010BD0000002002407D
:1032F00070B504460E4800784FF47A71B1FBF0F0D7
:103300000C490968B1FBF0F5284601F0A4F908B1B1
:10331000012070BD102C07D200222146501E00F063
:1033200041F80548046001E00120F2E70020F0E7E1
:1033300008000020940000200400002070470000D6
:1033400010B501460846002817DB00F01F030122D4
:103350009A400B4B440943F8242000BF00BF00BF34
:10336000BFF34F8F00BF00BF00BF00BF00BF00BF53
:10337000BFF36F8F00BF00BF00BF00BF10BD0000D4
:1033800080E100E001460846002809DB00F01F0349
:1033900001229A4043099B0003F1E023C3F8002176
:1033A00000BF70472DE9F05F80460D4616460027A6
:1033B00004F03CFD074639462A46334601F0070033
:1033C000C0F1070ABAF1040F02D94FF0040A01E074
:1033D000C0F1070AD14600F1040ABAF1070F02D280
:1033E0004FF0000A01E0A0F1030AD4464FF0010AB1
:1033F0000AFA09FAAAF1010A0AEA020A0AFA0CFA16
:103400004FF0010B0BFA0CFBABF1010B0BEA030BBA
:103410004AEA0B042146404603F03CFFBDE8F09F1A
:1034200000BF00F00702064B19684FF6FF03194072
:10343000044B0B4343EA0221014B196000BF704764
:103440000CED00E00000FA0570B505460C460021C1
:1034500004F08000802806D104F07F0605F12800E2
:1034600000EB461103E005F50A7000EB44111AB9B0
:10347000002088728B8004E001208872CB80180CB9
:103480000881002070BD704770B504460D4604F1F8
:10349000280101EB45114A692946D4F85C0401F082
:1034A00076FD70BD70B504460D4604F50A7101EB5A
:1034B00045114A692946D4F85C0401F0D5FD70BD78
:1034C00070B504460D46002605F08000802806D120
:1034D00005F07F0104F1280000EB411605E005F03E
:1034E0007F0104F50A7000EB411605F07F00307093
:1034F00005F08000C009707000BF94F8280401280E
:1035000001D1022070BD012084F8280400BF31469B
:10351000206802F068FA00BF002084F8280400BF89
:1035200000BFEFE770B504460D46002605F08000A9
:10353000802806D105F07F0104F1280000EB411638
:1035400003E004F50A7000EB45160020B07005F0AA
:103550007F003070C5F3C010707000BF94F828046D
:10356000012801D1022070BD012084F8280400BF89
:103570003146206802F064FB00BF002084F8280474
:1035800000BF00BFEFE7024601F00F0302F50A702B
:1035900000EB4310808B80B270472DE9F047044662
:1035A0000D46174698464FF00009002605F08000AA
:1035B000802806D105F07F0104F1280000EB4116B8
:1035C00005E005F07F0104F50A7000EB411605F0F7
:1035D0007F00307005F08000C0097070376186F898
:1035E000038000BF94F82804012802D10220BDE81E
:1035F000F087012084F8280400BF3146206802F0DB
:1036000019F800BF002084F8280400BF4846EEE700
:103610002DE9F04105460E4617469846002406F06F
:103620007F0105F50A7000EB41146761C4F818804A
:103630000020E061607006F07F00207006F07F00DF
:1036400020B92146286802F098FB03E0214628684B
:1036500002F093FB0020BDE8F08170B504460D46F2
:10366000002605F08000802806D105F07F0104F1D6
:10367000280000EB411603E004F50A7000EB451644
:103680000120B07005F07F003070C5F3C01070707D
:1036900000BF94F82804012801D1022070BD012048
:1036A00084F8280400BF3146206802F023FB05F0AF
:1036B0007F0020B904F22C41206802F0BEFA00BF5E
:1036C000002084F8280400BF00BFE7E72DE9F0419F
:1036D00005460E4617469846002406F07F0105F180
:1036E000280000EB41146761C4F818800020E061F5
:1036F0000120607006F07F00207006F07F0020B986
:103700002146286802F039FB03E02146286802F0D0
:1037100034FB0020BDE8F08110B50446206802F0BB
:10372000D4FC00F40040B0F5004F02D1204603F075
:10373000A1FA206802F0C9FC00F48060B0F5806F47
:103740000ED12068B0F8440020F480602168A1F810
:103750004400204600F042F90021204600F059F9CB
:10376000206802F0B2FC00F48040B0F5804F07D131
:103770002068B0F8440020F480402168A1F844009B
:10378000206802F0A2FC00F40050B0F5005F07D101
:103790002068B0F8440020F400502168A1F84400EB
:1037A000206802F092FC00F48050B0F5805F1AD1DE
:1037B0002068B0F8400020F004002168A1F8400023
:1037C0002068B0F8400020F008002168A1F840000F
:1037D000204600F010F92068B0F8440020F4805032
:1037E0002168A1F84400206802F06FFC00F400603A
:1037F000B0F5006F20D12068B0F8400040F008001C
:103800002168A1F840002068B0F8440020F400606E
:103810002168A1F844002068B0F8400040F004009E
:103820002168A1F84000206802F04FFCC0F300308E
:1038300010B9204600F030F9206802F046FC00F490
:103840000070B0F5007F0AD12068B0F8440020F481
:1038500000702168A1F84400204600F0D3F82068E9
:1038600002F033FC00F48070B0F5807F07D120684F
:10387000B0F8440020F480702168A1F8440010BD25
:1038800030B585B00446002514B9012005B030BD1F
:1038900094F8290428B9002084F82804204600F070
:1038A0007DF8032084F82904206802F0BBF9142273
:1038B00004F110016846FDF74EF894E80F0002F09D
:1038C0008EF80021206802F019FC002525E0012176
:1038D00004F1280000EB4510417004F1280000EBD2
:1038E0004510057004F1280000EB4510858100218A
:1038F00004F1280000EB4510C17004F1280000EB32
:103900004510016104F1280000EB4510416104F10C
:10391000280000EB451081616D1C0F2DD7D30025C9
:1039200024E0002104F50A7000EB4510417004F515
:103930000A7000EB4510057004F1280000EB4510FB
:10394000858104F50A7000EB4510C17004F50A701A
:1039500000EB4510016104F50A7000EB4510416170
:1039600004F50A7000EB451081616D1C0F2DD8D352
:10397000142204F110016846FCF7EDFF94E80F00F3
:1039800002F041F9002084F82400012084F8290481
:10399000206802F035F9002078E7000038B50446C9
:1039A0000C492068884214D100BF0B48C06940F41C
:1039B00000000949C8610846C06900F40000009091
:1039C00000BF002211461420FFF7ECFC1420FFF783
:1039D000D9FC38BD005C00400010024070B50446C0
:1039E00001252946D4F85C0401F04AFCD4F85C04B3
:1039F00001F00CFC70BD10B50446D4F85C0401F075
:103A000027FC10BD10B50446D4F85C0401F027FC77
:103A100010BD70B504460D4600BF94F82804012877
:103A200001D1022070BD012084F8280400BF84F871
:103A300024502946206802F064FB00BF002084F86F
:103A4000280400BF00BFEDE710B5044604F22C4186
:103A5000D4F85C0401F02BFC10BD10B5044600BF87
:103A600094F82804012801D1022010BD012084F817
:103A7000280400BF01212046FFF705FD206802F061
:103A8000BCF8206802F012FB00BF002084F8280474
:103A900000BF00BFE9E7000010B50446D4F85C049D
:103AA00001F05EFCA06928B10348006840F0060000
:103AB0000149086010BD000010ED00E02DE9F04361
:103AC00085B006463DA30FCB01AC0FC43FA00068F4
:103AD00000904FF00008002500270024A146012E89
:103AE00030D0022E58D0102E61D139484468006879
:103AF00000F0807000B301A8C4F38341475C04F474
:103B0000803070B132484068C0F340401DF80080FA
:103B100004F4803040B12F48B0FBF8F000FB07F50B
:103B200002E02D4807FB00F52948406800F48000BA
:103B3000B0F5800F01D1A94603E068000321B0FB76
:103B4000F1F935E02248046A04F44070B0F5807F52
:103B500005D104F0020010B14FF400491BE004F459
:103B60004070B0F5007F07D11948406A00F00200AC
:103B700010B149F640490EE004F44070B0F5407FC2
:103B800007D11348006800F4003010B14FF2244907
:103B900001E04FF000090BE000F018FA0C49496809
:103BA000C1F38131491C4900B0FBF1F900E000BFCD
:103BB00000BF484605B0BDE8F083000002030405DD
:103BC000060708090A0B0C0D0E0F10100102000069
:103BD0000010024000127A0000093D00F8B50446CA
:103BE00000260025207800F0010000286AD0002778
:103BF0004248C06900F0805068B900BF3F48C069C2
:103C000040F080503D49C8610846C06900F08050CE
:103C1000009000BF01273A48006800F48070B0B9F6
:103C20003748006840F4807035490860FEF7ECFFC3
:103C3000064606E0FEF7E8FF801B642801D9032052
:103C4000F8BD2F48006800F480700028F2D02B489F
:103C5000006A00F440752DB3A08800F44070A842BB
:103C600020D02648006A20F44075012025490860CC
:103C7000002008602148056205F0010090B1FEF7C0
:103C8000C3FF064608E0FEF7BFFF801B41F2883104
:103C9000884201D90320D3E71848006A00F00200E7
:103CA0000028F0D01548006A20F44070616808438D
:103CB00012490862012F04D10846C06920F08050E3
:103CC000C86100BF207800F00200022807D10B482D
:103CD000406820F44040A1680843084948602078C3
:103CE00000F01000102807D10448406820F480003C
:103CF000E1680843014948600020A1E70010024044
:103D0000007000404004424270B504460D46002653
:103D10006D48006800F00700A8420ED26A480068AB
:103D200020F007002843684908600846006800F052
:103D30000700A84201D0012070BD207800F00200E9
:103D400002281DD1207800F00400042805D15F4826
:103D5000406840F4E0605D494860207800F0080069
:103D6000082805D15948406840F4605057494860D8
:103D70005648406820F0F000A16808435349486065
:103D8000207800F0010000285DD06068012806D18D
:103D90004E48006800F4003090B90120CCE760681C
:103DA000022806D14948006800F0007040B901209F
:103DB000C2E74648006800F0020008B90120BBE7EE
:103DC0004248406820F00300616808433F4948606A
:103DD000FEF71AFF06466068012810D108E0FEF7DA
:103DE00013FF801B41F28831884201D90320A3E7E9
:103DF0003648406800F00C000428F0D123E06068E9
:103E0000022810D108E0FEF7FFFE801B41F2883146
:103E1000884201D903208FE72C48406800F00C004D
:103E20000828F0D10FE008E0FEF7EEFE801B41F21B
:103E30008831884201D903207EE72448406800F099
:103E40000C000028F0D12048006800F00700A842CC
:103E50000ED91D48006820F0070028431A49086061
:103E60000846006800F00700A84201D0012063E77F
:103E7000207800F00400042807D11448406820F49A
:103E8000E060E168084311494860207800F00800CC
:103E9000082808D10D48406820F46050216940EAA4
:103EA000C1000A49486000F0A1F808494968C1F317
:103EB0000311074A515CC840064908600020FFF71B
:103EC00017FA002038E700000020024000100240EE
:103ED00000F20008940000200148006870470000CC
:103EE000940000200F2101602F49096801F480210E
:103EF000B1F5802F03D14FF4A02141600CE02A4995
:103F0000096801F48031B1F5803F03D14FF480316D
:103F1000416001E0002141602349496801F400311A
:103F200081602149096801F0010111B1012101619C
:103F300001E0002101611C490968C1F3C40141612C
:103F40001949096A01F00401042902D10521C1605F
:103F500009E01549096A01F0010111B10121C160AF
:103F600001E00021C1601049496A01F0010111B16D
:103F70000121816101E0002181610B49096801F0A3
:103F80008071B1F1807F02D10221C16101E0012184
:103F9000C1610549496801F48032026202494968F9
:103FA00001F47012426270470010024000B5FFF742
:103FB00093FF04494968C1F30221034A515CC84098
:103FC00000BD00000010024010F2000800B5FFF72D
:103FD00083FF04494968C1F3C221034A515CC840C8
:103FE00000BD00000010024010F20008F0B585B0DE
:103FF0000FF26C0C9CE8E01001A8A0E8E0101CA5F2
:104000002D68009500210022002300240020194D76
:10401000696801F00C05EDB1042D02D0082D1AD10C
:1040200001E0154819E001ADC1F38346AC5D01F430
:10403000803555B10F4D6D68C5F340451DF805201D
:104040000D4D6543B5FBF2F302E00C4D04FB05F3A7
:10405000184602E000BF084800BF00BF05B0F0BD31
:1040600002030405060708090A0B0C0D0E0F1010B9
:10407000010200000010024000127A0000093D0019
:10408000F8B504460025207800F00100002878D01B
:10409000F748406800F00C0004280CD0F448406851
:1040A00000F00C00082811D1F148406800F480307D
:1040B000B0F5803F0AD1EE48006800F400300028D7
:1040C0005FD0606800285CD10120F8BD00BF606847
:1040D000B0F5803F06D1E648006840F48030E449FE
:1040E000086028E0606858B9E148006820F4803032
:1040F000DF4908600846006820F4802008601AE064
:104100006068B0F5A02F0BD1D948006840F480203A
:10411000D74908600846006840F4803008600AE02B
:10412000D348006820F48030D14908600846006810
:1041300020F48020086000BF606888B1FEF764FD4D
:10414000054606E0FEF760FD401B642801D9032008
:10415000BBE7C748006800F400300028F2D010E048
:10416000FEF752FD054606E0FEF74EFD401B6428B3
:1041700001D90320A9E7BE48006800F400300028F8
:10418000F2D1207800F00200022857D1B8484068E8
:1041900000F00C0050B1B648406800F00C00082850
:1041A00018D1B348406800F4803098B9B04800682E
:1041B00000F0020020B12069012801D0012084E72D
:1041C000AB48006820F0F800616940EAC100A849E6
:1041D000086033E02069E8B10120A6490860FEF7D5
:1041E00013FD054606E0FEF70FFD401B022801D92E
:1041F00003206AE79E48006800F002000028F2D021
:104200009B48006820F0F800616940EAC1009849C5
:10421000086013E0002097490860FEF7F5FC0546AA
:1042200006E0FEF7F1FC401B022801D903204CE711
:104230008F48006800F002000028F2D1207800F0DA
:10424000080008282DD1A069B8B101208A4908606A
:10425000FEF7DAFC054606E0FEF7D6FC401B022816
:1042600001D9032031E78248406A00F002000028AB
:10427000F2D0012004F012F813E000207E4908601B
:10428000FEF7C2FC054606E0FEF7BEFC401B022816
:1042900001D9032019E77648406A00F0020000289F
:1042A000F2D1207800F00400042872D10026704872
:1042B000C06900F0805068B900BF6D48C06940F027
:1042C00080506B49C8610846C06900F0805000907A
:1042D00000BF01266948006800F48070B0B96748E3
:1042E000006840F4807065490860FEF78DFC054663
:1042F00006E0FEF789FC401B642801D90320E4E6B0
:104300005E48006800F480700028F2D000BFE068CA
:10431000012806D15648006A40F00100544908625D
:1043200027E0E06858B95248006A20F0010050497F
:1043300008620846006A20F00400086219E0E0689C
:1043400005280BD14A48006A40F004004849086239
:104350000846006A40F0010008620AE04448006A2A
:1043600020F00100424908620846006A20F004007B
:10437000086200BFE068A0B1FEF746FC054609E010
:10438000FEF742FC401B41F28831884202D90320EB
:104390009BE622E03648006A00F002000028EFD0D9
:1043A00012E0FEF731FC054608E0FEF72DFC401B4D
:1043B00041F28831884201D9032086E62C48006A00
:1043C00000F002000028F0D1012E05D12848C06974
:1043D00020F080502649C86100BFE069C8B3244876
:1043E000406800F00C0008285FD0E069022847D13F
:1043F000002020490866FEF707FC054606E0FEF7A8
:1044000003FC401B022801D903205EE6184800681F
:1044100000F000700028F2D1206AB0F5803F07D18B
:104420001348406820F40030A168084310494860F0
:10443000D4E9080108430E49496821F4741108437E
:104440000B49486001200B490866FEF7DDFB054675
:1044500007E02CE0FEF7D8FB401B022801D903201F
:1044600033E60348006800F000700028F2D01EE038
:1044700000100240000042428004424200700040AE
:1044800000200C490866FEF7BFFB054606E0FEF774
:10449000BBFB401B022801D9032016E60648006832
:1044A00000F000700028F2D101E001200DE60020AC
:1044B0000BE60000000042420010024070B50446C6
:1044C00000250CB9012070BD607C20B9002020744B
:1044D000204600F05BF802206074204600F057F898
:1044E00018B1042060740120EDE7204602F062FB61
:1044F00018B1042060740120E5E72068406820F0CE
:10450000070021684860A06828B11F48006820F0B3
:1045100001001D4908601C48001F006820F46070FD
:10452000A16808431849091F08606068401C08B169
:10453000656809E00120FFF7C1FA05461DB90420AE
:1045400060740120BFE76D1E2068806820F00F00B6
:1045500040EA1540216888602068C06865F30F0054
:104560002168C860204602F065FA18B10420607422
:104570000120A8E70021E17301216173A1730120EB
:10458000607400209FE70000306C0040704770B5F9
:10459000044600250CB9012070BD2068406820F059
:1045A000080021684860FEF72FFB054607E0FEF78C
:1045B0002BFB401BB0F57A7F01D90320ECE7206884
:1045C000406800F008000028F1D00020E4E710B5B2
:1045D00004460CB9012010BD0021A16294F85100DD
:1045E00028B9002084F85000204600F033F802205B
:1045F00084F851002068006820F0400021680860BD
:10460000D4E901010843E16808432169084361696D
:104610000843218B01F400710843E1690843216AD2
:104620000843A16A0843216808600421A06901EADF
:104630001040616A0843216848602068C06920F41E
:1046400000602168C86100206065012084F8510085
:104650000020C0E7704770B504462546681EB0F1DB
:10466000807F01D301200FE0681E4FF0E0214861F8
:104670000F214FF0FF3002F00DFE00204FF0E0213F
:10468000886107200861002070BD7047704710B531
:104690000446022084F83D0000BF2068006A41F211
:1046A0001111084050B92068006A8910084028B9E3
:1046B0002068006820F001002168086000BF2046E3
:1046C00000F022F8002084F83D0000BF84F83C0090
:1046D00000BF10BD10B504460CB9012010BD94F800
:1046E0003D0028B9002084F83C00204600F00DF879
:1046F000022084F83D00211D206800F0DFFA01202F
:1047000084F83D000020E9E77047704701460868DB
:10471000C06840F001000A68D0600868006840F096
:1047200001000A6810600020704701460868C068F0
:1047300020F001000A68D06000BF0868006A41F2FA
:104740001112104050B90868006A9210104028B940
:104750000868006820F001000A68106000BF0020AF
:104760007047704710B5044620680069C0F34000E8
:10477000D8B12068C068C0F34000B0B16FF002004B
:1047800021680861012020772068806900F003001B
:1047900018B12046FFF7E5FF05E0204600F0ADF830
:1047A000204600F0ABF80020207720680069C0F3B5
:1047B0008000D8B12068C068C0F38000B0B16FF04D
:1047C000040021680861022020772068806900F4D5
:1047D000407018B12046FFF7C4FF05E0204600F006
:1047E0008CF8204600F08AF80020207720680069C5
:1047F000C0F3C000D8B12068C068C0F3C000B0B139
:104800006FF0080021680861042020772068C069E3
:1048100000F0030018B12046FFF7A3FF05E0204693
:1048200000F06BF8204600F069F80020207720683F
:104830000069C0F30010D8B12068C068C0F3001050
:10484000B0B16FF01000216808610820207720685F
:10485000C06900F4407018B12046FFF782FF05E000
:10486000204600F04AF8204600F048F80020207763
:104870002068006900F0010058B12068C06800F0AD
:10488000010030B16FF0010021680861204600F09E
:1048900037F820680069C0F3C01058B12068C068BC
:1048A000C0F3C01030B16FF080002168086120466D
:1048B000FFF7EBFE20680069C0F3801058B1206854
:1048C000C068C0F3801030B16FF04000216808610B
:1048D000204600F021F820680069C0F3401058B16C
:1048E0002068C068C0F3401030B16FF0200021682C
:1048F00008612046FFF7CAFE10BD704770470000F0
:1049000010B5044603480068844201D104F0E0F980
:1049100010BD000088000020704770472DE9F04767
:104920000446206805682068C668206847694FF01B
:104930000008C14605F00F08B8F1000F0AD105F0D4
:10494000200038B106F0200020B1204601F089FF98
:10495000BDE8F087B8F1000F6DD007F0010018B97D
:1049600006F49070002866D005F0010030B106F41E
:10497000807018B1E06B40F00100E06305F00400C6
:1049800030B107F0010018B1E06B40F00200E063C5
:1049900005F0020030B107F0010018B1E06B40F003
:1049A0000400E06305F0080030B107F0010018B121
:1049B000E06B40F00800E063E06B68B305F02000B6
:1049C00028B106F0200010B1204601F04AFF20680F
:1049D0004069C0F38019E06B00F0080010B9B9F12C
:1049E000000F22D0204602F0A1FB2068406900F0B1
:1049F0004000B0B12068406920F040002168486163
:104A0000606B50B11748616B4863606BFDF722FE25
:104A100010B1606B416B88470CE02046FFF77DFFCB
:104A200008E02046FFF779FF04E02046FFF775FF16
:104A30000020E0638CE705F0800030B106F08000D4
:104A400018B1204602F013F882E705F0400030B1BB
:104A500006F0400018B1204602F030FC78E700BFB5
:104A600076E700001578000810B504460CB901205F
:104A700010BDA06900B100E000BF94F8390028B96A
:104A8000002084F83800204600F027F8242084F81D
:104A900039002068C06820F400502168C8602046B2
:104AA00001F084FC2068006920F4904021680861CE
:104AB0002068406920F02A00216848612068C068A9
:104AC00040F400502168C8600020E063202084F892
:104AD000390084F83A000020CAE7704710B5034651
:104AE00093F83A0020282FD101B10AB9012010BD56
:104AF00000BF93F83800012801D10220F7E7012018
:104B000083F8380000BF99629A85DA850020D8635F
:104B1000222083F83A0000BF002083F8380000BF4D
:104B20001868C06840F480701C68E06018684069CC
:104B300040F001001C6860611868C06840F0200007
:104B40001C68E0600020D2E70220D0E710B50446E0
:104B500003480068844201D103F0D8FE10BD000074
:104B6000240200202DE9F84304460D4616461F4650
:104B70004FF0000994F8390020285CD105B116B92E
:104B80000120BDE8F88300BF94F83800012801D166
:104B90000220F6E7012084F8380000BF0020E0631F
:104BA000212084F83900FEF72FF88146A684E68498
:104BB0002BE0E08C401EE084A068B0F5805F16D149
:104BC0004B46002280212046009703F037F908B1B8
:104BD0000320D6E7A846B8F80000C0F30800216813
:104BE0004860206908B9AD1C0FE06D1C0DE04B4614
:104BF000002280212046009703F020F908B103200D
:104C0000BFE715F8010B21684860E08C0028D0D17F
:104C10004B46002240212046009703F00FF908B1CF
:104C20000320AEE7202084F8390000BF002084F87C
:104C3000380000BFA5E70220A3E7704700BFFEE7EA
:104C400000BFFEE770477047704710B5FEF730FBB6
:104C500010BD00001148006840F001000F490860D5
:104C6000084640680E4908400C49486008460068FC
:104C70000C490840094908600846006820F4802073
:104C800008600846406820F4FE0048604FF41F00AA
:104C90008860C803044908607047000000100240A3
:104CA0000000FFF8FFFFF6FE08ED00E010B5024837
:104CB0000068FFF757FD10BD880000200022026841
:104CC000184B984208D0B0F1804F05D0164B98424F
:104CD00002D0164B984203D122F070024B681A435F
:104CE000104B984208D0B0F1804F05D00E4B98423F
:104CF00002D00E4B984203D122F44072CB681A4383
:104D000022F080024B691A4302608B68C3620B6811
:104D10008362044B984201D10B6903630123436111
:104D200070470000002C01400004004000080040D3
:104D300010B502480068FFF7F1FD10BD2402002005
:104D400070B50446D4F81852D4F8180298B1207CF3
:104D500040B94FF4007301212046D5F8042200F039
:104D60003DFA06E0402301212046D5F8042200F058
:104D700035FA002070BD0220FCE70246022011B186
:104D8000C2F81C12002070470246D2F81832C3F84D
:104D900004120020704710B50346D3F81842C4F837
:104DA0000812C4F81022002010BD70B50546D5F8D1
:104DB0001842D5F8180290B1D4F8140268B901204D
:104DC000C4F81402B4F8100283B281212846D4F842
:104DD000082200F0CFFA002070BD0120FCE702207D
:104DE000FAE770B504460D46D4F814022946426825
:104DF00020469047002070BD70B506460C4615460B
:104E00002B4622460021304600F0E8F9002070BD14
:104E100070B506460C4615462B4622460021304604
:104E200000F0A8FA002070BD70B504460D46802140
:104E3000204600F073FA0021204600F06FFA70BDA2
:104E400070B504460E4615460320C4F8F4014FF42D
:104E500084700551001D05512B4632460021204625
:104E600000F0BCF9002070BD10B504460520C4F860
:104E7000F40100231A461946204600F0AFF900203D
:104E800010BD70B504460E4615460220C4F8F40164
:104E9000A561E5612B4632460021204600F06AFA02
:104EA000002070BD10B504460420C4F8F4010023AE
:104EB0001A461946204600F05DFA002010BD2DE983
:104EC000F04104460D4617460026FCB1204601F08D
:104ED00055F9022101EB400038803A783046711CC8
:104EE000CEB22A5403223046711CCEB22A540AE0B4
:104EF00014F8012B3046711CCEB22A5400223046E1
:104F0000711CCEB22A5420780028F1D1BDE8F0817E
:104F100070B504460D4616460CB9022070BDD4F893
:104F2000140210B10020C4F814020DB1C4F81052DC
:104F3000012084F8FC012670204600F0E1F80020F2
:104F4000ECE72DE9F04104460D46002600272946EE
:104F5000D4F82002FEF7E6FA0646304602F0BEF923
:104F600007463846BDE8F0812DE9F04104460D467C
:104F7000002600272946D4F82002FEF7A1FA0646AB
:104F8000304602F0ABF907463846BDE8F0812DE91E
:104F9000F04104460E461746002E54D104F1140584
:104FA000D4F8F401022843D1D5E90201884210D98E
:104FB000D5E90201401AA860288982B23946204604
:104FC000FFF726FF00231A461946204600F006F98F
:104FD0002EE0E9686868B0FBF1F201FB1200B8B995
:104FE000E9686868884213D36868D4F8F811884281
:104FF0000ED2002211462046FFF70AFF0020C4F817
:10500000F80100231A461946204600F0E7F80FE0A1
:10501000D4F81402C06840B194F8FC01032804D10C
:10502000D4F81402C168204688472046FFF71CFFC9
:1050300094F80002012814D1204600F0CFF9002096
:1050400084F800020DE0D4F81402406948B194F8E5
:10505000FC01032805D1D4F81402314642692046E8
:1050600090470020BDE8F0812DE9F04105460E464D
:1050700017465EBB05F58274D5F8F401032833D1D9
:10508000D4E90201884210D9D4E90201401AA06093
:10509000D4E90201884201D2A06800E0E06882B24F
:1050A00039462846FFF7A8FE1EE0D5F8140200692D
:1050B00040B195F8FC01032804D1D5F81402016928
:1050C000284688472846FFF7EDFE0DE0D5F8140284
:1050D000806948B195F8FC01032805D1D5F8140280
:1050E00031468269284690470020BDE8F08170B5BE
:1050F00004460D462946D4F82002FEF744FA70BD56
:1051000070B505461B480468C4F85C5405F508757D
:105110002C6019482060082060600221A1600021F5
:10512000A161E16121622046FEF7AAFB182300225B
:1051300011462868FEF788F9582300228021286844
:10514000FEF782F9C023002281212868FEF77CF94E
:105150004FF48873002201212868FEF775F928684A
:10516000A5F508754FF4807300228221FEF76CF9D3
:10517000002070BDF8000020005C004010B5024621
:10518000D2F8203201F08000802807D101F07F049E
:1051900003F1280000EB4410807810BD01F07F047B
:1051A00003F50A7000EB44108078F6E72DE9F0472C
:1051B00004460F4615461E464FF00008C1462B46D2
:1051C00032463946D4F82002FEF7E7F980464046D9
:1051D00002F084F881464846BDE8F0872DE9F047A3
:1051E00004460D4616461F464FF00008C1463B4692
:1051F00032462946D4F82002FEF70AFA8046404695
:1052000002F06CF881464846BDE8F08710B50446C8
:105210004023002211462046FFF7C8FF40214FF4EB
:10522000887001514023002280212046FFF7BEFFF5
:1052300040212162012084F8FC01D4F8180228B131
:105240002179D4F81402426820469047002010BD0E
:10525000014691F8FD0181F8FC010020704710B56E
:10526000044694F8FC01032808D1D4F81402C0695C
:1052700020B1D4F81402C16920468847002010BD2F
:1052800002461174002070472DE9F04104460D4696
:10529000002600272946D4F82002FEF7BAFB06466E
:1052A000304602F01BF807463846BDE8F08170B57D
:1052B00004460D46294604F5027000F073F80120FB
:1052C000C4F8F40140F20E20005BC4F8F80194F831
:1052D000080200F01F0020B1012808D0022812D1D6
:1052E0000BE004F50271204600F093F813E004F59A
:1052F0000271204600F071F90DE004F502712046BC
:1053000000F0C0F807E094F8080200F080012046A1
:1053100000F004F800BF00BF002070BD2DE9F0418F
:1053200004460D46002600272946D4F82002FEF741
:1053300094F90646304601F0D1FF07463846BDE8ED
:10534000F08170B5044600250026D4F82002FEF74F
:1053500084FB0546284601F0C1FF0646304670BD75
:10536000014691F8FC0181F8FD01042081F8FC015F
:10537000002070472DE9F04704460D4616461F46AB
:105380004FF00008C1463B4632462946D4F8200279
:10539000FEF79CF98046404601F0A0FF8146484652
:1053A000BDE8F0870A7802704A7842708B78CA7834
:1053B00003EB022242800B794A7903EB02228280BE
:1053C0008B79CA7903EB0222C28070470246002023
:1053D00011B1C2F8141200E002207047014600200B
:1053E000704770B504460D460226D4F8140238B151
:1053F000D4F81402294602682046904700B90026D6
:10540000304670BD10B504462046FFF79AFF0020D5
:1054100010BD70B505460C46002660780A2829D2D2
:10542000DFE800F01923281E280A0528140F21465A
:10543000284601F08BFE22E02146284601F0B3FA0F
:105440001DE02146284601F027F918E021462846AC
:1054500001F0D8F813E02146284601F0FBF80EE0F1
:105460002146284601F0C9FA09E02146284601F004
:1054700078FA04E021462846FFF7D6FC00BF00BFBB
:10548000304670BD2DE9F04105460E464FF000084C
:105490003479307800F06000202808D1D5F8140263
:1054A00031468268284690470020BDE8F081707838
:1054B000002855D001282AD003287AD195F8FC017C
:1054C000022802D003281BD107E02CB1802C03D086
:1054D00021462846FFF722FF17E0708830B92CB12B
:1054E000802C03D021462846FFF718FFD5F8140278
:1054F00031468268284690472846FFF7D3FC04E0EF
:1055000031462846FFF790FC00BF00BF62E095F8E7
:10551000FC01022802D003281BD107E02CB1802C0B
:1055200003D021462846FFF7F9FE17E0708878B9C6
:1055300004F07F0048B121462846FFF702FDD5F868
:10554000140231468268284690472846FFF7AAFC95
:1055500004E031462846FFF767FC00BF00BF39E092
:1055600095F8FC01022802D003282BD107E004F0B3
:105570007F0018B121462846FFF7D0FE27E004F04F
:105580008000802806D104F07F0105F1140000EBB3
:10559000011005E004F07F0105F5827000EB0110B9
:1055A000074621462846FFF7E9FD18B1012038607B
:1055B00002E00EE000203860022239462846FFF75C
:1055C00060FC04E031462846FFF72EFC00BF00BF18
:1055D00000E000BF00BF404667E770B504460D46D7
:1055E000002694F8FC01032814D1287901280CDC4A
:1055F000D4F814022946826820469047E88840B9CA
:105600003EB92046FFF74EFC03E029462046FFF74F
:105610000BFC04E029462046FFF706FC00BF00BF54
:10562000002070BD7047000001460148704700002F
:105630009831002010B50246C87830B101282CD02E
:10564000022810D0032836D119E00878400032F83B
:10565000100048F68F13184040F400700B785B0080
:1056600022F8130028E00878400032F8100048F6CD
:105670008F1318400B785B0022F813001CE00878A9
:10568000400032F8100048F68F13184040F4C06014
:105690000B785B0022F813000EE00878400032F827
:1056A000100048F68F13184040F480600B785B00C0
:1056B00022F8130000E000BF00BF0878400032F875
:1056C000100048F68F73184048F2800318430B7897
:1056D00018435B0022F81300887A00287DD14878AF
:1056E00098B3888840104400B2F85030087803EB33
:1056F000C00002F5806343F810400878400032F89B
:10570000100000F0400068B10878400032F8100046
:1057100048F68F73184048F2C00318430B785B00BB
:1057200022F813000B785B0032F8133048F6BF7490
:1057300003EA040080F0200040F4004343F08003BB
:105740000C78640022F8143047E1FFE788884010A5
:105750004400B2F85030087803EBC000001D02F599
:10576000806343F81040B2F85040087804EBC00062
:10577000801D1C4604EB40030C693E2C10D90C69BB
:10578000C4F34F100C7C04F01F040CB9441EA0B2EB
:105790004FF6FF7404EA802444F400441C600DE0DA
:1057A0000C69C4F34F000C7C04F001040CB1441CE0
:1057B000A0B24FF6FF7404EA80241C600878400011
:1057C00032F8100000F4804078B10878400032F8D8
:1057D000100048F68F73184000E01BE04CF2800385
:1057E00018430B785B0022F813000B785B0032F84B
:1057F00013304BF68F7403EA040080F4805080F479
:10580000005040F4004343F080030C78640022F819
:105810001430E2E00878400032F8100040F4807064
:1058200048F68F73184048F2800318430B785B00EA
:1058300022F81300C88840104400B2F850300878AD
:1058400003EBC00002F5806343F810400889401064
:105850004400B2F85030087803EBC000001D02F598
:10586000806343F810404878F0BB0878400032F875
:10587000100000F4804068B10878400032F8100051
:1058800048F68F7318404CF2800318430B785B0086
:1058900022F813000878400032F8100000F04000B1
:1058A00068B10878400032F8100048F68F7318404D
:1058B00048F2C00318430B785B0022F81300087805
:1058C000400032F8100048F68F73184048F2C003C9
:1058D00018430B785B0022F813000B785B0032F85A
:1058E00013304BF68F7400E01EE003EA040080F4EE
:1058F000805080F4005040F4004343F080030C7863
:10590000640022F814300B785B0032F8133048F64C
:10591000BF7403EA040040F4004343F080030C78B2
:10592000640022F8143058E00878400032F8100083
:1059300000F4804068B10878400032F8100048F662
:105940008F7318404CF2800318430B785B0022F8E9
:1059500013000878400032F8100000F0400068B1F1
:105960000878400032F8100048F68F73184048F26B
:10597000C00318430B785B0022F81300087840003E
:1059800032F8100048F68F7318404CF28003184329
:105990000B785B0022F813000B785B0032F81330B1
:1059A00048F6BF7403EA040040F4004343F0800368
:1059B0000C78640022F814300B785B0032F8133056
:1059C0004BF68F7403EA040040F4004343F0800375
:1059D0000C78640022F8143000BF002010BD10B510
:1059E0000446002010BD10B50246887A00284DD12B
:1059F000487828B30878400032F8100000F04000E2
:105A000068B10878400032F8100048F68F731840EB
:105A100048F2C00318430B785B0022F813000B78A0
:105A20005B0032F8133048F6BF7403EA040040F418
:105A3000004343F080030C78640022F81430DAE06D
:105A40000878400032F8100000F4804068B108780F
:105A5000400032F8100048F68F7318404CF2800373
:105A600018430B785B0022F813000B785B0032F8C8
:105A700013304BF68F7403EA040040F4004343F004
:105A800080030C78640022F81430B4E048780028D1
:105A900058D10878400032F8100000F4804068B116
:105AA0000878400032F8100048F68F7318404CF226
:105AB000800318430B785B0022F81300087840003D
:105AC00032F8100000F0400068B10878400032F869
:105AD000100048F68F73184048F2C00318430B7843
